{
  "contractName": "HTLCBase",
  "abi": [
    {
      "constant": true,
      "inputs": [],
      "name": "RATIO_PRECISE",
      "outputs": [
        {
          "name": "",
          "type": "uint256"
        }
      ],
      "payable": false,
      "stateMutability": "view",
      "type": "function"
    },
    {
      "constant": true,
      "inputs": [
        {
          "name": "",
          "type": "address"
        },
        {
          "name": "",
          "type": "bytes32"
        }
      ],
      "name": "mapXHashShadow",
      "outputs": [
        {
          "name": "",
          "type": "address"
        }
      ],
      "payable": false,
      "stateMutability": "view",
      "type": "function"
    },
    {
      "constant": false,
      "inputs": [],
      "name": "acceptOwnership",
      "outputs": [],
      "payable": false,
      "stateMutability": "nonpayable",
      "type": "function"
    },
    {
      "constant": true,
      "inputs": [],
      "name": "DEF_LOCKED_TIME",
      "outputs": [
        {
          "name": "",
          "type": "uint256"
        }
      ],
      "payable": false,
      "stateMutability": "view",
      "type": "function"
    },
    {
      "constant": true,
      "inputs": [],
      "name": "owner",
      "outputs": [
        {
          "name": "",
          "type": "address"
        }
      ],
      "payable": false,
      "stateMutability": "view",
      "type": "function"
    },
    {
      "constant": false,
      "inputs": [
        {
          "name": "_newOwner",
          "type": "address"
        }
      ],
      "name": "changeOwner",
      "outputs": [],
      "payable": false,
      "stateMutability": "nonpayable",
      "type": "function"
    },
    {
      "constant": true,
      "inputs": [],
      "name": "lockedTime",
      "outputs": [
        {
          "name": "",
          "type": "uint256"
        }
      ],
      "payable": false,
      "stateMutability": "view",
      "type": "function"
    },
    {
      "constant": true,
      "inputs": [],
      "name": "revokeFeeRatio",
      "outputs": [
        {
          "name": "",
          "type": "uint256"
        }
      ],
      "payable": false,
      "stateMutability": "view",
      "type": "function"
    },
    {
      "constant": true,
      "inputs": [
        {
          "name": "",
          "type": "address"
        },
        {
          "name": "",
          "type": "bytes32"
        }
      ],
      "name": "mapXHashHTLCTxs",
      "outputs": [
        {
          "name": "direction",
          "type": "uint8"
        },
        {
          "name": "source",
          "type": "address"
        },
        {
          "name": "destination",
          "type": "address"
        },
        {
          "name": "value",
          "type": "uint256"
        },
        {
          "name": "status",
          "type": "uint8"
        },
        {
          "name": "lockedTime",
          "type": "uint256"
        },
        {
          "name": "beginLockedTime",
          "type": "uint256"
        }
      ],
      "payable": false,
      "stateMutability": "view",
      "type": "function"
    },
    {
      "constant": true,
      "inputs": [],
      "name": "halted",
      "outputs": [
        {
          "name": "",
          "type": "bool"
        }
      ],
      "payable": false,
      "stateMutability": "view",
      "type": "function"
    },
    {
      "constant": true,
      "inputs": [],
      "name": "DEF_MAX_TIME",
      "outputs": [
        {
          "name": "",
          "type": "uint256"
        }
      ],
      "payable": false,
      "stateMutability": "view",
      "type": "function"
    },
    {
      "constant": true,
      "inputs": [],
      "name": "newOwner",
      "outputs": [
        {
          "name": "",
          "type": "address"
        }
      ],
      "payable": false,
      "stateMutability": "view",
      "type": "function"
    },
    {
      "constant": false,
      "inputs": [
        {
          "name": "halt",
          "type": "bool"
        }
      ],
      "name": "setHalt",
      "outputs": [],
      "payable": false,
      "stateMutability": "nonpayable",
      "type": "function"
    },
    {
      "inputs": [],
      "payable": false,
      "stateMutability": "nonpayable",
      "type": "constructor"
    },
    {
      "payable": true,
      "stateMutability": "payable",
      "type": "fallback"
    },
    {
      "constant": false,
      "inputs": [],
      "name": "kill",
      "outputs": [],
      "payable": false,
      "stateMutability": "nonpayable",
      "type": "function"
    },
    {
      "constant": false,
      "inputs": [
        {
          "name": "time",
          "type": "uint256"
        }
      ],
      "name": "setLockedTime",
      "outputs": [
        {
          "name": "",
          "type": "bool"
        }
      ],
      "payable": false,
      "stateMutability": "nonpayable",
      "type": "function"
    },
    {
      "constant": true,
      "inputs": [
        {
          "name": "tokenOrigAddr",
          "type": "address"
        },
        {
          "name": "xHash",
          "type": "bytes32"
        }
      ],
      "name": "getHTLCLeftLockedTime",
      "outputs": [
        {
          "name": "time",
          "type": "uint256"
        }
      ],
      "payable": false,
      "stateMutability": "view",
      "type": "function"
    },
    {
      "constant": false,
      "inputs": [
        {
          "name": "ratio",
          "type": "uint256"
        }
      ],
      "name": "setRevokeFeeRatio",
      "outputs": [
        {
          "name": "",
          "type": "bool"
        }
      ],
      "payable": false,
      "stateMutability": "nonpayable",
      "type": "function"
    },
    {
      "constant": true,
      "inputs": [
        {
          "name": "tokenOrigAddr",
          "type": "address"
        },
        {
          "name": "xHash",
          "type": "bytes32"
        }
      ],
      "name": "xHashExist",
      "outputs": [
        {
          "name": "exist",
          "type": "bool"
        }
      ],
      "payable": false,
      "stateMutability": "view",
      "type": "function"
    }
  ],
  "bytecode": "0x608060405260018060146101000a81548160ff02191690831515021790555034801561002a57600080fd5b50336000806101000a81548173ffffffffffffffffffffffffffffffffffffffff021916908373ffffffffffffffffffffffffffffffffffffffff1602179055506201fa40600481905550610d31806100846000396000f3006080604052600436106100fc576000357c0100000000000000000000000000000000000000000000000000000000900463ffffffff1680631d57d55c1461010157806341c0e1b51461012c5780635057735d146101435780636afb32d5146101a857806379ba50971461023957806379d90d8f146102505780638da5cb5b1461027b578063a6f9dae1146102d2578063a8b3820514610315578063ad3cc2e514610340578063ad7274021461036b578063b9b8af0b1461046e578063cc062f2f1461049d578063ce49caac146104c8578063d4ee1d901461050d578063df1dcaa914610564578063ece4e217146105a9578063f495438714610612575b600080fd5b34801561010d57600080fd5b50610116610641565b6040518082815260200191505060405180910390f35b34801561013857600080fd5b50610141610647565b005b34801561014f57600080fd5b50610192600480360381019080803573ffffffffffffffffffffffffffffffffffffffff16906020019092919080356000191690602001909291905050506106f7565b6040518082815260200191505060405180910390f35b3480156101b457600080fd5b506101f7600480360381019080803573ffffffffffffffffffffffffffffffffffffffff16906020019092919080356000191690602001909291905050506107f7565b604051808273ffffffffffffffffffffffffffffffffffffffff1673ffffffffffffffffffffffffffffffffffffffff16815260200191505060405180910390f35b34801561024557600080fd5b5061024e610839565b005b34801561025c57600080fd5b506102656108f4565b6040518082815260200191505060405180910390f35b34801561028757600080fd5b506102906108fb565b604051808273ffffffffffffffffffffffffffffffffffffffff1673ffffffffffffffffffffffffffffffffffffffff16815260200191505060405180910390f35b3480156102de57600080fd5b50610313600480360381019080803573ffffffffffffffffffffffffffffffffffffffff169060200190929190505050610920565b005b34801561032157600080fd5b5061032a6109bf565b6040518082815260200191505060405180910390f35b34801561034c57600080fd5b506103556109c5565b6040518082815260200191505060405180910390f35b34801561037757600080fd5b506103ba600480360381019080803573ffffffffffffffffffffffffffffffffffffffff16906020019092919080356000191690602001909291905050506109cb565b604051808860018111156103ca57fe5b60ff1681526020018773ffffffffffffffffffffffffffffffffffffffff1673ffffffffffffffffffffffffffffffffffffffff1681526020018673ffffffffffffffffffffffffffffffffffffffff1673ffffffffffffffffffffffffffffffffffffffff16815260200185815260200184600381111561044857fe5b60ff16815260200183815260200182815260200197505050505050505060405180910390f35b34801561047a57600080fd5b50610483610a74565b604051808215151515815260200191505060405180910390f35b3480156104a957600080fd5b506104b2610a87565b6040518082815260200191505060405180910390f35b3480156104d457600080fd5b506104f360048036038101908080359060200190929190505050610a93565b604051808215151515815260200191505060405180910390f35b34801561051957600080fd5b50610522610b11565b604051808273ffffffffffffffffffffffffffffffffffffffff1673ffffffffffffffffffffffffffffffffffffffff16815260200191505060405180910390f35b34801561057057600080fd5b5061058f60048036038101908080359060200190929190505050610b37565b604051808215151515815260200191505060405180910390f35b3480156105b557600080fd5b506105f8600480360381019080803573ffffffffffffffffffffffffffffffffffffffff1690602001909291908035600019169060200190929190505050610bbf565b604051808215151515815260200191505060405180910390f35b34801561061e57600080fd5b5061063f600480360381019080803515159060200190929190505050610c4b565b005b61271081565b6000809054906101000a900473ffffffffffffffffffffffffffffffffffffffff1673ffffffffffffffffffffffffffffffffffffffff163373ffffffffffffffffffffffffffffffffffffffff161415156106a257600080fd5b600160149054906101000a900460ff1615156106bd57600080fd5b6000809054906101000a900473ffffffffffffffffffffffffffffffffffffffff1673ffffffffffffffffffffffffffffffffffffffff16ff5b600080600260008573ffffffffffffffffffffffffffffffffffffffff1673ffffffffffffffffffffffffffffffffffffffff1681526020019081526020016000206000846000191660001916815260200190815260200160002090506000600381111561076157fe5b8160030160009054906101000a900460ff16600381111561077e57fe5b14156107945767ffffffffffffffff91506107f0565b6107af81600401548260050154610cc390919063ffffffff16565b421015156107c057600091506107f0565b6107ed426107df83600401548460050154610cc390919063ffffffff16565b610ce490919063ffffffff16565b91505b5092915050565b60036020528160005260406000206020528060005260406000206000915091509054906101000a900473ffffffffffffffffffffffffffffffffffffffff1681565b600160009054906101000a900473ffffffffffffffffffffffffffffffffffffffff1673ffffffffffffffffffffffffffffffffffffffff163373ffffffffffffffffffffffffffffffffffffffff1614156108f257600160009054906101000a900473ffffffffffffffffffffffffffffffffffffffff166000806101000a81548173ffffffffffffffffffffffffffffffffffffffff021916908373ffffffffffffffffffffffffffffffffffffffff1602179055505b565b6201fa4081565b6000809054906101000a900473ffffffffffffffffffffffffffffffffffffffff1681565b6000809054906101000a900473ffffffffffffffffffffffffffffffffffffffff1673ffffffffffffffffffffffffffffffffffffffff163373ffffffffffffffffffffffffffffffffffffffff1614151561097b57600080fd5b80600160006101000a81548173ffffffffffffffffffffffffffffffffffffffff021916908373ffffffffffffffffffffffffffffffffffffffff16021790555050565b60045481565b60055481565b6002602052816000526040600020602052806000526040600020600091509150508060000160009054906101000a900460ff16908060000160019054906101000a900473ffffffffffffffffffffffffffffffffffffffff16908060010160009054906101000a900473ffffffffffffffffffffffffffffffffffffffff16908060020154908060030160009054906101000a900460ff16908060040154908060050154905087565b600160149054906101000a900460ff1681565b67ffffffffffffffff81565b60008060009054906101000a900473ffffffffffffffffffffffffffffffffffffffff1673ffffffffffffffffffffffffffffffffffffffff163373ffffffffffffffffffffffffffffffffffffffff16141515610af057600080fd5b6127108211151515610b0157600080fd5b8160058190555060019050919050565b600160009054906101000a900473ffffffffffffffffffffffffffffffffffffffff1681565b60008060009054906101000a900473ffffffffffffffffffffffffffffffffffffffff1673ffffffffffffffffffffffffffffffffffffffff163373ffffffffffffffffffffffffffffffffffffffff16141515610b9457600080fd5b600160149054906101000a900460ff161515610baf57600080fd5b8160048190555060019050919050565b6000806003811115610bcd57fe5b600260008573ffffffffffffffffffffffffffffffffffffffff1673ffffffffffffffffffffffffffffffffffffffff1681526020019081526020016000206000846000191660001916815260200190815260200160002060030160009054906101000a900460ff166003811115610c4157fe5b1415905092915050565b6000809054906101000a900473ffffffffffffffffffffffffffffffffffffffff1673ffffffffffffffffffffffffffffffffffffffff163373ffffffffffffffffffffffffffffffffffffffff16141515610ca657600080fd5b80600160146101000a81548160ff02191690831515021790555050565b6000808284019050838110151515610cda57600080fd5b8091505092915050565b600080838311151515610cf657600080fd5b828403905080915050929150505600a165627a7a723058204d1ed4b48577e213373be712ddbf1c379a0ba5bd7389eda309794b2266af953a0029",
  "source": "/*\n\n  Copyright 2018 Wanchain Foundation.\n\n  Licensed under the Apache License, Version 2.0 (the \"License\");\n  you may not use this file except in compliance with the License.\n  You may obtain a copy of the License at\n\n  http://www.apache.org/licenses/LICENSE-2.0\n\n  Unless required by applicable law or agreed to in writing, software\n  distributed under the License is distributed on an \"AS IS\" BASIS,\n  WITHOUT WARRANTIES OR CONDITIONS OF ANY KIND, either express or implied.\n  See the License for the specific language governing permissions and\n  limitations under the License.\n\n*/\n\n//                            _           _           _            \n//  __      ____ _ _ __   ___| |__   __ _(_)_ __   __| | _____   __\n//  \\ \\ /\\ / / _` | '_ \\ / __| '_ \\ / _` | | '_ \\@/ _` |/ _ \\ \\ / /\n//   \\ V  V / (_| | | | | (__| | | | (_| | | | | | (_| |  __/\\ V / \n//    \\_/\\_/ \\__,_|_| |_|\\___|_| |_|\\__,_|_|_| |_|\\__,_|\\___| \\_/  \n//    \n//  Code style according to: https://github.com/wanchain/wanchain-token/blob/master/style-guide.rst\n\npragma solidity ^0.4.24;\n\nimport \"./SafeMath.sol\";\nimport './Halt.sol';\n\n\ncontract HTLCBase is Halt {\n    using SafeMath for uint;\n\n    /**\n    *\n    * ENUMS\n    *\n    */\n\n    /// @notice tx info status\n    /// @notice uninitialized,locked,refunded,revoked\n    enum TxStatus {None, Locked, Refunded, Revoked}\n\n    /// @notice tx direction\n    enum TxDirection {Inbound, Outbound}\n\n    /**\n    *\n    * STRUCTURES\n    *\n    */\n\n    /// @notice HTLC(Hashed TimeLock Contract) tx info\n    struct HTLCTx {\n        TxDirection direction;  // HTLC transfer direction\n        address  source;        // HTLC transaction source address\n        address  destination;   // HTLC transaction destination address\n        uint value;             // HTLC transfer value of token\n        TxStatus status;        // HTLC transaction status\n        uint lockedTime;        // HTLC transaction locked time\n        uint beginLockedTime;   // HTLC transaction begin locked time\n    }\n\n    /**\n    *\n    * VARIABLES\n    *\n    */\n\n    /// @notice mapping of hash(x) to HTLCTx\n    mapping(address => mapping(bytes32 => HTLCTx)) public mapXHashHTLCTxs;\n\n    /// @notice mapping of hash(x) to shadow address\n    mapping(address => mapping(bytes32 => address)) public mapXHashShadow;\n\n    /// @notice atomic tx needed locked time(in seconds)\n    uint public lockedTime;\n    \n    /// @notice default locked time(in seconds)\n    uint public constant DEF_LOCKED_TIME = uint(3600*36);\n    \n    /// @notice default max UTC time\n    uint public constant DEF_MAX_TIME = uint(0xffffffffffffffff);\n\n    /// @notice the fee ratio of revoking operation\n    uint public revokeFeeRatio;\n\n    /// @notice revoking fee ratio precise\n    /// @notice for example: revokeFeeRatio is 3, meaning that the revoking fee ratio is 3/10000\n    uint public constant RATIO_PRECISE = 10000;\n\n    /**\n    *\n    * MANIPULATIONS\n    *\n    */\n    \n    /// Constructor\n    function HTLCBase()\n        public\n    {\n        lockedTime = DEF_LOCKED_TIME;\n    }\n\n    /// @notice default transfer to contract\n    function () \n        public\n        payable \n    {\n        revert();\n    }\n\n    /// @notice destruct SC and transfer balance to owner\n    function kill()\n        public\n        onlyOwner\n        isHalted\n    {\n        selfdestruct(owner);\n    }\n\n    /// @notice set locked time(only owner has the right)\n    /// @param  time the locked time，in seconds\n    function setLockedTime(uint time)\n        public\n        onlyOwner\n        isHalted\n        returns (bool)\n    {\n        lockedTime = time;\n        return true;\n    }\n\n    /// @notice                 get left locked time of the HTLC transaction\n    /// @param  tokenOrigAddr   address of ERC20 token \n    /// @param  xHash           hash of HTLC random number\n    /// @return time            return left locked time, in seconds. return uint(0xffffffffffffffff) if xHash does not exist\n    function getHTLCLeftLockedTime(address tokenOrigAddr, bytes32 xHash) \n        public \n        view \n        returns(uint time) \n    {\n        HTLCTx storage info = mapXHashHTLCTxs[tokenOrigAddr][xHash];\n        if (info.status == TxStatus.None) {\n            return DEF_MAX_TIME;\n        }\n\n        if (now >=  info.beginLockedTime.add(info.lockedTime)) return 0;\n        return  info.beginLockedTime.add(info.lockedTime).sub(now);\n    }\n    \n    /// @notice     set revoke fee ratio\n    function setRevokeFeeRatio(uint ratio)\n        public\n        onlyOwner \n        returns (bool)\n    {\n        require(ratio <= RATIO_PRECISE);\n        revokeFeeRatio = ratio;\n        return true;\n    }\n\n    /// @notice                 check HTLC transaction exist or not\n    /// @param  tokenOrigAddr   address of ERC20 token \n    /// @param  xHash           hash of HTLC random number\n    /// @return exist           return true if exist\n    function xHashExist(address tokenOrigAddr, bytes32 xHash) \n        public \n        view \n        returns(bool exist) \n    {\n        return mapXHashHTLCTxs[tokenOrigAddr][xHash].status != TxStatus.None;\n    }\n    \n    /// @notice                 add HTLC transaction info\n    /// @param  tokenOrigAddr   address of ERC20 token \n    /// @param  direction       HTLC transaction direction\n    /// @param  src             HTLC transaction source address\n    /// @param  des             HTLC transaction destination address\n    /// @param  xHash           hash of HTLC random number\n    /// @param  value           HTLC transfer value of token\n    /// @param  isFirstHand     is HTLC first hand trade?\n    /// @param  shadow          shadow address. used for receipt coins on opposite block chain\n    function addHTLCTx(address tokenOrigAddr, TxDirection direction, address src, address des, bytes32 xHash, uint value, bool isFirstHand, address shadow)\n        internal\n    {\n        require(value != 0);\n        require(!xHashExist(tokenOrigAddr, xHash));\n        \n        mapXHashHTLCTxs[tokenOrigAddr][xHash] = HTLCTx(direction, src, des, value, TxStatus.Locked, isFirstHand ? lockedTime.mul(2) : lockedTime, now);\n        if (isFirstHand) mapXHashShadow[tokenOrigAddr][xHash] = shadow;\n    }\n    \n    /// @notice                 refund coins from HTLC transaction\n    /// @param  tokenOrigAddr   address of ERC20 token \n    /// @param  x               random number of HTLC\n    /// @param  direction       HTLC transaction direction\n    /// @return xHash           return hash of HTLC random number\n    function redeemHTLCTx(address tokenOrigAddr, bytes32 x, TxDirection direction)\n        internal\n        returns(bytes32 xHash)\n    {\n        xHash = keccak256(x);\n        \n        HTLCTx storage info = mapXHashHTLCTxs[tokenOrigAddr][xHash];\n        require(info.status == TxStatus.Locked);\n        require(info.direction == direction);\n        require(info.destination == msg.sender);\n        require(now < info.beginLockedTime.add(info.lockedTime));\n        \n        info.status = TxStatus.Refunded;\n        return (xHash);\n    }\n    \n    /// @notice                 revoke HTLC transaction\n    /// @param  tokenOrigAddr   address of ERC20 token \n    /// @param  xHash           hash of HTLC random number\n    /// @param  direction       HTLC transaction direction\n    /// @param  loose           whether give counterparty revoking right\n    function revokeHTLCTx(address tokenOrigAddr, bytes32 xHash, TxDirection direction, bool loose)\n        internal\n    {\n        HTLCTx storage info = mapXHashHTLCTxs[tokenOrigAddr][xHash];\n        require(info.status == TxStatus.Locked);\n        require(info.direction == direction);\n        require(now >= info.beginLockedTime.add(info.lockedTime));\n        if (loose) {\n            require((info.source == msg.sender) || (info.destination == msg.sender));\n        } else {\n            require(info.source == msg.sender);\n        }\n\n        info.status = TxStatus.Revoked;\n    }\n    \n}\n",
  "sourcePath": "/home/lzhang/wanchain/wanchain-crosschain-contracts/contracts/HTLCBase.sol",
  "compiler": {
    "name": "solc",
    "version": "0.4.24+commit.e67f0147.Emscripten.clang"
  },
  "schemaVersion": "3.0.19",
  "updatedAt": "2019-11-24T07:21:19.994Z",
  "devdoc": {
    "methods": {
      "changeOwner(address)": {
        "params": {
          "_newOwner": "The address of the new owner. 0x0 can be used to create  an unowned neutral vault, however that cannot be undone"
        }
      },
      "getHTLCLeftLockedTime(address,bytes32)": {
        "params": {
          "tokenOrigAddr": "address of ERC20 token ",
          "xHash": "hash of HTLC random number"
        },
        "return": "time            return left locked time, in seconds. return uint(0xffffffffffffffff) if xHash does not exist"
      },
      "setLockedTime(uint256)": {
        "params": {
          "time": "the locked time，in seconds"
        }
      },
      "xHashExist(address,bytes32)": {
        "params": {
          "tokenOrigAddr": "address of ERC20 token ",
          "xHash": "hash of HTLC random number"
        },
        "return": "exist           return true if exist"
      }
    }
  },
  "userdoc": {
    "methods": {
      "changeOwner(address)": {
        "notice": "`owner` can step down and assign some other address to this role"
      },
      "getHTLCLeftLockedTime(address,bytes32)": {
        "notice": "get left locked time of the HTLC transaction"
      },
      "kill()": {
        "notice": "destruct SC and transfer balance to owner"
      },
      "setHalt(bool)": {
        "notice": "function Emergency situation that requires contribution period to stop or not."
      },
      "setLockedTime(uint256)": {
        "notice": "set locked time(only owner has the right)"
      },
      "setRevokeFeeRatio(uint256)": {
        "notice": "set revoke fee ratio"
      },
      "xHashExist(address,bytes32)": {
        "notice": "check HTLC transaction exist or not"
      }
    }
  }
}