{
  "contractName": "HTLCETH",
  "abi": [
    {
      "constant": true,
      "inputs": [],
      "name": "RATIO_PRECISE",
      "outputs": [
        {
          "name": "",
          "type": "uint256"
        }
      ],
      "payable": false,
      "stateMutability": "view",
      "type": "function"
    },
    {
      "constant": false,
      "inputs": [],
      "name": "kill",
      "outputs": [],
      "payable": false,
      "stateMutability": "nonpayable",
      "type": "function"
    },
    {
      "constant": true,
      "inputs": [
        {
          "name": "tokenOrigAddr",
          "type": "address"
        },
        {
          "name": "xHash",
          "type": "bytes32"
        }
      ],
      "name": "getHTLCLeftLockedTime",
      "outputs": [
        {
          "name": "time",
          "type": "uint256"
        }
      ],
      "payable": false,
      "stateMutability": "view",
      "type": "function"
    },
    {
      "constant": true,
      "inputs": [
        {
          "name": "",
          "type": "address"
        },
        {
          "name": "",
          "type": "bytes32"
        }
      ],
      "name": "mapXHashShadow",
      "outputs": [
        {
          "name": "",
          "type": "address"
        }
      ],
      "payable": false,
      "stateMutability": "view",
      "type": "function"
    },
    {
      "constant": false,
      "inputs": [],
      "name": "acceptOwnership",
      "outputs": [],
      "payable": false,
      "stateMutability": "nonpayable",
      "type": "function"
    },
    {
      "constant": true,
      "inputs": [],
      "name": "DEF_LOCKED_TIME",
      "outputs": [
        {
          "name": "",
          "type": "uint256"
        }
      ],
      "payable": false,
      "stateMutability": "view",
      "type": "function"
    },
    {
      "constant": true,
      "inputs": [],
      "name": "owner",
      "outputs": [
        {
          "name": "",
          "type": "address"
        }
      ],
      "payable": false,
      "stateMutability": "view",
      "type": "function"
    },
    {
      "constant": false,
      "inputs": [
        {
          "name": "_newOwner",
          "type": "address"
        }
      ],
      "name": "changeOwner",
      "outputs": [],
      "payable": false,
      "stateMutability": "nonpayable",
      "type": "function"
    },
    {
      "constant": true,
      "inputs": [],
      "name": "lockedTime",
      "outputs": [
        {
          "name": "",
          "type": "uint256"
        }
      ],
      "payable": false,
      "stateMutability": "view",
      "type": "function"
    },
    {
      "constant": true,
      "inputs": [],
      "name": "revokeFeeRatio",
      "outputs": [
        {
          "name": "",
          "type": "uint256"
        }
      ],
      "payable": false,
      "stateMutability": "view",
      "type": "function"
    },
    {
      "constant": true,
      "inputs": [
        {
          "name": "",
          "type": "address"
        },
        {
          "name": "",
          "type": "bytes32"
        }
      ],
      "name": "mapXHashHTLCTxs",
      "outputs": [
        {
          "name": "direction",
          "type": "uint8"
        },
        {
          "name": "source",
          "type": "address"
        },
        {
          "name": "destination",
          "type": "address"
        },
        {
          "name": "value",
          "type": "uint256"
        },
        {
          "name": "status",
          "type": "uint8"
        },
        {
          "name": "lockedTime",
          "type": "uint256"
        },
        {
          "name": "beginLockedTime",
          "type": "uint256"
        }
      ],
      "payable": false,
      "stateMutability": "view",
      "type": "function"
    },
    {
      "constant": true,
      "inputs": [],
      "name": "halted",
      "outputs": [
        {
          "name": "",
          "type": "bool"
        }
      ],
      "payable": false,
      "stateMutability": "view",
      "type": "function"
    },
    {
      "constant": true,
      "inputs": [],
      "name": "DEF_MAX_TIME",
      "outputs": [
        {
          "name": "",
          "type": "uint256"
        }
      ],
      "payable": false,
      "stateMutability": "view",
      "type": "function"
    },
    {
      "constant": false,
      "inputs": [
        {
          "name": "ratio",
          "type": "uint256"
        }
      ],
      "name": "setRevokeFeeRatio",
      "outputs": [
        {
          "name": "",
          "type": "bool"
        }
      ],
      "payable": false,
      "stateMutability": "nonpayable",
      "type": "function"
    },
    {
      "constant": true,
      "inputs": [],
      "name": "newOwner",
      "outputs": [
        {
          "name": "",
          "type": "address"
        }
      ],
      "payable": false,
      "stateMutability": "view",
      "type": "function"
    },
    {
      "constant": false,
      "inputs": [
        {
          "name": "time",
          "type": "uint256"
        }
      ],
      "name": "setLockedTime",
      "outputs": [
        {
          "name": "",
          "type": "bool"
        }
      ],
      "payable": false,
      "stateMutability": "nonpayable",
      "type": "function"
    },
    {
      "constant": true,
      "inputs": [
        {
          "name": "tokenOrigAddr",
          "type": "address"
        },
        {
          "name": "xHash",
          "type": "bytes32"
        }
      ],
      "name": "xHashExist",
      "outputs": [
        {
          "name": "exist",
          "type": "bool"
        }
      ],
      "payable": false,
      "stateMutability": "view",
      "type": "function"
    },
    {
      "constant": false,
      "inputs": [
        {
          "name": "halt",
          "type": "bool"
        }
      ],
      "name": "setHalt",
      "outputs": [],
      "payable": false,
      "stateMutability": "nonpayable",
      "type": "function"
    },
    {
      "payable": true,
      "stateMutability": "payable",
      "type": "fallback"
    },
    {
      "anonymous": false,
      "inputs": [
        {
          "indexed": true,
          "name": "user",
          "type": "address"
        },
        {
          "indexed": true,
          "name": "storemanGroup",
          "type": "address"
        },
        {
          "indexed": true,
          "name": "xHash",
          "type": "bytes32"
        },
        {
          "indexed": false,
          "name": "value",
          "type": "uint256"
        },
        {
          "indexed": false,
          "name": "wanAddr",
          "type": "address"
        },
        {
          "indexed": false,
          "name": "tokenOrigAddr",
          "type": "address"
        }
      ],
      "name": "InboundLockLogger",
      "type": "event"
    },
    {
      "anonymous": false,
      "inputs": [
        {
          "indexed": true,
          "name": "storemanGroup",
          "type": "address"
        },
        {
          "indexed": true,
          "name": "user",
          "type": "address"
        },
        {
          "indexed": true,
          "name": "xHash",
          "type": "bytes32"
        },
        {
          "indexed": false,
          "name": "x",
          "type": "bytes32"
        },
        {
          "indexed": false,
          "name": "tokenOrigAddr",
          "type": "address"
        }
      ],
      "name": "InboundRedeemLogger",
      "type": "event"
    },
    {
      "anonymous": false,
      "inputs": [
        {
          "indexed": true,
          "name": "user",
          "type": "address"
        },
        {
          "indexed": true,
          "name": "xHash",
          "type": "bytes32"
        },
        {
          "indexed": true,
          "name": "tokenOrigAddr",
          "type": "address"
        }
      ],
      "name": "InboundRevokeLogger",
      "type": "event"
    },
    {
      "anonymous": false,
      "inputs": [
        {
          "indexed": true,
          "name": "storemanGroup",
          "type": "address"
        },
        {
          "indexed": true,
          "name": "user",
          "type": "address"
        },
        {
          "indexed": true,
          "name": "xHash",
          "type": "bytes32"
        },
        {
          "indexed": false,
          "name": "value",
          "type": "uint256"
        },
        {
          "indexed": false,
          "name": "tokenOrigAddr",
          "type": "address"
        }
      ],
      "name": "OutboundLockLogger",
      "type": "event"
    },
    {
      "anonymous": false,
      "inputs": [
        {
          "indexed": true,
          "name": "user",
          "type": "address"
        },
        {
          "indexed": true,
          "name": "storemanGroup",
          "type": "address"
        },
        {
          "indexed": true,
          "name": "xHash",
          "type": "bytes32"
        },
        {
          "indexed": false,
          "name": "x",
          "type": "bytes32"
        },
        {
          "indexed": false,
          "name": "tokenOrigAddr",
          "type": "address"
        }
      ],
      "name": "OutboundRedeemLogger",
      "type": "event"
    },
    {
      "anonymous": false,
      "inputs": [
        {
          "indexed": true,
          "name": "storemanGroup",
          "type": "address"
        },
        {
          "indexed": true,
          "name": "xHash",
          "type": "bytes32"
        },
        {
          "indexed": true,
          "name": "tokenOrigAddr",
          "type": "address"
        }
      ],
      "name": "OutboundRevokeLogger",
      "type": "event"
    },
    {
      "constant": false,
      "inputs": [
        {
          "name": "tokenOrigAddr",
          "type": "address"
        },
        {
          "name": "xHash",
          "type": "bytes32"
        },
        {
          "name": "storemanGroup",
          "type": "address"
        },
        {
          "name": "wanAddr",
          "type": "address"
        },
        {
          "name": "value",
          "type": "uint256"
        }
      ],
      "name": "inboundLock",
      "outputs": [
        {
          "name": "",
          "type": "bool"
        }
      ],
      "payable": false,
      "stateMutability": "nonpayable",
      "type": "function"
    },
    {
      "constant": false,
      "inputs": [
        {
          "name": "tokenOrigAddr",
          "type": "address"
        },
        {
          "name": "x",
          "type": "bytes32"
        }
      ],
      "name": "inboundRedeem",
      "outputs": [
        {
          "name": "",
          "type": "bool"
        }
      ],
      "payable": false,
      "stateMutability": "nonpayable",
      "type": "function"
    },
    {
      "constant": false,
      "inputs": [
        {
          "name": "tokenOrigAddr",
          "type": "address"
        },
        {
          "name": "xHash",
          "type": "bytes32"
        }
      ],
      "name": "inboundRevoke",
      "outputs": [
        {
          "name": "",
          "type": "bool"
        }
      ],
      "payable": false,
      "stateMutability": "nonpayable",
      "type": "function"
    },
    {
      "constant": false,
      "inputs": [
        {
          "name": "tokenOrigAddr",
          "type": "address"
        },
        {
          "name": "xHash",
          "type": "bytes32"
        },
        {
          "name": "user",
          "type": "address"
        },
        {
          "name": "value",
          "type": "uint256"
        }
      ],
      "name": "outboundLock",
      "outputs": [
        {
          "name": "",
          "type": "bool"
        }
      ],
      "payable": false,
      "stateMutability": "nonpayable",
      "type": "function"
    },
    {
      "constant": false,
      "inputs": [
        {
          "name": "tokenOrigAddr",
          "type": "address"
        },
        {
          "name": "x",
          "type": "bytes32"
        }
      ],
      "name": "outboundRedeem",
      "outputs": [
        {
          "name": "",
          "type": "bool"
        }
      ],
      "payable": false,
      "stateMutability": "nonpayable",
      "type": "function"
    },
    {
      "constant": false,
      "inputs": [
        {
          "name": "tokenOrigAddr",
          "type": "address"
        },
        {
          "name": "xHash",
          "type": "bytes32"
        }
      ],
      "name": "outboundRevoke",
      "outputs": [
        {
          "name": "",
          "type": "bool"
        }
      ],
      "payable": false,
      "stateMutability": "nonpayable",
      "type": "function"
    }
  ],
  "bytecode": "0x608060405260018060146101000a81548160ff021916908315150217905550336000806101000a81548173ffffffffffffffffffffffffffffffffffffffff021916908373ffffffffffffffffffffffffffffffffffffffff1602179055506201fa40600481905550612650806100776000396000f30060806040526004361061013e576000357c0100000000000000000000000000000000000000000000000000000000900463ffffffff1680631d57d55c146101435780632d3acdbb1461016e5780632f48fc61146101d757806341c0e1b51461026a5780635057735d14610281578063507dc32b146102e65780636afb32d51461034f57806379ba5097146103e057806379d90d8f146103f75780638da5cb5b1461042257806394d5360114610479578063a6f9dae1146104e2578063a8b3820514610525578063ad3cc2e514610550578063ad7274021461057b578063adb58c0c1461067e578063b5c98fc6146106e7578063b9b8af0b1461079a578063cc062f2f146107c9578063ce49caac146107f4578063d4ee1d9014610839578063df1dcaa914610890578063ece4e217146108d5578063f49543871461093e575b600080fd5b34801561014f57600080fd5b5061015861096d565b6040518082815260200191505060405180910390f35b34801561017a57600080fd5b506101bd600480360381019080803573ffffffffffffffffffffffffffffffffffffffff1690602001909291908035600019169060200190929190505050610973565b604051808215151515815260200191505060405180910390f35b3480156101e357600080fd5b50610250600480360381019080803573ffffffffffffffffffffffffffffffffffffffff1690602001909291908035600019169060200190929190803573ffffffffffffffffffffffffffffffffffffffff16906020019092919080359060200190929190505050610b5c565b604051808215151515815260200191505060405180910390f35b34801561027657600080fd5b5061027f610c4d565b005b34801561028d57600080fd5b506102d0600480360381019080803573ffffffffffffffffffffffffffffffffffffffff1690602001909291908035600019169060200190929190505050610cfd565b6040518082815260200191505060405180910390f35b3480156102f257600080fd5b50610335600480360381019080803573ffffffffffffffffffffffffffffffffffffffff1690602001909291908035600019169060200190929190505050610dfd565b604051808215151515815260200191505060405180910390f35b34801561035b57600080fd5b5061039e600480360381019080803573ffffffffffffffffffffffffffffffffffffffff1690602001909291908035600019169060200190929190505050610f50565b604051808273ffffffffffffffffffffffffffffffffffffffff1673ffffffffffffffffffffffffffffffffffffffff16815260200191505060405180910390f35b3480156103ec57600080fd5b506103f5610f92565b005b34801561040357600080fd5b5061040c61104d565b6040518082815260200191505060405180910390f35b34801561042e57600080fd5b50610437611054565b604051808273ffffffffffffffffffffffffffffffffffffffff1673ffffffffffffffffffffffffffffffffffffffff16815260200191505060405180910390f35b34801561048557600080fd5b506104c8600480360381019080803573ffffffffffffffffffffffffffffffffffffffff1690602001909291908035600019169060200190929190505050611079565b604051808215151515815260200191505060405180910390f35b3480156104ee57600080fd5b50610523600480360381019080803573ffffffffffffffffffffffffffffffffffffffff16906020019092919050505061123a565b005b34801561053157600080fd5b5061053a6112d9565b6040518082815260200191505060405180910390f35b34801561055c57600080fd5b506105656112df565b6040518082815260200191505060405180910390f35b34801561058757600080fd5b506105ca600480360381019080803573ffffffffffffffffffffffffffffffffffffffff16906020019092919080356000191690602001909291905050506112e5565b604051808860018111156105da57fe5b60ff1681526020018773ffffffffffffffffffffffffffffffffffffffff1673ffffffffffffffffffffffffffffffffffffffff1681526020018673ffffffffffffffffffffffffffffffffffffffff1673ffffffffffffffffffffffffffffffffffffffff16815260200185815260200184600381111561065857fe5b60ff16815260200183815260200182815260200197505050505050505060405180910390f35b34801561068a57600080fd5b506106cd600480360381019080803573ffffffffffffffffffffffffffffffffffffffff169060200190929190803560001916906020019092919050505061138e565b604051808215151515815260200191505060405180910390f35b3480156106f357600080fd5b50610780600480360381019080803573ffffffffffffffffffffffffffffffffffffffff1690602001909291908035600019169060200190929190803573ffffffffffffffffffffffffffffffffffffffff169060200190929190803573ffffffffffffffffffffffffffffffffffffffff1690602001909291908035906020019092919050505061154f565b604051808215151515815260200191505060405180910390f35b3480156107a657600080fd5b506107af611675565b604051808215151515815260200191505060405180910390f35b3480156107d557600080fd5b506107de611688565b6040518082815260200191505060405180910390f35b34801561080057600080fd5b5061081f60048036038101908080359060200190929190505050611694565b604051808215151515815260200191505060405180910390f35b34801561084557600080fd5b5061084e611712565b604051808273ffffffffffffffffffffffffffffffffffffffff1673ffffffffffffffffffffffffffffffffffffffff16815260200191505060405180910390f35b34801561089c57600080fd5b506108bb60048036038101908080359060200190929190505050611738565b604051808215151515815260200191505060405180910390f35b3480156108e157600080fd5b50610924600480360381019080803573ffffffffffffffffffffffffffffffffffffffff16906020019092919080356000191690602001909291905050506117c0565b604051808215151515815260200191505060405180910390f35b34801561094a57600080fd5b5061096b60048036038101908080351515906020019092919050505061184c565b005b61271081565b600080600080600160149054906101000a900460ff1615151561099557600080fd5b6109a286866000806118c4565b600260008773ffffffffffffffffffffffffffffffffffffffff1673ffffffffffffffffffffffffffffffffffffffff168152602001908152602001600020600086600019166000191681526020019081526020016000209250610a29612710610a1b6005548660020154611b0390919063ffffffff16565b611b4190919063ffffffff16565b9150610a42828460020154611b6b90919063ffffffff16565b90506000811115610a8857610a7c868460000160019054906101000a900473ffffffffffffffffffffffffffffffffffffffff1683611b8c565b1515610a8757600080fd5b5b6000821115610acc57610ac0868460010160009054906101000a900473ffffffffffffffffffffffffffffffffffffffff1684611b8c565b1515610acb57600080fd5b5b8573ffffffffffffffffffffffffffffffffffffffff1685600019168460000160019054906101000a900473ffffffffffffffffffffffffffffffffffffffff1673ffffffffffffffffffffffffffffffffffffffff167ff4d51d8c04ad099991f03b1caef8531e845d6085612bcd4e86ff71789510b5c860405160405180910390a46001935050505092915050565b6000600160149054906101000a900460ff16151515610b7a57600080fd5b610b8685333085611e6a565b1515610b9157600080fd5b610ba3856001338688876000806121a3565b83600019168373ffffffffffffffffffffffffffffffffffffffff163373ffffffffffffffffffffffffffffffffffffffff167fb9d34e3f1025e09843dd0351539ae19e826fe56b86d10c8936b6fcee221bdfdb8589604051808381526020018273ffffffffffffffffffffffffffffffffffffffff1673ffffffffffffffffffffffffffffffffffffffff1681526020019250505060405180910390a460019050949350505050565b6000809054906101000a900473ffffffffffffffffffffffffffffffffffffffff1673ffffffffffffffffffffffffffffffffffffffff163373ffffffffffffffffffffffffffffffffffffffff16141515610ca857600080fd5b600160149054906101000a900460ff161515610cc357600080fd5b6000809054906101000a900473ffffffffffffffffffffffffffffffffffffffff1673ffffffffffffffffffffffffffffffffffffffff16ff5b600080600260008573ffffffffffffffffffffffffffffffffffffffff1673ffffffffffffffffffffffffffffffffffffffff16815260200190815260200160002060008460001916600019168152602001908152602001600020905060006003811115610d6757fe5b8160030160009054906101000a900460ff166003811115610d8457fe5b1415610d9a5767ffffffffffffffff9150610df6565b610db58160040154826005015461246490919063ffffffff16565b42101515610dc65760009150610df6565b610df342610de58360040154846005015461246490919063ffffffff16565b611b6b90919063ffffffff16565b91505b5092915050565b600080600160149054906101000a900460ff16151515610e1c57600080fd5b610e2a8484600160006118c4565b600260008573ffffffffffffffffffffffffffffffffffffffff1673ffffffffffffffffffffffffffffffffffffffff168152602001908152602001600020600084600019166000191681526020019081526020016000209050610eb7848260000160019054906101000a900473ffffffffffffffffffffffffffffffffffffffff168360020154611b8c565b1515610ec257600080fd5b8373ffffffffffffffffffffffffffffffffffffffff1683600019168260000160019054906101000a900473ffffffffffffffffffffffffffffffffffffffff1673ffffffffffffffffffffffffffffffffffffffff167fe7ebd8ab7c92ce6cb5b867e57cff88548c6719d07146d1e9e45c4cee80b29aa760405160405180910390a4600191505092915050565b60036020528160005260406000206020528060005260406000206000915091509054906101000a900473ffffffffffffffffffffffffffffffffffffffff1681565b600160009054906101000a900473ffffffffffffffffffffffffffffffffffffffff1673ffffffffffffffffffffffffffffffffffffffff163373ffffffffffffffffffffffffffffffffffffffff16141561104b57600160009054906101000a900473ffffffffffffffffffffffffffffffffffffffff166000806101000a81548173ffffffffffffffffffffffffffffffffffffffff021916908373ffffffffffffffffffffffffffffffffffffffff1602179055505b565b6201fa4081565b6000809054906101000a900473ffffffffffffffffffffffffffffffffffffffff1681565b6000806000600160149054906101000a900460ff1615151561109a57600080fd5b6110a685856000612485565b9150600260008673ffffffffffffffffffffffffffffffffffffffff1673ffffffffffffffffffffffffffffffffffffffff168152602001908152602001600020600083600019166000191681526020019081526020016000209050611135858260010160009054906101000a900473ffffffffffffffffffffffffffffffffffffffff168360020154611b8c565b151561114057600080fd5b81600019168160000160019054906101000a900473ffffffffffffffffffffffffffffffffffffffff1673ffffffffffffffffffffffffffffffffffffffff168260010160009054906101000a900473ffffffffffffffffffffffffffffffffffffffff1673ffffffffffffffffffffffffffffffffffffffff167f28eb504cc9ab2ab5dc84b81d8b61cb8960063cd5f9d62a938d111ba6e25ac7fe87896040518083600019166000191681526020018273ffffffffffffffffffffffffffffffffffffffff1673ffffffffffffffffffffffffffffffffffffffff1681526020019250505060405180910390a460019250505092915050565b6000809054906101000a900473ffffffffffffffffffffffffffffffffffffffff1673ffffffffffffffffffffffffffffffffffffffff163373ffffffffffffffffffffffffffffffffffffffff1614151561129557600080fd5b80600160006101000a81548173ffffffffffffffffffffffffffffffffffffffff021916908373ffffffffffffffffffffffffffffffffffffffff16021790555050565b60045481565b60055481565b6002602052816000526040600020602052806000526040600020600091509150508060000160009054906101000a900460ff16908060000160019054906101000a900473ffffffffffffffffffffffffffffffffffffffff16908060010160009054906101000a900473ffffffffffffffffffffffffffffffffffffffff16908060020154908060030160009054906101000a900460ff16908060040154908060050154905087565b6000806000600160149054906101000a900460ff161515156113af57600080fd5b6113bb85856001612485565b9150600260008673ffffffffffffffffffffffffffffffffffffffff1673ffffffffffffffffffffffffffffffffffffffff16815260200190815260200160002060008360001916600019168152602001908152602001600020905061144a858260010160009054906101000a900473ffffffffffffffffffffffffffffffffffffffff168360020154611b8c565b151561145557600080fd5b81600019168160000160019054906101000a900473ffffffffffffffffffffffffffffffffffffffff1673ffffffffffffffffffffffffffffffffffffffff168260010160009054906101000a900473ffffffffffffffffffffffffffffffffffffffff1673ffffffffffffffffffffffffffffffffffffffff167f740c03c11094d46b0b5f812f10286c65ed20e6ca4b746d5653a964059b7f4dcb87896040518083600019166000191681526020018273ffffffffffffffffffffffffffffffffffffffff1673ffffffffffffffffffffffffffffffffffffffff1681526020019250505060405180910390a460019250505092915050565b6000600160149054906101000a900460ff1615151561156d57600080fd5b61157986333085611e6a565b151561158457600080fd5b6115968660003387898760018a6121a3565b84600019168473ffffffffffffffffffffffffffffffffffffffff163373ffffffffffffffffffffffffffffffffffffffff167fa5c7f9318dedb570b8f7f86c6569ee9f5eace97a838efdc0a6f289e0b7e52a0585878b604051808481526020018373ffffffffffffffffffffffffffffffffffffffff1673ffffffffffffffffffffffffffffffffffffffff1681526020018273ffffffffffffffffffffffffffffffffffffffff1673ffffffffffffffffffffffffffffffffffffffff168152602001935050505060405180910390a46001905095945050505050565b600160149054906101000a900460ff1681565b67ffffffffffffffff81565b60008060009054906101000a900473ffffffffffffffffffffffffffffffffffffffff1673ffffffffffffffffffffffffffffffffffffffff163373ffffffffffffffffffffffffffffffffffffffff161415156116f157600080fd5b612710821115151561170257600080fd5b8160058190555060019050919050565b600160009054906101000a900473ffffffffffffffffffffffffffffffffffffffff1681565b60008060009054906101000a900473ffffffffffffffffffffffffffffffffffffffff1673ffffffffffffffffffffffffffffffffffffffff163373ffffffffffffffffffffffffffffffffffffffff1614151561179557600080fd5b600160149054906101000a900460ff1615156117b057600080fd5b8160048190555060019050919050565b60008060038111156117ce57fe5b600260008573ffffffffffffffffffffffffffffffffffffffff1673ffffffffffffffffffffffffffffffffffffffff1681526020019081526020016000206000846000191660001916815260200190815260200160002060030160009054906101000a900460ff16600381111561184257fe5b1415905092915050565b6000809054906101000a900473ffffffffffffffffffffffffffffffffffffffff1673ffffffffffffffffffffffffffffffffffffffff163373ffffffffffffffffffffffffffffffffffffffff161415156118a757600080fd5b80600160146101000a81548160ff02191690831515021790555050565b6000600260008673ffffffffffffffffffffffffffffffffffffffff1673ffffffffffffffffffffffffffffffffffffffff1681526020019081526020016000206000856000191660001916815260200190815260200160002090506001600381111561192d57fe5b8160030160009054906101000a900460ff16600381111561194a57fe5b14151561195657600080fd5b82600181111561196257fe5b8160000160009054906101000a900460ff16600181111561197f57fe5b14151561198b57600080fd5b6119a68160040154826005015461246490919063ffffffff16565b42101515156119b457600080fd5b8115611a77573373ffffffffffffffffffffffffffffffffffffffff168160000160019054906101000a900473ffffffffffffffffffffffffffffffffffffffff1673ffffffffffffffffffffffffffffffffffffffff161480611a6757503373ffffffffffffffffffffffffffffffffffffffff168160010160009054906101000a900473ffffffffffffffffffffffffffffffffffffffff1673ffffffffffffffffffffffffffffffffffffffff16145b1515611a7257600080fd5b611ad6565b3373ffffffffffffffffffffffffffffffffffffffff168160000160019054906101000a900473ffffffffffffffffffffffffffffffffffffffff1673ffffffffffffffffffffffffffffffffffffffff16141515611ad557600080fd5b5b60038160030160006101000a81548160ff02191690836003811115611af757fe5b02179055505050505050565b6000806000841415611b185760009150611b3a565b8284029050828482811515611b2957fe5b04141515611b3657600080fd5b8091505b5092915050565b600080600083111515611b5357600080fd5b8284811515611b5e57fe5b0490508091505092915050565b600080838311151515611b7d57600080fd5b82840390508091505092915050565b6000806000600160149054906101000a900460ff16151515611bad57600080fd5b8573ffffffffffffffffffffffffffffffffffffffff166370a08231866040518263ffffffff167c0100000000000000000000000000000000000000000000000000000000028152600401808273ffffffffffffffffffffffffffffffffffffffff1673ffffffffffffffffffffffffffffffffffffffff168152602001915050602060405180830381600087803b158015611c4857600080fd5b505af1158015611c5c573d6000803e3d6000fd5b505050506040513d6020811015611c7257600080fd5b810190808051906020019092919050505091508573ffffffffffffffffffffffffffffffffffffffff1660405180807f7472616e7366657228616464726573732c75696e743235362900000000000000815250601901905060405180910390207c0100000000000000000000000000000000000000000000000000000000900486866040518363ffffffff167c0100000000000000000000000000000000000000000000000000000000028152600401808373ffffffffffffffffffffffffffffffffffffffff1673ffffffffffffffffffffffffffffffffffffffff168152602001828152602001925050506000604051808303816000875af192505050508573ffffffffffffffffffffffffffffffffffffffff166370a08231866040518263ffffffff167c0100000000000000000000000000000000000000000000000000000000028152600401808273ffffffffffffffffffffffffffffffffffffffff1673ffffffffffffffffffffffffffffffffffffffff168152602001915050602060405180830381600087803b158015611e0d57600080fd5b505af1158015611e21573d6000803e3d6000fd5b505050506040513d6020811015611e3757600080fd5b81019080805190602001909291905050509050611e5d848361246490919063ffffffff16565b8114925050509392505050565b6000806000600160149054906101000a900460ff16151515611e8b57600080fd5b8673ffffffffffffffffffffffffffffffffffffffff166370a08231866040518263ffffffff167c0100000000000000000000000000000000000000000000000000000000028152600401808273ffffffffffffffffffffffffffffffffffffffff1673ffffffffffffffffffffffffffffffffffffffff168152602001915050602060405180830381600087803b158015611f2657600080fd5b505af1158015611f3a573d6000803e3d6000fd5b505050506040513d6020811015611f5057600080fd5b810190808051906020019092919050505091508673ffffffffffffffffffffffffffffffffffffffff1660405180807f7472616e7366657246726f6d28616464726573732c616464726573732c75696e81526020017f7432353629000000000000000000000000000000000000000000000000000000815250602501905060405180910390207c010000000000000000000000000000000000000000000000000000000090048787876040518463ffffffff167c0100000000000000000000000000000000000000000000000000000000028152600401808473ffffffffffffffffffffffffffffffffffffffff1673ffffffffffffffffffffffffffffffffffffffff1681526020018373ffffffffffffffffffffffffffffffffffffffff1673ffffffffffffffffffffffffffffffffffffffff16815260200182815260200193505050506000604051808303816000875af192505050508673ffffffffffffffffffffffffffffffffffffffff166370a08231866040518263ffffffff167c0100000000000000000000000000000000000000000000000000000000028152600401808273ffffffffffffffffffffffffffffffffffffffff1673ffffffffffffffffffffffffffffffffffffffff168152602001915050602060405180830381600087803b15801561214557600080fd5b505af1158015612159573d6000803e3d6000fd5b505050506040513d602081101561216f57600080fd5b81019080805190602001909291905050509050612195848361246490919063ffffffff16565b811492505050949350505050565b600083141515156121b357600080fd5b6121bd88856117c0565b1515156121c957600080fd5b60e0604051908101604052808860018111156121e157fe5b81526020018773ffffffffffffffffffffffffffffffffffffffff1681526020018673ffffffffffffffffffffffffffffffffffffffff1681526020018481526020016001600381111561223157fe5b8152602001836122435760045461225a565b6122596002600454611b0390919063ffffffff16565b5b815260200142815250600260008a73ffffffffffffffffffffffffffffffffffffffff1673ffffffffffffffffffffffffffffffffffffffff1681526020019081526020016000206000866000191660001916815260200190815260200160002060008201518160000160006101000a81548160ff021916908360018111156122df57fe5b021790555060208201518160000160016101000a81548173ffffffffffffffffffffffffffffffffffffffff021916908373ffffffffffffffffffffffffffffffffffffffff16021790555060408201518160010160006101000a81548173ffffffffffffffffffffffffffffffffffffffff021916908373ffffffffffffffffffffffffffffffffffffffff1602179055506060820151816002015560808201518160030160006101000a81548160ff021916908360038111156123a057fe5b021790555060a0820151816004015560c08201518160050155905050811561245a5780600360008a73ffffffffffffffffffffffffffffffffffffffff1673ffffffffffffffffffffffffffffffffffffffff1681526020019081526020016000206000866000191660001916815260200190815260200160002060006101000a81548173ffffffffffffffffffffffffffffffffffffffff021916908373ffffffffffffffffffffffffffffffffffffffff1602179055505b5050505050505050565b600080828401905083811015151561247b57600080fd5b8091505092915050565b6000808360405180826000191660001916815260200191505060405180910390209150600260008673ffffffffffffffffffffffffffffffffffffffff1673ffffffffffffffffffffffffffffffffffffffff1681526020019081526020016000206000836000191660001916815260200190815260200160002090506001600381111561250f57fe5b8160030160009054906101000a900460ff16600381111561252c57fe5b14151561253857600080fd5b82600181111561254457fe5b8160000160009054906101000a900460ff16600181111561256157fe5b14151561256d57600080fd5b3373ffffffffffffffffffffffffffffffffffffffff168160010160009054906101000a900473ffffffffffffffffffffffffffffffffffffffff1673ffffffffffffffffffffffffffffffffffffffff161415156125cb57600080fd5b6125e68160040154826005015461246490919063ffffffff16565b421015156125f357600080fd5b60028160030160006101000a81548160ff0219169083600381111561261457fe5b02179055508191505093925050505600a165627a7a723058207076f31626b6de015ca54005646da8b254c2e25a256c4cbc5935587f278420af0029",
  "source": "/*\n\n  Copyright 2018 Wanchain Foundation.\n\n  Licensed under the Apache License, Version 2.0 (the \"License\");\n  you may not use this file except in compliance with the License.\n  You may obtain a copy of the License at\n\n  http://www.apache.org/licenses/LICENSE-2.0\n\n  Unless required by applicable law or agreed to in writing, software\n  distributed under the License is distributed on an \"AS IS\" BASIS,\n  WITHOUT WARRANTIES OR CONDITIONS OF ANY KIND, either express or implied.\n  See the License for the specific language governing permissions and\n  limitations under the License.\n\n*/\n\n//                            _           _           _            \n//  __      ____ _ _ __   ___| |__   __ _(_)_ __   __| | _____   __\n//  \\ \\ /\\ / / _` | '_ \\ / __| '_ \\ / _` | | '_ \\@/ _` |/ _ \\ \\ / /\n//   \\ V  V / (_| | | | | (__| | | | (_| | | | | | (_| |  __/\\ V / \n//    \\_/\\_/ \\__,_|_| |_|\\___|_| |_|\\__,_|_|_| |_|\\__,_|\\___| \\_/  \n//    \n//  Code style according to: https://github.com/wanchain/wanchain-token/blob/master/style-guide.rst\n\npragma solidity ^0.4.24;\n\nimport \"./HTLCBase.sol\";\n\ninterface ERC20Token {\n    function balanceOf(address _owner) public returns (uint balance);\n}\n\ncontract HTLCETH is HTLCBase {\n\n    /**\n    *\n    * EVENTS\n    * \n    **/\n\n    /// @notice                 a record of a request to exchange WERC20 token  \n    /// @param user             address of user initiated the Tx\n    /// @param storemanGroup    storemanGroup address\n    /// @param xHash            hash of HTLC random number\n    /// @param value            exchange value\n    /// @param wanAddr          wanchain address to receive WERC20 token\n    /// @param tokenOrigAddr    address of ERC20 token \n    event InboundLockLogger(address indexed user, address indexed storemanGroup, bytes32 indexed xHash, uint value, address wanAddr, address tokenOrigAddr);\n    /// @notice                 event to record refund ERC20 token \n    /// @param storemanGroup    address of storemanGroup\n    /// @param user             address of user\n    /// @param xHash            hash of HTLC random number\n    /// @param x                HTLC random number\n    /// @param tokenOrigAddr    address of ERC20 token \n    event InboundRedeemLogger(address indexed storemanGroup, address indexed user, bytes32 indexed xHash, bytes32 x, address tokenOrigAddr);\n    /// @notice                 event of revoke ERC20 token \n    /// @param user             address of user\n    /// @param xHash            hash of HTLC random number\n    /// @param tokenOrigAddr    address of ERC20 token \n    event InboundRevokeLogger(address indexed user, bytes32 indexed xHash, address indexed tokenOrigAddr);\n    /// @notice                 event recording revoke ERC20 token \n    /// @param storemanGroup    address of storemanGroup\n    /// @param user             address of user\n    /// @param xHash            hash of HTLC random number\n    /// @param value            exchange value\n    /// @param tokenOrigAddr    address of ERC20 token \n    event OutboundLockLogger(address indexed storemanGroup, address indexed user, bytes32 indexed xHash, uint value, address tokenOrigAddr);\n    /// @notice                 event of refund ERC20 token from exchange ERC20 token with WERC20 token HTLC transaction\n    /// @param user             address of user, used to receive ERC20 token\n    /// @param storemanGroup    address of storemanGroup where the ERC20 token come from\n    /// @param xHash            hash of HTLC random number\n    /// @param x                HTLC random number\n    /// @param tokenOrigAddr    address of ERC20 token \n    event OutboundRedeemLogger(address indexed user, address indexed storemanGroup, bytes32 indexed xHash, bytes32 x, address tokenOrigAddr);\n    /// @notice                 event of revoke exchange ERC20 token with WERC20 token HTLC transaction\n    /// @param storemanGroup    address of storemanGroup\n    /// @param xHash            hash of HTLC random number\n    /// @param tokenOrigAddr    address of ERC20 token \n    event OutboundRevokeLogger(address indexed storemanGroup, bytes32 indexed xHash, address indexed tokenOrigAddr);\n\n    /**\n    *\n    * PRIVATE METHODS \n    * \n    */\n\n    function transfer(address tokenOrigAddr, address destination, uint value) \n        private \n        notHalted\n        returns(bool)\n    {\n        uint beforeBalance;\n        uint afterBalance;\n        beforeBalance = ERC20Token(tokenOrigAddr).balanceOf(destination);\n        tokenOrigAddr.call(bytes4(keccak256(\"transfer(address,uint256)\")), destination, value);\n        afterBalance = ERC20Token(tokenOrigAddr).balanceOf(destination);\n        return afterBalance == beforeBalance.add(value);\n    }\n\n    function transferFrom(address tokenOrigAddr, address from, address to, uint value)\n        private\n        notHalted\n        returns(bool)\n    {\n        uint beforeBalance;\n        uint afterBalance;\n        beforeBalance = ERC20Token(tokenOrigAddr).balanceOf(to);\n        tokenOrigAddr.call(bytes4(keccak256(\"transferFrom(address,address,uint256)\")), from, to, value);\n        afterBalance = ERC20Token(tokenOrigAddr).balanceOf(to);\n        return afterBalance == beforeBalance.add(value);\n    }\n\n    /**\n    *\n    * MANIPULATIONS \n    * \n    */\n    \n    /// @notice                 request exchange WERC20 token with ERC20 token (to prevent collision, x must be a 256bit random bigint) \n    /// @param tokenOrigAddr    address of ERC20 token \n    /// @param xHash            hash of HTLC random number\n    /// @param storemanGroup    address of storemanGroup\n    /// @param wanAddr          address of wanchain used to receive WERC token\n    /// @param value            amount of token to be transfered\n    function inboundLock(address tokenOrigAddr, bytes32 xHash, address storemanGroup, address wanAddr, uint value) \n        public \n        notHalted\n        returns(bool) \n    {\n        require(transferFrom(tokenOrigAddr, msg.sender, this, value));\n\n        addHTLCTx(tokenOrigAddr, TxDirection.Inbound, msg.sender, storemanGroup, xHash, value, true, wanAddr);\n        emit InboundLockLogger(msg.sender, storemanGroup, xHash, value, wanAddr, tokenOrigAddr);\n        return true;\n    }\n\n    /// @notice                 refund ERC20 token from the HTLC transaction of exchange WERC20 token with ERC20 token(must be called before HTLC timeout)\n    /// @param tokenOrigAddr    address of ERC20 token \n    /// @param x                HTLC random number\n    function inboundRedeem(address tokenOrigAddr, bytes32 x) \n        public \n        notHalted\n        returns(bool) \n    {\n        bytes32 xHash = redeemHTLCTx(tokenOrigAddr, x, TxDirection.Inbound);\n\n        // transfer ERC20 token\n        HTLCTx storage info = mapXHashHTLCTxs[tokenOrigAddr][xHash];\n        require(transfer(tokenOrigAddr, info.destination, info.value));\n\n        emit InboundRedeemLogger(info.destination, info.source, xHash, x, tokenOrigAddr);\n        return true;\n    }\n\n    /// @notice                 revoke HTLC transaction of exchange WERC20 token with ERC20 token (must be called after HTLC timeout)\n    /// @param tokenOrigAddr    address of ERC20 token  \n    /// @notice                 the revoking fee will be sent to storeman\n    /// @param xHash            hash of HTLC random number\n    function inboundRevoke(address tokenOrigAddr, bytes32 xHash) \n        public \n        notHalted\n        returns(bool) \n    {\n        revokeHTLCTx(tokenOrigAddr, xHash, TxDirection.Inbound, false);\n\n        // transfer ERC20 token\n        HTLCTx storage info = mapXHashHTLCTxs[tokenOrigAddr][xHash];\n        \n        uint fee = info.value.mul(revokeFeeRatio).div(RATIO_PRECISE);\n        uint left = info.value.sub(fee);\n        \n        if (left > 0) {\n            require(transfer(tokenOrigAddr, info.source, left));\n        }\n\n        if (fee > 0) {\n            require(transfer(tokenOrigAddr, info.destination, fee));\n        }\n\n        emit InboundRevokeLogger(info.source, xHash, tokenOrigAddr);\n        return true;\n    }\n\n    /// @notice                 request exchange ERC20 token with WERC20 token (to prevent collision, x must be a 256bit random bigint) \n    /// @param tokenOrigAddr    address of ERC20 token  \n    /// @param value            amount of token to be transfered\n    /// @param xHash            hash of HTLC random number\n    /// @param user             address of user, used to receive ETH\n    function outboundLock(address tokenOrigAddr, bytes32 xHash, address user, uint value) \n        public \n        notHalted\n        returns(bool) \n    {\n        require(transferFrom(tokenOrigAddr, msg.sender, this, value));\n\n        addHTLCTx(tokenOrigAddr, TxDirection.Outbound, msg.sender, user, xHash, value, false, address(0x00));\n        emit OutboundLockLogger(msg.sender, user, xHash, value, tokenOrigAddr);\n        return true;\n    }\n    \n    /// @notice                 refund ERC20 token from the HTLC transaction of exchange ERC20 token with WERC20 token(must be called before HTLC timeout)\n    /// @param tokenOrigAddr    address of ERC20 token  \n    /// @param x                HTLC random number\n    function outboundRedeem(address tokenOrigAddr, bytes32 x) \n        public \n        notHalted\n        returns(bool) \n    {\n        bytes32 xHash = redeemHTLCTx(tokenOrigAddr, x, TxDirection.Outbound);\n        \n        // transfer ERC20 token\n        HTLCTx storage info = mapXHashHTLCTxs[tokenOrigAddr][xHash];\n        require(transfer(tokenOrigAddr, info.destination, info.value));\n\n        emit OutboundRedeemLogger(info.destination, info.source, xHash, x, tokenOrigAddr);\n        return true;\n    }\n\n    /// @notice                 revoke HTLC transaction of exchange ERC20 token with WERC20 token(must be called after timeout)\n    /// @param tokenOrigAddr    address of ERC20 token  \n    /// @param xHash            hash of HTLC random number\n    function outboundRevoke(address tokenOrigAddr, bytes32 xHash) \n        public \n        notHalted\n        returns(bool) \n    {\n        revokeHTLCTx(tokenOrigAddr, xHash, TxDirection.Outbound, false);\n\n        // transfer ERC20 token\n        HTLCTx storage info = mapXHashHTLCTxs[tokenOrigAddr][xHash];\n        require(transfer(tokenOrigAddr, info.source, info.value));\n\n        emit OutboundRevokeLogger(info.source, xHash, tokenOrigAddr);\n        return true;\n    }\n}",
  "sourcePath": "/home/lzhang/wanchain/wanchain-crosschain-contracts/contracts/HTLCETH.sol",
  "compiler": {
    "name": "solc",
    "version": "0.4.24+commit.e67f0147.Emscripten.clang"
  },
  "schemaVersion": "3.0.19",
  "updatedAt": "2019-11-24T07:21:20.021Z",
  "devdoc": {
    "methods": {
      "changeOwner(address)": {
        "params": {
          "_newOwner": "The address of the new owner. 0x0 can be used to create  an unowned neutral vault, however that cannot be undone"
        }
      },
      "getHTLCLeftLockedTime(address,bytes32)": {
        "params": {
          "tokenOrigAddr": "address of ERC20 token ",
          "xHash": "hash of HTLC random number"
        },
        "return": "time            return left locked time, in seconds. return uint(0xffffffffffffffff) if xHash does not exist"
      },
      "inboundLock(address,bytes32,address,address,uint256)": {
        "params": {
          "storemanGroup": "address of storemanGroup",
          "tokenOrigAddr": "address of ERC20 token ",
          "value": "amount of token to be transfered",
          "wanAddr": "address of wanchain used to receive WERC token",
          "xHash": "hash of HTLC random number"
        }
      },
      "inboundRedeem(address,bytes32)": {
        "params": {
          "tokenOrigAddr": "address of ERC20 token ",
          "x": "HTLC random number"
        }
      },
      "inboundRevoke(address,bytes32)": {
        "params": {
          "tokenOrigAddr": "address of ERC20 token  ",
          "xHash": "hash of HTLC random number"
        }
      },
      "outboundLock(address,bytes32,address,uint256)": {
        "params": {
          "tokenOrigAddr": "address of ERC20 token  ",
          "user": "address of user, used to receive ETH",
          "value": "amount of token to be transfered",
          "xHash": "hash of HTLC random number"
        }
      },
      "outboundRedeem(address,bytes32)": {
        "params": {
          "tokenOrigAddr": "address of ERC20 token  ",
          "x": "HTLC random number"
        }
      },
      "outboundRevoke(address,bytes32)": {
        "params": {
          "tokenOrigAddr": "address of ERC20 token  ",
          "xHash": "hash of HTLC random number"
        }
      },
      "setLockedTime(uint256)": {
        "params": {
          "time": "the locked timein seconds"
        }
      },
      "xHashExist(address,bytes32)": {
        "params": {
          "tokenOrigAddr": "address of ERC20 token ",
          "xHash": "hash of HTLC random number"
        },
        "return": "exist           return true if exist"
      }
    }
  },
  "userdoc": {
    "methods": {
      "changeOwner(address)": {
        "notice": "`owner` can step down and assign some other address to this role"
      },
      "getHTLCLeftLockedTime(address,bytes32)": {
        "notice": "get left locked time of the HTLC transaction"
      },
      "inboundLock(address,bytes32,address,address,uint256)": {
        "notice": "request exchange WERC20 token with ERC20 token (to prevent collision, x must be a 256bit random bigint) "
      },
      "inboundRedeem(address,bytes32)": {
        "notice": "refund ERC20 token from the HTLC transaction of exchange WERC20 token with ERC20 token(must be called before HTLC timeout)"
      },
      "inboundRevoke(address,bytes32)": {
        "notice": "revoke HTLC transaction of exchange WERC20 token with ERC20 token (must be called after HTLC timeout)the revoking fee will be sent to storeman"
      },
      "kill()": {
        "notice": "destruct SC and transfer balance to owner"
      },
      "outboundLock(address,bytes32,address,uint256)": {
        "notice": "request exchange ERC20 token with WERC20 token (to prevent collision, x must be a 256bit random bigint) "
      },
      "outboundRedeem(address,bytes32)": {
        "notice": "refund ERC20 token from the HTLC transaction of exchange ERC20 token with WERC20 token(must be called before HTLC timeout)"
      },
      "outboundRevoke(address,bytes32)": {
        "notice": "revoke HTLC transaction of exchange ERC20 token with WERC20 token(must be called after timeout)"
      },
      "setHalt(bool)": {
        "notice": "function Emergency situation that requires contribution period to stop or not."
      },
      "setLockedTime(uint256)": {
        "notice": "set locked time(only owner has the right)"
      },
      "setRevokeFeeRatio(uint256)": {
        "notice": "set revoke fee ratio"
      },
      "xHashExist(address,bytes32)": {
        "notice": "check HTLC transaction exist or not"
      }
    }
  }
}