{
  "contractName": "HTLCWAN",
  "abi": [
    {
      "constant": true,
      "inputs": [],
      "name": "RATIO_PRECISE",
      "outputs": [
        {
          "name": "",
          "type": "uint256"
        }
      ],
      "payable": false,
      "stateMutability": "view",
      "type": "function"
    },
    {
      "constant": true,
      "inputs": [],
      "name": "tokenManager",
      "outputs": [
        {
          "name": "",
          "type": "address"
        }
      ],
      "payable": false,
      "stateMutability": "view",
      "type": "function"
    },
    {
      "constant": true,
      "inputs": [],
      "name": "quotaLedger",
      "outputs": [
        {
          "name": "",
          "type": "address"
        }
      ],
      "payable": false,
      "stateMutability": "view",
      "type": "function"
    },
    {
      "constant": false,
      "inputs": [],
      "name": "kill",
      "outputs": [],
      "payable": false,
      "stateMutability": "nonpayable",
      "type": "function"
    },
    {
      "constant": true,
      "inputs": [
        {
          "name": "tokenOrigAddr",
          "type": "address"
        },
        {
          "name": "xHash",
          "type": "bytes32"
        }
      ],
      "name": "getHTLCLeftLockedTime",
      "outputs": [
        {
          "name": "time",
          "type": "uint256"
        }
      ],
      "payable": false,
      "stateMutability": "view",
      "type": "function"
    },
    {
      "constant": true,
      "inputs": [
        {
          "name": "",
          "type": "address"
        },
        {
          "name": "",
          "type": "bytes32"
        }
      ],
      "name": "mapXHashShadow",
      "outputs": [
        {
          "name": "",
          "type": "address"
        }
      ],
      "payable": false,
      "stateMutability": "view",
      "type": "function"
    },
    {
      "constant": false,
      "inputs": [],
      "name": "acceptOwnership",
      "outputs": [],
      "payable": false,
      "stateMutability": "nonpayable",
      "type": "function"
    },
    {
      "constant": true,
      "inputs": [],
      "name": "DEF_LOCKED_TIME",
      "outputs": [
        {
          "name": "",
          "type": "uint256"
        }
      ],
      "payable": false,
      "stateMutability": "view",
      "type": "function"
    },
    {
      "constant": true,
      "inputs": [],
      "name": "storemanGroupAdmin",
      "outputs": [
        {
          "name": "",
          "type": "address"
        }
      ],
      "payable": false,
      "stateMutability": "view",
      "type": "function"
    },
    {
      "constant": true,
      "inputs": [],
      "name": "owner",
      "outputs": [
        {
          "name": "",
          "type": "address"
        }
      ],
      "payable": false,
      "stateMutability": "view",
      "type": "function"
    },
    {
      "constant": false,
      "inputs": [
        {
          "name": "_newOwner",
          "type": "address"
        }
      ],
      "name": "changeOwner",
      "outputs": [],
      "payable": false,
      "stateMutability": "nonpayable",
      "type": "function"
    },
    {
      "constant": true,
      "inputs": [],
      "name": "lockedTime",
      "outputs": [
        {
          "name": "",
          "type": "uint256"
        }
      ],
      "payable": false,
      "stateMutability": "view",
      "type": "function"
    },
    {
      "constant": true,
      "inputs": [],
      "name": "revokeFeeRatio",
      "outputs": [
        {
          "name": "",
          "type": "uint256"
        }
      ],
      "payable": false,
      "stateMutability": "view",
      "type": "function"
    },
    {
      "constant": true,
      "inputs": [
        {
          "name": "",
          "type": "address"
        },
        {
          "name": "",
          "type": "bytes32"
        }
      ],
      "name": "mapXHashHTLCTxs",
      "outputs": [
        {
          "name": "direction",
          "type": "uint8"
        },
        {
          "name": "source",
          "type": "address"
        },
        {
          "name": "destination",
          "type": "address"
        },
        {
          "name": "value",
          "type": "uint256"
        },
        {
          "name": "status",
          "type": "uint8"
        },
        {
          "name": "lockedTime",
          "type": "uint256"
        },
        {
          "name": "beginLockedTime",
          "type": "uint256"
        }
      ],
      "payable": false,
      "stateMutability": "view",
      "type": "function"
    },
    {
      "constant": true,
      "inputs": [],
      "name": "halted",
      "outputs": [
        {
          "name": "",
          "type": "bool"
        }
      ],
      "payable": false,
      "stateMutability": "view",
      "type": "function"
    },
    {
      "constant": true,
      "inputs": [],
      "name": "DEF_MAX_TIME",
      "outputs": [
        {
          "name": "",
          "type": "uint256"
        }
      ],
      "payable": false,
      "stateMutability": "view",
      "type": "function"
    },
    {
      "constant": false,
      "inputs": [
        {
          "name": "ratio",
          "type": "uint256"
        }
      ],
      "name": "setRevokeFeeRatio",
      "outputs": [
        {
          "name": "",
          "type": "bool"
        }
      ],
      "payable": false,
      "stateMutability": "nonpayable",
      "type": "function"
    },
    {
      "constant": true,
      "inputs": [],
      "name": "newOwner",
      "outputs": [
        {
          "name": "",
          "type": "address"
        }
      ],
      "payable": false,
      "stateMutability": "view",
      "type": "function"
    },
    {
      "constant": false,
      "inputs": [
        {
          "name": "time",
          "type": "uint256"
        }
      ],
      "name": "setLockedTime",
      "outputs": [
        {
          "name": "",
          "type": "bool"
        }
      ],
      "payable": false,
      "stateMutability": "nonpayable",
      "type": "function"
    },
    {
      "constant": true,
      "inputs": [
        {
          "name": "",
          "type": "address"
        },
        {
          "name": "",
          "type": "bytes32"
        }
      ],
      "name": "mapXHashFee",
      "outputs": [
        {
          "name": "",
          "type": "uint256"
        }
      ],
      "payable": false,
      "stateMutability": "view",
      "type": "function"
    },
    {
      "constant": true,
      "inputs": [
        {
          "name": "tokenOrigAddr",
          "type": "address"
        },
        {
          "name": "xHash",
          "type": "bytes32"
        }
      ],
      "name": "xHashExist",
      "outputs": [
        {
          "name": "exist",
          "type": "bool"
        }
      ],
      "payable": false,
      "stateMutability": "view",
      "type": "function"
    },
    {
      "constant": false,
      "inputs": [
        {
          "name": "halt",
          "type": "bool"
        }
      ],
      "name": "setHalt",
      "outputs": [],
      "payable": false,
      "stateMutability": "nonpayable",
      "type": "function"
    },
    {
      "payable": true,
      "stateMutability": "payable",
      "type": "fallback"
    },
    {
      "anonymous": false,
      "inputs": [
        {
          "indexed": true,
          "name": "storemanGroup",
          "type": "address"
        },
        {
          "indexed": true,
          "name": "wanAddr",
          "type": "address"
        },
        {
          "indexed": true,
          "name": "xHash",
          "type": "bytes32"
        },
        {
          "indexed": false,
          "name": "value",
          "type": "uint256"
        },
        {
          "indexed": false,
          "name": "tokenOrigAddr",
          "type": "address"
        }
      ],
      "name": "InboundLockLogger",
      "type": "event"
    },
    {
      "anonymous": false,
      "inputs": [
        {
          "indexed": true,
          "name": "wanAddr",
          "type": "address"
        },
        {
          "indexed": true,
          "name": "storemanGroup",
          "type": "address"
        },
        {
          "indexed": true,
          "name": "xHash",
          "type": "bytes32"
        },
        {
          "indexed": false,
          "name": "x",
          "type": "bytes32"
        },
        {
          "indexed": false,
          "name": "tokenOrigAddr",
          "type": "address"
        }
      ],
      "name": "InboundRedeemLogger",
      "type": "event"
    },
    {
      "anonymous": false,
      "inputs": [
        {
          "indexed": true,
          "name": "storemanGroup",
          "type": "address"
        },
        {
          "indexed": true,
          "name": "xHash",
          "type": "bytes32"
        },
        {
          "indexed": true,
          "name": "tokenOrigAddr",
          "type": "address"
        }
      ],
      "name": "InboundRevokeLogger",
      "type": "event"
    },
    {
      "anonymous": false,
      "inputs": [
        {
          "indexed": true,
          "name": "wanAddr",
          "type": "address"
        },
        {
          "indexed": true,
          "name": "storemanGroup",
          "type": "address"
        },
        {
          "indexed": true,
          "name": "xHash",
          "type": "bytes32"
        },
        {
          "indexed": false,
          "name": "value",
          "type": "uint256"
        },
        {
          "indexed": false,
          "name": "ethAddr",
          "type": "address"
        },
        {
          "indexed": false,
          "name": "fee",
          "type": "uint256"
        },
        {
          "indexed": false,
          "name": "tokenOrigAddr",
          "type": "address"
        }
      ],
      "name": "OutboundLockLogger",
      "type": "event"
    },
    {
      "anonymous": false,
      "inputs": [
        {
          "indexed": true,
          "name": "storemanGroup",
          "type": "address"
        },
        {
          "indexed": true,
          "name": "wanAddr",
          "type": "address"
        },
        {
          "indexed": true,
          "name": "xHash",
          "type": "bytes32"
        },
        {
          "indexed": false,
          "name": "x",
          "type": "bytes32"
        },
        {
          "indexed": false,
          "name": "tokenOrigAddr",
          "type": "address"
        }
      ],
      "name": "OutboundRedeemLogger",
      "type": "event"
    },
    {
      "anonymous": false,
      "inputs": [
        {
          "indexed": true,
          "name": "wanAddr",
          "type": "address"
        },
        {
          "indexed": true,
          "name": "xHash",
          "type": "bytes32"
        },
        {
          "indexed": true,
          "name": "tokenOrigAddr",
          "type": "address"
        }
      ],
      "name": "OutboundRevokeLogger",
      "type": "event"
    },
    {
      "constant": false,
      "inputs": [
        {
          "name": "tokenOrigAddr",
          "type": "address"
        },
        {
          "name": "xHash",
          "type": "bytes32"
        },
        {
          "name": "wanAddr",
          "type": "address"
        },
        {
          "name": "value",
          "type": "uint256"
        }
      ],
      "name": "inboundLock",
      "outputs": [
        {
          "name": "",
          "type": "bool"
        }
      ],
      "payable": false,
      "stateMutability": "nonpayable",
      "type": "function"
    },
    {
      "constant": false,
      "inputs": [
        {
          "name": "tokenOrigAddr",
          "type": "address"
        },
        {
          "name": "x",
          "type": "bytes32"
        }
      ],
      "name": "inboundRedeem",
      "outputs": [
        {
          "name": "",
          "type": "bool"
        }
      ],
      "payable": false,
      "stateMutability": "nonpayable",
      "type": "function"
    },
    {
      "constant": false,
      "inputs": [
        {
          "name": "tokenOrigAddr",
          "type": "address"
        },
        {
          "name": "xHash",
          "type": "bytes32"
        }
      ],
      "name": "inboundRevoke",
      "outputs": [
        {
          "name": "",
          "type": "bool"
        }
      ],
      "payable": false,
      "stateMutability": "nonpayable",
      "type": "function"
    },
    {
      "constant": false,
      "inputs": [
        {
          "name": "tokenOrigAddr",
          "type": "address"
        },
        {
          "name": "xHash",
          "type": "bytes32"
        },
        {
          "name": "storemanGroup",
          "type": "address"
        },
        {
          "name": "ethAddr",
          "type": "address"
        },
        {
          "name": "value",
          "type": "uint256"
        }
      ],
      "name": "outboundLock",
      "outputs": [
        {
          "name": "",
          "type": "bool"
        }
      ],
      "payable": true,
      "stateMutability": "payable",
      "type": "function"
    },
    {
      "constant": false,
      "inputs": [
        {
          "name": "tokenOrigAddr",
          "type": "address"
        },
        {
          "name": "x",
          "type": "bytes32"
        }
      ],
      "name": "outboundRedeem",
      "outputs": [
        {
          "name": "",
          "type": "bool"
        }
      ],
      "payable": false,
      "stateMutability": "nonpayable",
      "type": "function"
    },
    {
      "constant": false,
      "inputs": [
        {
          "name": "tokenOrigAddr",
          "type": "address"
        },
        {
          "name": "xHash",
          "type": "bytes32"
        }
      ],
      "name": "outboundRevoke",
      "outputs": [
        {
          "name": "",
          "type": "bool"
        }
      ],
      "payable": false,
      "stateMutability": "nonpayable",
      "type": "function"
    },
    {
      "constant": false,
      "inputs": [
        {
          "name": "addr",
          "type": "address"
        }
      ],
      "name": "setQuotaLedger",
      "outputs": [
        {
          "name": "",
          "type": "bool"
        }
      ],
      "payable": false,
      "stateMutability": "nonpayable",
      "type": "function"
    },
    {
      "constant": false,
      "inputs": [
        {
          "name": "addr",
          "type": "address"
        }
      ],
      "name": "setTokenManager",
      "outputs": [
        {
          "name": "",
          "type": "bool"
        }
      ],
      "payable": false,
      "stateMutability": "nonpayable",
      "type": "function"
    },
    {
      "constant": false,
      "inputs": [
        {
          "name": "addr",
          "type": "address"
        }
      ],
      "name": "setStoremanGroupAdmin",
      "outputs": [
        {
          "name": "",
          "type": "bool"
        }
      ],
      "payable": false,
      "stateMutability": "nonpayable",
      "type": "function"
    }
  ],
  "bytecode": "0x608060405260018060146101000a81548160ff021916908315150217905550336000806101000a81548173ffffffffffffffffffffffffffffffffffffffff021916908373ffffffffffffffffffffffffffffffffffffffff1602179055506201fa40600481905550613825806100776000396000f30060806040526004361061018b576000357c0100000000000000000000000000000000000000000000000000000000900463ffffffff168063122d7658146101905780631d57d55c146102235780632a709b141461024e5780632d3acdbb146102a5578063402541651461030e57806341c0e1b51461036557806342d3d55a1461037c5780635057735d14610422578063507dc32b146104875780636afb32d5146104f057806379ba50971461058157806379d90d8f146105985780637cb2b79c146105c3578063820413f31461061e5780638da5cb5b1461067557806394d53601146106cc5780639778fa4014610735578063a6f9dae114610790578063a8b38205146107d3578063ad3cc2e5146107fe578063ad72740214610829578063adb58c0c1461092c578063b9b8af0b14610995578063cc062f2f146109c4578063ce49caac146109ef578063d4ee1d9014610a34578063df1dcaa914610a8b578063e5111d4314610ad0578063e5b3e07d14610b35578063ece4e21714610b90578063f495438714610bf9575b600080fd5b34801561019c57600080fd5b50610209600480360381019080803573ffffffffffffffffffffffffffffffffffffffff1690602001909291908035600019169060200190929190803573ffffffffffffffffffffffffffffffffffffffff16906020019092919080359060200190929190505050610c28565b604051808215151515815260200191505060405180910390f35b34801561022f57600080fd5b50610238610f1e565b6040518082815260200191505060405180910390f35b34801561025a57600080fd5b50610263610f24565b604051808273ffffffffffffffffffffffffffffffffffffffff1673ffffffffffffffffffffffffffffffffffffffff16815260200191505060405180910390f35b3480156102b157600080fd5b506102f4600480360381019080803573ffffffffffffffffffffffffffffffffffffffff1690602001909291908035600019169060200190929190505050610f4a565b604051808215151515815260200191505060405180910390f35b34801561031a57600080fd5b50610323611178565b604051808273ffffffffffffffffffffffffffffffffffffffff1673ffffffffffffffffffffffffffffffffffffffff16815260200191505060405180910390f35b34801561037157600080fd5b5061037a61119e565b005b610408600480360381019080803573ffffffffffffffffffffffffffffffffffffffff1690602001909291908035600019169060200190929190803573ffffffffffffffffffffffffffffffffffffffff169060200190929190803573ffffffffffffffffffffffffffffffffffffffff1690602001909291908035906020019092919050505061124e565b604051808215151515815260200191505060405180910390f35b34801561042e57600080fd5b50610471600480360381019080803573ffffffffffffffffffffffffffffffffffffffff1690602001909291908035600019169060200190929190505050611a19565b6040518082815260200191505060405180910390f35b34801561049357600080fd5b506104d6600480360381019080803573ffffffffffffffffffffffffffffffffffffffff1690602001909291908035600019169060200190929190505050611b19565b604051808215151515815260200191505060405180910390f35b3480156104fc57600080fd5b5061053f600480360381019080803573ffffffffffffffffffffffffffffffffffffffff1690602001909291908035600019169060200190929190505050612298565b604051808273ffffffffffffffffffffffffffffffffffffffff1673ffffffffffffffffffffffffffffffffffffffff16815260200191505060405180910390f35b34801561058d57600080fd5b506105966122da565b005b3480156105a457600080fd5b506105ad612395565b6040518082815260200191505060405180910390f35b3480156105cf57600080fd5b50610604600480360381019080803573ffffffffffffffffffffffffffffffffffffffff16906020019092919050505061239c565b604051808215151515815260200191505060405180910390f35b34801561062a57600080fd5b5061063361249a565b604051808273ffffffffffffffffffffffffffffffffffffffff1673ffffffffffffffffffffffffffffffffffffffff16815260200191505060405180910390f35b34801561068157600080fd5b5061068a6124c0565b604051808273ffffffffffffffffffffffffffffffffffffffff1673ffffffffffffffffffffffffffffffffffffffff16815260200191505060405180910390f35b3480156106d857600080fd5b5061071b600480360381019080803573ffffffffffffffffffffffffffffffffffffffff16906020019092919080356000191690602001909291905050506124e5565b604051808215151515815260200191505060405180910390f35b34801561074157600080fd5b50610776600480360381019080803573ffffffffffffffffffffffffffffffffffffffff169060200190929190505050612781565b604051808215151515815260200191505060405180910390f35b34801561079c57600080fd5b506107d1600480360381019080803573ffffffffffffffffffffffffffffffffffffffff16906020019092919050505061287f565b005b3480156107df57600080fd5b506107e861291e565b6040518082815260200191505060405180910390f35b34801561080a57600080fd5b50610813612924565b6040518082815260200191505060405180910390f35b34801561083557600080fd5b50610878600480360381019080803573ffffffffffffffffffffffffffffffffffffffff169060200190929190803560001916906020019092919050505061292a565b6040518088600181111561088857fe5b60ff1681526020018773ffffffffffffffffffffffffffffffffffffffff1673ffffffffffffffffffffffffffffffffffffffff1681526020018673ffffffffffffffffffffffffffffffffffffffff1673ffffffffffffffffffffffffffffffffffffffff16815260200185815260200184600381111561090657fe5b60ff16815260200183815260200182815260200197505050505050505060405180910390f35b34801561093857600080fd5b5061097b600480360381019080803573ffffffffffffffffffffffffffffffffffffffff16906020019092919080356000191690602001909291905050506129d3565b604051808215151515815260200191505060405180910390f35b3480156109a157600080fd5b506109aa612d32565b604051808215151515815260200191505060405180910390f35b3480156109d057600080fd5b506109d9612d45565b6040518082815260200191505060405180910390f35b3480156109fb57600080fd5b50610a1a60048036038101908080359060200190929190505050612d51565b604051808215151515815260200191505060405180910390f35b348015610a4057600080fd5b50610a49612dcf565b604051808273ffffffffffffffffffffffffffffffffffffffff1673ffffffffffffffffffffffffffffffffffffffff16815260200191505060405180910390f35b348015610a9757600080fd5b50610ab660048036038101908080359060200190929190505050612df5565b604051808215151515815260200191505060405180910390f35b348015610adc57600080fd5b50610b1f600480360381019080803573ffffffffffffffffffffffffffffffffffffffff1690602001909291908035600019169060200190929190505050612e7d565b6040518082815260200191505060405180910390f35b348015610b4157600080fd5b50610b76600480360381019080803573ffffffffffffffffffffffffffffffffffffffff169060200190929190505050612ea2565b604051808215151515815260200191505060405180910390f35b348015610b9c57600080fd5b50610bdf600480360381019080803573ffffffffffffffffffffffffffffffffffffffff1690602001909291908035600019169060200190929190505050612fa0565b604051808215151515815260200191505060405180910390f35b348015610c0557600080fd5b50610c2660048036038101908080351515906020019092919050505061302c565b005b60008073ffffffffffffffffffffffffffffffffffffffff16600660009054906101000a900473ffffffffffffffffffffffffffffffffffffffff1673ffffffffffffffffffffffffffffffffffffffff1614151515610c8757600080fd5b600073ffffffffffffffffffffffffffffffffffffffff16600760009054906101000a900473ffffffffffffffffffffffffffffffffffffffff1673ffffffffffffffffffffffffffffffffffffffff1614151515610ce557600080fd5b600073ffffffffffffffffffffffffffffffffffffffff16600860009054906101000a900473ffffffffffffffffffffffffffffffffffffffff1673ffffffffffffffffffffffffffffffffffffffff1614151515610d4357600080fd5b600160149054906101000a900460ff16151515610d5f57600080fd5b600660009054906101000a900473ffffffffffffffffffffffffffffffffffffffff1673ffffffffffffffffffffffffffffffffffffffff166326aa101f866040518263ffffffff167c0100000000000000000000000000000000000000000000000000000000028152600401808273ffffffffffffffffffffffffffffffffffffffff1673ffffffffffffffffffffffffffffffffffffffff168152602001915050602060405180830381600087803b158015610e1c57600080fd5b505af1158015610e30573d6000803e3d6000fd5b505050506040513d6020811015610e4657600080fd5b81019080805190602001909291905050501515610e6257600080fd5b610e74856000338688876000806130a4565b83600019168373ffffffffffffffffffffffffffffffffffffffff163373ffffffffffffffffffffffffffffffffffffffff167f225e922e480ef01b442ada1386b5faa26607e42e06b71ccd2e8db08da613b30d8589604051808381526020018273ffffffffffffffffffffffffffffffffffffffff1673ffffffffffffffffffffffffffffffffffffffff1681526020019250505060405180910390a460019050949350505050565b61271081565b600660009054906101000a900473ffffffffffffffffffffffffffffffffffffffff1681565b600080600073ffffffffffffffffffffffffffffffffffffffff16600660009054906101000a900473ffffffffffffffffffffffffffffffffffffffff1673ffffffffffffffffffffffffffffffffffffffff1614151515610fab57600080fd5b600073ffffffffffffffffffffffffffffffffffffffff16600760009054906101000a900473ffffffffffffffffffffffffffffffffffffffff1673ffffffffffffffffffffffffffffffffffffffff161415151561100957600080fd5b600073ffffffffffffffffffffffffffffffffffffffff16600860009054906101000a900473ffffffffffffffffffffffffffffffffffffffff1673ffffffffffffffffffffffffffffffffffffffff161415151561106757600080fd5b600160149054906101000a900460ff1615151561108357600080fd5b6110908484600080613365565b600260008573ffffffffffffffffffffffffffffffffffffffff1673ffffffffffffffffffffffffffffffffffffffff1681526020019081526020016000206000846000191660001916815260200190815260200160002090508373ffffffffffffffffffffffffffffffffffffffff1683600019168260000160019054906101000a900473ffffffffffffffffffffffffffffffffffffffff1673ffffffffffffffffffffffffffffffffffffffff167ff4d51d8c04ad099991f03b1caef8531e845d6085612bcd4e86ff71789510b5c860405160405180910390a4600191505092915050565b600760009054906101000a900473ffffffffffffffffffffffffffffffffffffffff1681565b6000809054906101000a900473ffffffffffffffffffffffffffffffffffffffff1673ffffffffffffffffffffffffffffffffffffffff163373ffffffffffffffffffffffffffffffffffffffff161415156111f957600080fd5b600160149054906101000a900460ff16151561121457600080fd5b6000809054906101000a900473ffffffffffffffffffffffffffffffffffffffff1673ffffffffffffffffffffffffffffffffffffffff16ff5b600080600080600073ffffffffffffffffffffffffffffffffffffffff16600660009054906101000a900473ffffffffffffffffffffffffffffffffffffffff1673ffffffffffffffffffffffffffffffffffffffff16141515156112b257600080fd5b600073ffffffffffffffffffffffffffffffffffffffff16600760009054906101000a900473ffffffffffffffffffffffffffffffffffffffff1673ffffffffffffffffffffffffffffffffffffffff161415151561131057600080fd5b600073ffffffffffffffffffffffffffffffffffffffff16600860009054906101000a900473ffffffffffffffffffffffffffffffffffffffff1673ffffffffffffffffffffffffffffffffffffffff161415151561136e57600080fd5b600160149054906101000a900460ff1615151561138a57600080fd5b3373ffffffffffffffffffffffffffffffffffffffff163273ffffffffffffffffffffffffffffffffffffffff161415156113c457600080fd5b600660009054906101000a900473ffffffffffffffffffffffffffffffffffffffff1673ffffffffffffffffffffffffffffffffffffffff166326aa101f8a6040518263ffffffff167c0100000000000000000000000000000000000000000000000000000000028152600401808273ffffffffffffffffffffffffffffffffffffffff1673ffffffffffffffffffffffffffffffffffffffff168152602001915050602060405180830381600087803b15801561148157600080fd5b505af1158015611495573d6000803e3d6000fd5b505050506040513d60208110156114ab57600080fd5b810190808051906020019092919050505015156114c757600080fd5b6114d28988876135a4565b92508234101515156114e357600080fd5b6114f5896001338a8c8a60018d6130a4565b600660009054906101000a900473ffffffffffffffffffffffffffffffffffffffff1673ffffffffffffffffffffffffffffffffffffffff1663bfbcb918600660009054906101000a900473ffffffffffffffffffffffffffffffffffffffff1673ffffffffffffffffffffffffffffffffffffffff1663ff63e84b8c6040518263ffffffff167c0100000000000000000000000000000000000000000000000000000000028152600401808273ffffffffffffffffffffffffffffffffffffffff1673ffffffffffffffffffffffffffffffffffffffff168152602001915050602060405180830381600087803b1580156115f057600080fd5b505af1158015611604573d6000803e3d6000fd5b505050506040513d602081101561161a57600080fd5b81019080805190602001909291905050506040518263ffffffff167c010000000000000000000000000000000000000000000000000000000002815260040180826000191660001916815260200191505061014060405180830381600087803b15801561168657600080fd5b505af115801561169a573d6000803e3d6000fd5b505050506040513d6101408110156116b157600080fd5b810190808051906020019092919080519060200190929190805190602001909291908051906020019092919080519060200190929190805190602001909291908051906020019092919080519060200190929190805190602001909291908051906020019092919050505090919293949596979850909192939495965090919293949550909192939450909192935090919250909150905050809250508173ffffffffffffffffffffffffffffffffffffffff166323b872dd3330886040518463ffffffff167c0100000000000000000000000000000000000000000000000000000000028152600401808473ffffffffffffffffffffffffffffffffffffffff1673ffffffffffffffffffffffffffffffffffffffff1681526020018373ffffffffffffffffffffffffffffffffffffffff1673ffffffffffffffffffffffffffffffffffffffff1681526020018281526020019350505050602060405180830381600087803b15801561182557600080fd5b505af1158015611839573d6000803e3d6000fd5b505050506040513d602081101561184f57600080fd5b8101908080519060200190929190505050151561186b57600080fd5b82600960008b73ffffffffffffffffffffffffffffffffffffffff1673ffffffffffffffffffffffffffffffffffffffff16815260200190815260200160002060008a60001916600019168152602001908152602001600020819055506118db83346135b090919063ffffffff16565b905060008114151561192f573373ffffffffffffffffffffffffffffffffffffffff166108fc829081150290604051600060405180830381858888f1935050505015801561192d573d6000803e3d6000fd5b505b87600019168773ffffffffffffffffffffffffffffffffffffffff163373ffffffffffffffffffffffffffffffffffffffff167fed0ea6b5f99893a1850b61fbbbfb8413304a4929d654a9b0fc12b52cba491429888a888f604051808581526020018473ffffffffffffffffffffffffffffffffffffffff1673ffffffffffffffffffffffffffffffffffffffff1681526020018381526020018273ffffffffffffffffffffffffffffffffffffffff1673ffffffffffffffffffffffffffffffffffffffff16815260200194505050505060405180910390a46001935050505095945050505050565b600080600260008573ffffffffffffffffffffffffffffffffffffffff1673ffffffffffffffffffffffffffffffffffffffff16815260200190815260200160002060008460001916600019168152602001908152602001600020905060006003811115611a8357fe5b8160030160009054906101000a900460ff166003811115611aa057fe5b1415611ab65767ffffffffffffffff9150611b12565b611ad1816004015482600501546135d190919063ffffffff16565b42101515611ae25760009150611b12565b611b0f42611b01836004015484600501546135d190919063ffffffff16565b6135b090919063ffffffff16565b91505b5092915050565b600080600080600080600073ffffffffffffffffffffffffffffffffffffffff16600660009054906101000a900473ffffffffffffffffffffffffffffffffffffffff1673ffffffffffffffffffffffffffffffffffffffff1614151515611b8057600080fd5b600073ffffffffffffffffffffffffffffffffffffffff16600760009054906101000a900473ffffffffffffffffffffffffffffffffffffffff1673ffffffffffffffffffffffffffffffffffffffff1614151515611bde57600080fd5b600073ffffffffffffffffffffffffffffffffffffffff16600860009054906101000a900473ffffffffffffffffffffffffffffffffffffffff1673ffffffffffffffffffffffffffffffffffffffff1614151515611c3c57600080fd5b600160149054906101000a900460ff16151515611c5857600080fd5b611c658888600180613365565b600260008973ffffffffffffffffffffffffffffffffffffffff1673ffffffffffffffffffffffffffffffffffffffff168152602001908152602001600020600088600019166000191681526020019081526020016000209450600660009054906101000a900473ffffffffffffffffffffffffffffffffffffffff1673ffffffffffffffffffffffffffffffffffffffff1663ff63e84b896040518263ffffffff167c0100000000000000000000000000000000000000000000000000000000028152600401808273ffffffffffffffffffffffffffffffffffffffff1673ffffffffffffffffffffffffffffffffffffffff168152602001915050602060405180830381600087803b158015611d7c57600080fd5b505af1158015611d90573d6000803e3d6000fd5b505050506040513d6020811015611da657600080fd5b81019080805190602001909291905050509350600660009054906101000a900473ffffffffffffffffffffffffffffffffffffffff1673ffffffffffffffffffffffffffffffffffffffff1663bfbcb918856040518263ffffffff167c010000000000000000000000000000000000000000000000000000000002815260040180826000191660001916815260200191505061014060405180830381600087803b158015611e5357600080fd5b505af1158015611e67573d6000803e3d6000fd5b505050506040513d610140811015611e7e57600080fd5b810190808051906020019092919080519060200190929190805190602001909291908051906020019092919080519060200190929190805190602001909291908051906020019092919080519060200190929190805190602001909291908051906020019092919050505090919293949596979850909192939495965090919293949550909192939450909192935090919250909150905050809350508273ffffffffffffffffffffffffffffffffffffffff1663a9059cbb8660000160019054906101000a900473ffffffffffffffffffffffffffffffffffffffff1687600201546040518363ffffffff167c0100000000000000000000000000000000000000000000000000000000028152600401808373ffffffffffffffffffffffffffffffffffffffff1673ffffffffffffffffffffffffffffffffffffffff16815260200182815260200192505050602060405180830381600087803b158015611fe657600080fd5b505af1158015611ffa573d6000803e3d6000fd5b505050506040513d602081101561201057600080fd5b8101908080519060200190929190505050151561202c57600080fd5b6120ad61271061209f600554600960008d73ffffffffffffffffffffffffffffffffffffffff1673ffffffffffffffffffffffffffffffffffffffff16815260200190815260200160002060008c60001916600019168152602001908152602001600020546135f290919063ffffffff16565b61363090919063ffffffff16565b915061211a82600960008b73ffffffffffffffffffffffffffffffffffffffff1673ffffffffffffffffffffffffffffffffffffffff16815260200190815260200160002060008a60001916600019168152602001908152602001600020546135b090919063ffffffff16565b90506000821115612191578460010160009054906101000a900473ffffffffffffffffffffffffffffffffffffffff1673ffffffffffffffffffffffffffffffffffffffff166108fc839081150290604051600060405180830381858888f1935050505015801561218f573d6000803e3d6000fd5b505b6000811115612206578460000160019054906101000a900473ffffffffffffffffffffffffffffffffffffffff1673ffffffffffffffffffffffffffffffffffffffff166108fc829081150290604051600060405180830381858888f19350505050158015612204573d6000803e3d6000fd5b505b8773ffffffffffffffffffffffffffffffffffffffff1687600019168660000160019054906101000a900473ffffffffffffffffffffffffffffffffffffffff1673ffffffffffffffffffffffffffffffffffffffff167fe7ebd8ab7c92ce6cb5b867e57cff88548c6719d07146d1e9e45c4cee80b29aa760405160405180910390a460019550505050505092915050565b60036020528160005260406000206020528060005260406000206000915091509054906101000a900473ffffffffffffffffffffffffffffffffffffffff1681565b600160009054906101000a900473ffffffffffffffffffffffffffffffffffffffff1673ffffffffffffffffffffffffffffffffffffffff163373ffffffffffffffffffffffffffffffffffffffff16141561239357600160009054906101000a900473ffffffffffffffffffffffffffffffffffffffff166000806101000a81548173ffffffffffffffffffffffffffffffffffffffff021916908373ffffffffffffffffffffffffffffffffffffffff1602179055505b565b6201fa4081565b60008060009054906101000a900473ffffffffffffffffffffffffffffffffffffffff1673ffffffffffffffffffffffffffffffffffffffff163373ffffffffffffffffffffffffffffffffffffffff161415156123f957600080fd5b600160149054906101000a900460ff16151561241457600080fd5b600073ffffffffffffffffffffffffffffffffffffffff168273ffffffffffffffffffffffffffffffffffffffff161415151561245057600080fd5b81600660006101000a81548173ffffffffffffffffffffffffffffffffffffffff021916908373ffffffffffffffffffffffffffffffffffffffff16021790555060019050919050565b600860009054906101000a900473ffffffffffffffffffffffffffffffffffffffff1681565b6000809054906101000a900473ffffffffffffffffffffffffffffffffffffffff1681565b60008060008073ffffffffffffffffffffffffffffffffffffffff16600660009054906101000a900473ffffffffffffffffffffffffffffffffffffffff1673ffffffffffffffffffffffffffffffffffffffff161415151561254757600080fd5b600073ffffffffffffffffffffffffffffffffffffffff16600760009054906101000a900473ffffffffffffffffffffffffffffffffffffffff1673ffffffffffffffffffffffffffffffffffffffff16141515156125a557600080fd5b600073ffffffffffffffffffffffffffffffffffffffff16600860009054906101000a900473ffffffffffffffffffffffffffffffffffffffff1673ffffffffffffffffffffffffffffffffffffffff161415151561260357600080fd5b600160149054906101000a900460ff1615151561261f57600080fd5b61262b8585600061365a565b9150600260008673ffffffffffffffffffffffffffffffffffffffff1673ffffffffffffffffffffffffffffffffffffffff16815260200190815260200160002060008360001916600019168152602001908152602001600020905081600019168160000160019054906101000a900473ffffffffffffffffffffffffffffffffffffffff1673ffffffffffffffffffffffffffffffffffffffff168260010160009054906101000a900473ffffffffffffffffffffffffffffffffffffffff1673ffffffffffffffffffffffffffffffffffffffff167f28eb504cc9ab2ab5dc84b81d8b61cb8960063cd5f9d62a938d111ba6e25ac7fe87896040518083600019166000191681526020018273ffffffffffffffffffffffffffffffffffffffff1673ffffffffffffffffffffffffffffffffffffffff1681526020019250505060405180910390a460019250505092915050565b60008060009054906101000a900473ffffffffffffffffffffffffffffffffffffffff1673ffffffffffffffffffffffffffffffffffffffff163373ffffffffffffffffffffffffffffffffffffffff161415156127de57600080fd5b600160149054906101000a900460ff1615156127f957600080fd5b600073ffffffffffffffffffffffffffffffffffffffff168273ffffffffffffffffffffffffffffffffffffffff161415151561283557600080fd5b81600860006101000a81548173ffffffffffffffffffffffffffffffffffffffff021916908373ffffffffffffffffffffffffffffffffffffffff16021790555060019050919050565b6000809054906101000a900473ffffffffffffffffffffffffffffffffffffffff1673ffffffffffffffffffffffffffffffffffffffff163373ffffffffffffffffffffffffffffffffffffffff161415156128da57600080fd5b80600160006101000a81548173ffffffffffffffffffffffffffffffffffffffff021916908373ffffffffffffffffffffffffffffffffffffffff16021790555050565b60045481565b60055481565b6002602052816000526040600020602052806000526040600020600091509150508060000160009054906101000a900460ff16908060000160019054906101000a900473ffffffffffffffffffffffffffffffffffffffff16908060010160009054906101000a900473ffffffffffffffffffffffffffffffffffffffff16908060020154908060030160009054906101000a900460ff16908060040154908060050154905087565b60008060008073ffffffffffffffffffffffffffffffffffffffff16600660009054906101000a900473ffffffffffffffffffffffffffffffffffffffff1673ffffffffffffffffffffffffffffffffffffffff1614151515612a3557600080fd5b600073ffffffffffffffffffffffffffffffffffffffff16600760009054906101000a900473ffffffffffffffffffffffffffffffffffffffff1673ffffffffffffffffffffffffffffffffffffffff1614151515612a9357600080fd5b600073ffffffffffffffffffffffffffffffffffffffff16600860009054906101000a900473ffffffffffffffffffffffffffffffffffffffff1673ffffffffffffffffffffffffffffffffffffffff1614151515612af157600080fd5b600160149054906101000a900460ff16151515612b0d57600080fd5b612b198585600161365a565b9150600260008673ffffffffffffffffffffffffffffffffffffffff1673ffffffffffffffffffffffffffffffffffffffff1681526020019081526020016000206000836000191660001916815260200190815260200160002090508060010160009054906101000a900473ffffffffffffffffffffffffffffffffffffffff1673ffffffffffffffffffffffffffffffffffffffff166108fc600960008873ffffffffffffffffffffffffffffffffffffffff1673ffffffffffffffffffffffffffffffffffffffff16815260200190815260200160002060008560001916600019168152602001908152602001600020549081150290604051600060405180830381858888f19350505050158015612c37573d6000803e3d6000fd5b5081600019168160000160019054906101000a900473ffffffffffffffffffffffffffffffffffffffff1673ffffffffffffffffffffffffffffffffffffffff168260010160009054906101000a900473ffffffffffffffffffffffffffffffffffffffff1673ffffffffffffffffffffffffffffffffffffffff167f740c03c11094d46b0b5f812f10286c65ed20e6ca4b746d5653a964059b7f4dcb87896040518083600019166000191681526020018273ffffffffffffffffffffffffffffffffffffffff1673ffffffffffffffffffffffffffffffffffffffff1681526020019250505060405180910390a460019250505092915050565b600160149054906101000a900460ff1681565b67ffffffffffffffff81565b60008060009054906101000a900473ffffffffffffffffffffffffffffffffffffffff1673ffffffffffffffffffffffffffffffffffffffff163373ffffffffffffffffffffffffffffffffffffffff16141515612dae57600080fd5b6127108211151515612dbf57600080fd5b8160058190555060019050919050565b600160009054906101000a900473ffffffffffffffffffffffffffffffffffffffff1681565b60008060009054906101000a900473ffffffffffffffffffffffffffffffffffffffff1673ffffffffffffffffffffffffffffffffffffffff163373ffffffffffffffffffffffffffffffffffffffff16141515612e5257600080fd5b600160149054906101000a900460ff161515612e6d57600080fd5b8160048190555060019050919050565b6009602052816000526040600020602052806000526040600020600091509150505481565b60008060009054906101000a900473ffffffffffffffffffffffffffffffffffffffff1673ffffffffffffffffffffffffffffffffffffffff163373ffffffffffffffffffffffffffffffffffffffff16141515612eff57600080fd5b600160149054906101000a900460ff161515612f1a57600080fd5b600073ffffffffffffffffffffffffffffffffffffffff168273ffffffffffffffffffffffffffffffffffffffff1614151515612f5657600080fd5b81600760006101000a81548173ffffffffffffffffffffffffffffffffffffffff021916908373ffffffffffffffffffffffffffffffffffffffff16021790555060019050919050565b6000806003811115612fae57fe5b600260008573ffffffffffffffffffffffffffffffffffffffff1673ffffffffffffffffffffffffffffffffffffffff1681526020019081526020016000206000846000191660001916815260200190815260200160002060030160009054906101000a900460ff16600381111561302257fe5b1415905092915050565b6000809054906101000a900473ffffffffffffffffffffffffffffffffffffffff1673ffffffffffffffffffffffffffffffffffffffff163373ffffffffffffffffffffffffffffffffffffffff1614151561308757600080fd5b80600160146101000a81548160ff02191690831515021790555050565b600083141515156130b457600080fd5b6130be8885612fa0565b1515156130ca57600080fd5b60e0604051908101604052808860018111156130e257fe5b81526020018773ffffffffffffffffffffffffffffffffffffffff1681526020018673ffffffffffffffffffffffffffffffffffffffff1681526020018481526020016001600381111561313257fe5b8152602001836131445760045461315b565b61315a60026004546135f290919063ffffffff16565b5b815260200142815250600260008a73ffffffffffffffffffffffffffffffffffffffff1673ffffffffffffffffffffffffffffffffffffffff1681526020019081526020016000206000866000191660001916815260200190815260200160002060008201518160000160006101000a81548160ff021916908360018111156131e057fe5b021790555060208201518160000160016101000a81548173ffffffffffffffffffffffffffffffffffffffff021916908373ffffffffffffffffffffffffffffffffffffffff16021790555060408201518160010160006101000a81548173ffffffffffffffffffffffffffffffffffffffff021916908373ffffffffffffffffffffffffffffffffffffffff1602179055506060820151816002015560808201518160030160006101000a81548160ff021916908360038111156132a157fe5b021790555060a0820151816004015560c08201518160050155905050811561335b5780600360008a73ffffffffffffffffffffffffffffffffffffffff1673ffffffffffffffffffffffffffffffffffffffff1681526020019081526020016000206000866000191660001916815260200190815260200160002060006101000a81548173ffffffffffffffffffffffffffffffffffffffff021916908373ffffffffffffffffffffffffffffffffffffffff1602179055505b5050505050505050565b6000600260008673ffffffffffffffffffffffffffffffffffffffff1673ffffffffffffffffffffffffffffffffffffffff168152602001908152602001600020600085600019166000191681526020019081526020016000209050600160038111156133ce57fe5b8160030160009054906101000a900460ff1660038111156133eb57fe5b1415156133f757600080fd5b82600181111561340357fe5b8160000160009054906101000a900460ff16600181111561342057fe5b14151561342c57600080fd5b613447816004015482600501546135d190919063ffffffff16565b421015151561345557600080fd5b8115613518573373ffffffffffffffffffffffffffffffffffffffff168160000160019054906101000a900473ffffffffffffffffffffffffffffffffffffffff1673ffffffffffffffffffffffffffffffffffffffff16148061350857503373ffffffffffffffffffffffffffffffffffffffff168160010160009054906101000a900473ffffffffffffffffffffffffffffffffffffffff1673ffffffffffffffffffffffffffffffffffffffff16145b151561351357600080fd5b613577565b3373ffffffffffffffffffffffffffffffffffffffff168160000160019054906101000a900473ffffffffffffffffffffffffffffffffffffffff1673ffffffffffffffffffffffffffffffffffffffff1614151561357657600080fd5b5b60038160030160006101000a81548160ff0219169083600381111561359857fe5b02179055505050505050565b60008090509392505050565b6000808383111515156135c257600080fd5b82840390508091505092915050565b60008082840190508381101515156135e857600080fd5b8091505092915050565b60008060008414156136075760009150613629565b828402905082848281151561361857fe5b0414151561362557600080fd5b8091505b5092915050565b60008060008311151561364257600080fd5b828481151561364d57fe5b0490508091505092915050565b6000808360405180826000191660001916815260200191505060405180910390209150600260008673ffffffffffffffffffffffffffffffffffffffff1673ffffffffffffffffffffffffffffffffffffffff168152602001908152602001600020600083600019166000191681526020019081526020016000209050600160038111156136e457fe5b8160030160009054906101000a900460ff16600381111561370157fe5b14151561370d57600080fd5b82600181111561371957fe5b8160000160009054906101000a900460ff16600181111561373657fe5b14151561374257600080fd5b3373ffffffffffffffffffffffffffffffffffffffff168160010160009054906101000a900473ffffffffffffffffffffffffffffffffffffffff1673ffffffffffffffffffffffffffffffffffffffff161415156137a057600080fd5b6137bb816004015482600501546135d190919063ffffffff16565b421015156137c857600080fd5b60028160030160006101000a81548160ff021916908360038111156137e957fe5b02179055508191505093925050505600a165627a7a72305820626b70c6db5af6344deb9a5f263d54c1d6db854cf73473e52b17529670849bde0029",
  "source": "/*\n\n  Copyright 2018 Wanchain Foundation.\n\n  Licensed under the Apache License, Version 2.0 (the \"License\");\n  you may not use this file except in compliance with the License.\n  You may obtain a copy of the License at\n\n  http://www.apache.org/licenses/LICENSE-2.0\n\n  Unless required by applicable law or agreed to in writing, software\n  distributed under the License is distributed on an \"AS IS\" BASIS,\n  WITHOUT WARRANTIES OR CONDITIONS OF ANY KIND, either express or implied.\n  See the License for the specific language governing permissions and\n  limitations under the License.\n\n*/\n\n//                            _           _           _            \n//  __      ____ _ _ __   ___| |__   __ _(_)_ __   __| | _____   __\n//  \\ \\ /\\ / / _` | '_ \\ / __| '_ \\ / _` | | '_ \\@/ _` |/ _ \\ \\ / /\n//   \\ V  V / (_| | | | | (__| | | | (_| | | | | | (_| |  __/\\ V / \n//    \\_/\\_/ \\__,_|_| |_|\\___|_| |_|\\__,_|_|_| |_|\\__,_|\\___| \\_/  \n//    \n//  Code style according to: https://github.com/wanchain/wanchain-token/blob/master/style-guide.rst\n\npragma solidity ^0.4.24;\n\nimport \"./HTLCBase.sol\";\n\ninterface TokenInterface {\n    function isTokenRegistered(address) public view returns(bool);\n    function mapKey(address) public view returns(bytes32);\n    function mapTokenInfo(bytes32) public view returns(address, address, uint, uint, uint, bool, uint, uint, uint, uint);\n    function DEFAULT_PRECISE() public returns (uint);\n}\n\ninterface StoremanGroupInterface {\n    function mapStoremanGroup(address, address) public returns(uint, address, uint, uint, uint, address, uint);\n}\n\n\n\ninterface WERCProtocol {\n    function transfer(address, uint) public returns (bool);\n    function transferFrom(address, address, uint) public returns (bool);\n    function decimals() public returns(uint8);\n}\n\ncontract HTLCWAN is HTLCBase {\n\n    /**\n    *\n    * VARIABLES\n    *\n    */\n\n    /// token manager instance address\n    address public tokenManager;\n    /// quota ledger instance address\n    address public quotaLedger;\n    /// storemanGroup admin instance address\n    address public storemanGroupAdmin;\n\n    /// @notice transaction fee\n    mapping(address => mapping(bytes32 => uint)) public mapXHashFee;\n\n    /**\n    *\n    * EVENTS\n    *\n    **/\n\n    /// @notice                 event of exchange WERC20 token with ERC20 token request\n    /// @param storemanGroup    address of storemanGroup\n    /// @param wanAddr          address of wanchain, used to receive WERC20 token\n    /// @param xHash            hash of HTLC random number\n    /// @param value            HTLC value\n    /// @param tokenOrigAddr    address of ERC20 token  \n    event InboundLockLogger(address indexed storemanGroup, address indexed wanAddr, bytes32 indexed xHash, uint value, address tokenOrigAddr);\n    /// @notice                 event of refund WERC20 token from exchange WERC20 token with ERC20 token HTLC transaction\n    /// @param wanAddr          address of user on wanchain, used to receive WERC20 token\n    /// @param storemanGroup    address of storeman, the WERC20 token minter\n    /// @param xHash            hash of HTLC random number\n    /// @param x                HTLC random number\n    /// @param tokenOrigAddr    address of ERC20 token  \n    event InboundRedeemLogger(address indexed wanAddr, address indexed storemanGroup, bytes32 indexed xHash, bytes32 x, address tokenOrigAddr);\n    /// @notice                 event of revoke exchange WERC20 token with ERC20 token HTLC transaction\n    /// @param storemanGroup    address of storemanGroup\n    /// @param xHash            hash of HTLC random number\n    /// @param tokenOrigAddr    address of ERC20 token  \n    event InboundRevokeLogger(address indexed storemanGroup, bytes32 indexed xHash, address indexed tokenOrigAddr);\n    /// @notice                 event of exchange ERC20 token with WERC20 token request\n    /// @param wanAddr          address of user, where the WERC20 token come from\n    /// @param storemanGroup    address of storemanGroup, where the ERC20 token come from\n    /// @param xHash            hash of HTLC random number\n    /// @param value            exchange value\n    /// @param ethAddr          address of ethereum, used to receive ERC20 token\n    /// @param fee              exchange fee\n    /// @param tokenOrigAddr    address of ERC20 token  \n    event OutboundLockLogger(address indexed wanAddr, address indexed storemanGroup, bytes32 indexed xHash, uint value, address ethAddr, uint fee, address tokenOrigAddr);\n    /// @notice                 event of refund WERC20 token from exchange ERC20 token with WERC20 token HTLC transaction\n    /// @param storemanGroup    address of storemanGroup, used to receive WERC20 token\n    /// @param wanAddr          address of user, where the WERC20 token come from\n    /// @param xHash            hash of HTLC random number\n    /// @param x                HTLC random number\n    /// @param tokenOrigAddr    address of ERC20 token  \n    event OutboundRedeemLogger(address indexed storemanGroup, address indexed wanAddr, bytes32 indexed xHash, bytes32 x, address tokenOrigAddr);\n    /// @notice                 event of revoke exchange ERC20 token with WERC20 token HTLC transaction\n    /// @param wanAddr          address of user\n    /// @param xHash            hash of HTLC random number\n    /// @param tokenOrigAddr    address of ERC20 token  \n    event OutboundRevokeLogger(address indexed wanAddr, bytes32 indexed xHash, address indexed tokenOrigAddr);\n\n    /**\n    *\n    * MODIFIERS\n    *\n    */\n\n    /// @dev Check relevant contract addresses must be initialized before call its method\n    modifier initialized() {\n        require(tokenManager != address(0));\n        require(quotaLedger != address(0));\n        require(storemanGroupAdmin != address(0));\n        _;\n    }\n\n    /**\n    *\n    * MANIPULATIONS\n    *\n    */\n\n    /// @notice                 request exchange WERC20 token with ERC20 token(to prevent collision, x must be a 256bit random bigint) \n    /// @param  tokenOrigAddr   address of ERC20 token  \n    /// @param  xHash           hash of HTLC random number\n    /// @param  wanAddr         address of user, used to receive WERC20 token\n    /// @param  value           exchange value\n    function inboundLock(address tokenOrigAddr, bytes32 xHash, address wanAddr, uint value) \n        public \n        initialized \n        notHalted\n        returns(bool) \n    {\n        require(TokenInterface(tokenManager).isTokenRegistered(tokenOrigAddr));\n        \n        addHTLCTx(tokenOrigAddr, TxDirection.Inbound, msg.sender, wanAddr, xHash, value, false, address(0x00));\n\n        emit InboundLockLogger(msg.sender, wanAddr, xHash, value, tokenOrigAddr);\n        return true;\n    }\n\n    /// @notice                 refund WERC20 token from recorded HTLC transaction, should be invoked before timeout\n    /// @param  tokenOrigAddr   address of ERC20 token  \n    /// @param  x               HTLC random number\n    function inboundRedeem(address tokenOrigAddr, bytes32 x) \n        public \n        initialized \n        notHalted\n        returns(bool) \n    {\n        bytes32 xHash= redeemHTLCTx(tokenOrigAddr, x, TxDirection.Inbound);\n        HTLCTx storage info = mapXHashHTLCTxs[tokenOrigAddr][xHash];\n\n        emit InboundRedeemLogger(info.destination, info.source, xHash, x, tokenOrigAddr);\n        return true;\n    }\n\n    /// @notice                 revoke HTLC transaction of exchange WERC20 token with ERC20 token\n    /// @param tokenOrigAddr    address of ERC20 token  \n    /// @param xHash            hash of HTLC random number\n    function inboundRevoke(address tokenOrigAddr, bytes32 xHash) \n        public \n        initialized \n        notHalted\n        returns(bool) \n    {\n        revokeHTLCTx(tokenOrigAddr, xHash, TxDirection.Inbound, false);\n        HTLCTx storage info = mapXHashHTLCTxs[tokenOrigAddr][xHash];\n\n        emit InboundRevokeLogger(info.source, xHash, tokenOrigAddr);\n        return true;\n    }\n\n    /// @notice                 request exchange ERC20 token with WERC20 token(to prevent collision, x must be a 256bit random bigint)\n    /// @param tokenOrigAddr    address of ERC20 token  \n    /// @param xHash            hash of HTLC random number\n    /// @param storemanGroup    address of storeman group\n    /// @param ethAddr          address of ethereum, used to receive ERC20 token\n    /// @param value            exchange value\n    function outboundLock(address tokenOrigAddr, bytes32 xHash, address storemanGroup, address ethAddr, uint value) \n        public \n        initialized\n        notHalted\n        payable\n        returns(bool) \n    {\n        require(tx.origin == msg.sender);\n        require(TokenInterface(tokenManager).isTokenRegistered(tokenOrigAddr));\n\n        // check withdraw fee\n        uint fee = getOutboundFee(tokenOrigAddr, storemanGroup, value);\n        require(msg.value>= fee);\n\n        addHTLCTx(tokenOrigAddr, TxDirection.Outbound, msg.sender, storemanGroup, xHash, value, true, ethAddr);\n\n\n        address instance;\n        (,instance,,,,,,,,) = TokenInterface(tokenManager).mapTokenInfo(TokenInterface(tokenManager).mapKey(tokenOrigAddr));\n        require(WERCProtocol(instance).transferFrom(msg.sender, this, value));\n\n        mapXHashFee[tokenOrigAddr][xHash] = fee; // in wan coin\n        \n        // restore the extra cost\n        uint left = (msg.value).sub(fee);\n        if (left != 0) {\n            (msg.sender).transfer(left);\n        }\n\n        emit OutboundLockLogger(msg.sender, storemanGroup, xHash, value, ethAddr, fee, tokenOrigAddr);\n        \n        return true;\n    }\n\n    /// @notice                 refund WERC20 token from the HTLC transaction of exchange ERC20 token with WERC20 token(must be called before HTLC timeout)\n    /// @param tokenOrigAddr    address of ERC20 token  \n    /// @param x                HTLC random number\n    function outboundRedeem(address tokenOrigAddr, bytes32 x) \n        public \n        initialized \n        notHalted\n        returns(bool) \n    {\n        bytes32 xHash = redeemHTLCTx(tokenOrigAddr, x, TxDirection.Outbound);\n        HTLCTx storage info = mapXHashHTLCTxs[tokenOrigAddr][xHash];\n\n\n        // transfer to storemanGroup\n        info.destination.transfer(mapXHashFee[tokenOrigAddr][xHash]); \n        emit OutboundRedeemLogger(info.destination, info.source, xHash, x, tokenOrigAddr);\n        return true;\n    }\n\n    /// @notice                 revoke HTLC transaction of exchange ERC20 token with WERC20 token(must be called after HTLC timeout)\n    /// @param  tokenOrigAddr   address of ERC20 token  \n    /// @notice                 the revoking fee will be sent to storeman\n    /// @param  xHash           hash of HTLC random number\n    function outboundRevoke(address tokenOrigAddr, bytes32 xHash) \n        public \n        initialized \n        notHalted\n        returns(bool) \n    {\n        revokeHTLCTx(tokenOrigAddr, xHash, TxDirection.Outbound, true);\n        HTLCTx storage info = mapXHashHTLCTxs[tokenOrigAddr][xHash];\n\n\n        bytes32 key;\n        key = TokenInterface(tokenManager).mapKey(tokenOrigAddr);\n        address instance;\n        (,instance,,,,,,,,) = TokenInterface(tokenManager).mapTokenInfo(key);\n        require(WERCProtocol(instance).transfer(info.source, info.value));\n\n        uint revokeFee = mapXHashFee[tokenOrigAddr][xHash].mul(revokeFeeRatio).div(RATIO_PRECISE);\n        uint left = mapXHashFee[tokenOrigAddr][xHash].sub(revokeFee);\n\n        if (revokeFee > 0) {\n            info.destination.transfer(revokeFee);\n        }\n        \n        if (left > 0) {\n            info.source.transfer(left);\n        }\n        \n        emit OutboundRevokeLogger(info.source, xHash, tokenOrigAddr);\n        return true;\n    }\n    \n    /// @notice                 getting outbound tx fee\n    /// @param  tokenOrigAddr   address of ERC20 token  \n    /// @param  storemanGroup   address of storemanGroup\n    /// @param  value           HTLC tx value\n    /// @return                 needful fee\n    function getOutboundFee(address tokenOrigAddr, address storemanGroup, uint value)\n        private\n        returns(uint)\n    {\n        return 0;\n    }\n\n    /// @notice                 set quota ledger SC address(only owner have the right)\n    /// @param  addr            quota ledger SC instance address\n    function setQuotaLedger(address addr)\n        public \n        onlyOwner \n        isHalted\n        returns (bool)\n    {\n        require(addr != address(0));\n        quotaLedger = addr;\n\n        return true;\n    }\n\n    /// @notice                 set tokenOrigAddr manager SC instance address\n    /// @param  addr            tokenOrigAddr manager SC instance address    \n    function setTokenManager(address addr)\n        public\n        onlyOwner\n        isHalted\n        returns (bool)\n    {\n        require(addr != address(0));\n        tokenManager = addr;\n\n        return true;\n    }\n\n    /// @notice                 set storeman group admin SC address(only owner have the right)\n    /// @param  addr            storeman group admin SC address\n    function setStoremanGroupAdmin(address addr)\n        public\n        onlyOwner\n        isHalted\n        returns (bool)\n    {\n        require(addr != address(0));\n        storemanGroupAdmin = addr;\n\n        return true;\n    }\n}\n",
  "sourcePath": "/home/lzhang/wanchain/wanchain-crosschain-contracts/contracts/HTLCWAN.sol",
  "compiler": {
    "name": "solc",
    "version": "0.4.24+commit.e67f0147.Emscripten.clang"
  },
  "schemaVersion": "3.0.19",
  "updatedAt": "2019-11-24T08:16:51.114Z",
  "networkType": "ethereum",
  "devdoc": {
    "methods": {
      "changeOwner(address)": {
        "params": {
          "_newOwner": "The address of the new owner. 0x0 can be used to create  an unowned neutral vault, however that cannot be undone"
        }
      },
      "getHTLCLeftLockedTime(address,bytes32)": {
        "params": {
          "tokenOrigAddr": "address of ERC20 token ",
          "xHash": "hash of HTLC random number"
        },
        "return": "time            return left locked time, in seconds. return uint(0xffffffffffffffff) if xHash does not exist"
      },
      "inboundLock(address,bytes32,address,uint256)": {
        "params": {
          "tokenOrigAddr": "address of ERC20 token  ",
          "value": "exchange value",
          "wanAddr": "address of user, used to receive WERC20 token",
          "xHash": "hash of HTLC random number"
        }
      },
      "inboundRedeem(address,bytes32)": {
        "params": {
          "tokenOrigAddr": "address of ERC20 token  ",
          "x": "HTLC random number"
        }
      },
      "inboundRevoke(address,bytes32)": {
        "params": {
          "tokenOrigAddr": "address of ERC20 token  ",
          "xHash": "hash of HTLC random number"
        }
      },
      "outboundLock(address,bytes32,address,address,uint256)": {
        "params": {
          "ethAddr": "address of ethereum, used to receive ERC20 token",
          "storemanGroup": "address of storeman group",
          "tokenOrigAddr": "address of ERC20 token  ",
          "value": "exchange value",
          "xHash": "hash of HTLC random number"
        }
      },
      "outboundRedeem(address,bytes32)": {
        "params": {
          "tokenOrigAddr": "address of ERC20 token  ",
          "x": "HTLC random number"
        }
      },
      "outboundRevoke(address,bytes32)": {
        "params": {
          "tokenOrigAddr": "address of ERC20 token  ",
          "xHash": "hash of HTLC random number"
        }
      },
      "setLockedTime(uint256)": {
        "params": {
          "time": "the locked timein seconds"
        }
      },
      "setQuotaLedger(address)": {
        "params": {
          "addr": "quota ledger SC instance address"
        }
      },
      "setStoremanGroupAdmin(address)": {
        "params": {
          "addr": "storeman group admin SC address"
        }
      },
      "setTokenManager(address)": {
        "params": {
          "addr": "tokenOrigAddr manager SC instance address    "
        }
      },
      "xHashExist(address,bytes32)": {
        "params": {
          "tokenOrigAddr": "address of ERC20 token ",
          "xHash": "hash of HTLC random number"
        },
        "return": "exist           return true if exist"
      }
    }
  },
  "userdoc": {
    "methods": {
      "changeOwner(address)": {
        "notice": "`owner` can step down and assign some other address to this role"
      },
      "getHTLCLeftLockedTime(address,bytes32)": {
        "notice": "get left locked time of the HTLC transaction"
      },
      "inboundLock(address,bytes32,address,uint256)": {
        "notice": "request exchange WERC20 token with ERC20 token(to prevent collision, x must be a 256bit random bigint) "
      },
      "inboundRedeem(address,bytes32)": {
        "notice": "refund WERC20 token from recorded HTLC transaction, should be invoked before timeout"
      },
      "inboundRevoke(address,bytes32)": {
        "notice": "revoke HTLC transaction of exchange WERC20 token with ERC20 token"
      },
      "kill()": {
        "notice": "destruct SC and transfer balance to owner"
      },
      "outboundLock(address,bytes32,address,address,uint256)": {
        "notice": "request exchange ERC20 token with WERC20 token(to prevent collision, x must be a 256bit random bigint)"
      },
      "outboundRedeem(address,bytes32)": {
        "notice": "refund WERC20 token from the HTLC transaction of exchange ERC20 token with WERC20 token(must be called before HTLC timeout)"
      },
      "outboundRevoke(address,bytes32)": {
        "notice": "revoke HTLC transaction of exchange ERC20 token with WERC20 token(must be called after HTLC timeout)the revoking fee will be sent to storeman"
      },
      "setHalt(bool)": {
        "notice": "function Emergency situation that requires contribution period to stop or not."
      },
      "setLockedTime(uint256)": {
        "notice": "set locked time(only owner has the right)"
      },
      "setQuotaLedger(address)": {
        "notice": "set quota ledger SC address(only owner have the right)"
      },
      "setRevokeFeeRatio(uint256)": {
        "notice": "set revoke fee ratio"
      },
      "setStoremanGroupAdmin(address)": {
        "notice": "set storeman group admin SC address(only owner have the right)"
      },
      "setTokenManager(address)": {
        "notice": "set tokenOrigAddr manager SC instance address"
      },
      "xHashExist(address,bytes32)": {
        "notice": "check HTLC transaction exist or not"
      }
    }
  }
}