{
  "contractName": "ImprovedStoremanGroupAdmin",
  "abi": [
    {
      "constant": true,
      "inputs": [],
      "name": "tokenManager",
      "outputs": [
        {
          "name": "",
          "type": "address"
        }
      ],
      "payable": false,
      "stateMutability": "view",
      "type": "function"
    },
    {
      "constant": true,
      "inputs": [],
      "name": "quotaLedger",
      "outputs": [
        {
          "name": "",
          "type": "address"
        }
      ],
      "payable": false,
      "stateMutability": "view",
      "type": "function"
    },
    {
      "constant": true,
      "inputs": [
        {
          "name": "",
          "type": "address"
        },
        {
          "name": "",
          "type": "address"
        }
      ],
      "name": "mapStoremanGroup",
      "outputs": [
        {
          "name": "deposit",
          "type": "uint256"
        },
        {
          "name": "originalChainAddr",
          "type": "address"
        },
        {
          "name": "unregisterApplyTime",
          "type": "uint256"
        },
        {
          "name": "txFeeRatio",
          "type": "uint256"
        },
        {
          "name": "bonusBlockNumber",
          "type": "uint256"
        },
        {
          "name": "initiator",
          "type": "address"
        },
        {
          "name": "punishPercent",
          "type": "uint256"
        }
      ],
      "payable": false,
      "stateMutability": "view",
      "type": "function"
    },
    {
      "constant": false,
      "inputs": [],
      "name": "acceptOwnership",
      "outputs": [],
      "payable": false,
      "stateMutability": "nonpayable",
      "type": "function"
    },
    {
      "constant": true,
      "inputs": [
        {
          "name": "",
          "type": "address"
        },
        {
          "name": "",
          "type": "address"
        }
      ],
      "name": "mapSmgWhiteList",
      "outputs": [
        {
          "name": "",
          "type": "bool"
        }
      ],
      "payable": false,
      "stateMutability": "view",
      "type": "function"
    },
    {
      "constant": true,
      "inputs": [],
      "name": "owner",
      "outputs": [
        {
          "name": "",
          "type": "address"
        }
      ],
      "payable": false,
      "stateMutability": "view",
      "type": "function"
    },
    {
      "constant": false,
      "inputs": [
        {
          "name": "_newOwner",
          "type": "address"
        }
      ],
      "name": "changeOwner",
      "outputs": [],
      "payable": false,
      "stateMutability": "nonpayable",
      "type": "function"
    },
    {
      "constant": true,
      "inputs": [
        {
          "name": "",
          "type": "address"
        }
      ],
      "name": "mapRegistedOldSmgAdmin",
      "outputs": [
        {
          "name": "",
          "type": "bool"
        }
      ],
      "payable": false,
      "stateMutability": "view",
      "type": "function"
    },
    {
      "constant": true,
      "inputs": [],
      "name": "halted",
      "outputs": [
        {
          "name": "",
          "type": "bool"
        }
      ],
      "payable": false,
      "stateMutability": "view",
      "type": "function"
    },
    {
      "constant": true,
      "inputs": [],
      "name": "newOwner",
      "outputs": [
        {
          "name": "",
          "type": "address"
        }
      ],
      "payable": false,
      "stateMutability": "view",
      "type": "function"
    },
    {
      "constant": false,
      "inputs": [
        {
          "name": "halt",
          "type": "bool"
        }
      ],
      "name": "setHalt",
      "outputs": [],
      "payable": false,
      "stateMutability": "nonpayable",
      "type": "function"
    },
    {
      "payable": true,
      "stateMutability": "payable",
      "type": "fallback"
    },
    {
      "anonymous": false,
      "inputs": [
        {
          "indexed": true,
          "name": "tokenOrigAddr",
          "type": "address"
        },
        {
          "indexed": true,
          "name": "smgWanAddr",
          "type": "address"
        },
        {
          "indexed": false,
          "name": "smgOrigAddr",
          "type": "address"
        },
        {
          "indexed": false,
          "name": "wanDeposit",
          "type": "uint256"
        },
        {
          "indexed": false,
          "name": "quota",
          "type": "uint256"
        },
        {
          "indexed": false,
          "name": "txFeeRatio",
          "type": "uint256"
        }
      ],
      "name": "StoremanGroupRegistrationLogger",
      "type": "event"
    },
    {
      "anonymous": false,
      "inputs": [
        {
          "indexed": true,
          "name": "tokenOrigAddr",
          "type": "address"
        },
        {
          "indexed": true,
          "name": "sender",
          "type": "address"
        },
        {
          "indexed": true,
          "name": "wancoin",
          "type": "uint256"
        }
      ],
      "name": "StoremanGroupDepositBonusLogger",
      "type": "event"
    },
    {
      "anonymous": false,
      "inputs": [
        {
          "indexed": true,
          "name": "smgWanAddr",
          "type": "address"
        },
        {
          "indexed": true,
          "name": "tokenOrigAddr",
          "type": "address"
        }
      ],
      "name": "SmgEnableWhiteListLogger",
      "type": "event"
    },
    {
      "anonymous": false,
      "inputs": [
        {
          "indexed": true,
          "name": "tokenOrigAddr",
          "type": "address"
        },
        {
          "indexed": true,
          "name": "smgWanAddr",
          "type": "address"
        },
        {
          "indexed": true,
          "name": "applyTime",
          "type": "uint256"
        }
      ],
      "name": "StoremanGroupApplyUnRegistrationLogger",
      "type": "event"
    },
    {
      "anonymous": false,
      "inputs": [
        {
          "indexed": true,
          "name": "tokenOrigAddr",
          "type": "address"
        },
        {
          "indexed": true,
          "name": "smgWanAddr",
          "type": "address"
        },
        {
          "indexed": true,
          "name": "actualReturn",
          "type": "uint256"
        },
        {
          "indexed": false,
          "name": "deposit",
          "type": "uint256"
        }
      ],
      "name": "StoremanGroupWithdrawLogger",
      "type": "event"
    },
    {
      "anonymous": false,
      "inputs": [
        {
          "indexed": true,
          "name": "tokenOrigAddr",
          "type": "address"
        },
        {
          "indexed": true,
          "name": "bonusRecipient",
          "type": "address"
        },
        {
          "indexed": true,
          "name": "bonus",
          "type": "uint256"
        }
      ],
      "name": "StoremanGroupClaimSystemBonusLogger",
      "type": "event"
    },
    {
      "constant": false,
      "inputs": [
        {
          "name": "_smga",
          "type": "address"
        }
      ],
      "name": "registerOldStoremanGroupAdmin",
      "outputs": [],
      "payable": false,
      "stateMutability": "nonpayable",
      "type": "function"
    },
    {
      "constant": false,
      "inputs": [
        {
          "name": "tm",
          "type": "address"
        },
        {
          "name": "ql",
          "type": "address"
        }
      ],
      "name": "injectDependencies",
      "outputs": [],
      "payable": false,
      "stateMutability": "nonpayable",
      "type": "function"
    },
    {
      "constant": false,
      "inputs": [
        {
          "name": "tokenOrigAddr",
          "type": "address"
        },
        {
          "name": "storemanGroup",
          "type": "address"
        }
      ],
      "name": "setSmgWhiteList",
      "outputs": [],
      "payable": false,
      "stateMutability": "nonpayable",
      "type": "function"
    },
    {
      "constant": false,
      "inputs": [
        {
          "name": "tokenOrigAddr",
          "type": "address"
        },
        {
          "name": "originalChainAddr",
          "type": "address"
        },
        {
          "name": "txFeeRatio",
          "type": "uint256"
        }
      ],
      "name": "storemanGroupRegister",
      "outputs": [],
      "payable": true,
      "stateMutability": "payable",
      "type": "function"
    },
    {
      "constant": false,
      "inputs": [
        {
          "name": "tokenOrigAddr",
          "type": "address"
        },
        {
          "name": "storemanGroup",
          "type": "address"
        },
        {
          "name": "originalChainAddr",
          "type": "address"
        },
        {
          "name": "txFeeRatio",
          "type": "uint256"
        }
      ],
      "name": "storemanGroupRegisterByDelegate",
      "outputs": [],
      "payable": true,
      "stateMutability": "payable",
      "type": "function"
    },
    {
      "constant": false,
      "inputs": [
        {
          "name": "tokenOrigAddr",
          "type": "address"
        }
      ],
      "name": "storemanGroupApplyUnregister",
      "outputs": [],
      "payable": false,
      "stateMutability": "nonpayable",
      "type": "function"
    },
    {
      "constant": false,
      "inputs": [
        {
          "name": "tokenOrigAddr",
          "type": "address"
        },
        {
          "name": "storemanGroup",
          "type": "address"
        }
      ],
      "name": "smgApplyUnregisterByDelegate",
      "outputs": [],
      "payable": false,
      "stateMutability": "nonpayable",
      "type": "function"
    },
    {
      "constant": false,
      "inputs": [
        {
          "name": "tokenOrigAddr",
          "type": "address"
        }
      ],
      "name": "storemanGroupWithdrawDeposit",
      "outputs": [],
      "payable": false,
      "stateMutability": "nonpayable",
      "type": "function"
    },
    {
      "constant": false,
      "inputs": [
        {
          "name": "tokenOrigAddr",
          "type": "address"
        },
        {
          "name": "storemanGroup",
          "type": "address"
        }
      ],
      "name": "smgWithdrawDepositByDelegate",
      "outputs": [],
      "payable": false,
      "stateMutability": "nonpayable",
      "type": "function"
    },
    {
      "constant": false,
      "inputs": [
        {
          "name": "tokenOrigAddr",
          "type": "address"
        }
      ],
      "name": "storemanGroupClaimSystemBonus",
      "outputs": [],
      "payable": false,
      "stateMutability": "nonpayable",
      "type": "function"
    },
    {
      "constant": false,
      "inputs": [
        {
          "name": "tokenOrigAddr",
          "type": "address"
        },
        {
          "name": "storemanGroup",
          "type": "address"
        }
      ],
      "name": "smgClaimSystemBonusByDelegate",
      "outputs": [],
      "payable": false,
      "stateMutability": "nonpayable",
      "type": "function"
    },
    {
      "constant": false,
      "inputs": [
        {
          "name": "tokenOrigAddr",
          "type": "address"
        }
      ],
      "name": "depositSmgBonus",
      "outputs": [],
      "payable": true,
      "stateMutability": "payable",
      "type": "function"
    },
    {
      "constant": false,
      "inputs": [],
      "name": "kill",
      "outputs": [],
      "payable": false,
      "stateMutability": "nonpayable",
      "type": "function"
    },
    {
      "constant": true,
      "inputs": [
        {
          "name": "tokenOrigAddr",
          "type": "address"
        }
      ],
      "name": "mapKey",
      "outputs": [
        {
          "name": "",
          "type": "bytes32"
        }
      ],
      "payable": false,
      "stateMutability": "view",
      "type": "function"
    },
    {
      "constant": true,
      "inputs": [
        {
          "name": "keyHash",
          "type": "bytes32"
        }
      ],
      "name": "mapTokenInfo",
      "outputs": [
        {
          "name": "",
          "type": "address"
        },
        {
          "name": "",
          "type": "address"
        },
        {
          "name": "",
          "type": "uint256"
        },
        {
          "name": "",
          "type": "uint256"
        },
        {
          "name": "",
          "type": "uint256"
        },
        {
          "name": "",
          "type": "bool"
        },
        {
          "name": "",
          "type": "uint256"
        },
        {
          "name": "",
          "type": "uint256"
        },
        {
          "name": "",
          "type": "uint256"
        },
        {
          "name": "",
          "type": "uint256"
        }
      ],
      "payable": false,
      "stateMutability": "view",
      "type": "function"
    },
    {
      "constant": true,
      "inputs": [
        {
          "name": "tokenOrigAddr",
          "type": "address"
        }
      ],
      "name": "mapPenaltyReceiver",
      "outputs": [
        {
          "name": "",
          "type": "address"
        }
      ],
      "payable": false,
      "stateMutability": "view",
      "type": "function"
    },
    {
      "constant": false,
      "inputs": [
        {
          "name": "tokenOrigAddr",
          "type": "address"
        },
        {
          "name": "bonus",
          "type": "uint256"
        },
        {
          "name": "isAdded",
          "type": "bool"
        }
      ],
      "name": "updateTotalBonus",
      "outputs": [
        {
          "name": "",
          "type": "bool"
        }
      ],
      "payable": false,
      "stateMutability": "nonpayable",
      "type": "function"
    },
    {
      "constant": false,
      "inputs": [],
      "name": "DEFAULT_PRECISE",
      "outputs": [
        {
          "name": "",
          "type": "uint256"
        }
      ],
      "payable": false,
      "stateMutability": "nonpayable",
      "type": "function"
    },
    {
      "constant": false,
      "inputs": [
        {
          "name": "tokenOrigAddr",
          "type": "address"
        },
        {
          "name": "storemanGroup",
          "type": "address"
        }
      ],
      "name": "applyUnregistration",
      "outputs": [
        {
          "name": "",
          "type": "bool"
        }
      ],
      "payable": false,
      "stateMutability": "nonpayable",
      "type": "function"
    },
    {
      "constant": false,
      "inputs": [
        {
          "name": "tokenOrigAddr",
          "type": "address"
        },
        {
          "name": "storemanGroup",
          "type": "address"
        },
        {
          "name": "quota",
          "type": "uint256"
        }
      ],
      "name": "setStoremanGroupQuota",
      "outputs": [
        {
          "name": "",
          "type": "bool"
        }
      ],
      "payable": false,
      "stateMutability": "nonpayable",
      "type": "function"
    },
    {
      "constant": false,
      "inputs": [
        {
          "name": "tokenOrigAddr",
          "type": "address"
        },
        {
          "name": "storemanGroup",
          "type": "address"
        },
        {
          "name": "isNormal",
          "type": "bool"
        }
      ],
      "name": "unregisterStoremanGroup",
      "outputs": [
        {
          "name": "",
          "type": "bool"
        }
      ],
      "payable": false,
      "stateMutability": "nonpayable",
      "type": "function"
    },
    {
      "constant": false,
      "inputs": [
        {
          "name": "tokenOrigAddr",
          "type": "address"
        },
        {
          "name": "storemanGroup",
          "type": "address"
        },
        {
          "name": "txFeeRatio",
          "type": "uint256"
        }
      ],
      "name": "oldStoremanGroupRegister",
      "outputs": [],
      "payable": false,
      "stateMutability": "nonpayable",
      "type": "function"
    }
  ],
  "bytecode": "0x608060405260018060146101000a81548160ff021916908315150217905550336000806101000a81548173ffffffffffffffffffffffffffffffffffffffff021916908373ffffffffffffffffffffffffffffffffffffffff1602179055506152b48061006d6000396000f3006080604052600436106101a1576000357c0100000000000000000000000000000000000000000000000000000000900463ffffffff16806327022caf146101a65780632a709b1414610229578063402541651461028057806341c0e1b5146102d757806344eab98c146102ee578063497a1796146103315780634fd7b0c814610394578063560c4a31146104195780635ea09d5e1461051257806365c19fa4146105835780636ea91e46146105c657806379ba5097146106265780637aa71f101461063d57806384a58f79146106c4578063850c3f3e146107445780638da5cb5b146107bf578063a6f9dae114610816578063aa9cba3114610859578063b318beb8146108b4578063b50f031e146108ea578063b9b8af0b14610957578063bb1e4dba14610986578063bd490167146109e9578063bfbcb91814610a14578063cd11114814610af4578063cf5bb54814610b57578063d4ee1d9014610bba578063dae48eee14610c11578063e02de59514610c8c578063e6679fd014610cef578063f495438714610d32578063fbad6ca714610d61578063ff63e84b14610da4575b600080fd5b3480156101b257600080fd5b506101e7600480360381019080803573ffffffffffffffffffffffffffffffffffffffff169060200190929190505050610e03565b604051808273ffffffffffffffffffffffffffffffffffffffff1673ffffffffffffffffffffffffffffffffffffffff16815260200191505060405180910390f35b34801561023557600080fd5b5061023e61100d565b604051808273ffffffffffffffffffffffffffffffffffffffff1673ffffffffffffffffffffffffffffffffffffffff16815260200191505060405180910390f35b34801561028c57600080fd5b50610295611033565b604051808273ffffffffffffffffffffffffffffffffffffffff1673ffffffffffffffffffffffffffffffffffffffff16815260200191505060405180910390f35b3480156102e357600080fd5b506102ec611059565b005b3480156102fa57600080fd5b5061032f600480360381019080803573ffffffffffffffffffffffffffffffffffffffff169060200190929190505050611109565b005b34801561033d57600080fd5b50610392600480360381019080803573ffffffffffffffffffffffffffffffffffffffff169060200190929190803573ffffffffffffffffffffffffffffffffffffffff169060200190929190505050611132565b005b3480156103a057600080fd5b506103ff600480360381019080803573ffffffffffffffffffffffffffffffffffffffff169060200190929190803573ffffffffffffffffffffffffffffffffffffffff16906020019092919080359060200190929190505050611621565b604051808215151515815260200191505060405180910390f35b34801561042557600080fd5b5061047a600480360381019080803573ffffffffffffffffffffffffffffffffffffffff169060200190929190803573ffffffffffffffffffffffffffffffffffffffff16906020019092919050505061168d565b604051808881526020018773ffffffffffffffffffffffffffffffffffffffff1673ffffffffffffffffffffffffffffffffffffffff1681526020018681526020018581526020018481526020018373ffffffffffffffffffffffffffffffffffffffff1673ffffffffffffffffffffffffffffffffffffffff16815260200182815260200197505050505050505060405180910390f35b34801561051e57600080fd5b50610569600480360381019080803573ffffffffffffffffffffffffffffffffffffffff1690602001909291908035906020019092919080351515906020019092919050505061171c565b604051808215151515815260200191505060405180910390f35b34801561058f57600080fd5b506105c4600480360381019080803573ffffffffffffffffffffffffffffffffffffffff16906020019092919050505061193c565b005b610624600480360381019080803573ffffffffffffffffffffffffffffffffffffffff169060200190929190803573ffffffffffffffffffffffffffffffffffffffff16906020019092919080359060200190929190505050611ab2565b005b34801561063257600080fd5b5061063b611adf565b005b34801561064957600080fd5b506106aa600480360381019080803573ffffffffffffffffffffffffffffffffffffffff169060200190929190803573ffffffffffffffffffffffffffffffffffffffff169060200190929190803515159060200190929190505050611b9a565b604051808215151515815260200191505060405180910390f35b610742600480360381019080803573ffffffffffffffffffffffffffffffffffffffff169060200190929190803573ffffffffffffffffffffffffffffffffffffffff169060200190929190803573ffffffffffffffffffffffffffffffffffffffff16906020019092919080359060200190929190505050611dd3565b005b34801561075057600080fd5b506107a5600480360381019080803573ffffffffffffffffffffffffffffffffffffffff169060200190929190803573ffffffffffffffffffffffffffffffffffffffff16906020019092919050505061288c565b604051808215151515815260200191505060405180910390f35b3480156107cb57600080fd5b506107d46128bb565b604051808273ffffffffffffffffffffffffffffffffffffffff1673ffffffffffffffffffffffffffffffffffffffff16815260200191505060405180910390f35b34801561082257600080fd5b50610857600480360381019080803573ffffffffffffffffffffffffffffffffffffffff1690602001909291905050506128e0565b005b34801561086557600080fd5b5061089a600480360381019080803573ffffffffffffffffffffffffffffffffffffffff16906020019092919050505061297f565b604051808215151515815260200191505060405180910390f35b6108e8600480360381019080803573ffffffffffffffffffffffffffffffffffffffff16906020019092919050505061299f565b005b3480156108f657600080fd5b50610955600480360381019080803573ffffffffffffffffffffffffffffffffffffffff169060200190929190803573ffffffffffffffffffffffffffffffffffffffff16906020019092919080359060200190929190505050612dc3565b005b34801561096357600080fd5b5061096c6130b2565b604051808215151515815260200191505060405180910390f35b34801561099257600080fd5b506109e7600480360381019080803573ffffffffffffffffffffffffffffffffffffffff169060200190929190803573ffffffffffffffffffffffffffffffffffffffff1690602001909291905050506130c5565b005b3480156109f557600080fd5b506109fe61367e565b6040518082815260200191505060405180910390f35b348015610a2057600080fd5b50610a4360048036038101908080356000191690602001909291905050506137aa565b604051808b73ffffffffffffffffffffffffffffffffffffffff1673ffffffffffffffffffffffffffffffffffffffff1681526020018a73ffffffffffffffffffffffffffffffffffffffff1673ffffffffffffffffffffffffffffffffffffffff168152602001898152602001888152602001878152602001861515151581526020018581526020018481526020018381526020018281526020019a505050505050505050505060405180910390f35b348015610b0057600080fd5b50610b55600480360381019080803573ffffffffffffffffffffffffffffffffffffffff169060200190929190803573ffffffffffffffffffffffffffffffffffffffff1690602001909291905050506139ed565b005b348015610b6357600080fd5b50610bb8600480360381019080803573ffffffffffffffffffffffffffffffffffffffff169060200190929190803573ffffffffffffffffffffffffffffffffffffffff16906020019092919050505061418e565b005b348015610bc657600080fd5b50610bcf614336565b604051808273ffffffffffffffffffffffffffffffffffffffff1673ffffffffffffffffffffffffffffffffffffffff16815260200191505060405180910390f35b348015610c1d57600080fd5b50610c72600480360381019080803573ffffffffffffffffffffffffffffffffffffffff169060200190929190803573ffffffffffffffffffffffffffffffffffffffff16906020019092919050505061435c565b604051808215151515815260200191505060405180910390f35b348015610c9857600080fd5b50610ced600480360381019080803573ffffffffffffffffffffffffffffffffffffffff169060200190929190803573ffffffffffffffffffffffffffffffffffffffff1690602001909291905050506144f6565b005b348015610cfb57600080fd5b50610d30600480360381019080803573ffffffffffffffffffffffffffffffffffffffff169060200190929190505050614667565b005b348015610d3e57600080fd5b50610d5f600480360381019080803515159060200190929190505050614735565b005b348015610d6d57600080fd5b50610da2600480360381019080803573ffffffffffffffffffffffffffffffffffffffff1690602001909291905050506147ad565b005b348015610db057600080fd5b50610de5600480360381019080803573ffffffffffffffffffffffffffffffffffffffff1690602001909291905050506147d6565b60405180826000191660001916815260200191505060405180910390f35b600080600460003373ffffffffffffffffffffffffffffffffffffffff1673ffffffffffffffffffffffffffffffffffffffff16815260200190815260200160002060009054906101000a900460ff16151560011515141515610e6557600080fd5b600073ffffffffffffffffffffffffffffffffffffffff168373ffffffffffffffffffffffffffffffffffffffff1614151515610f0a576040517f08c379a000000000000000000000000000000000000000000000000000000000815260040180806020018281038252601c8152602001807f496e76616c696420746f6b656e204f726967696e20416464726573730000000081525060200191505060405180910390fd5b600260009054906101000a900473ffffffffffffffffffffffffffffffffffffffff1673ffffffffffffffffffffffffffffffffffffffff166327022caf846040518263ffffffff167c0100000000000000000000000000000000000000000000000000000000028152600401808273ffffffffffffffffffffffffffffffffffffffff1673ffffffffffffffffffffffffffffffffffffffff168152602001915050602060405180830381600087803b158015610fc757600080fd5b505af1158015610fdb573d6000803e3d6000fd5b505050506040513d6020811015610ff157600080fd5b8101908080519060200190929190505050905080915050919050565b600260009054906101000a900473ffffffffffffffffffffffffffffffffffffffff1681565b600360009054906101000a900473ffffffffffffffffffffffffffffffffffffffff1681565b600160149054906101000a900460ff16151561107457600080fd5b6000809054906101000a900473ffffffffffffffffffffffffffffffffffffffff1673ffffffffffffffffffffffffffffffffffffffff163373ffffffffffffffffffffffffffffffffffffffff161415156110cf57600080fd5b6000809054906101000a900473ffffffffffffffffffffffffffffffffffffffff1673ffffffffffffffffffffffffffffffffffffffff16ff5b600160149054906101000a900460ff1615151561112557600080fd5b61112f81336139ed565b50565b60008060009054906101000a900473ffffffffffffffffffffffffffffffffffffffff1673ffffffffffffffffffffffffffffffffffffffff163373ffffffffffffffffffffffffffffffffffffffff1614151561118f57600080fd5b600073ffffffffffffffffffffffffffffffffffffffff168273ffffffffffffffffffffffffffffffffffffffff16141515156111cb57600080fd5b600260009054906101000a900473ffffffffffffffffffffffffffffffffffffffff1673ffffffffffffffffffffffffffffffffffffffff1663bfbcb918600260009054906101000a900473ffffffffffffffffffffffffffffffffffffffff1673ffffffffffffffffffffffffffffffffffffffff1663ff63e84b866040518263ffffffff167c0100000000000000000000000000000000000000000000000000000000028152600401808273ffffffffffffffffffffffffffffffffffffffff1673ffffffffffffffffffffffffffffffffffffffff168152602001915050602060405180830381600087803b1580156112c657600080fd5b505af11580156112da573d6000803e3d6000fd5b505050506040513d60208110156112f057600080fd5b81019080805190602001909291905050506040518263ffffffff167c010000000000000000000000000000000000000000000000000000000002815260040180826000191660001916815260200191505061014060405180830381600087803b15801561135c57600080fd5b505af1158015611370573d6000803e3d6000fd5b505050506040513d61014081101561138757600080fd5b8101908080519060200190929190805190602001909291908051906020019092919080519060200190929190805190602001909291908051906020019092919080519060200190929190805190602001909291908051906020019092919080519060200190929190505050505050509550505050505080151561140957600080fd5b6000600560008573ffffffffffffffffffffffffffffffffffffffff1673ffffffffffffffffffffffffffffffffffffffff16815260200190815260200160002060008473ffffffffffffffffffffffffffffffffffffffff1673ffffffffffffffffffffffffffffffffffffffff1681526020019081526020016000206004015414151561149757600080fd5b600660008473ffffffffffffffffffffffffffffffffffffffff1673ffffffffffffffffffffffffffffffffffffffff16815260200190815260200160002060008373ffffffffffffffffffffffffffffffffffffffff1673ffffffffffffffffffffffffffffffffffffffff16815260200190815260200160002060009054906101000a900460ff1615151561152d57600080fd5b6001600660008573ffffffffffffffffffffffffffffffffffffffff1673ffffffffffffffffffffffffffffffffffffffff16815260200190815260200160002060008473ffffffffffffffffffffffffffffffffffffffff1673ffffffffffffffffffffffffffffffffffffffff16815260200190815260200160002060006101000a81548160ff0219169083151502179055508273ffffffffffffffffffffffffffffffffffffffff168273ffffffffffffffffffffffffffffffffffffffff167f47a2975dcee9c2abfff71a949eba187005c1df57f41afd8088cf6a29332e950e60405160405180910390a3505050565b6000600460003373ffffffffffffffffffffffffffffffffffffffff1673ffffffffffffffffffffffffffffffffffffffff16815260200190815260200160002060009054906101000a900460ff1615156001151514151561168257600080fd5b600090509392505050565b6005602052816000526040600020602052806000526040600020600091509150508060000154908060010160009054906101000a900473ffffffffffffffffffffffffffffffffffffffff16908060020154908060030154908060040154908060050160009054906101000a900473ffffffffffffffffffffffffffffffffffffffff16908060060154905087565b600080600460003373ffffffffffffffffffffffffffffffffffffffff1673ffffffffffffffffffffffffffffffffffffffff16815260200190815260200160002060009054906101000a900460ff1615156001151514151561177e57600080fd5b600073ffffffffffffffffffffffffffffffffffffffff168573ffffffffffffffffffffffffffffffffffffffff1614151515611823576040517f08c379a000000000000000000000000000000000000000000000000000000000815260040180806020018281038252601c8152602001807f496e76616c696420746f6b656e204f726967696e20416464726573730000000081525060200191505060405180910390fd5b600260009054906101000a900473ffffffffffffffffffffffffffffffffffffffff1673ffffffffffffffffffffffffffffffffffffffff16635ea09d5e8686866040518463ffffffff167c0100000000000000000000000000000000000000000000000000000000028152600401808473ffffffffffffffffffffffffffffffffffffffff1673ffffffffffffffffffffffffffffffffffffffff168152602001838152602001821515151581526020019350505050602060405180830381600087803b1580156118f457600080fd5b505af1158015611908573d6000803e3d6000fd5b505050506040513d602081101561191e57600080fd5b81019080805190602001909291905050509050809150509392505050565b6000809054906101000a900473ffffffffffffffffffffffffffffffffffffffff1673ffffffffffffffffffffffffffffffffffffffff163373ffffffffffffffffffffffffffffffffffffffff1614151561199757600080fd5b600160149054906101000a900460ff1615156119b257600080fd5b600073ffffffffffffffffffffffffffffffffffffffff168173ffffffffffffffffffffffffffffffffffffffff1614151515611a57576040517f08c379a000000000000000000000000000000000000000000000000000000000815260040180806020018281038252601d8152602001807f496e76616c69642073746f72656d616e67726f7570204164647265737300000081525060200191505060405180910390fd5b6001600460008373ffffffffffffffffffffffffffffffffffffffff1673ffffffffffffffffffffffffffffffffffffffff16815260200190815260200160002060006101000a81548160ff02191690831515021790555050565b600160149054906101000a900460ff16151515611ace57600080fd5b611ada83338484611dd3565b505050565b600160009054906101000a900473ffffffffffffffffffffffffffffffffffffffff1673ffffffffffffffffffffffffffffffffffffffff163373ffffffffffffffffffffffffffffffffffffffff161415611b9857600160009054906101000a900473ffffffffffffffffffffffffffffffffffffffff166000806101000a81548173ffffffffffffffffffffffffffffffffffffffff021916908373ffffffffffffffffffffffffffffffffffffffff1602179055505b565b6000806000600460003373ffffffffffffffffffffffffffffffffffffffff1673ffffffffffffffffffffffffffffffffffffffff16815260200190815260200160002060009054906101000a900460ff16151560011515141515611bfe57600080fd5b600360009054906101000a900473ffffffffffffffffffffffffffffffffffffffff1673ffffffffffffffffffffffffffffffffffffffff16637aa71f108787876040518463ffffffff167c0100000000000000000000000000000000000000000000000000000000028152600401808473ffffffffffffffffffffffffffffffffffffffff1673ffffffffffffffffffffffffffffffffffffffff1681526020018373ffffffffffffffffffffffffffffffffffffffff1673ffffffffffffffffffffffffffffffffffffffff168152602001821515151581526020019350505050602060405180830381600087803b158015611cfb57600080fd5b505af1158015611d0f573d6000803e3d6000fd5b505050506040513d6020811015611d2557600080fd5b810190808051906020019092919050505091508115611dc757600560008773ffffffffffffffffffffffffffffffffffffffff1673ffffffffffffffffffffffffffffffffffffffff16815260200190815260200160002060008673ffffffffffffffffffffffffffffffffffffffff1673ffffffffffffffffffffffffffffffffffffffff1681526020019081526020016000209050600081600301819055505b81925050509392505050565b6000806000806000600160149054906101000a900460ff16151515611df757600080fd5b600073ffffffffffffffffffffffffffffffffffffffff168873ffffffffffffffffffffffffffffffffffffffff1614158015611e615750600073ffffffffffffffffffffffffffffffffffffffff168773ffffffffffffffffffffffffffffffffffffffff1614155b8015611e6d5750600086115b1515611e7857600080fd5b6000600560008b73ffffffffffffffffffffffffffffffffffffffff1673ffffffffffffffffffffffffffffffffffffffff16815260200190815260200160002060008a73ffffffffffffffffffffffffffffffffffffffff1673ffffffffffffffffffffffffffffffffffffffff16815260200190815260200160002060000154141515611f0657600080fd5b600260009054906101000a900473ffffffffffffffffffffffffffffffffffffffff1673ffffffffffffffffffffffffffffffffffffffff1663bfbcb918600260009054906101000a900473ffffffffffffffffffffffffffffffffffffffff1673ffffffffffffffffffffffffffffffffffffffff1663ff63e84b8c6040518263ffffffff167c0100000000000000000000000000000000000000000000000000000000028152600401808273ffffffffffffffffffffffffffffffffffffffff1673ffffffffffffffffffffffffffffffffffffffff168152602001915050602060405180830381600087803b15801561200157600080fd5b505af1158015612015573d6000803e3d6000fd5b505050506040513d602081101561202b57600080fd5b81019080805190602001909291905050506040518263ffffffff167c010000000000000000000000000000000000000000000000000000000002815260040180826000191660001916815260200191505061014060405180830381600087803b15801561209757600080fd5b505af11580156120ab573d6000803e3d6000fd5b505050506040513d6101408110156120c257600080fd5b810190808051906020019092919080519060200190929190805190602001909291908051906020019092919080519060200190929190805190602001909291908051906020019092919080519060200190929190805190602001909291908051906020019092919050505050505050965050955095509550508234101580156121ca57506000600560008b73ffffffffffffffffffffffffffffffffffffffff1673ffffffffffffffffffffffffffffffffffffffff16815260200190815260200160002060008a73ffffffffffffffffffffffffffffffffffffffff1673ffffffffffffffffffffffffffffffffffffffff16815260200190815260200160002060040154145b15156121d557600080fd5b811561230657600660008a73ffffffffffffffffffffffffffffffffffffffff1673ffffffffffffffffffffffffffffffffffffffff16815260200190815260200160002060008973ffffffffffffffffffffffffffffffffffffffff1673ffffffffffffffffffffffffffffffffffffffff16815260200190815260200160002060009054906101000a900460ff16151561227057600080fd5b6000600660008b73ffffffffffffffffffffffffffffffffffffffff1673ffffffffffffffffffffffffffffffffffffffff16815260200190815260200160002060008a73ffffffffffffffffffffffffffffffffffffffff1673ffffffffffffffffffffffffffffffffffffffff16815260200190815260200160002060006101000a81548160ff0219169083151502179055505b6124bb670de0b6b3a76400006124ad8773ffffffffffffffffffffffffffffffffffffffff1663313ce5676040518163ffffffff167c0100000000000000000000000000000000000000000000000000000000028152600401602060405180830381600087803b15801561237957600080fd5b505af115801561238d573d6000803e3d6000fd5b505050506040513d60208110156123a357600080fd5b810190808051906020019092919050505060ff16600a0a61249f88612491600260009054906101000a900473ffffffffffffffffffffffffffffffffffffffff1673ffffffffffffffffffffffffffffffffffffffff1663bd4901676040518163ffffffff167c0100000000000000000000000000000000000000000000000000000000028152600401602060405180830381600087803b15801561244757600080fd5b505af115801561245b573d6000803e3d6000fd5b505050506040513d602081101561247157600080fd5b8101908080519060200190929190505050346149e090919063ffffffff16565b614a1e90919063ffffffff16565b6149e090919063ffffffff16565b614a1e90919063ffffffff16565b9050600360009054906101000a900473ffffffffffffffffffffffffffffffffffffffff1673ffffffffffffffffffffffffffffffffffffffff16634fd7b0c88a8a846040518463ffffffff167c0100000000000000000000000000000000000000000000000000000000028152600401808473ffffffffffffffffffffffffffffffffffffffff1673ffffffffffffffffffffffffffffffffffffffff1681526020018373ffffffffffffffffffffffffffffffffffffffff1673ffffffffffffffffffffffffffffffffffffffff1681526020018281526020019350505050602060405180830381600087803b1580156125b657600080fd5b505af11580156125ca573d6000803e3d6000fd5b505050506040513d60208110156125e057600080fd5b810190808051906020019092919050505015156125fc57600080fd5b60e0604051908101604052803481526020018873ffffffffffffffffffffffffffffffffffffffff168152602001600081526020018781526020014381526020013373ffffffffffffffffffffffffffffffffffffffff168a73ffffffffffffffffffffffffffffffffffffffff16146126765733612679565b60005b73ffffffffffffffffffffffffffffffffffffffff1681526020016000815250600560008b73ffffffffffffffffffffffffffffffffffffffff1673ffffffffffffffffffffffffffffffffffffffff16815260200190815260200160002060008a73ffffffffffffffffffffffffffffffffffffffff1673ffffffffffffffffffffffffffffffffffffffff1681526020019081526020016000206000820151816000015560208201518160010160006101000a81548173ffffffffffffffffffffffffffffffffffffffff021916908373ffffffffffffffffffffffffffffffffffffffff16021790555060408201518160020155606082015181600301556080820151816004015560a08201518160050160006101000a81548173ffffffffffffffffffffffffffffffffffffffff021916908373ffffffffffffffffffffffffffffffffffffffff16021790555060c082015181600601559050508773ffffffffffffffffffffffffffffffffffffffff168973ffffffffffffffffffffffffffffffffffffffff167f5776006891bdd1356f9da778591c95442ce76927d975c87e0708ffe221bb21818934858b604051808573ffffffffffffffffffffffffffffffffffffffff1673ffffffffffffffffffffffffffffffffffffffff16815260200184815260200183815260200182815260200194505050505060405180910390a3505050505050505050565b60066020528160005260406000206020528060005260406000206000915091509054906101000a900460ff1681565b6000809054906101000a900473ffffffffffffffffffffffffffffffffffffffff1681565b6000809054906101000a900473ffffffffffffffffffffffffffffffffffffffff1673ffffffffffffffffffffffffffffffffffffffff163373ffffffffffffffffffffffffffffffffffffffff1614151561293b57600080fd5b80600160006101000a81548173ffffffffffffffffffffffffffffffffffffffff021916908373ffffffffffffffffffffffffffffffffffffffff16021790555050565b60046020528060005260406000206000915054906101000a900460ff1681565b60008060009054906101000a900473ffffffffffffffffffffffffffffffffffffffff1673ffffffffffffffffffffffffffffffffffffffff163373ffffffffffffffffffffffffffffffffffffffff161415156129fc57600080fd5b600034111515612a0b57600080fd5b600260009054906101000a900473ffffffffffffffffffffffffffffffffffffffff1673ffffffffffffffffffffffffffffffffffffffff1663bfbcb918600260009054906101000a900473ffffffffffffffffffffffffffffffffffffffff1673ffffffffffffffffffffffffffffffffffffffff1663ff63e84b856040518263ffffffff167c0100000000000000000000000000000000000000000000000000000000028152600401808273ffffffffffffffffffffffffffffffffffffffff1673ffffffffffffffffffffffffffffffffffffffff168152602001915050602060405180830381600087803b158015612b0657600080fd5b505af1158015612b1a573d6000803e3d6000fd5b505050506040513d6020811015612b3057600080fd5b81019080805190602001909291905050506040518263ffffffff167c010000000000000000000000000000000000000000000000000000000002815260040180826000191660001916815260200191505061014060405180830381600087803b158015612b9c57600080fd5b505af1158015612bb0573d6000803e3d6000fd5b505050506040513d610140811015612bc757600080fd5b81019080805190602001909291908051906020019092919080519060200190929190805190602001909291908051906020019092919080519060200190929190805190602001909291908051906020019092919080519060200190929190805190602001909291905050505050509650505050505050600081111515612c4c57600080fd5b600260009054906101000a900473ffffffffffffffffffffffffffffffffffffffff1673ffffffffffffffffffffffffffffffffffffffff16635ea09d5e833460016040518463ffffffff167c0100000000000000000000000000000000000000000000000000000000028152600401808473ffffffffffffffffffffffffffffffffffffffff1673ffffffffffffffffffffffffffffffffffffffff168152602001838152602001821515151581526020019350505050602060405180830381600087803b158015612d1e57600080fd5b505af1158015612d32573d6000803e3d6000fd5b505050506040513d6020811015612d4857600080fd5b81019080805190602001909291905050501515612d6457600080fd5b343373ffffffffffffffffffffffffffffffffffffffff168373ffffffffffffffffffffffffffffffffffffffff167fd0a3a74aac2455f5a351aebb442fa5e955d44c56fba0eb2ff77bacb2a259c02a60405160405180910390a45050565b6000809054906101000a900473ffffffffffffffffffffffffffffffffffffffff1673ffffffffffffffffffffffffffffffffffffffff163373ffffffffffffffffffffffffffffffffffffffff16141515612e1e57600080fd5b600073ffffffffffffffffffffffffffffffffffffffff168373ffffffffffffffffffffffffffffffffffffffff1614158015612e885750600073ffffffffffffffffffffffffffffffffffffffff168273ffffffffffffffffffffffffffffffffffffffff1614155b8015612e945750600081115b1515612f08576040517f08c379a00000000000000000000000000000000000000000000000000000000081526004018080602001828103825260128152602001807f496e76616c696420706172616d6574657273000000000000000000000000000081525060200191505060405180910390fd5b60e06040519081016040528060008152602001600073ffffffffffffffffffffffffffffffffffffffff1681526020016000815260200182815260200160008152602001600073ffffffffffffffffffffffffffffffffffffffff1681526020016000815250600560008573ffffffffffffffffffffffffffffffffffffffff1673ffffffffffffffffffffffffffffffffffffffff16815260200190815260200160002060008473ffffffffffffffffffffffffffffffffffffffff1673ffffffffffffffffffffffffffffffffffffffff1681526020019081526020016000206000820151816000015560208201518160010160006101000a81548173ffffffffffffffffffffffffffffffffffffffff021916908373ffffffffffffffffffffffffffffffffffffffff16021790555060408201518160020155606082015181600301556080820151816004015560a08201518160050160006101000a81548173ffffffffffffffffffffffffffffffffffffffff021916908373ffffffffffffffffffffffffffffffffffffffff16021790555060c08201518160060155905050505050565b600160149054906101000a900460ff1681565b600080600160149054906101000a900460ff161515156130e457600080fd5b8273ffffffffffffffffffffffffffffffffffffffff163373ffffffffffffffffffffffffffffffffffffffff161415156131f3573373ffffffffffffffffffffffffffffffffffffffff16600560008673ffffffffffffffffffffffffffffffffffffffff1673ffffffffffffffffffffffffffffffffffffffff16815260200190815260200160002060008573ffffffffffffffffffffffffffffffffffffffff1673ffffffffffffffffffffffffffffffffffffffff16815260200190815260200160002060050160009054906101000a900473ffffffffffffffffffffffffffffffffffffffff1673ffffffffffffffffffffffffffffffffffffffff161415156131f257600080fd5b5b600560008573ffffffffffffffffffffffffffffffffffffffff1673ffffffffffffffffffffffffffffffffffffffff16815260200190815260200160002060008473ffffffffffffffffffffffffffffffffffffffff1673ffffffffffffffffffffffffffffffffffffffff16815260200190815260200160002091506000826004015411151561328457600080fd5b6000826002015414151561329757600080fd5b428260020181905550600260009054906101000a900473ffffffffffffffffffffffffffffffffffffffff1673ffffffffffffffffffffffffffffffffffffffff1663bfbcb918600260009054906101000a900473ffffffffffffffffffffffffffffffffffffffff1673ffffffffffffffffffffffffffffffffffffffff1663ff63e84b876040518263ffffffff167c0100000000000000000000000000000000000000000000000000000000028152600401808273ffffffffffffffffffffffffffffffffffffffff1673ffffffffffffffffffffffffffffffffffffffff168152602001915050602060405180830381600087803b15801561339b57600080fd5b505af11580156133af573d6000803e3d6000fd5b505050506040513d60208110156133c557600080fd5b81019080805190602001909291905050506040518263ffffffff167c010000000000000000000000000000000000000000000000000000000002815260040180826000191660001916815260200191505061014060405180830381600087803b15801561343157600080fd5b505af1158015613445573d6000803e3d6000fd5b505050506040513d61014081101561345c57600080fd5b8101908080519060200190929190805190602001909291908051906020019092919080519060200190929190805190602001909291908051906020019092919080519060200190929190805190602001909291908051906020019092919080519060200190929190505050505050965050505050505060008111156134e6576134e58484614a48565b5b600360009054906101000a900473ffffffffffffffffffffffffffffffffffffffff1673ffffffffffffffffffffffffffffffffffffffff1663dae48eee85856040518363ffffffff167c0100000000000000000000000000000000000000000000000000000000028152600401808373ffffffffffffffffffffffffffffffffffffffff1673ffffffffffffffffffffffffffffffffffffffff1681526020018273ffffffffffffffffffffffffffffffffffffffff1673ffffffffffffffffffffffffffffffffffffffff16815260200192505050602060405180830381600087803b1580156135d757600080fd5b505af11580156135eb573d6000803e3d6000fd5b505050506040513d602081101561360157600080fd5b8101908080519060200190929190505050151561361d57600080fd5b428373ffffffffffffffffffffffffffffffffffffffff168573ffffffffffffffffffffffffffffffffffffffff167fad0652ee17a9d4f02cb02677963b9b3e9ec5685ab583697b48a73b7cbfdad5d260405160405180910390a450505050565b600080600460003373ffffffffffffffffffffffffffffffffffffffff1673ffffffffffffffffffffffffffffffffffffffff16815260200190815260200160002060009054906101000a900460ff161515600115151415156136e057600080fd5b600260009054906101000a900473ffffffffffffffffffffffffffffffffffffffff1673ffffffffffffffffffffffffffffffffffffffff1663bd4901676040518163ffffffff167c0100000000000000000000000000000000000000000000000000000000028152600401602060405180830381600087803b15801561376657600080fd5b505af115801561377a573d6000803e3d6000fd5b505050506040513d602081101561379057600080fd5b810190808051906020019092919050505090508091505090565b600080600080600080600080600080600460003373ffffffffffffffffffffffffffffffffffffffff1673ffffffffffffffffffffffffffffffffffffffff16815260200190815260200160002060009054906101000a900460ff1615156001151514151561381857600080fd5b6000600102600019168b600019161415151561389c576040517f08c379a00000000000000000000000000000000000000000000000000000000081526004018080602001828103825260108152602001807f496e76616c6964206b657920686173680000000000000000000000000000000081525060200191505060405180910390fd5b600260009054906101000a900473ffffffffffffffffffffffffffffffffffffffff1673ffffffffffffffffffffffffffffffffffffffff1663bfbcb9188c6040518263ffffffff167c010000000000000000000000000000000000000000000000000000000002815260040180826000191660001916815260200191505061014060405180830381600087803b15801561393657600080fd5b505af115801561394a573d6000803e3d6000fd5b505050506040513d61014081101561396157600080fd5b810190808051906020019092919080519060200190929190805190602001909291908051906020019092919080519060200190929190805190602001909291908051906020019092919080519060200190929190805190602001909291908051906020019092919050505099509950995099509950995099509950995099509193959799509193959799565b600080600080600160149054906101000a900460ff16151515613a0f57600080fd5b8473ffffffffffffffffffffffffffffffffffffffff163373ffffffffffffffffffffffffffffffffffffffff16141515613b1e573373ffffffffffffffffffffffffffffffffffffffff16600560008873ffffffffffffffffffffffffffffffffffffffff1673ffffffffffffffffffffffffffffffffffffffff16815260200190815260200160002060008773ffffffffffffffffffffffffffffffffffffffff1673ffffffffffffffffffffffffffffffffffffffff16815260200190815260200160002060050160009054906101000a900473ffffffffffffffffffffffffffffffffffffffff1673ffffffffffffffffffffffffffffffffffffffff16141515613b1d57600080fd5b5b600560008773ffffffffffffffffffffffffffffffffffffffff1673ffffffffffffffffffffffffffffffffffffffff16815260200190815260200160002060008673ffffffffffffffffffffffffffffffffffffffff1673ffffffffffffffffffffffffffffffffffffffff1681526020019081526020016000209350600260009054906101000a900473ffffffffffffffffffffffffffffffffffffffff1673ffffffffffffffffffffffffffffffffffffffff1663bfbcb918600260009054906101000a900473ffffffffffffffffffffffffffffffffffffffff1673ffffffffffffffffffffffffffffffffffffffff1663ff63e84b896040518263ffffffff167c0100000000000000000000000000000000000000000000000000000000028152600401808273ffffffffffffffffffffffffffffffffffffffff1673ffffffffffffffffffffffffffffffffffffffff168152602001915050602060405180830381600087803b158015613c9757600080fd5b505af1158015613cab573d6000803e3d6000fd5b505050506040513d6020811015613cc157600080fd5b81019080805190602001909291905050506040518263ffffffff167c010000000000000000000000000000000000000000000000000000000002815260040180826000191660001916815260200191505061014060405180830381600087803b158015613d2d57600080fd5b505af1158015613d41573d6000803e3d6000fd5b505050506040513d610140811015613d5857600080fd5b81019080805190602001909291908051906020019092919080519060200190929190805190602001909291908051906020019092919080519060200190929190805190602001909291908051906020019092919080519060200190929190805190602001909291905050505050505050965050505050613de583856002015461524690919063ffffffff16565b42118015613df7575060008460000154115b1515613e0257600080fd5b600360009054906101000a900473ffffffffffffffffffffffffffffffffffffffff1673ffffffffffffffffffffffffffffffffffffffff16637aa71f10878760016040518463ffffffff167c0100000000000000000000000000000000000000000000000000000000028152600401808473ffffffffffffffffffffffffffffffffffffffff1673ffffffffffffffffffffffffffffffffffffffff1681526020018373ffffffffffffffffffffffffffffffffffffffff1673ffffffffffffffffffffffffffffffffffffffff168152602001821515151581526020019350505050602060405180830381600087803b158015613f0057600080fd5b505af1158015613f14573d6000803e3d6000fd5b505050506040513d6020811015613f2a57600080fd5b81019080805190602001909291905050501515613f4657600080fd5b83600001549150836000015490506000846000018190555060008460010160006101000a81548173ffffffffffffffffffffffffffffffffffffffff021916908373ffffffffffffffffffffffffffffffffffffffff16021790555060008460020181905550600084600301819055506000846004018190555060008460060181905550600073ffffffffffffffffffffffffffffffffffffffff168460050160009054906101000a900473ffffffffffffffffffffffffffffffffffffffff1673ffffffffffffffffffffffffffffffffffffffff16141515614094578360050160009054906101000a900473ffffffffffffffffffffffffffffffffffffffff1673ffffffffffffffffffffffffffffffffffffffff166108fc829081150290604051600060405180830381858888f1935050505015801561408e573d6000803e3d6000fd5b506140dc565b3373ffffffffffffffffffffffffffffffffffffffff166108fc829081150290604051600060405180830381858888f193505050501580156140da573d6000803e3d6000fd5b505b60008460050160006101000a81548173ffffffffffffffffffffffffffffffffffffffff021916908373ffffffffffffffffffffffffffffffffffffffff160217905550808573ffffffffffffffffffffffffffffffffffffffff168773ffffffffffffffffffffffffffffffffffffffff167f8d61b2b20ba3ea8a7ce571bc1718a9058edd8c72675ea8288c7871f766c1ae2d856040518082815260200191505060405180910390a4505050505050565b6000600160149054906101000a900460ff161515156141ac57600080fd5b3373ffffffffffffffffffffffffffffffffffffffff16600560008573ffffffffffffffffffffffffffffffffffffffff1673ffffffffffffffffffffffffffffffffffffffff16815260200190815260200160002060008473ffffffffffffffffffffffffffffffffffffffff1673ffffffffffffffffffffffffffffffffffffffff16815260200190815260200160002060050160009054906101000a900473ffffffffffffffffffffffffffffffffffffffff1673ffffffffffffffffffffffffffffffffffffffff1614151561428557600080fd5b600560008473ffffffffffffffffffffffffffffffffffffffff1673ffffffffffffffffffffffffffffffffffffffff16815260200190815260200160002060008373ffffffffffffffffffffffffffffffffffffffff1673ffffffffffffffffffffffffffffffffffffffff1681526020019081526020016000209050600081600401541415801561431c575060008160020154145b151561432757600080fd5b6143318383614a48565b505050565b600160009054906101000a900473ffffffffffffffffffffffffffffffffffffffff1681565b600080600460003373ffffffffffffffffffffffffffffffffffffffff1673ffffffffffffffffffffffffffffffffffffffff16815260200190815260200160002060009054906101000a900460ff161515600115151415156143be57600080fd5b600360009054906101000a900473ffffffffffffffffffffffffffffffffffffffff1673ffffffffffffffffffffffffffffffffffffffff1663dae48eee85856040518363ffffffff167c0100000000000000000000000000000000000000000000000000000000028152600401808373ffffffffffffffffffffffffffffffffffffffff1673ffffffffffffffffffffffffffffffffffffffff1681526020018273ffffffffffffffffffffffffffffffffffffffff1673ffffffffffffffffffffffffffffffffffffffff16815260200192505050602060405180830381600087803b1580156144af57600080fd5b505af11580156144c3573d6000803e3d6000fd5b505050506040513d60208110156144d957600080fd5b810190808051906020019092919050505090508091505092915050565b6000809054906101000a900473ffffffffffffffffffffffffffffffffffffffff1673ffffffffffffffffffffffffffffffffffffffff163373ffffffffffffffffffffffffffffffffffffffff1614151561455157600080fd5b600160149054906101000a900460ff16151561456c57600080fd5b600073ffffffffffffffffffffffffffffffffffffffff168273ffffffffffffffffffffffffffffffffffffffff16141580156145d65750600073ffffffffffffffffffffffffffffffffffffffff168173ffffffffffffffffffffffffffffffffffffffff1614155b15156145e157600080fd5b81600260006101000a81548173ffffffffffffffffffffffffffffffffffffffff021916908373ffffffffffffffffffffffffffffffffffffffff16021790555080600360006101000a81548173ffffffffffffffffffffffffffffffffffffffff021916908373ffffffffffffffffffffffffffffffffffffffff1602179055505050565b6000600160149054906101000a900460ff1615151561468557600080fd5b600560008373ffffffffffffffffffffffffffffffffffffffff1673ffffffffffffffffffffffffffffffffffffffff16815260200190815260200160002060003373ffffffffffffffffffffffffffffffffffffffff1673ffffffffffffffffffffffffffffffffffffffff1681526020019081526020016000209050600081600401541415801561471c575060008160020154145b151561472757600080fd5b6147318233614a48565b5050565b6000809054906101000a900473ffffffffffffffffffffffffffffffffffffffff1673ffffffffffffffffffffffffffffffffffffffff163373ffffffffffffffffffffffffffffffffffffffff1614151561479057600080fd5b80600160146101000a81548160ff02191690831515021790555050565b600160149054906101000a900460ff161515156147c957600080fd5b6147d381336130c5565b50565b600080600460003373ffffffffffffffffffffffffffffffffffffffff1673ffffffffffffffffffffffffffffffffffffffff16815260200190815260200160002060009054906101000a900460ff1615156001151514151561483857600080fd5b600073ffffffffffffffffffffffffffffffffffffffff168373ffffffffffffffffffffffffffffffffffffffff16141515156148dd576040517f08c379a000000000000000000000000000000000000000000000000000000000815260040180806020018281038252601c8152602001807f496e76616c696420746f6b656e204f726967696e20416464726573730000000081525060200191505060405180910390fd5b600260009054906101000a900473ffffffffffffffffffffffffffffffffffffffff1673ffffffffffffffffffffffffffffffffffffffff1663ff63e84b846040518263ffffffff167c0100000000000000000000000000000000000000000000000000000000028152600401808273ffffffffffffffffffffffffffffffffffffffff1673ffffffffffffffffffffffffffffffffffffffff168152602001915050602060405180830381600087803b15801561499a57600080fd5b505af11580156149ae573d6000803e3d6000fd5b505050506040513d60208110156149c457600080fd5b8101908080519060200190929190505050905080915050919050565b60008060008414156149f55760009150614a17565b8284029050828482811515614a0657fe5b04141515614a1357600080fd5b8091505b5092915050565b600080600083111515614a3057600080fd5b8284811515614a3b57fe5b0490508091505092915050565b6000806000806000806000600560008a73ffffffffffffffffffffffffffffffffffffffff1673ffffffffffffffffffffffffffffffffffffffff16815260200190815260200160002060008973ffffffffffffffffffffffffffffffffffffffff1673ffffffffffffffffffffffffffffffffffffffff1681526020019081526020016000209650600260009054906101000a900473ffffffffffffffffffffffffffffffffffffffff1673ffffffffffffffffffffffffffffffffffffffff1663bfbcb918600260009054906101000a900473ffffffffffffffffffffffffffffffffffffffff1673ffffffffffffffffffffffffffffffffffffffff1663ff63e84b8c6040518263ffffffff167c0100000000000000000000000000000000000000000000000000000000028152600401808273ffffffffffffffffffffffffffffffffffffffff1673ffffffffffffffffffffffffffffffffffffffff168152602001915050602060405180830381600087803b158015614bcc57600080fd5b505af1158015614be0573d6000803e3d6000fd5b505050506040513d6020811015614bf657600080fd5b81019080805190602001909291905050506040518263ffffffff167c010000000000000000000000000000000000000000000000000000000002815260040180826000191660001916815260200191505061014060405180830381600087803b158015614c6257600080fd5b505af1158015614c76573d6000803e3d6000fd5b505050506040513d610140811015614c8d57600080fd5b81019080805190602001909291908051906020019092919080519060200190929190805190602001909291908051906020019092919080519060200190929190805190602001909291908051906020019092919080519060200190929190805190602001909291905050509b509b509b509b505050505050506000861415614d145761523b565b85876004015410614d29578660040154614d2b565b855b876004018190555083614d4b88600401544361526790919063ffffffff16565b10158015614d5d575060008760000154115b1561523a57614d8b84614d7d89600401544361526790919063ffffffff16565b614a1e90919063ffffffff16565b9150614db6614da385846149e090919063ffffffff16565b886004015461524690919063ffffffff16565b8760040181905550614ea7600260009054906101000a900473ffffffffffffffffffffffffffffffffffffffff1673ffffffffffffffffffffffffffffffffffffffff1663bd4901676040518163ffffffff167c0100000000000000000000000000000000000000000000000000000000028152600401602060405180830381600087803b158015614e4757600080fd5b505af1158015614e5b573d6000803e3d6000fd5b505050506040513d6020811015614e7157600080fd5b8101908080519060200190929190505050614e99858a600001546149e090919063ffffffff16565b614a1e90919063ffffffff16565b9050614ebc82826149e090919063ffffffff16565b9050808510158015614ece5750600081115b156151dc57600260009054906101000a900473ffffffffffffffffffffffffffffffffffffffff1673ffffffffffffffffffffffffffffffffffffffff16635ea09d5e8a8360006040518463ffffffff167c0100000000000000000000000000000000000000000000000000000000028152600401808473ffffffffffffffffffffffffffffffffffffffff1673ffffffffffffffffffffffffffffffffffffffff168152602001838152602001821515151581526020019350505050602060405180830381600087803b158015614fa557600080fd5b505af1158015614fb9573d6000803e3d6000fd5b505050506040513d6020811015614fcf57600080fd5b81019080805190602001909291905050501515614feb57600080fd5b600073ffffffffffffffffffffffffffffffffffffffff168760050160009054906101000a900473ffffffffffffffffffffffffffffffffffffffff1673ffffffffffffffffffffffffffffffffffffffff16141515615134578660050160009054906101000a900473ffffffffffffffffffffffffffffffffffffffff1673ffffffffffffffffffffffffffffffffffffffff166108fc829081150290604051600060405180830381858888f193505050501580156150af573d6000803e3d6000fd5b50808760050160009054906101000a900473ffffffffffffffffffffffffffffffffffffffff1673ffffffffffffffffffffffffffffffffffffffff168a73ffffffffffffffffffffffffffffffffffffffff167f1d41269bd1204cbc6f538be6a67f9482456bf4767f716383b75393e28b1fc0fe60405160405180910390a46151d7565b3373ffffffffffffffffffffffffffffffffffffffff166108fc829081150290604051600060405180830381858888f1935050505015801561517a573d6000803e3d6000fd5b50803373ffffffffffffffffffffffffffffffffffffffff168a73ffffffffffffffffffffffffffffffffffffffff167f1d41269bd1204cbc6f538be6a67f9482456bf4767f716383b75393e28b1fc0fe60405160405180910390a45b615239565b60003373ffffffffffffffffffffffffffffffffffffffff168a73ffffffffffffffffffffffffffffffffffffffff167f1d41269bd1204cbc6f538be6a67f9482456bf4767f716383b75393e28b1fc0fe60405160405180910390a45b5b5b505050505050505050565b600080828401905083811015151561525d57600080fd5b8091505092915050565b60008083831115151561527957600080fd5b828403905080915050929150505600a165627a7a72305820d6c127286ecdcc1adcf5983f3afe98a9ce09265035ff2570a06391ca58b3a22b0029",
  "source": "/*\n\n  Copyright 2018 Wanchain Foundation.\n\n  Licensed under the Apache License, Version 2.0 (the \"License\");\n  you may not use this file except in compliance with the License.\n  You may obtain a copy of the License at\n\n  http://www.apache.org/licenses/LICENSE-2.0\n\n  Unless required by applicable law or agreed to in writing, software\n  distributed under the License is distributed on an \"AS IS\" BASIS,\n  WITHOUT WARRANTIES OR CONDITIONS OF ANY KIND, either express or implied.\n  See the License for the specific language governing permissions and\n  limitations under the License.\n\n*/\n\n//                            _           _           _            \n//  __      ____ _ _ __   ___| |__   __ _(_)_ __   __| | _____   __\n//  \\ \\ /\\ / / _` | '_ \\ / __| '_ \\ / _` | | '_ \\@/ _` |/ _ \\ \\ / /\n//   \\ V  V / (_| | | | | (__| | | | (_| | | | | | (_| |  __/\\ V / \n//    \\_/\\_/ \\__,_|_| |_|\\___|_| |_|\\__,_|_|_| |_|\\__,_|\\___| \\_/  \n//    \n//  Code style according to: https://github.com/wanchain/wanchain-token/blob/master/style-guide.rst\n\npragma solidity ^0.4.24;\n\nimport \"./SafeMath.sol\";\nimport \"./Halt.sol\";\n\ninterface TokenInterface {\n    function mapKey(address) public view returns(bytes32);\n    function mapTokenInfo(bytes32) public view returns(address, address, uint, uint, uint, bool, uint, uint, uint, uint);\n    function mapPenaltyReceiver(address) public view returns(address);\n    function updateTotalBonus(address, uint, bool) external returns(bool);\n    function DEFAULT_PRECISE() public returns (uint);\n}\n\ninterface QuotaInterface {\n    function applyUnregistration(address, address) external returns (bool);\n    function setStoremanGroupQuota(address, address, uint) external returns (bool);\n    function unregisterStoremanGroup(address, address, bool) external returns (bool);\n}\n\ninterface WERCProtocol {\n    function decimals() public returns(uint8);\n}\n\n// modified by liaoxx on 20181228, for Improved StoremanGroupAdmin task\ncontract ImprovedStoremanGroupAdmin is Halt{\n    using SafeMath for uint;\n    \n    /// token manager instance address\n    address public tokenManager;\n\n    /// quotaLedger instance address\n    address public quotaLedger;\n\n    /// added by liaoxx on 2018.12.28, for oldStoremanGroupAdminArray instance address\n    mapping(address=>bool) public mapRegistedOldSmgAdmin;\n            \n    /// a map from addresses to storeman group information (tokenOrigAddr->storemanGroupAddr->StoremanGroup)\n    mapping(address=>mapping(address => StoremanGroup)) public mapStoremanGroup;     \n\n    /// a map from addresses to storeman group white list information\n    mapping(address=>mapping(address => bool)) public mapSmgWhiteList;                \n\n    struct StoremanGroup {\n        uint    deposit;                  /// the storeman group deposit in wan coins\n        address originalChainAddr;        /// the account for storeman group on original chain\n        uint    unregisterApplyTime;      /// the time point for storeman group applied unregistration\n        uint    txFeeRatio;               /// the fee ratio required by storeman group\n        uint    bonusBlockNumber;         /// the start block number for bonus calculation for storeman group\n        address initiator;                /// the account for registering a storeman group which provides storeman group deposit\n        uint    punishPercent;            /// punish rate of deposit, which is an integer from 0 to 100\n    }\n\n    /**\n    *\n    * EVENTS\n    *\n    */   \n        \n    /// @notice                           event for storeman register  \n    /// @dev                              event for storeman register  \n    /// @param tokenOrigAddr              token address of original chain\n    /// @param smgWanAddr                 smgWanAddr address\n    /// @param smgOrigAddr                storeman group  original chain address\n    /// @param wanDeposit                 deposit wancoin number\n    /// @param quota                      corresponding token quota\n    /// @param txFeeRatio                 storeman fee ratio\n    event StoremanGroupRegistrationLogger(address indexed tokenOrigAddr, address indexed smgWanAddr, address smgOrigAddr, uint wanDeposit, uint quota, uint txFeeRatio);\n    \n    /// @notice                           event for bonus deposit\n    /// @dev                              event for bonus deposit \n    /// @param tokenOrigAddr              token address of original chain\n    /// @param sender                     sender for bonus\n    /// @param wancoin                    deposit wancoin number\n    event StoremanGroupDepositBonusLogger(address indexed tokenOrigAddr, address indexed sender, uint indexed wancoin);\n    \n    /// @notice                           event for storeman register  \n    /// @dev                              event for storeman register  \n    /// @param smgWanAddr                 storeman address\n    /// @param tokenOrigAddr              token address of original chain\n    event SmgEnableWhiteListLogger(address indexed smgWanAddr, address indexed tokenOrigAddr);   \n        \n    /// @notice                           event for applying storeman group unregister \n    /// @param tokenOrigAddr              token address of original chain\n    /// @param smgWanAddr                 storemanGroup address\n    /// @param applyTime                  the time for storeman applying unregister    \n    event StoremanGroupApplyUnRegistrationLogger(address indexed tokenOrigAddr, address indexed smgWanAddr, uint indexed applyTime);\n    \n    /// @notice                           event for storeman group withdraw deposit\n    /// @param tokenOrigAddr              token address of original chain\n    /// @param smgWanAddr                 storemanGroup address\n    /// @param actualReturn               the time for storeman applying unregister       \n    /// @param deposit                    deposit in the first place\n    event StoremanGroupWithdrawLogger(address indexed tokenOrigAddr, address indexed smgWanAddr, uint indexed actualReturn, uint deposit);\n    \n    /// @notice                           event for storeman group claiming system bonus\n    /// @param tokenOrigAddr              token address of original chain\n    /// @param bonusRecipient             storemanGroup address\n    /// @param bonus                      the bonus for storeman claim       \n    event StoremanGroupClaimSystemBonusLogger(address indexed tokenOrigAddr, address indexed bonusRecipient, uint indexed bonus);\n    \n\t\n    /// @dev  only registed Old SmgAdmin can call this function \n    /// modifier\n    modifier onlyRegistedOldSmgAdmin() {\n        require(true == mapRegistedOldSmgAdmin[msg.sender]);\n        _;\n    }\n\n    /**\n     *\n     * private methods\n     *\n     */\n    \n    /// @notice                           set oldStoremanGroupAdmin instance address added by liaoxx for\n    /// @param _smga                      old StoremanGroupAdmin instance address\n    function registerOldStoremanGroupAdmin(address _smga)\n        public\n        onlyOwner\n        isHalted\n    {\n        require(_smga != address(0), \"Invalid storemangroup Address\");\n        mapRegistedOldSmgAdmin[_smga] = true;\n    }\n\n\n    /// @notice                           function for bonus claim\n    /// @param tokenOrigAddr              token address of original chain\n    /// @param storemanGroup              storeman group address\n    function doClaimSystemBonus(address tokenOrigAddr, address storemanGroup)\n        private\n    {\n        StoremanGroup storage smgInfo = mapStoremanGroup[tokenOrigAddr][storemanGroup];\n        \n        var (,,,,,,startBonusBlk,bonusTotal,bonusPeriodBlks,bonusRatio) = TokenInterface(tokenManager).mapTokenInfo(TokenInterface(tokenManager).mapKey(tokenOrigAddr));\n\n        //if(smgInfo.punishPercent != 0 || startBonusBlk == 0){  // modified by liaoxx On 2019.01.07\n        if(startBonusBlk == 0){\n          return;\n        }\n\n        smgInfo.bonusBlockNumber = smgInfo.bonusBlockNumber < startBonusBlk ? startBonusBlk : smgInfo.bonusBlockNumber;\n       \n        if (block.number.sub(smgInfo.bonusBlockNumber) >= bonusPeriodBlks && smgInfo.deposit > 0) {\n            uint cycles = (block.number.sub(smgInfo.bonusBlockNumber)).div(bonusPeriodBlks);\n\n            smgInfo.bonusBlockNumber = smgInfo.bonusBlockNumber.add(cycles.mul(bonusPeriodBlks));\n\n            uint bonus = smgInfo.deposit.mul(bonusRatio).div(TokenInterface(tokenManager).DEFAULT_PRECISE());\n            bonus = bonus.mul(cycles);\n\n            if (bonusTotal >= bonus && bonus > 0) {\n                require(TokenInterface(tokenManager).updateTotalBonus(tokenOrigAddr, bonus, false));\n                    if(smgInfo.initiator != address(0)){\n                        smgInfo.initiator.transfer(bonus);\n                        emit StoremanGroupClaimSystemBonusLogger(tokenOrigAddr, smgInfo.initiator, bonus);      \n                    } else {\n                        msg.sender.transfer(bonus);\n                        emit StoremanGroupClaimSystemBonusLogger(tokenOrigAddr, msg.sender, bonus);     \n                    }\n            } else {\n                emit StoremanGroupClaimSystemBonusLogger(tokenOrigAddr, msg.sender, 0);\n            }\n        }\n    }\n\n    /**\n    *\n    * MANIPULATIONS\n    *\n    */\n\n    /// @notice                           set tokenManager instance address and quotaLedger instance address\n    /// @param tm                         token manager instance address\n    /// @param ql                         quota ledger instance address\n    function injectDependencies(address tm, address ql)\n        public\n        onlyOwner\n        isHalted\n    {\n        require(tm != address(0) && ql != address(0));\n        tokenManager = tm;\n        quotaLedger = ql;\n    }\n        \n\n    /// @notice                           function for setting smg white list by owner\n    /// @param tokenOrigAddr              token address of original chain\n    /// @param storemanGroup              storemanGroup address for whitelist    \n    function setSmgWhiteList(address tokenOrigAddr, address storemanGroup)\n        public\n        onlyOwner\n    {\n        require(storemanGroup!=address(0));\n\n        // make sure white list mechanism is enabled\n        var (,,,,,useWhiteList,,,,) = TokenInterface(tokenManager).mapTokenInfo(TokenInterface(tokenManager).mapKey(tokenOrigAddr));\n        require(useWhiteList);        \n\n        require(mapStoremanGroup[tokenOrigAddr][storemanGroup].bonusBlockNumber == 0);\n        require(!mapSmgWhiteList[tokenOrigAddr][storemanGroup]);\n\n        mapSmgWhiteList[tokenOrigAddr][storemanGroup] = true;\n            \n        emit SmgEnableWhiteListLogger(storemanGroup, tokenOrigAddr);\n    }    \n                \n    /// @notice                           function for storeman registration, this method should be invoked by the storemanGroup himself\n    /// @param tokenOrigAddr              token address of original chain\n    /// @param originalChainAddr          the storeman group info on original chain\n    /// @param txFeeRatio                 the transaction fee required by storeman group  \n    function storemanGroupRegister(address tokenOrigAddr, address originalChainAddr, uint256 txFeeRatio)\n        public\n        payable\n        notHalted\n    {\n        storemanGroupRegisterByDelegate(tokenOrigAddr, msg.sender, originalChainAddr, txFeeRatio);\n    }\n\n    /// @notice                           function for storeman register by sender this method should be\n    ///                                   invoked by a storemanGroup registration proxy or wanchain foundation\n    /// @param tokenOrigAddr              token address of original chain\n    /// @param storemanGroup              the storeman group register address  \n    /// @param originalChainAddr          the storeman group info on original chain\n    /// @param txFeeRatio                 the transaction fee required by storeman group  \n    function storemanGroupRegisterByDelegate(address tokenOrigAddr, address storemanGroup, address originalChainAddr,uint txFeeRatio)\n        public\n        payable\n        notHalted\n    {\n        require(storemanGroup != address(0) && originalChainAddr != address(0) && txFeeRatio > 0);\n        require(mapStoremanGroup[tokenOrigAddr][storemanGroup].deposit == uint(0));\n        \n        var (,tokenWanAddr,token2WanRatio,minDeposit,,useWhiteList,,,,) = TokenInterface(tokenManager).mapTokenInfo(TokenInterface(tokenManager).mapKey(tokenOrigAddr));\n\n        require(msg.value >= minDeposit && mapStoremanGroup[tokenOrigAddr][storemanGroup].bonusBlockNumber == 0);\n\n        // white list filter\n        if (useWhiteList) {\n            require(mapSmgWhiteList[tokenOrigAddr][storemanGroup]);\n            mapSmgWhiteList[tokenOrigAddr][storemanGroup] = false;\n        }\n\n        uint quota = (msg.value).mul(TokenInterface(tokenManager).DEFAULT_PRECISE()).div(token2WanRatio).mul(10**uint(WERCProtocol(tokenWanAddr).decimals())).div(1 ether);\n\n        // regsiter this storeman group with calculated quota\n        require(QuotaInterface(quotaLedger).setStoremanGroupQuota(tokenOrigAddr, storemanGroup, quota));\n\n        mapStoremanGroup[tokenOrigAddr][storemanGroup] = StoremanGroup(msg.value, originalChainAddr, 0, txFeeRatio, block.number, storemanGroup == msg.sender ? address(0) : msg.sender, 0);\n           \n        /// fire event\n        emit StoremanGroupRegistrationLogger(tokenOrigAddr, storemanGroup, originalChainAddr, msg.value, quota,txFeeRatio);\n    }  \n\n    /// @notice                           function for storemanGroup applying unregister\n    /// @dev                              function for storemanGroup applying unregister\n    /// @param tokenOrigAddr              token address of original chain\n    function storemanGroupApplyUnregister(address tokenOrigAddr)\n        public\n        notHalted\n    {\n        smgApplyUnregisterByDelegate(tokenOrigAddr, msg.sender);\n    } \n\n    /// @notice                           apply unregistration through a proxy\n    /// @dev                              apply unregistration through a proxy\n    /// @param tokenOrigAddr              token address of original chain\n    /// @param storemanGroup              storemanGroup address \n    function smgApplyUnregisterByDelegate(address tokenOrigAddr, address storemanGroup)\n        public\n        notHalted\n    {\n        if (msg.sender != storemanGroup) {\n            require(mapStoremanGroup[tokenOrigAddr][storemanGroup].initiator == msg.sender);\n        }\n\n        // make sure this storemanGroup has registered\n        StoremanGroup storage smg = mapStoremanGroup[tokenOrigAddr][storemanGroup];\n        require(smg.bonusBlockNumber > 0);\n        // make sure this storemanGroup has not applied\n        require(smg.unregisterApplyTime == 0);\n\n        smg.unregisterApplyTime = now;\n\n        var (,,,,,,startBonusBlk,,,) = TokenInterface(tokenManager).mapTokenInfo(TokenInterface(tokenManager).mapKey(tokenOrigAddr));\n        \n        //if (startBonusBlk > 0 && smg.punishPercent==0) // modified by liaoxx On 2019.01.07\n        if (startBonusBlk > 0) {\n            doClaimSystemBonus(tokenOrigAddr, storemanGroup);\n        }\n\n        require(QuotaInterface(quotaLedger).applyUnregistration(tokenOrigAddr, storemanGroup));\n\n        // fire event\n        emit StoremanGroupApplyUnRegistrationLogger(tokenOrigAddr, storemanGroup, now);\n    }\n\n    /// @notice                           function for storeman group withdraw deposit\n    /// @dev                              function for storeman group withdraw deposit\n    /// @param tokenOrigAddr              token address of original chain\n    function storemanGroupWithdrawDeposit(address tokenOrigAddr)\n        public\n        notHalted\n    {\n        smgWithdrawDepositByDelegate(tokenOrigAddr, msg.sender);\n    }\n\n    /// @notice                           withdraw deposit through a proxy\n    /// @dev                              withdraw deposit through a proxy\n    /// @param tokenOrigAddr              token address of original chain\n    /// @param storemanGroup              storemanGroup address \n    function smgWithdrawDepositByDelegate(address tokenOrigAddr, address storemanGroup)\n        public\n        notHalted\n    {\n        if (msg.sender != storemanGroup) {\n            require(mapStoremanGroup[tokenOrigAddr][storemanGroup].initiator == msg.sender);     \n        }\n          \n        StoremanGroup storage smg = mapStoremanGroup[tokenOrigAddr][storemanGroup];\n        var (,,,,withdrawDelayTime,,,,,) = TokenInterface(tokenManager).mapTokenInfo(TokenInterface(tokenManager).mapKey(tokenOrigAddr));\n\n        require(now > smg.unregisterApplyTime.add(withdrawDelayTime) && smg.deposit > 0);\n\n        require(QuotaInterface(quotaLedger).unregisterStoremanGroup(tokenOrigAddr, storemanGroup, true));\n        \n        uint deposit = smg.deposit;\n        uint restBalance = smg.deposit;\n\n        // modified by liaoxx On 2019.01.07\n        /*\n        if (smg.punishPercent > 0) {\n            // transfer penalty to the penaltyReceiver of corresponding ERC20 token\n            restBalance = restBalance.sub(restBalance.mul(smg.punishPercent).div(100));\n            address penaltyReceiver = TokenInterface(tokenManager).mapPenaltyReceiver(tokenOrigAddr);\n            require(penaltyReceiver != address(0));\n            penaltyReceiver.transfer(deposit.sub(restBalance));\n        }\n        */\n        \n        smg.deposit = 0;   \n        smg.originalChainAddr = address(0);  \n        smg.unregisterApplyTime = 0;\n        smg.txFeeRatio = 0;           \n        smg.bonusBlockNumber = 0;  \n        smg.punishPercent = 0;\n        \n        if (smg.initiator != address(0)) {\n            smg.initiator.transfer(restBalance);\n        } else {\n            msg.sender.transfer(restBalance);   \n        }\n        smg.initiator = address(0);\n\n        emit StoremanGroupWithdrawLogger(tokenOrigAddr, storemanGroup, restBalance, deposit);\n    }\n\n    /// @notice                           function for storeman claiming system bonus\n    /// @dev                              function for storeman claiming system bonus\n    /// @param tokenOrigAddr              token address of original chain\n    function storemanGroupClaimSystemBonus(address tokenOrigAddr)\n        public\n        notHalted\n    {\n        StoremanGroup storage smg = mapStoremanGroup[tokenOrigAddr][msg.sender];\n        require(smg.bonusBlockNumber != 0 && smg.unregisterApplyTime == 0);\n        \n        doClaimSystemBonus(tokenOrigAddr, msg.sender);\n    }\n\n    /// @notice                           function for storeman claiming system bonus through a proxy  \n    /// @dev                              function for storeman claiming system bonus through a proxy\n    /// @param tokenOrigAddr              token address of original chain\n    /// @param storemanGroup              storemanGroup address \n    function smgClaimSystemBonusByDelegate(address tokenOrigAddr, address storemanGroup)\n        public\n        notHalted\n    {\n        // make sure the address who registered this smg initiated this transaction\n        require(mapStoremanGroup[tokenOrigAddr][storemanGroup].initiator == msg.sender); \n        \n        StoremanGroup storage smg = mapStoremanGroup[tokenOrigAddr][storemanGroup];\n        require(smg.bonusBlockNumber != 0 && smg.unregisterApplyTime == 0); \n        \n        doClaimSystemBonus(tokenOrigAddr, storemanGroup);\n    }\n\n    /// @notice                           function for bonus deposit\n    /// @dev                              function for bonus deposit\n    /// @param tokenOrigAddr              token address of original chain\n    function depositSmgBonus(address tokenOrigAddr)\n        public\n        payable\n        onlyOwner\n    {\n        require(msg.value > 0);\n        \n        var (,,,,,,startBonusBlk,,,) = TokenInterface(tokenManager).mapTokenInfo(TokenInterface(tokenManager).mapKey(tokenOrigAddr));\n        require(startBonusBlk > 0);\n        \n        require(TokenInterface(tokenManager).updateTotalBonus(tokenOrigAddr, msg.value, true));\n\n        emit StoremanGroupDepositBonusLogger(tokenOrigAddr, msg.sender, msg.value);\n    }\n\n    /// @notice function for destroy contract\n    function kill() \n        public\n        isHalted\n        onlyOwner\n    {\n        selfdestruct(owner);\n    } \n\n    /// @notice fallback function\n    function () public payable {\n       revert();\n    }\n\n    // functions below as agent interface for old version storemanGroupAdmin instance, added by liaoxx On 2018.12.28\n    /// @notice                           agent function for oldStoremanGroupAdmin to get keccak256 hash key of Token\n    /// @param tokenOrigAddr              token address of original chain\n    function mapKey(address tokenOrigAddr) \n    public \n    view\n\tonlyRegistedOldSmgAdmin\n    returns(bytes32)\n    {\n        // require(mapRegistedOldSmgAdmin[msg.sender], \"It is not an valid old storeman group admin object\");\n        require(tokenOrigAddr != address(0), \"Invalid token Origin Address\");\n\n        bytes32 keyHash = TokenInterface(tokenManager).mapKey(tokenOrigAddr);\n\n        return keyHash;\n    }\n\n    /// @notice                           agent function for oldStoremanGroupAdmin to get TokenInfo from TokenManager\n    /// @param keyHash                    token keccak256 hash key\n    function mapTokenInfo(bytes32 keyHash) \n    public\n    view\n\tonlyRegistedOldSmgAdmin\n    returns(address, address, uint, uint, uint, bool, uint, uint, uint, uint)\n    {\n        // require(mapRegistedOldSmgAdmin[msg.sender], \"It is not an valid old storeman group admin object\");\n        require(keyHash != bytes32(0), \"Invalid key hash\");\n\n        return TokenInterface(tokenManager).mapTokenInfo(keyHash);\n    }\n \n    /// @notice                           agent function for oldStoremanGroupAdmin to get penalty receiver address from TokenManager\n    /// @param tokenOrigAddr              token address of original chain       \n    function mapPenaltyReceiver(address tokenOrigAddr) \n    public\n    view\n\tonlyRegistedOldSmgAdmin\n    returns(address)\n    {\n        // require(mapRegistedOldSmgAdmin[msg.sender], \"It is not an valid old storeman group admin object\");\n        require(tokenOrigAddr != address(0), \"Invalid token Origin Address\");\n\n        address receiver = TokenInterface(tokenManager).mapPenaltyReceiver(tokenOrigAddr);\n        ///require(penaltyReceiver != address(0));\n\n        return receiver;\n    }\n\n    /// @notice                             agent function for oldStoremanGroupAdmin to get penalty receiver address from TokenManager\n    /// @param tokenOrigAddr                token address of original chain \n    /// @param bonus                        bonus value \n    /// @param isAdded                      plus if true, else do a minus operation    \n    function updateTotalBonus(address tokenOrigAddr, uint bonus, bool isAdded) \n    external\n\tonlyRegistedOldSmgAdmin\n    returns(bool)\n    {\n        // require(mapRegistedOldSmgAdmin[msg.sender], \"It is not an valid old storeman group admin object\");\n        require(tokenOrigAddr != address(0), \"Invalid token Origin Address\");\n        \n        bool ifUpdated = TokenInterface(tokenManager).updateTotalBonus(tokenOrigAddr, bonus, isAdded);\n\n        return ifUpdated;\n    }\n\n    /// @notice                             agent function for oldStoremanGroupAdmin to get DEFAULT_PRECISE from TokenManager\n    function DEFAULT_PRECISE() \n    public\n\tonlyRegistedOldSmgAdmin\n    returns(uint)\n    {\n        // require(mapRegistedOldSmgAdmin[msg.sender], \"It is not an valid old storeman group admin object\");        \n        uint defaultPrecise = TokenInterface(tokenManager).DEFAULT_PRECISE();\n\n        return defaultPrecise;\n    }\n\n    /// @notice                             agent function for oldStoremanGroupAdmin to apply unregister to quotaLedger\n\t/// @param tokenOrigAddr                token address of original chain\n\t/// @param storemanGroup                storemanGroup address\n    function applyUnregistration(address tokenOrigAddr, address storemanGroup) \n    external\n\tonlyRegistedOldSmgAdmin\n    returns (bool)\n    {\n        // require(mapRegistedOldSmgAdmin[msg.sender], \"It is not an valid old storeman group admin object\");\n        bool ifSucc = QuotaInterface(quotaLedger).applyUnregistration(tokenOrigAddr, storemanGroup);\n\n        return ifSucc;\n    }\n\n\t/// @notice                             gent function for oldStoremanGroupAdmin to set storeman group's quota\n\t/// @param tokenOrigAddr                token address of original chain\n\t/// @param storemanGroup                storemanGroup address\n\t/// @param quota                        a storemanGroup's quota         \n    function setStoremanGroupQuota(address tokenOrigAddr, address storemanGroup, uint quota) \n    external\n\tonlyRegistedOldSmgAdmin\n    returns (bool)\n    {\n        return false;\n    }\n    \n\n\t/// @notice                             gent function for oldStoremanGroupAdmin to set storeman group's quota\n\t/// @param tokenOrigAddr                token address of original chain\n\t/// @param storemanGroup                storemanGroup address\n\t/// @param isNormal                     whether this unregister operation is in normal condition       \n    function unregisterStoremanGroup(address tokenOrigAddr, address storemanGroup, bool isNormal) \n    external \n\tonlyRegistedOldSmgAdmin\n    returns (bool)\n    {\n        //require(mapRegistedOldSmgAdmin[msg.sender], \"It is not an valid old storeman group admin object\");\n        bool ifSucc = QuotaInterface(quotaLedger).unregisterStoremanGroup(tokenOrigAddr, storemanGroup, isNormal);\n\n        if(ifSucc){\n            StoremanGroup storage smg = mapStoremanGroup[tokenOrigAddr][storemanGroup];\n            smg.txFeeRatio = 0;\n        }\n\n        return ifSucc;\n    }\n\n    /// @notice                            function for storeman registration, this method should be invoked by the storemanGroup himself\n    /// @param tokenOrigAddr               token address of original chain\n    /// @param storemanGroup               the storeman group address\n    /// @param txFeeRatio                  the transaction fee required by storeman group \n    function oldStoremanGroupRegister(address tokenOrigAddr, address storemanGroup, uint256 txFeeRatio)\n    public\n    onlyOwner\n    {\n        require(tokenOrigAddr != address(0) && storemanGroup != address(0) && txFeeRatio > 0, \"Invalid parameters\");\n        mapStoremanGroup[tokenOrigAddr][storemanGroup] = StoremanGroup(0, 0, 0, txFeeRatio, 0, 0, 0); \n    }\n\n}  \n\n",
  "sourcePath": "/home/lzhang/wanchain/wanchain-crosschain-contracts/contracts/ImprovedStoremanGroupAdmin.sol",
  "compiler": {
    "name": "solc",
    "version": "0.4.24+commit.e67f0147.Emscripten.clang"
  },
  "schemaVersion": "3.0.19",
  "updatedAt": "2019-11-20T12:13:19.912Z",
  "devdoc": {
    "methods": {
      "applyUnregistration(address,address)": {
        "params": {
          "storemanGroup": "storemanGroup address",
          "tokenOrigAddr": "token address of original chain"
        }
      },
      "changeOwner(address)": {
        "params": {
          "_newOwner": "The address of the new owner. 0x0 can be used to create  an unowned neutral vault, however that cannot be undone"
        }
      },
      "depositSmgBonus(address)": {
        "details": "function for bonus deposit",
        "params": {
          "tokenOrigAddr": "token address of original chain"
        }
      },
      "injectDependencies(address,address)": {
        "params": {
          "ql": "quota ledger instance address",
          "tm": "token manager instance address"
        }
      },
      "mapKey(address)": {
        "params": {
          "tokenOrigAddr": "token address of original chain"
        }
      },
      "mapPenaltyReceiver(address)": {
        "params": {
          "tokenOrigAddr": "token address of original chain       "
        }
      },
      "mapTokenInfo(bytes32)": {
        "params": {
          "keyHash": "token keccak256 hash key"
        }
      },
      "oldStoremanGroupRegister(address,address,uint256)": {
        "params": {
          "storemanGroup": "the storeman group address",
          "tokenOrigAddr": "token address of original chain",
          "txFeeRatio": "the transaction fee required by storeman group "
        }
      },
      "registerOldStoremanGroupAdmin(address)": {
        "params": {
          "_smga": "old StoremanGroupAdmin instance address"
        }
      },
      "setSmgWhiteList(address,address)": {
        "params": {
          "storemanGroup": "storemanGroup address for whitelist    ",
          "tokenOrigAddr": "token address of original chain"
        }
      },
      "setStoremanGroupQuota(address,address,uint256)": {
        "params": {
          "quota": "a storemanGroup's quota         ",
          "storemanGroup": "storemanGroup address",
          "tokenOrigAddr": "token address of original chain"
        }
      },
      "smgApplyUnregisterByDelegate(address,address)": {
        "details": "apply unregistration through a proxy",
        "params": {
          "storemanGroup": "storemanGroup address ",
          "tokenOrigAddr": "token address of original chain"
        }
      },
      "smgClaimSystemBonusByDelegate(address,address)": {
        "details": "function for storeman claiming system bonus through a proxy",
        "params": {
          "storemanGroup": "storemanGroup address ",
          "tokenOrigAddr": "token address of original chain"
        }
      },
      "smgWithdrawDepositByDelegate(address,address)": {
        "details": "withdraw deposit through a proxy",
        "params": {
          "storemanGroup": "storemanGroup address ",
          "tokenOrigAddr": "token address of original chain"
        }
      },
      "storemanGroupApplyUnregister(address)": {
        "details": "function for storemanGroup applying unregister",
        "params": {
          "tokenOrigAddr": "token address of original chain"
        }
      },
      "storemanGroupClaimSystemBonus(address)": {
        "details": "function for storeman claiming system bonus",
        "params": {
          "tokenOrigAddr": "token address of original chain"
        }
      },
      "storemanGroupRegister(address,address,uint256)": {
        "params": {
          "originalChainAddr": "the storeman group info on original chain",
          "tokenOrigAddr": "token address of original chain",
          "txFeeRatio": "the transaction fee required by storeman group  "
        }
      },
      "storemanGroupRegisterByDelegate(address,address,address,uint256)": {
        "params": {
          "originalChainAddr": "the storeman group info on original chain",
          "storemanGroup": "the storeman group register address  ",
          "tokenOrigAddr": "token address of original chain",
          "txFeeRatio": "the transaction fee required by storeman group  "
        }
      },
      "storemanGroupWithdrawDeposit(address)": {
        "details": "function for storeman group withdraw deposit",
        "params": {
          "tokenOrigAddr": "token address of original chain"
        }
      },
      "unregisterStoremanGroup(address,address,bool)": {
        "params": {
          "isNormal": "whether this unregister operation is in normal condition       ",
          "storemanGroup": "storemanGroup address",
          "tokenOrigAddr": "token address of original chain"
        }
      },
      "updateTotalBonus(address,uint256,bool)": {
        "params": {
          "bonus": "bonus value ",
          "isAdded": "plus if true, else do a minus operation    ",
          "tokenOrigAddr": "token address of original chain "
        }
      }
    }
  },
  "userdoc": {
    "methods": {
      "DEFAULT_PRECISE()": {
        "notice": "agent function for oldStoremanGroupAdmin to get DEFAULT_PRECISE from TokenManager"
      },
      "applyUnregistration(address,address)": {
        "notice": "agent function for oldStoremanGroupAdmin to apply unregister to quotaLedger"
      },
      "changeOwner(address)": {
        "notice": "`owner` can step down and assign some other address to this role"
      },
      "depositSmgBonus(address)": {
        "notice": "function for bonus deposit"
      },
      "injectDependencies(address,address)": {
        "notice": "set tokenManager instance address and quotaLedger instance address"
      },
      "kill()": {
        "notice": "function for destroy contract"
      },
      "mapKey(address)": {
        "notice": "agent function for oldStoremanGroupAdmin to get keccak256 hash key of Token"
      },
      "mapPenaltyReceiver(address)": {
        "notice": "agent function for oldStoremanGroupAdmin to get penalty receiver address from TokenManager"
      },
      "mapTokenInfo(bytes32)": {
        "notice": "agent function for oldStoremanGroupAdmin to get TokenInfo from TokenManager"
      },
      "oldStoremanGroupRegister(address,address,uint256)": {
        "notice": "function for storeman registration, this method should be invoked by the storemanGroup himself"
      },
      "registerOldStoremanGroupAdmin(address)": {
        "notice": "set oldStoremanGroupAdmin instance address added by liaoxx for"
      },
      "setHalt(bool)": {
        "notice": "function Emergency situation that requires contribution period to stop or not."
      },
      "setSmgWhiteList(address,address)": {
        "notice": "function for setting smg white list by owner"
      },
      "setStoremanGroupQuota(address,address,uint256)": {
        "notice": "gent function for oldStoremanGroupAdmin to set storeman group's quota"
      },
      "smgApplyUnregisterByDelegate(address,address)": {
        "notice": "apply unregistration through a proxy"
      },
      "smgClaimSystemBonusByDelegate(address,address)": {
        "notice": "function for storeman claiming system bonus through a proxy  "
      },
      "smgWithdrawDepositByDelegate(address,address)": {
        "notice": "withdraw deposit through a proxy"
      },
      "storemanGroupApplyUnregister(address)": {
        "notice": "function for storemanGroup applying unregister"
      },
      "storemanGroupClaimSystemBonus(address)": {
        "notice": "function for storeman claiming system bonus"
      },
      "storemanGroupRegister(address,address,uint256)": {
        "notice": "function for storeman registration, this method should be invoked by the storemanGroup himself"
      },
      "storemanGroupRegisterByDelegate(address,address,address,uint256)": {
        "notice": "function for storeman register by sender this method should be                                   invoked by a storemanGroup registration proxy or wanchain foundation"
      },
      "storemanGroupWithdrawDeposit(address)": {
        "notice": "function for storeman group withdraw deposit"
      },
      "unregisterStoremanGroup(address,address,bool)": {
        "notice": "gent function for oldStoremanGroupAdmin to set storeman group's quota"
      },
      "updateTotalBonus(address,uint256,bool)": {
        "notice": "agent function for oldStoremanGroupAdmin to get penalty receiver address from TokenManager"
      }
    }
  }
}