{
  "contractName": "QuotaLedger",
  "abi": [
    {
      "constant": true,
      "inputs": [],
      "name": "HTLCWAN",
      "outputs": [
        {
          "name": "",
          "type": "address"
        }
      ],
      "payable": false,
      "stateMutability": "view",
      "type": "function"
    },
    {
      "constant": true,
      "inputs": [],
      "name": "tokenManager",
      "outputs": [
        {
          "name": "",
          "type": "address"
        }
      ],
      "payable": false,
      "stateMutability": "view",
      "type": "function"
    },
    {
      "constant": true,
      "inputs": [
        {
          "name": "",
          "type": "address"
        },
        {
          "name": "",
          "type": "address"
        }
      ],
      "name": "mapUnregistration",
      "outputs": [
        {
          "name": "",
          "type": "bool"
        }
      ],
      "payable": false,
      "stateMutability": "view",
      "type": "function"
    },
    {
      "constant": false,
      "inputs": [],
      "name": "acceptOwnership",
      "outputs": [],
      "payable": false,
      "stateMutability": "nonpayable",
      "type": "function"
    },
    {
      "constant": true,
      "inputs": [
        {
          "name": "",
          "type": "address"
        },
        {
          "name": "",
          "type": "address"
        }
      ],
      "name": "mapQuota",
      "outputs": [
        {
          "name": "_quota",
          "type": "uint256"
        },
        {
          "name": "_receivable",
          "type": "uint256"
        },
        {
          "name": "_payable",
          "type": "uint256"
        },
        {
          "name": "_debt",
          "type": "uint256"
        }
      ],
      "payable": false,
      "stateMutability": "view",
      "type": "function"
    },
    {
      "constant": true,
      "inputs": [],
      "name": "storemanGroupAdmin",
      "outputs": [
        {
          "name": "",
          "type": "address"
        }
      ],
      "payable": false,
      "stateMutability": "view",
      "type": "function"
    },
    {
      "constant": true,
      "inputs": [],
      "name": "owner",
      "outputs": [
        {
          "name": "",
          "type": "address"
        }
      ],
      "payable": false,
      "stateMutability": "view",
      "type": "function"
    },
    {
      "constant": false,
      "inputs": [
        {
          "name": "_newOwner",
          "type": "address"
        }
      ],
      "name": "changeOwner",
      "outputs": [],
      "payable": false,
      "stateMutability": "nonpayable",
      "type": "function"
    },
    {
      "constant": true,
      "inputs": [],
      "name": "halted",
      "outputs": [
        {
          "name": "",
          "type": "bool"
        }
      ],
      "payable": false,
      "stateMutability": "view",
      "type": "function"
    },
    {
      "constant": true,
      "inputs": [],
      "name": "newOwner",
      "outputs": [
        {
          "name": "",
          "type": "address"
        }
      ],
      "payable": false,
      "stateMutability": "view",
      "type": "function"
    },
    {
      "constant": false,
      "inputs": [
        {
          "name": "halt",
          "type": "bool"
        }
      ],
      "name": "setHalt",
      "outputs": [],
      "payable": false,
      "stateMutability": "nonpayable",
      "type": "function"
    },
    {
      "constant": false,
      "inputs": [
        {
          "name": "htlc",
          "type": "address"
        }
      ],
      "name": "setHTLCWAN",
      "outputs": [
        {
          "name": "",
          "type": "bool"
        }
      ],
      "payable": false,
      "stateMutability": "nonpayable",
      "type": "function"
    },
    {
      "constant": false,
      "inputs": [
        {
          "name": "admin",
          "type": "address"
        }
      ],
      "name": "setStoremanGroupAdmin",
      "outputs": [
        {
          "name": "",
          "type": "bool"
        }
      ],
      "payable": false,
      "stateMutability": "nonpayable",
      "type": "function"
    },
    {
      "constant": false,
      "inputs": [
        {
          "name": "tm",
          "type": "address"
        }
      ],
      "name": "setTokenManager",
      "outputs": [
        {
          "name": "",
          "type": "bool"
        }
      ],
      "payable": false,
      "stateMutability": "nonpayable",
      "type": "function"
    },
    {
      "constant": false,
      "inputs": [
        {
          "name": "tokenOrigAddr",
          "type": "address"
        },
        {
          "name": "storemanGroup",
          "type": "address"
        },
        {
          "name": "quota",
          "type": "uint256"
        }
      ],
      "name": "setStoremanGroupQuota",
      "outputs": [
        {
          "name": "",
          "type": "bool"
        }
      ],
      "payable": false,
      "stateMutability": "nonpayable",
      "type": "function"
    },
    {
      "constant": false,
      "inputs": [
        {
          "name": "tokenOrigAddr",
          "type": "address"
        },
        {
          "name": "storemanGroup",
          "type": "address"
        }
      ],
      "name": "applyUnregistration",
      "outputs": [
        {
          "name": "",
          "type": "bool"
        }
      ],
      "payable": false,
      "stateMutability": "nonpayable",
      "type": "function"
    },
    {
      "constant": false,
      "inputs": [
        {
          "name": "tokenOrigAddr",
          "type": "address"
        },
        {
          "name": "storemanGroup",
          "type": "address"
        },
        {
          "name": "isNormal",
          "type": "bool"
        }
      ],
      "name": "unregisterStoremanGroup",
      "outputs": [
        {
          "name": "",
          "type": "bool"
        }
      ],
      "payable": false,
      "stateMutability": "nonpayable",
      "type": "function"
    },
    {
      "constant": false,
      "inputs": [
        {
          "name": "tokenOrigAddr",
          "type": "address"
        },
        {
          "name": "storemanGroup",
          "type": "address"
        },
        {
          "name": "recipient",
          "type": "address"
        },
        {
          "name": "value",
          "type": "uint256"
        }
      ],
      "name": "lockQuota",
      "outputs": [
        {
          "name": "",
          "type": "bool"
        }
      ],
      "payable": false,
      "stateMutability": "nonpayable",
      "type": "function"
    },
    {
      "constant": false,
      "inputs": [
        {
          "name": "tokenOrigAddr",
          "type": "address"
        },
        {
          "name": "storemanGroup",
          "type": "address"
        },
        {
          "name": "value",
          "type": "uint256"
        }
      ],
      "name": "unlockQuota",
      "outputs": [
        {
          "name": "",
          "type": "bool"
        }
      ],
      "payable": false,
      "stateMutability": "nonpayable",
      "type": "function"
    },
    {
      "constant": false,
      "inputs": [
        {
          "name": "tokenOrigAddr",
          "type": "address"
        },
        {
          "name": "storemanGroup",
          "type": "address"
        },
        {
          "name": "recipient",
          "type": "address"
        },
        {
          "name": "value",
          "type": "uint256"
        }
      ],
      "name": "mintToken",
      "outputs": [
        {
          "name": "",
          "type": "bool"
        }
      ],
      "payable": false,
      "stateMutability": "nonpayable",
      "type": "function"
    },
    {
      "constant": false,
      "inputs": [
        {
          "name": "tokenOrigAddr",
          "type": "address"
        },
        {
          "name": "storemanGroup",
          "type": "address"
        },
        {
          "name": "initiator",
          "type": "address"
        },
        {
          "name": "value",
          "type": "uint256"
        }
      ],
      "name": "lockToken",
      "outputs": [
        {
          "name": "",
          "type": "bool"
        }
      ],
      "payable": false,
      "stateMutability": "nonpayable",
      "type": "function"
    },
    {
      "constant": false,
      "inputs": [
        {
          "name": "tokenOrigAddr",
          "type": "address"
        },
        {
          "name": "storemanGroup",
          "type": "address"
        },
        {
          "name": "value",
          "type": "uint256"
        }
      ],
      "name": "unlockToken",
      "outputs": [
        {
          "name": "",
          "type": "bool"
        }
      ],
      "payable": false,
      "stateMutability": "nonpayable",
      "type": "function"
    },
    {
      "constant": false,
      "inputs": [
        {
          "name": "tokenOrigAddr",
          "type": "address"
        },
        {
          "name": "storemanGroup",
          "type": "address"
        },
        {
          "name": "value",
          "type": "uint256"
        }
      ],
      "name": "burnToken",
      "outputs": [
        {
          "name": "",
          "type": "bool"
        }
      ],
      "payable": false,
      "stateMutability": "nonpayable",
      "type": "function"
    },
    {
      "constant": true,
      "inputs": [
        {
          "name": "tokenOrigAddr",
          "type": "address"
        },
        {
          "name": "storemanGroup",
          "type": "address"
        }
      ],
      "name": "isStoremanGroup",
      "outputs": [
        {
          "name": "",
          "type": "bool"
        }
      ],
      "payable": false,
      "stateMutability": "view",
      "type": "function"
    },
    {
      "constant": true,
      "inputs": [
        {
          "name": "tokenOrigAddr",
          "type": "address"
        },
        {
          "name": "storemanGroup",
          "type": "address"
        }
      ],
      "name": "isActiveStoremanGroup",
      "outputs": [
        {
          "name": "",
          "type": "bool"
        }
      ],
      "payable": false,
      "stateMutability": "view",
      "type": "function"
    },
    {
      "constant": true,
      "inputs": [
        {
          "name": "tokenOrigAddr",
          "type": "address"
        },
        {
          "name": "storemanGroup",
          "type": "address"
        }
      ],
      "name": "queryStoremanGroupQuota",
      "outputs": [
        {
          "name": "",
          "type": "uint256"
        },
        {
          "name": "",
          "type": "uint256"
        },
        {
          "name": "",
          "type": "uint256"
        },
        {
          "name": "",
          "type": "uint256"
        },
        {
          "name": "",
          "type": "uint256"
        },
        {
          "name": "",
          "type": "uint256"
        }
      ],
      "payable": false,
      "stateMutability": "view",
      "type": "function"
    },
    {
      "constant": false,
      "inputs": [],
      "name": "kill",
      "outputs": [],
      "payable": false,
      "stateMutability": "nonpayable",
      "type": "function"
    }
  ],
  "bytecode": "0x608060405260018060146101000a81548160ff021916908315150217905550336000806101000a81548173ffffffffffffffffffffffffffffffffffffffff021916908373ffffffffffffffffffffffffffffffffffffffff160217905550612e728061006d6000396000f30060806040526004361061015f576000357c0100000000000000000000000000000000000000000000000000000000900463ffffffff1680630a0cd6cf1461016457806324e23e1e146101fe5780632a709b14146102555780633416794d146102ac57806339ba81881461033157806339da4f55146103b657806341c0e1b51461045b578063442e704d146104725780634fd7b0c8146104ed57806379ba5097146105725780637aa71f10146105895780637cb2b79c146106105780637e36834d1461066b578063820413f3146106f75780638da5cb5b1461074e5780639778fa40146107a5578063a6f9dae114610800578063afd7a2c214610843578063b3ecc7fc146108be578063b9b8af0b14610939578063cf0e26f414610968578063d213b3f3146109c3578063d4ee1d9014610a68578063dae48eee14610abf578063ea2b43c514610b3a578063f209bd5d14610bbf578063f495438714610c64575b600080fd5b34801561017057600080fd5b506101c5600480360381019080803573ffffffffffffffffffffffffffffffffffffffff169060200190929190803573ffffffffffffffffffffffffffffffffffffffff169060200190929190505050610c93565b60405180878152602001868152602001858152602001848152602001838152602001828152602001965050505050505060405180910390f35b34801561020a57600080fd5b50610213610ddb565b604051808273ffffffffffffffffffffffffffffffffffffffff1673ffffffffffffffffffffffffffffffffffffffff16815260200191505060405180910390f35b34801561026157600080fd5b5061026a610e01565b604051808273ffffffffffffffffffffffffffffffffffffffff1673ffffffffffffffffffffffffffffffffffffffff16815260200191505060405180910390f35b3480156102b857600080fd5b50610317600480360381019080803573ffffffffffffffffffffffffffffffffffffffff169060200190929190803573ffffffffffffffffffffffffffffffffffffffff16906020019092919080359060200190929190505050610e27565b604051808215151515815260200191505060405180910390f35b34801561033d57600080fd5b5061039c600480360381019080803573ffffffffffffffffffffffffffffffffffffffff169060200190929190803573ffffffffffffffffffffffffffffffffffffffff169060200190929190803590602001909291905050506112fc565b604051808215151515815260200191505060405180910390f35b3480156103c257600080fd5b50610441600480360381019080803573ffffffffffffffffffffffffffffffffffffffff169060200190929190803573ffffffffffffffffffffffffffffffffffffffff169060200190929190803573ffffffffffffffffffffffffffffffffffffffff16906020019092919080359060200190929190505050611459565b604051808215151515815260200191505060405180910390f35b34801561046757600080fd5b50610470611a92565b005b34801561047e57600080fd5b506104d3600480360381019080803573ffffffffffffffffffffffffffffffffffffffff169060200190929190803573ffffffffffffffffffffffffffffffffffffffff169060200190929190505050611b42565b604051808215151515815260200191505060405180910390f35b3480156104f957600080fd5b50610558600480360381019080803573ffffffffffffffffffffffffffffffffffffffff169060200190929190803573ffffffffffffffffffffffffffffffffffffffff16906020019092919080359060200190929190505050611b71565b604051808215151515815260200191505060405180910390f35b34801561057e57600080fd5b50610587611d42565b005b34801561059557600080fd5b506105f6600480360381019080803573ffffffffffffffffffffffffffffffffffffffff169060200190929190803573ffffffffffffffffffffffffffffffffffffffff169060200190929190803515159060200190929190505050611dfd565b604051808215151515815260200191505060405180910390f35b34801561061c57600080fd5b50610651600480360381019080803573ffffffffffffffffffffffffffffffffffffffff169060200190929190505050612052565b604051808215151515815260200191505060405180910390f35b34801561067757600080fd5b506106cc600480360381019080803573ffffffffffffffffffffffffffffffffffffffff169060200190929190803573ffffffffffffffffffffffffffffffffffffffff169060200190929190505050612150565b6040518085815260200184815260200183815260200182815260200194505050505060405180910390f35b34801561070357600080fd5b5061070c61218d565b604051808273ffffffffffffffffffffffffffffffffffffffff1673ffffffffffffffffffffffffffffffffffffffff16815260200191505060405180910390f35b34801561075a57600080fd5b506107636121b3565b604051808273ffffffffffffffffffffffffffffffffffffffff1673ffffffffffffffffffffffffffffffffffffffff16815260200191505060405180910390f35b3480156107b157600080fd5b506107e6600480360381019080803573ffffffffffffffffffffffffffffffffffffffff1690602001909291905050506121d8565b604051808215151515815260200191505060405180910390f35b34801561080c57600080fd5b50610841600480360381019080803573ffffffffffffffffffffffffffffffffffffffff1690602001909291905050506122d6565b005b34801561084f57600080fd5b506108a4600480360381019080803573ffffffffffffffffffffffffffffffffffffffff169060200190929190803573ffffffffffffffffffffffffffffffffffffffff169060200190929190505050612375565b604051808215151515815260200191505060405180910390f35b3480156108ca57600080fd5b5061091f600480360381019080803573ffffffffffffffffffffffffffffffffffffffff169060200190929190803573ffffffffffffffffffffffffffffffffffffffff16906020019092919050505061241c565b604051808215151515815260200191505060405180910390f35b34801561094557600080fd5b5061094e6124a9565b604051808215151515815260200191505060405180910390f35b34801561097457600080fd5b506109a9600480360381019080803573ffffffffffffffffffffffffffffffffffffffff1690602001909291905050506124bc565b604051808215151515815260200191505060405180910390f35b3480156109cf57600080fd5b50610a4e600480360381019080803573ffffffffffffffffffffffffffffffffffffffff169060200190929190803573ffffffffffffffffffffffffffffffffffffffff169060200190929190803573ffffffffffffffffffffffffffffffffffffffff169060200190929190803590602001909291905050506125ba565b604051808215151515815260200191505060405180910390f35b348015610a7457600080fd5b50610a7d612744565b604051808273ffffffffffffffffffffffffffffffffffffffff1673ffffffffffffffffffffffffffffffffffffffff16815260200191505060405180910390f35b348015610acb57600080fd5b50610b20600480360381019080803573ffffffffffffffffffffffffffffffffffffffff169060200190929190803573ffffffffffffffffffffffffffffffffffffffff16906020019092919050505061276a565b604051808215151515815260200191505060405180910390f35b348015610b4657600080fd5b50610ba5600480360381019080803573ffffffffffffffffffffffffffffffffffffffff169060200190929190803573ffffffffffffffffffffffffffffffffffffffff16906020019092919080359060200190929190505050612898565b604051808215151515815260200191505060405180910390f35b348015610bcb57600080fd5b50610c4a600480360381019080803573ffffffffffffffffffffffffffffffffffffffff169060200190929190803573ffffffffffffffffffffffffffffffffffffffff169060200190929190803573ffffffffffffffffffffffffffffffffffffffff169060200190929190803590602001909291905050506129f5565b604051808215151515815260200191505060405180910390f35b348015610c7057600080fd5b50610c91600480360381019080803515159060200190929190505050612cda565b005b6000806000806000806000806000610cab8b8b61241c565b1515610cdd57600080600080600080859550849450839350829250819150809050985098509850985098509850610dce565b600560008c73ffffffffffffffffffffffffffffffffffffffff1673ffffffffffffffffffffffffffffffffffffffff16815260200190815260200160002060008b73ffffffffffffffffffffffffffffffffffffffff1673ffffffffffffffffffffffffffffffffffffffff1681526020019081526020016000209250610d8c610d7984600301548560010154612d5290919063ffffffff16565b8460000154612d7390919063ffffffff16565b9150610da983600201548460030154612d7390919063ffffffff16565b9050826000015482828560010154866002015487600301549850985098509850985098505b5050509295509295509295565b600260009054906101000a900473ffffffffffffffffffffffffffffffffffffffff1681565b600460009054906101000a900473ffffffffffffffffffffffffffffffffffffffff1681565b600080600080600160149054906101000a900460ff16151515610e4957600080fd5b600260009054906101000a900473ffffffffffffffffffffffffffffffffffffffff1673ffffffffffffffffffffffffffffffffffffffff163373ffffffffffffffffffffffffffffffffffffffff16141515610ea557600080fd5b84600081111515610eb557600080fd5b610ebf888861241c565b1515610eca57600080fd5b600560008973ffffffffffffffffffffffffffffffffffffffff1673ffffffffffffffffffffffffffffffffffffffff16815260200190815260200160002060008873ffffffffffffffffffffffffffffffffffffffff1673ffffffffffffffffffffffffffffffffffffffff1681526020019081526020016000209350610f5f868560030154612d7390919063ffffffff16565b8460030181905550610f7e868560020154612d7390919063ffffffff16565b8460020181905550600460009054906101000a900473ffffffffffffffffffffffffffffffffffffffff1673ffffffffffffffffffffffffffffffffffffffff1663ff63e84b896040518263ffffffff167c0100000000000000000000000000000000000000000000000000000000028152600401808273ffffffffffffffffffffffffffffffffffffffff1673ffffffffffffffffffffffffffffffffffffffff168152602001915050602060405180830381600087803b15801561104357600080fd5b505af1158015611057573d6000803e3d6000fd5b505050506040513d602081101561106d57600080fd5b81019080805190602001909291905050509250600460009054906101000a900473ffffffffffffffffffffffffffffffffffffffff1673ffffffffffffffffffffffffffffffffffffffff1663bfbcb918846040518263ffffffff167c010000000000000000000000000000000000000000000000000000000002815260040180826000191660001916815260200191505061014060405180830381600087803b15801561111a57600080fd5b505af115801561112e573d6000803e3d6000fd5b505050506040513d61014081101561114557600080fd5b810190808051906020019092919080519060200190929190805190602001909291908051906020019092919080519060200190929190805190602001909291908051906020019092919080519060200190929190805190602001909291908051906020019092919050505090919293949596979850909192939495965090919293949550909192939450909192935090919250909150905050809250508173ffffffffffffffffffffffffffffffffffffffff16639dc29fac600260009054906101000a900473ffffffffffffffffffffffffffffffffffffffff16886040518363ffffffff167c0100000000000000000000000000000000000000000000000000000000028152600401808373ffffffffffffffffffffffffffffffffffffffff1673ffffffffffffffffffffffffffffffffffffffff16815260200182815260200192505050602060405180830381600087803b1580156112a757600080fd5b505af11580156112bb573d6000803e3d6000fd5b505050506040513d60208110156112d157600080fd5b810190808051906020019092919050505015156112ed57600080fd5b60019450505050509392505050565b600080600160149054906101000a900460ff1615151561131b57600080fd5b600260009054906101000a900473ffffffffffffffffffffffffffffffffffffffff1673ffffffffffffffffffffffffffffffffffffffff163373ffffffffffffffffffffffffffffffffffffffff1614151561137757600080fd5b8260008111151561138757600080fd5b611391868661241c565b151561139c57600080fd5b600560008773ffffffffffffffffffffffffffffffffffffffff1673ffffffffffffffffffffffffffffffffffffffff16815260200190815260200160002060008673ffffffffffffffffffffffffffffffffffffffff1673ffffffffffffffffffffffffffffffffffffffff16815260200190815260200160002091508382600201541015151561142d57600080fd5b611444848360020154612d7390919063ffffffff16565b82600201819055506001925050509392505050565b6000806000806000600160149054906101000a900460ff1615151561147d57600080fd5b600260009054906101000a900473ffffffffffffffffffffffffffffffffffffffff1673ffffffffffffffffffffffffffffffffffffffff163373ffffffffffffffffffffffffffffffffffffffff161415156114d957600080fd5b856000811115156114e957600080fd5b6114f38a8a61241c565b15156114fe57600080fd5b6115088a89612375565b15151561151457600080fd5b600560008b73ffffffffffffffffffffffffffffffffffffffff1673ffffffffffffffffffffffffffffffffffffffff16815260200190815260200160002060008a73ffffffffffffffffffffffffffffffffffffffff1673ffffffffffffffffffffffffffffffffffffffff16815260200190815260200160002094506115a9878660010154612d7390919063ffffffff16565b85600101819055506115c8878660030154612d5290919063ffffffff16565b85600301819055506115da8a8961241c565b151561192e57600460009054906101000a900473ffffffffffffffffffffffffffffffffffffffff1673ffffffffffffffffffffffffffffffffffffffff1663ff63e84b8b6040518263ffffffff167c0100000000000000000000000000000000000000000000000000000000028152600401808273ffffffffffffffffffffffffffffffffffffffff1673ffffffffffffffffffffffffffffffffffffffff168152602001915050602060405180830381600087803b15801561169d57600080fd5b505af11580156116b1573d6000803e3d6000fd5b505050506040513d60208110156116c757600080fd5b81019080805190602001909291905050509350600460009054906101000a900473ffffffffffffffffffffffffffffffffffffffff1673ffffffffffffffffffffffffffffffffffffffff1663bfbcb918856040518263ffffffff167c010000000000000000000000000000000000000000000000000000000002815260040180826000191660001916815260200191505061014060405180830381600087803b15801561177457600080fd5b505af1158015611788573d6000803e3d6000fd5b505050506040513d61014081101561179f57600080fd5b810190808051906020019092919080519060200190929190805190602001909291908051906020019092919080519060200190929190805190602001909291908051906020019092919080519060200190929190805190602001909291908051906020019092919050505090919293949596979850909192939495965090919293949550909192939450909192935090919250909150905050809350508273ffffffffffffffffffffffffffffffffffffffff166340c10f1989896040518363ffffffff167c0100000000000000000000000000000000000000000000000000000000028152600401808373ffffffffffffffffffffffffffffffffffffffff1673ffffffffffffffffffffffffffffffffffffffff16815260200182815260200192505050602060405180830381600087803b1580156118df57600080fd5b505af11580156118f3573d6000803e3d6000fd5b505050506040513d602081101561190957600080fd5b8101908080519060200190929190505050151561192557600080fd5b60019550611a85565b600660008b73ffffffffffffffffffffffffffffffffffffffff1673ffffffffffffffffffffffffffffffffffffffff16815260200190815260200160002060008973ffffffffffffffffffffffffffffffffffffffff1673ffffffffffffffffffffffffffffffffffffffff16815260200190815260200160002060009054906101000a900460ff1615611a8057600560008b73ffffffffffffffffffffffffffffffffffffffff1673ffffffffffffffffffffffffffffffffffffffff16815260200190815260200160002060008973ffffffffffffffffffffffffffffffffffffffff1673ffffffffffffffffffffffffffffffffffffffff1681526020019081526020016000209150816003015487101515611a575760008260030181905550611a77565b611a6e878360030154612d7390919063ffffffff16565b82600301819055505b60019550611a85565b600095505b5050505050949350505050565b600160149054906101000a900460ff161515611aad57600080fd5b6000809054906101000a900473ffffffffffffffffffffffffffffffffffffffff1673ffffffffffffffffffffffffffffffffffffffff163373ffffffffffffffffffffffffffffffffffffffff16141515611b0857600080fd5b6000809054906101000a900473ffffffffffffffffffffffffffffffffffffffff1673ffffffffffffffffffffffffffffffffffffffff16ff5b60066020528160005260406000206020528060005260406000206000915091509054906101000a900460ff1681565b6000600360009054906101000a900473ffffffffffffffffffffffffffffffffffffffff1673ffffffffffffffffffffffffffffffffffffffff163373ffffffffffffffffffffffffffffffffffffffff16141515611bcf57600080fd5b81600081111515611bdf57600080fd5b600073ffffffffffffffffffffffffffffffffffffffff168573ffffffffffffffffffffffffffffffffffffffff1614158015611c495750600073ffffffffffffffffffffffffffffffffffffffff168473ffffffffffffffffffffffffffffffffffffffff1614155b1515611c5457600080fd5b611c5e858561241c565b151515611c6a57600080fd5b60806040519081016040528084815260200160008152602001600081526020016000815250600560008773ffffffffffffffffffffffffffffffffffffffff1673ffffffffffffffffffffffffffffffffffffffff16815260200190815260200160002060008673ffffffffffffffffffffffffffffffffffffffff1673ffffffffffffffffffffffffffffffffffffffff1681526020019081526020016000206000820151816000015560208201518160010155604082015181600201556060820151816003015590505060019150509392505050565b600160009054906101000a900473ffffffffffffffffffffffffffffffffffffffff1673ffffffffffffffffffffffffffffffffffffffff163373ffffffffffffffffffffffffffffffffffffffff161415611dfb57600160009054906101000a900473ffffffffffffffffffffffffffffffffffffffff166000806101000a81548173ffffffffffffffffffffffffffffffffffffffff021916908373ffffffffffffffffffffffffffffffffffffffff1602179055505b565b600080600160149054906101000a900460ff16151515611e1c57600080fd5b600360009054906101000a900473ffffffffffffffffffffffffffffffffffffffff1673ffffffffffffffffffffffffffffffffffffffff163373ffffffffffffffffffffffffffffffffffffffff16141515611e7857600080fd5b8215611f2957600660008673ffffffffffffffffffffffffffffffffffffffff1673ffffffffffffffffffffffffffffffffffffffff16815260200190815260200160002060008573ffffffffffffffffffffffffffffffffffffffff1673ffffffffffffffffffffffffffffffffffffffff16815260200190815260200160002060009054906101000a900460ff161515611f1357600080fd5b611f1d8585612d94565b1515611f2857600080fd5b5b600560008673ffffffffffffffffffffffffffffffffffffffff1673ffffffffffffffffffffffffffffffffffffffff16815260200190815260200160002060008573ffffffffffffffffffffffffffffffffffffffff1673ffffffffffffffffffffffffffffffffffffffff16815260200190815260200160002090506000600660008773ffffffffffffffffffffffffffffffffffffffff1673ffffffffffffffffffffffffffffffffffffffff16815260200190815260200160002060008673ffffffffffffffffffffffffffffffffffffffff1673ffffffffffffffffffffffffffffffffffffffff16815260200190815260200160002060006101000a81548160ff0219169083151502179055506000816000018190555060019150509392505050565b6000600160149054906101000a900460ff16151561206f57600080fd5b6000809054906101000a900473ffffffffffffffffffffffffffffffffffffffff1673ffffffffffffffffffffffffffffffffffffffff163373ffffffffffffffffffffffffffffffffffffffff161415156120ca57600080fd5b600073ffffffffffffffffffffffffffffffffffffffff168273ffffffffffffffffffffffffffffffffffffffff161415151561210657600080fd5b81600460006101000a81548173ffffffffffffffffffffffffffffffffffffffff021916908373ffffffffffffffffffffffffffffffffffffffff16021790555060019050919050565b6005602052816000526040600020602052806000526040600020600091509150508060000154908060010154908060020154908060030154905084565b600360009054906101000a900473ffffffffffffffffffffffffffffffffffffffff1681565b6000809054906101000a900473ffffffffffffffffffffffffffffffffffffffff1681565b6000600160149054906101000a900460ff1615156121f557600080fd5b6000809054906101000a900473ffffffffffffffffffffffffffffffffffffffff1673ffffffffffffffffffffffffffffffffffffffff163373ffffffffffffffffffffffffffffffffffffffff1614151561225057600080fd5b600073ffffffffffffffffffffffffffffffffffffffff168273ffffffffffffffffffffffffffffffffffffffff161415151561228c57600080fd5b81600360006101000a81548173ffffffffffffffffffffffffffffffffffffffff021916908373ffffffffffffffffffffffffffffffffffffffff16021790555060019050919050565b6000809054906101000a900473ffffffffffffffffffffffffffffffffffffffff1673ffffffffffffffffffffffffffffffffffffffff163373ffffffffffffffffffffffffffffffffffffffff1614151561233157600080fd5b80600160006101000a81548173ffffffffffffffffffffffffffffffffffffffff021916908373ffffffffffffffffffffffffffffffffffffffff16021790555050565b6000612381838361241c565b80156124145750600660008473ffffffffffffffffffffffffffffffffffffffff1673ffffffffffffffffffffffffffffffffffffffff16815260200190815260200160002060008373ffffffffffffffffffffffffffffffffffffffff1673ffffffffffffffffffffffffffffffffffffffff16815260200190815260200160002060009054906101000a900460ff16155b905092915050565b600080600560008573ffffffffffffffffffffffffffffffffffffffff1673ffffffffffffffffffffffffffffffffffffffff16815260200190815260200160002060008473ffffffffffffffffffffffffffffffffffffffff1673ffffffffffffffffffffffffffffffffffffffff168152602001908152602001600020600001541415905092915050565b600160149054906101000a900460ff1681565b6000600160149054906101000a900460ff1615156124d957600080fd5b6000809054906101000a900473ffffffffffffffffffffffffffffffffffffffff1673ffffffffffffffffffffffffffffffffffffffff163373ffffffffffffffffffffffffffffffffffffffff1614151561253457600080fd5b600073ffffffffffffffffffffffffffffffffffffffff168273ffffffffffffffffffffffffffffffffffffffff161415151561257057600080fd5b81600260006101000a81548173ffffffffffffffffffffffffffffffffffffffff021916908373ffffffffffffffffffffffffffffffffffffffff16021790555060019050919050565b600080600160149054906101000a900460ff161515156125d957600080fd5b600260009054906101000a900473ffffffffffffffffffffffffffffffffffffffff1673ffffffffffffffffffffffffffffffffffffffff163373ffffffffffffffffffffffffffffffffffffffff1614151561263557600080fd5b8260008111151561264557600080fd5b61264f8787612375565b151561265a57600080fd5b612664878661241c565b15151561267057600080fd5b600560008873ffffffffffffffffffffffffffffffffffffffff1673ffffffffffffffffffffffffffffffffffffffff16815260200190815260200160002060008773ffffffffffffffffffffffffffffffffffffffff1673ffffffffffffffffffffffffffffffffffffffff16815260200190815260200160002091508361270a83600201548460030154612d7390919063ffffffff16565b1015151561271757600080fd5b61272e848360020154612d5290919063ffffffff16565b8260020181905550600192505050949350505050565b600160009054906101000a900473ffffffffffffffffffffffffffffffffffffffff1681565b6000600160149054906101000a900460ff1615151561278857600080fd5b600360009054906101000a900473ffffffffffffffffffffffffffffffffffffffff1673ffffffffffffffffffffffffffffffffffffffff163373ffffffffffffffffffffffffffffffffffffffff161415156127e457600080fd5b6127ee8383612375565b15156127f957600080fd5b6001600660008573ffffffffffffffffffffffffffffffffffffffff1673ffffffffffffffffffffffffffffffffffffffff16815260200190815260200160002060008473ffffffffffffffffffffffffffffffffffffffff1673ffffffffffffffffffffffffffffffffffffffff16815260200190815260200160002060006101000a81548160ff0219169083151502179055506001905092915050565b600080600160149054906101000a900460ff161515156128b757600080fd5b600260009054906101000a900473ffffffffffffffffffffffffffffffffffffffff1673ffffffffffffffffffffffffffffffffffffffff163373ffffffffffffffffffffffffffffffffffffffff1614151561291357600080fd5b8260008111151561292357600080fd5b61292d868661241c565b151561293857600080fd5b600560008773ffffffffffffffffffffffffffffffffffffffff1673ffffffffffffffffffffffffffffffffffffffff16815260200190815260200160002060008673ffffffffffffffffffffffffffffffffffffffff1673ffffffffffffffffffffffffffffffffffffffff1681526020019081526020016000209150838260010154101515156129c957600080fd5b6129e0848360010154612d7390919063ffffffff16565b82600101819055506001925050509392505050565b6000806000600160149054906101000a900460ff16151515612a1657600080fd5b600260009054906101000a900473ffffffffffffffffffffffffffffffffffffffff1673ffffffffffffffffffffffffffffffffffffffff163373ffffffffffffffffffffffffffffffffffffffff16141515612a7257600080fd5b83600081111515612a8257600080fd5b612a8c8888612375565b1515612a9757600080fd5b612aa18887612375565b151515612aad57600080fd5b600560008973ffffffffffffffffffffffffffffffffffffffff1673ffffffffffffffffffffffffffffffffffffffff16815260200190815260200160002060008873ffffffffffffffffffffffffffffffffffffffff1673ffffffffffffffffffffffffffffffffffffffff168152602001908152602001600020925084612b5d612b4a85600301548660010154612d5290919063ffffffff16565b8560000154612d7390919063ffffffff16565b10151515612b6a57600080fd5b600660008973ffffffffffffffffffffffffffffffffffffffff1673ffffffffffffffffffffffffffffffffffffffff16815260200190815260200160002060008773ffffffffffffffffffffffffffffffffffffffff1673ffffffffffffffffffffffffffffffffffffffff16815260200190815260200160002060009054906101000a900460ff1615612cac57600560008973ffffffffffffffffffffffffffffffffffffffff1673ffffffffffffffffffffffffffffffffffffffff16815260200190815260200160002060008773ffffffffffffffffffffffffffffffffffffffff1673ffffffffffffffffffffffffffffffffffffffff168152602001908152602001600020915060008260010154148015612c8f575060008260020154145b8015612ca057506000826003015414155b1515612cab57600080fd5b5b612cc3858460010154612d5290919063ffffffff16565b836001018190555060019350505050949350505050565b6000809054906101000a900473ffffffffffffffffffffffffffffffffffffffff1673ffffffffffffffffffffffffffffffffffffffff163373ffffffffffffffffffffffffffffffffffffffff16141515612d3557600080fd5b80600160146101000a81548160ff02191690831515021790555050565b6000808284019050838110151515612d6957600080fd5b8091505092915050565b600080838311151515612d8557600080fd5b82840390508091505092915050565b600080600560008573ffffffffffffffffffffffffffffffffffffffff1673ffffffffffffffffffffffffffffffffffffffff16815260200190815260200160002060008473ffffffffffffffffffffffffffffffffffffffff1673ffffffffffffffffffffffffffffffffffffffff168152602001908152602001600020905060008160010154148015612e2d575060008160020154145b8015612e3d575060008160030154145b915050929150505600a165627a7a72305820de81bf28db545d38ed51ad4041f26f85a6c6bf61c311eec0e46657b47dda0cae0029",
  "source": "pragma solidity ^0.4.24;\n\nimport \"./SafeMath.sol\";\nimport \"./Halt.sol\";\n\ninterface TokenInterface {\n    function mapKey(address) public view returns(bytes32);\n    function mapTokenInfo(bytes32) public view returns(address, address, uint, uint, uint, bool, uint, uint, uint, uint);\n}\n\ninterface WERCProtocol {\n\tfunction mint(address, uint) public returns(bool);\n\tfunction burn(address, uint) public returns(bool);\n}\n\ncontract QuotaLedger is Halt {\n\tusing SafeMath for uint;\n\n\t/// @notice HTLCWAN instance address\n\taddress public HTLCWAN;\n\t/// @notice storeman group instance address\n\taddress public storemanGroupAdmin;\n\t/// @notice token manager instance address\n\taddress public tokenManager;\n\t/// @notice a map from storemanGroup address to its quota information\n\tmapping(address => mapping(address => StoremanGroupQuota)) public mapQuota;\n\t/// @notice a map from storemanGroup address its unregistration intention\n\tmapping(address => mapping(address => bool)) public mapUnregistration;\n\n\tstruct StoremanGroupQuota {\n\t    /// storemanGroup's total quota \n\t    uint _quota;             \n\t    /// amout of original token to be received, equals to amount of WAN token to be minted\n\t    uint _receivable;       \n\t    /// amount of WAN token to be burnt\n\t    uint _payable;           \n\t    /// amount of original token received, equals to amount of WAN token been minted\n\t    uint _debt;\n\t}\n\n\t/// @notice                 test if a value provided is meaningless\n\t/// @dev                    test if a value provided is meaningless\n\t/// @param value            given value to be handled\n\tmodifier onlyMeaningfulValue(uint value) {\n\t\trequire(value > 0);\n\t\t_;\n\t}\n\n\tmodifier onlyStoremanGroupAdmin {\n\t\trequire(msg.sender == storemanGroupAdmin);\n\t\t_;\n\t}\n\n\tmodifier onlyHTLCWAN {\n\t\trequire(msg.sender == HTLCWAN);\n\t\t_;\n\t}\n\n\t/// @notice                 set htlc instance address\n\t/// @dev                    set htlc instance address\n\t/// @param htlc             htlc instance address of wanchain\n\tfunction setHTLCWAN(address htlc)\n\t\tpublic \n\t\tisHalted\n\t\tonlyOwner\n\t\treturns (bool)\n\t{\n\t\trequire(htlc != address(0));\n\t\tHTLCWAN = htlc;\n\n\t\treturn true;\n\t}\n\n\t/// @notice                 set storemanGroup instance address\n\t/// @dev                    set storemanGroup instance address\n\t/// @param admin            storemanGroup instance address\n\tfunction setStoremanGroupAdmin(address admin)\n\t\tpublic \n\t\tisHalted\n\t\tonlyOwner\n\t\treturns (bool) \n\t{\n\t\trequire(admin != address(0));\n\t\tstoremanGroupAdmin = admin;\n\n\t\treturn true;\n\t}\n\n\t/// @notice                 set token manager instance address\n\t/// @dev                    set token manager instance address\n\t/// @param tm               token manager instance address\n\tfunction setTokenManager(address tm)\n\t\tpublic\n\t\tisHalted\n\t\tonlyOwner\n\t\treturns (bool)\n\t{\n\t\trequire(tm != address(0));\n\t\ttokenManager = tm;\n\n\t\treturn true;\n\t}\n\n\t/// @notice                 set storeman group's quota\n\t/// @param tokenOrigAddr    token address of original chain\n\t/// @param storemanGroup    storemanGroup address\n\t/// @param quota            a storemanGroup's quota    \n\tfunction setStoremanGroupQuota(address tokenOrigAddr, address storemanGroup, uint quota) \n\t\texternal\n\t\tonlyStoremanGroupAdmin\n\t\tonlyMeaningfulValue(quota)\n\t\treturns (bool)\n\t{\n\t\trequire(tokenOrigAddr != address(0) && storemanGroup != address(0));\n\t\trequire(!isStoremanGroup(tokenOrigAddr, storemanGroup));\n\t\tmapQuota[tokenOrigAddr][storemanGroup] = StoremanGroupQuota(quota, 0, 0, 0);\n\n\t\treturn true;\n\t}\n\n\tfunction applyUnregistration(address tokenOrigAddr, address storemanGroup)\n\t\texternal \n\t\tnotHalted\n\t\tonlyStoremanGroupAdmin\n\t\treturns (bool)\n\t{\n\t\trequire(isActiveStoremanGroup(tokenOrigAddr, storemanGroup));\n\n\t\tmapUnregistration[tokenOrigAddr][storemanGroup] = true;\n\n\t\treturn true;\n\t}\n\n\tfunction unregisterStoremanGroup(address tokenOrigAddr, address storemanGroup, bool isNormal)\n\t\texternal\n\t\tnotHalted\n\t\tonlyStoremanGroupAdmin\n\t\treturns (bool)\n\t{\n\t\tif (isNormal) {\n\t\t\trequire(mapUnregistration[tokenOrigAddr][storemanGroup]);\n\t\t\trequire(isDebtPaidOff(tokenOrigAddr, storemanGroup));\t\n\t\t}\n\t\t\n\t\tStoremanGroupQuota storage smgInfo = mapQuota[tokenOrigAddr][storemanGroup];\n\n\t\tmapUnregistration[tokenOrigAddr][storemanGroup] = false;\n\n\t\tsmgInfo._quota = uint(0);\n\n\t\treturn true;\n\t}\n\n\t/// @notice                 frozen WERC token quota\n  \t/// @dev                    frozen WERC token quota\n  \t/// @param tokenOrigAddr    address of token supported\n\t/// @param storemanGroup    handler address \n\t/// @param recipient        recipient's address, and it could be a storemanGroup applied unregistration\n\t/// @param value            amout of WERC20 quota to be frozen\n\t/// @return                 true if successful\n\tfunction lockQuota(address tokenOrigAddr, address storemanGroup, address recipient, uint value)\n\t\texternal\n\t\tnotHalted \n\t\tonlyHTLCWAN \n\t\tonlyMeaningfulValue(value)\n\t\treturns (bool)\n\t{\n\t    /// Make sure an active storemanGroup is provided to handle transactions\n\t    require(isActiveStoremanGroup(tokenOrigAddr, storemanGroup));\n\t    /// Make sure a valid recipient provided\n\t    require(!isActiveStoremanGroup(tokenOrigAddr, recipient));\n\n\t    /// Make sure enough inbound quota available\n\t    StoremanGroupQuota storage quotaInfo = mapQuota[tokenOrigAddr][storemanGroup];\n\t    require(quotaInfo._quota.sub(quotaInfo._receivable.add(quotaInfo._debt)) >= value);\n\n\t    /// Only can be called by an unregistration applied storemanGroup who has reset its receivable and payable\n\t    if (mapUnregistration[tokenOrigAddr][recipient]) {\n\t    \tStoremanGroupQuota storage _r = mapQuota[tokenOrigAddr][recipient];\n\t    \trequire(_r._receivable == 0 && _r._payable == 0 && _r._debt != 0);\n\t    }\n\t    \n\t    /// Increase receivable\n\t    quotaInfo._receivable = quotaInfo._receivable.add(value);\n\n\t    return true;\n\t}\n\n\t/// @notice                 defrozen WERC20 quota\n\t/// @dev                    defrozen WERC20 quota\n\t/// @param tokenOrigAddr    address of token supported\n\t/// @param storemanGroup    handler address\n\t/// @param value            amount of WERC20 quota to be locked\n\t/// @return                 true if successful\n\tfunction unlockQuota(address tokenOrigAddr, address storemanGroup, uint value) \n\t\texternal\n\t\tnotHalted\n\t\tonlyHTLCWAN\n\t\tonlyMeaningfulValue(value)\n\t\treturns (bool)\n\t{\n\t\t/// Make sure a valid storeman provided\n\t\trequire(isStoremanGroup(tokenOrigAddr, storemanGroup));\n\n\t\tStoremanGroupQuota storage quota = mapQuota[tokenOrigAddr][storemanGroup];\n\n\t\t/// Make sure this specified storemanGroup has enough inbound receivable to be unlocked\n\t\trequire(quota._receivable >= value);\n\n\t\t/// Credit receivable, double-check receivable is no less than value to be unlocked\n\t\tquota._receivable = quota._receivable.sub(value);\n\n\t\treturn true;\n\t}\n\n\t/// @notice                 mint WERC token or payoff storemanGroup debt\n\t/// @dev                    mint WERC20 token or payoff storemanGroup debt\n\t/// @param tokenOrigAddr    address of token supported\n\t/// @param storemanGroup    handler address\n\t/// @param recipient        address that will receive WERC20 token\n\t/// @param value            amount of WERC20 token to be minted\n\t/// @return                 success of token mint\n\tfunction mintToken(address tokenOrigAddr, address storemanGroup, address recipient, uint value)\n\t\texternal\n\t\tnotHalted\n\t\tonlyHTLCWAN\n\t\tonlyMeaningfulValue(value)\n\t\treturns (bool)\n\t{\n\t\t/// Make sure a legit storemanGroup provided\n\t\trequire(isStoremanGroup(tokenOrigAddr, storemanGroup));\n\t\t/// Make sure a legit recipient provided\n\t\trequire(!isActiveStoremanGroup(tokenOrigAddr, recipient));\n\n\t\tStoremanGroupQuota storage _q = mapQuota[tokenOrigAddr][storemanGroup];\n\n\t\t/// Adjust quota record\n\t\t_q._receivable = _q._receivable.sub(value);\n\t\t_q._debt = _q._debt.add(value);\n\n\t\t/// Branch - mint token to an ordinary account\n\t\tif (!isStoremanGroup(tokenOrigAddr, recipient)) {\n\t\t\t/// Mint token to the recipient\n\t\t  \n\t\t\tbytes32 key;\n\t\t\tkey = TokenInterface(tokenManager).mapKey(tokenOrigAddr);\n\t\t\taddress instance;\n\t\t\t(,instance,,,,,,,,) = TokenInterface(tokenManager).mapTokenInfo(key);\n\n\t\t\trequire(WERCProtocol(instance).mint(recipient, value));\n\n\t\t\treturn true;\n\t\t  \n\t\t} else if (mapUnregistration[tokenOrigAddr][recipient]) {\n\t\t  /// Branch - storemanGroup unregistration\n\t\t  StoremanGroupQuota storage _r = mapQuota[tokenOrigAddr][recipient];\n\t\t  /// Adjust the unregistering smg debt\n\t\t  if (value >= _r._debt) {\n\t\t    _r._debt = 0;\n\t\t  } else {\n\t\t    _r._debt = _r._debt.sub(value);\n\t\t  }\n\n\t\t  return true;\n\t\t}\n\n\t\treturn false;\n\t}\n\n\t/// @notice                 lock WERC20 token and initiate an outbound transaction\n\t/// @dev                    lock WERC20 token and initiate an outbound transaction\n\t/// @param tokenOrigAddr    address of token supported\n\t/// @param storemanGroup    qutbound storemanGroup handler address\n\t/// @param value            amount of WERC20 token to be locked\n\t/// @return                 success of token locking\n\tfunction lockToken(address tokenOrigAddr, address storemanGroup, address initiator, uint value)\n\t\texternal\n\t\tnotHalted\n\t\tonlyHTLCWAN \n\t\tonlyMeaningfulValue(value)\n\t\treturns (bool)\n\t{ \n\t\t/// Make sure a valid storemanGroup and a legit initiator provided\n\t\trequire(isActiveStoremanGroup(tokenOrigAddr, storemanGroup));\n\t\trequire(!isStoremanGroup(tokenOrigAddr, initiator));\n\n\t\tStoremanGroupQuota storage quota = mapQuota[tokenOrigAddr][storemanGroup];\n\t\t/// Make sure it has enough outboundQuota \n\t\trequire(quota._debt.sub(quota._payable) >= value);\n\n\t\t/// Adjust quota record\n\t\tquota._payable = quota._payable.add(value);\n\n\t\treturn true;\n\t}\n\n\t/// @notice                 unlock WERC20 token\n\t/// @dev                    unlock WERC20 token\n\t/// @param tokenOrigAddr    address of token supported\n\t/// @param storemanGroup    storemanGroup handler address\n\t/// @param value            amount of token to be unlocked\n\t/// @return                 success of token unlocking\n\tfunction unlockToken(address tokenOrigAddr, address storemanGroup, uint value) \n\t\texternal\n\t\tnotHalted\n\t\tonlyHTLCWAN\n\t\tonlyMeaningfulValue(value)\n\t\treturns (bool)\n\t{\n\t\trequire(isStoremanGroup(tokenOrigAddr, storemanGroup));\n\t\t/// Make sure it has enough quota for a token unlocking\n\t\tStoremanGroupQuota storage quotaInfo = mapQuota[tokenOrigAddr][storemanGroup];\n\t\trequire(quotaInfo._payable >= value);\n\n\t\t/// Adjust quota record\n\t\tquotaInfo._payable = quotaInfo._payable.sub(value);\n\n\t\treturn true;\n\t}\n\n\t/// @notice                 burn WERC20 token\n\t/// @dev                    burn WERC20 token\n\t/// @param tokenOrigAddr    address of token supported\n\t/// @param storemanGroup    crosschain transaction handler address\n\t/// @param value            amount of WERC20 token to be burnt\n\t/// @return                 success of burn token\n\tfunction burnToken(address tokenOrigAddr, address storemanGroup, uint value) \n\t\texternal\n\t\tnotHalted\n\t\tonlyHTLCWAN\n\t\tonlyMeaningfulValue(value)\n\t\treturns (bool)\n\t{ \n\t\trequire(isStoremanGroup(tokenOrigAddr, storemanGroup));\n\t\tStoremanGroupQuota storage quotaInfo = mapQuota[tokenOrigAddr][storemanGroup];\n\n\t\t/// Adjust quota record\n\t\tquotaInfo._debt = quotaInfo._debt.sub(value);\n\t\tquotaInfo._payable = quotaInfo._payable.sub(value);\n\n\t\t/// Process the transaction\n\t\tbytes32 key;\n\t\tkey = TokenInterface(tokenManager).mapKey(tokenOrigAddr);\n\t\taddress instance;\n\t\t(,instance,,,,,,,,) = TokenInterface(tokenManager).mapTokenInfo(key);\n\t\trequire(WERCProtocol(instance).burn(HTLCWAN, value));\n\t\treturn true;\n\t}\n\n\t/// @param tokenOrigAddr    address of token supported\n\t/// @param storemanGroup    crosschain transaction handler address\n\tfunction isStoremanGroup(address tokenOrigAddr, address storemanGroup)\n\t\tpublic\n\t\tview\n\t\treturns (bool)\n\t{\n\t\treturn mapQuota[tokenOrigAddr][storemanGroup]._quota != uint(0);\n\t}\n\n\t/// @param tokenOrigAddr    address of token supported\n\t/// @param storemanGroup    crosschain transaction handler address\n\tfunction isActiveStoremanGroup(address tokenOrigAddr, address storemanGroup) \n    \tpublic\n    \tview \n    \treturns (bool)\n\t{\n    \treturn isStoremanGroup(tokenOrigAddr, storemanGroup) && !mapUnregistration[tokenOrigAddr][storemanGroup];\n\t}\n\n\t/// @notice                 query storemanGroup quota detail\n    /// @dev                    query storemanGroup detail\n    /// @param  tokenOrigAddr   address of token supported\n    /// @param  storemanGroup   storemanGroup to be queried\n    /// @return quota           total quota of this storemanGroup in ETH/WERC20\n    /// @return inboundQuota    inbound crosschain transaction quota of this storemanGroup in ETH/WERC20\n    /// @return outboundQuota   qutbound crosschain transaction quota of this storemanGroup in ETH/WERC20\n    /// @return receivable      amount of WERC20 to be minted through this storemanGroup\n    /// @return payable         amount of WERC20 to be burnt through this storemanGroup\n    /// @return debt            amount of WERC20 been minted through this storemanGroup\n    function queryStoremanGroupQuota(address tokenOrigAddr, address storemanGroup)\n        public \n        view\n        returns (uint, uint, uint, uint, uint, uint)\n    {\n        if (!isStoremanGroup(tokenOrigAddr, storemanGroup)) {\n            return (0, 0, 0, 0, 0, 0);\n        }\n\n        StoremanGroupQuota storage quotaInfo = mapQuota[tokenOrigAddr][storemanGroup];\n\n        uint inboundQuota = quotaInfo._quota.sub(quotaInfo._receivable.add(quotaInfo._debt));\n        uint outboundQuota = quotaInfo._debt.sub(quotaInfo._payable);\n\n        return (quotaInfo._quota, inboundQuota, outboundQuota, quotaInfo._receivable, quotaInfo._payable, quotaInfo._debt);\n    }\n\n\t/// @notice                 check if a specified storemanGroup has paid off its debt\n    /// @dev                    check if a specified storemanGroup has paid off its debt\n    /// @param  tokenOrigAddr   address of token supported\n    /// @param  storemanGroup   the storemanGroup's address to be checked \n    /// @return                 result of debt status check\n    function isDebtPaidOff(address tokenOrigAddr, address storemanGroup)\n        private\n        view\n        returns (bool)\n    {\n        StoremanGroupQuota storage quotaInfo = mapQuota[tokenOrigAddr][storemanGroup];\n        return quotaInfo._receivable == uint(0) && quotaInfo._payable == uint(0) && quotaInfo._debt == uint(0);\n    }\n\n    /// @notice function for destroy contract\n    function kill() \n        public\n        isHalted\n        onlyOwner\n    {\n        selfdestruct(owner);\n    } \n\n}",
  "sourcePath": "/home/lzhang/wanchain/wanchain-crosschain-contracts/contracts/QuotaLedger.sol",
  "compiler": {
    "name": "solc",
    "version": "0.4.24+commit.e67f0147.Emscripten.clang"
  },
  "schemaVersion": "3.0.19",
  "updatedAt": "2019-11-24T08:18:27.334Z",
  "networkType": "ethereum",
  "devdoc": {
    "methods": {
      "burnToken(address,address,uint256)": {
        "details": "burn WERC20 token",
        "params": {
          "storemanGroup": "crosschain transaction handler address",
          "tokenOrigAddr": "address of token supported",
          "value": "amount of WERC20 token to be burnt"
        },
        "return": "success of burn token"
      },
      "changeOwner(address)": {
        "params": {
          "_newOwner": "The address of the new owner. 0x0 can be used to create  an unowned neutral vault, however that cannot be undone"
        }
      },
      "isActiveStoremanGroup(address,address)": {
        "params": {
          "storemanGroup": "crosschain transaction handler address",
          "tokenOrigAddr": "address of token supported"
        }
      },
      "isStoremanGroup(address,address)": {
        "params": {
          "storemanGroup": "crosschain transaction handler address",
          "tokenOrigAddr": "address of token supported"
        }
      },
      "lockQuota(address,address,address,uint256)": {
        "details": "frozen WERC token quota",
        "params": {
          "recipient": "recipient's address, and it could be a storemanGroup applied unregistration",
          "storemanGroup": "handler address ",
          "tokenOrigAddr": "address of token supported",
          "value": "amout of WERC20 quota to be frozen"
        },
        "return": "true if successful"
      },
      "lockToken(address,address,address,uint256)": {
        "details": "lock WERC20 token and initiate an outbound transaction",
        "params": {
          "storemanGroup": "qutbound storemanGroup handler address",
          "tokenOrigAddr": "address of token supported",
          "value": "amount of WERC20 token to be locked"
        },
        "return": "success of token locking"
      },
      "mintToken(address,address,address,uint256)": {
        "details": "mint WERC20 token or payoff storemanGroup debt",
        "params": {
          "recipient": "address that will receive WERC20 token",
          "storemanGroup": "handler address",
          "tokenOrigAddr": "address of token supported",
          "value": "amount of WERC20 token to be minted"
        },
        "return": "success of token mint"
      },
      "queryStoremanGroupQuota(address,address)": {
        "details": "query storemanGroup detail",
        "params": {
          "storemanGroup": "storemanGroup to be queried",
          "tokenOrigAddr": "address of token supported"
        },
        "return": "quota           total quota of this storemanGroup in ETH/WERC20inboundQuota    inbound crosschain transaction quota of this storemanGroup in ETH/WERC20outboundQuota   qutbound crosschain transaction quota of this storemanGroup in ETH/WERC20receivable      amount of WERC20 to be minted through this storemanGrouppayable         amount of WERC20 to be burnt through this storemanGroupdebt            amount of WERC20 been minted through this storemanGroup"
      },
      "setHTLCWAN(address)": {
        "details": "set htlc instance address",
        "params": {
          "htlc": "htlc instance address of wanchain"
        }
      },
      "setStoremanGroupAdmin(address)": {
        "details": "set storemanGroup instance address",
        "params": {
          "admin": "storemanGroup instance address"
        }
      },
      "setStoremanGroupQuota(address,address,uint256)": {
        "params": {
          "quota": "a storemanGroup's quota    ",
          "storemanGroup": "storemanGroup address",
          "tokenOrigAddr": "token address of original chain"
        }
      },
      "setTokenManager(address)": {
        "details": "set token manager instance address",
        "params": {
          "tm": "token manager instance address"
        }
      },
      "unlockQuota(address,address,uint256)": {
        "details": "defrozen WERC20 quota",
        "params": {
          "storemanGroup": "handler address",
          "tokenOrigAddr": "address of token supported",
          "value": "amount of WERC20 quota to be locked"
        },
        "return": "true if successful"
      },
      "unlockToken(address,address,uint256)": {
        "details": "unlock WERC20 token",
        "params": {
          "storemanGroup": "storemanGroup handler address",
          "tokenOrigAddr": "address of token supported",
          "value": "amount of token to be unlocked"
        },
        "return": "success of token unlocking"
      }
    }
  },
  "userdoc": {
    "methods": {
      "burnToken(address,address,uint256)": {
        "notice": "burn WERC20 token"
      },
      "changeOwner(address)": {
        "notice": "`owner` can step down and assign some other address to this role"
      },
      "kill()": {
        "notice": "function for destroy contract"
      },
      "lockQuota(address,address,address,uint256)": {
        "notice": "frozen WERC token quota"
      },
      "lockToken(address,address,address,uint256)": {
        "notice": "lock WERC20 token and initiate an outbound transaction"
      },
      "mintToken(address,address,address,uint256)": {
        "notice": "mint WERC token or payoff storemanGroup debt"
      },
      "queryStoremanGroupQuota(address,address)": {
        "notice": "query storemanGroup quota detail"
      },
      "setHTLCWAN(address)": {
        "notice": "set htlc instance address"
      },
      "setHalt(bool)": {
        "notice": "function Emergency situation that requires contribution period to stop or not."
      },
      "setStoremanGroupAdmin(address)": {
        "notice": "set storemanGroup instance address"
      },
      "setStoremanGroupQuota(address,address,uint256)": {
        "notice": "set storeman group's quota"
      },
      "setTokenManager(address)": {
        "notice": "set token manager instance address"
      },
      "unlockQuota(address,address,uint256)": {
        "notice": "defrozen WERC20 quota"
      },
      "unlockToken(address,address,uint256)": {
        "notice": "unlock WERC20 token"
      }
    }
  }
}