{
  "contractName": "StoremanGroupAdmin",
  "abi": [
    {
      "constant": true,
      "inputs": [],
      "name": "tokenManager",
      "outputs": [
        {
          "name": "",
          "type": "address"
        }
      ],
      "payable": false,
      "stateMutability": "view",
      "type": "function"
    },
    {
      "constant": true,
      "inputs": [],
      "name": "quotaLedger",
      "outputs": [
        {
          "name": "",
          "type": "address"
        }
      ],
      "payable": false,
      "stateMutability": "view",
      "type": "function"
    },
    {
      "constant": true,
      "inputs": [
        {
          "name": "",
          "type": "address"
        },
        {
          "name": "",
          "type": "address"
        }
      ],
      "name": "mapStoremanGroup",
      "outputs": [
        {
          "name": "deposit",
          "type": "uint256"
        },
        {
          "name": "originalChainAddr",
          "type": "address"
        },
        {
          "name": "unregisterApplyTime",
          "type": "uint256"
        },
        {
          "name": "txFeeRatio",
          "type": "uint256"
        },
        {
          "name": "bonusBlockNumber",
          "type": "uint256"
        },
        {
          "name": "initiator",
          "type": "address"
        },
        {
          "name": "punishPercent",
          "type": "uint256"
        }
      ],
      "payable": false,
      "stateMutability": "view",
      "type": "function"
    },
    {
      "constant": false,
      "inputs": [],
      "name": "acceptOwnership",
      "outputs": [],
      "payable": false,
      "stateMutability": "nonpayable",
      "type": "function"
    },
    {
      "constant": true,
      "inputs": [
        {
          "name": "",
          "type": "address"
        },
        {
          "name": "",
          "type": "address"
        }
      ],
      "name": "mapSmgWhiteList",
      "outputs": [
        {
          "name": "",
          "type": "bool"
        }
      ],
      "payable": false,
      "stateMutability": "view",
      "type": "function"
    },
    {
      "constant": true,
      "inputs": [],
      "name": "owner",
      "outputs": [
        {
          "name": "",
          "type": "address"
        }
      ],
      "payable": false,
      "stateMutability": "view",
      "type": "function"
    },
    {
      "constant": false,
      "inputs": [
        {
          "name": "_newOwner",
          "type": "address"
        }
      ],
      "name": "changeOwner",
      "outputs": [],
      "payable": false,
      "stateMutability": "nonpayable",
      "type": "function"
    },
    {
      "constant": true,
      "inputs": [],
      "name": "halted",
      "outputs": [
        {
          "name": "",
          "type": "bool"
        }
      ],
      "payable": false,
      "stateMutability": "view",
      "type": "function"
    },
    {
      "constant": true,
      "inputs": [],
      "name": "newOwner",
      "outputs": [
        {
          "name": "",
          "type": "address"
        }
      ],
      "payable": false,
      "stateMutability": "view",
      "type": "function"
    },
    {
      "constant": false,
      "inputs": [
        {
          "name": "halt",
          "type": "bool"
        }
      ],
      "name": "setHalt",
      "outputs": [],
      "payable": false,
      "stateMutability": "nonpayable",
      "type": "function"
    },
    {
      "payable": true,
      "stateMutability": "payable",
      "type": "fallback"
    },
    {
      "anonymous": false,
      "inputs": [
        {
          "indexed": true,
          "name": "tokenOrigAddr",
          "type": "address"
        },
        {
          "indexed": true,
          "name": "smgWanAddr",
          "type": "address"
        },
        {
          "indexed": false,
          "name": "smgOrigAddr",
          "type": "address"
        },
        {
          "indexed": false,
          "name": "wanDeposit",
          "type": "uint256"
        },
        {
          "indexed": false,
          "name": "quota",
          "type": "uint256"
        },
        {
          "indexed": false,
          "name": "txFeeRatio",
          "type": "uint256"
        }
      ],
      "name": "StoremanGroupRegistrationLogger",
      "type": "event"
    },
    {
      "anonymous": false,
      "inputs": [
        {
          "indexed": true,
          "name": "tokenOrigAddr",
          "type": "address"
        },
        {
          "indexed": true,
          "name": "sender",
          "type": "address"
        },
        {
          "indexed": true,
          "name": "wancoin",
          "type": "uint256"
        }
      ],
      "name": "StoremanGroupDepositBonusLogger",
      "type": "event"
    },
    {
      "anonymous": false,
      "inputs": [
        {
          "indexed": true,
          "name": "smgWanAddr",
          "type": "address"
        },
        {
          "indexed": true,
          "name": "tokenOrigAddr",
          "type": "address"
        }
      ],
      "name": "SmgEnableWhiteListLogger",
      "type": "event"
    },
    {
      "anonymous": false,
      "inputs": [
        {
          "indexed": true,
          "name": "tokenOrigAddr",
          "type": "address"
        },
        {
          "indexed": true,
          "name": "smgWanAddr",
          "type": "address"
        },
        {
          "indexed": true,
          "name": "applyTime",
          "type": "uint256"
        }
      ],
      "name": "StoremanGroupApplyUnRegistrationLogger",
      "type": "event"
    },
    {
      "anonymous": false,
      "inputs": [
        {
          "indexed": true,
          "name": "tokenOrigAddr",
          "type": "address"
        },
        {
          "indexed": true,
          "name": "smgWanAddr",
          "type": "address"
        },
        {
          "indexed": true,
          "name": "actualReturn",
          "type": "uint256"
        },
        {
          "indexed": false,
          "name": "deposit",
          "type": "uint256"
        }
      ],
      "name": "StoremanGroupWithdrawLogger",
      "type": "event"
    },
    {
      "anonymous": false,
      "inputs": [
        {
          "indexed": true,
          "name": "tokenOrigAddr",
          "type": "address"
        },
        {
          "indexed": true,
          "name": "bonusRecipient",
          "type": "address"
        },
        {
          "indexed": true,
          "name": "bonus",
          "type": "uint256"
        }
      ],
      "name": "StoremanGroupClaimSystemBonusLogger",
      "type": "event"
    },
    {
      "anonymous": false,
      "inputs": [
        {
          "indexed": true,
          "name": "tokenOrigAddr",
          "type": "address"
        },
        {
          "indexed": true,
          "name": "smgWanAddr",
          "type": "address"
        },
        {
          "indexed": true,
          "name": "punishPercent",
          "type": "uint256"
        }
      ],
      "name": "StoremanGroupPunishedLogger",
      "type": "event"
    },
    {
      "anonymous": false,
      "inputs": [
        {
          "indexed": true,
          "name": "tokenOrigAddr",
          "type": "address"
        },
        {
          "indexed": true,
          "name": "smgAddress",
          "type": "address"
        },
        {
          "indexed": false,
          "name": "destAddress",
          "type": "address"
        },
        {
          "indexed": false,
          "name": "deposit",
          "type": "uint256"
        }
      ],
      "name": "SmgTranferDepositLogger",
      "type": "event"
    },
    {
      "constant": false,
      "inputs": [
        {
          "name": "tm",
          "type": "address"
        },
        {
          "name": "ql",
          "type": "address"
        }
      ],
      "name": "injectDependencies",
      "outputs": [],
      "payable": false,
      "stateMutability": "nonpayable",
      "type": "function"
    },
    {
      "constant": false,
      "inputs": [
        {
          "name": "tokenOrigAddr",
          "type": "address"
        },
        {
          "name": "storemanGroup",
          "type": "address"
        }
      ],
      "name": "setSmgWhiteList",
      "outputs": [],
      "payable": false,
      "stateMutability": "nonpayable",
      "type": "function"
    },
    {
      "constant": false,
      "inputs": [
        {
          "name": "tokenOrigAddr",
          "type": "address"
        },
        {
          "name": "originalChainAddr",
          "type": "address"
        },
        {
          "name": "txFeeRatio",
          "type": "uint256"
        }
      ],
      "name": "storemanGroupRegister",
      "outputs": [],
      "payable": true,
      "stateMutability": "payable",
      "type": "function"
    },
    {
      "constant": false,
      "inputs": [
        {
          "name": "tokenOrigAddr",
          "type": "address"
        },
        {
          "name": "storemanGroup",
          "type": "address"
        },
        {
          "name": "originalChainAddr",
          "type": "address"
        },
        {
          "name": "txFeeRatio",
          "type": "uint256"
        }
      ],
      "name": "storemanGroupRegisterByDelegate",
      "outputs": [],
      "payable": true,
      "stateMutability": "payable",
      "type": "function"
    },
    {
      "constant": false,
      "inputs": [
        {
          "name": "tokenOrigAddr",
          "type": "address"
        }
      ],
      "name": "storemanGroupApplyUnregister",
      "outputs": [],
      "payable": false,
      "stateMutability": "nonpayable",
      "type": "function"
    },
    {
      "constant": false,
      "inputs": [
        {
          "name": "tokenOrigAddr",
          "type": "address"
        },
        {
          "name": "storemanGroup",
          "type": "address"
        }
      ],
      "name": "smgApplyUnregisterByDelegate",
      "outputs": [],
      "payable": false,
      "stateMutability": "nonpayable",
      "type": "function"
    },
    {
      "constant": false,
      "inputs": [
        {
          "name": "tokenOrigAddr",
          "type": "address"
        }
      ],
      "name": "storemanGroupWithdrawDeposit",
      "outputs": [],
      "payable": false,
      "stateMutability": "nonpayable",
      "type": "function"
    },
    {
      "constant": false,
      "inputs": [
        {
          "name": "tokenOrigAddr",
          "type": "address"
        },
        {
          "name": "storemanGroup",
          "type": "address"
        }
      ],
      "name": "smgWithdrawDepositByDelegate",
      "outputs": [],
      "payable": false,
      "stateMutability": "nonpayable",
      "type": "function"
    },
    {
      "constant": false,
      "inputs": [
        {
          "name": "tokenOrigAddr",
          "type": "address"
        }
      ],
      "name": "storemanGroupClaimSystemBonus",
      "outputs": [],
      "payable": false,
      "stateMutability": "nonpayable",
      "type": "function"
    },
    {
      "constant": false,
      "inputs": [
        {
          "name": "tokenOrigAddr",
          "type": "address"
        },
        {
          "name": "storemanGroup",
          "type": "address"
        }
      ],
      "name": "smgClaimSystemBonusByDelegate",
      "outputs": [],
      "payable": false,
      "stateMutability": "nonpayable",
      "type": "function"
    },
    {
      "constant": false,
      "inputs": [
        {
          "name": "tokenOrigAddr",
          "type": "address"
        }
      ],
      "name": "depositSmgBonus",
      "outputs": [],
      "payable": true,
      "stateMutability": "payable",
      "type": "function"
    },
    {
      "constant": false,
      "inputs": [
        {
          "name": "tokenOrigAddr",
          "type": "address"
        },
        {
          "name": "storemanGroup",
          "type": "address"
        },
        {
          "name": "punishPercent",
          "type": "uint256"
        }
      ],
      "name": "punishStoremanGroup",
      "outputs": [],
      "payable": false,
      "stateMutability": "nonpayable",
      "type": "function"
    },
    {
      "constant": false,
      "inputs": [
        {
          "name": "tokenOrigAddr",
          "type": "address"
        },
        {
          "name": "storemanGroup",
          "type": "address"
        },
        {
          "name": "destAddress",
          "type": "address"
        },
        {
          "name": "isTransferAll",
          "type": "bool"
        }
      ],
      "name": "transferSmgDeposit",
      "outputs": [],
      "payable": false,
      "stateMutability": "nonpayable",
      "type": "function"
    },
    {
      "constant": false,
      "inputs": [],
      "name": "kill",
      "outputs": [],
      "payable": false,
      "stateMutability": "nonpayable",
      "type": "function"
    }
  ],
  "bytecode": "0x608060405260018060146101000a81548160ff021916908315150217905550336000806101000a81548173ffffffffffffffffffffffffffffffffffffffff021916908373ffffffffffffffffffffffffffffffffffffffff1602179055506144298061006d6000396000f30060806040526004361061013e576000357c0100000000000000000000000000000000000000000000000000000000900463ffffffff16806301bb2c2e146101435780632a709b14146101b0578063402541651461020757806341c0e1b51461025e57806344eab98c14610275578063497a1796146102b8578063560c4a311461031b5780636ea91e461461041457806379ba50971461047457806384a58f791461048b578063850c3f3e1461050b5780638da5cb5b146105865780639aa927b3146105dd578063a6f9dae11461066c578063b318beb8146106af578063b9b8af0b146106e5578063bb1e4dba14610714578063cd11114814610777578063cf5bb548146107da578063d4ee1d901461083d578063e02de59514610894578063e6679fd0146108f7578063f49543871461093a578063fbad6ca714610969575b600080fd5b34801561014f57600080fd5b506101ae600480360381019080803573ffffffffffffffffffffffffffffffffffffffff169060200190929190803573ffffffffffffffffffffffffffffffffffffffff169060200190929190803590602001909291905050506109ac565b005b3480156101bc57600080fd5b506101c5610b21565b604051808273ffffffffffffffffffffffffffffffffffffffff1673ffffffffffffffffffffffffffffffffffffffff16815260200191505060405180910390f35b34801561021357600080fd5b5061021c610b47565b604051808273ffffffffffffffffffffffffffffffffffffffff1673ffffffffffffffffffffffffffffffffffffffff16815260200191505060405180910390f35b34801561026a57600080fd5b50610273610b6d565b005b34801561028157600080fd5b506102b6600480360381019080803573ffffffffffffffffffffffffffffffffffffffff169060200190929190505050610c1d565b005b3480156102c457600080fd5b50610319600480360381019080803573ffffffffffffffffffffffffffffffffffffffff169060200190929190803573ffffffffffffffffffffffffffffffffffffffff169060200190929190505050610c46565b005b34801561032757600080fd5b5061037c600480360381019080803573ffffffffffffffffffffffffffffffffffffffff169060200190929190803573ffffffffffffffffffffffffffffffffffffffff169060200190929190505050611135565b604051808881526020018773ffffffffffffffffffffffffffffffffffffffff1673ffffffffffffffffffffffffffffffffffffffff1681526020018681526020018581526020018481526020018373ffffffffffffffffffffffffffffffffffffffff1673ffffffffffffffffffffffffffffffffffffffff16815260200182815260200197505050505050505060405180910390f35b610472600480360381019080803573ffffffffffffffffffffffffffffffffffffffff169060200190929190803573ffffffffffffffffffffffffffffffffffffffff169060200190929190803590602001909291905050506111c4565b005b34801561048057600080fd5b506104896111f1565b005b610509600480360381019080803573ffffffffffffffffffffffffffffffffffffffff169060200190929190803573ffffffffffffffffffffffffffffffffffffffff169060200190929190803573ffffffffffffffffffffffffffffffffffffffff169060200190929190803590602001909291905050506112ac565b005b34801561051757600080fd5b5061056c600480360381019080803573ffffffffffffffffffffffffffffffffffffffff169060200190929190803573ffffffffffffffffffffffffffffffffffffffff169060200190929190505050611d65565b604051808215151515815260200191505060405180910390f35b34801561059257600080fd5b5061059b611d94565b604051808273ffffffffffffffffffffffffffffffffffffffff1673ffffffffffffffffffffffffffffffffffffffff16815260200191505060405180910390f35b3480156105e957600080fd5b5061066a600480360381019080803573ffffffffffffffffffffffffffffffffffffffff169060200190929190803573ffffffffffffffffffffffffffffffffffffffff169060200190929190803573ffffffffffffffffffffffffffffffffffffffff169060200190929190803515159060200190929190505050611db9565b005b34801561067857600080fd5b506106ad600480360381019080803573ffffffffffffffffffffffffffffffffffffffff169060200190929190505050612279565b005b6106e3600480360381019080803573ffffffffffffffffffffffffffffffffffffffff169060200190929190505050612318565b005b3480156106f157600080fd5b506106fa61273c565b604051808215151515815260200191505060405180910390f35b34801561072057600080fd5b50610775600480360381019080803573ffffffffffffffffffffffffffffffffffffffff169060200190929190803573ffffffffffffffffffffffffffffffffffffffff16906020019092919050505061274f565b005b34801561078357600080fd5b506107d8600480360381019080803573ffffffffffffffffffffffffffffffffffffffff169060200190929190803573ffffffffffffffffffffffffffffffffffffffff169060200190929190505050612d18565b005b3480156107e657600080fd5b5061083b600480360381019080803573ffffffffffffffffffffffffffffffffffffffff169060200190929190803573ffffffffffffffffffffffffffffffffffffffff169060200190929190505050613697565b005b34801561084957600080fd5b5061085261383f565b604051808273ffffffffffffffffffffffffffffffffffffffff1673ffffffffffffffffffffffffffffffffffffffff16815260200191505060405180910390f35b3480156108a057600080fd5b506108f5600480360381019080803573ffffffffffffffffffffffffffffffffffffffff169060200190929190803573ffffffffffffffffffffffffffffffffffffffff169060200190929190505050613865565b005b34801561090357600080fd5b50610938600480360381019080803573ffffffffffffffffffffffffffffffffffffffff1690602001909291905050506139d6565b005b34801561094657600080fd5b50610967600480360381019080803515159060200190929190505050613aa4565b005b34801561097557600080fd5b506109aa600480360381019080803573ffffffffffffffffffffffffffffffffffffffff169060200190929190505050613b1c565b005b60008060009054906101000a900473ffffffffffffffffffffffffffffffffffffffff1673ffffffffffffffffffffffffffffffffffffffff163373ffffffffffffffffffffffffffffffffffffffff16141515610a0957600080fd5b600082118015610a1a575060648211155b1515610a2557600080fd5b600460008573ffffffffffffffffffffffffffffffffffffffff1673ffffffffffffffffffffffffffffffffffffffff16815260200190815260200160002060008473ffffffffffffffffffffffffffffffffffffffff1673ffffffffffffffffffffffffffffffffffffffff16815260200190815260200160002090506000816000015414151515610ab757600080fd5b818160060181905550818373ffffffffffffffffffffffffffffffffffffffff168573ffffffffffffffffffffffffffffffffffffffff167fe7a8975a552b5fa3dd38e36a7c70e11a0edb160090acf5f684faa2c16d63255760405160405180910390a450505050565b600260009054906101000a900473ffffffffffffffffffffffffffffffffffffffff1681565b600360009054906101000a900473ffffffffffffffffffffffffffffffffffffffff1681565b600160149054906101000a900460ff161515610b8857600080fd5b6000809054906101000a900473ffffffffffffffffffffffffffffffffffffffff1673ffffffffffffffffffffffffffffffffffffffff163373ffffffffffffffffffffffffffffffffffffffff16141515610be357600080fd5b6000809054906101000a900473ffffffffffffffffffffffffffffffffffffffff1673ffffffffffffffffffffffffffffffffffffffff16ff5b600160149054906101000a900460ff16151515610c3957600080fd5b610c438133612d18565b50565b60008060009054906101000a900473ffffffffffffffffffffffffffffffffffffffff1673ffffffffffffffffffffffffffffffffffffffff163373ffffffffffffffffffffffffffffffffffffffff16141515610ca357600080fd5b600073ffffffffffffffffffffffffffffffffffffffff168273ffffffffffffffffffffffffffffffffffffffff1614151515610cdf57600080fd5b600260009054906101000a900473ffffffffffffffffffffffffffffffffffffffff1673ffffffffffffffffffffffffffffffffffffffff1663bfbcb918600260009054906101000a900473ffffffffffffffffffffffffffffffffffffffff1673ffffffffffffffffffffffffffffffffffffffff1663ff63e84b866040518263ffffffff167c0100000000000000000000000000000000000000000000000000000000028152600401808273ffffffffffffffffffffffffffffffffffffffff1673ffffffffffffffffffffffffffffffffffffffff168152602001915050602060405180830381600087803b158015610dda57600080fd5b505af1158015610dee573d6000803e3d6000fd5b505050506040513d6020811015610e0457600080fd5b81019080805190602001909291905050506040518263ffffffff167c010000000000000000000000000000000000000000000000000000000002815260040180826000191660001916815260200191505061014060405180830381600087803b158015610e7057600080fd5b505af1158015610e84573d6000803e3d6000fd5b505050506040513d610140811015610e9b57600080fd5b81019080805190602001909291908051906020019092919080519060200190929190805190602001909291908051906020019092919080519060200190929190805190602001909291908051906020019092919080519060200190929190805190602001909291905050505050505095505050505050801515610f1d57600080fd5b6000600460008573ffffffffffffffffffffffffffffffffffffffff1673ffffffffffffffffffffffffffffffffffffffff16815260200190815260200160002060008473ffffffffffffffffffffffffffffffffffffffff1673ffffffffffffffffffffffffffffffffffffffff16815260200190815260200160002060040154141515610fab57600080fd5b600560008473ffffffffffffffffffffffffffffffffffffffff1673ffffffffffffffffffffffffffffffffffffffff16815260200190815260200160002060008373ffffffffffffffffffffffffffffffffffffffff1673ffffffffffffffffffffffffffffffffffffffff16815260200190815260200160002060009054906101000a900460ff1615151561104157600080fd5b6001600560008573ffffffffffffffffffffffffffffffffffffffff1673ffffffffffffffffffffffffffffffffffffffff16815260200190815260200160002060008473ffffffffffffffffffffffffffffffffffffffff1673ffffffffffffffffffffffffffffffffffffffff16815260200190815260200160002060006101000a81548160ff0219169083151502179055508273ffffffffffffffffffffffffffffffffffffffff168273ffffffffffffffffffffffffffffffffffffffff167f47a2975dcee9c2abfff71a949eba187005c1df57f41afd8088cf6a29332e950e60405160405180910390a3505050565b6004602052816000526040600020602052806000526040600020600091509150508060000154908060010160009054906101000a900473ffffffffffffffffffffffffffffffffffffffff16908060020154908060030154908060040154908060050160009054906101000a900473ffffffffffffffffffffffffffffffffffffffff16908060060154905087565b600160149054906101000a900460ff161515156111e057600080fd5b6111ec833384846112ac565b505050565b600160009054906101000a900473ffffffffffffffffffffffffffffffffffffffff1673ffffffffffffffffffffffffffffffffffffffff163373ffffffffffffffffffffffffffffffffffffffff1614156112aa57600160009054906101000a900473ffffffffffffffffffffffffffffffffffffffff166000806101000a81548173ffffffffffffffffffffffffffffffffffffffff021916908373ffffffffffffffffffffffffffffffffffffffff1602179055505b565b6000806000806000600160149054906101000a900460ff161515156112d057600080fd5b600073ffffffffffffffffffffffffffffffffffffffff168873ffffffffffffffffffffffffffffffffffffffff161415801561133a5750600073ffffffffffffffffffffffffffffffffffffffff168773ffffffffffffffffffffffffffffffffffffffff1614155b80156113465750600086115b151561135157600080fd5b6000600460008b73ffffffffffffffffffffffffffffffffffffffff1673ffffffffffffffffffffffffffffffffffffffff16815260200190815260200160002060008a73ffffffffffffffffffffffffffffffffffffffff1673ffffffffffffffffffffffffffffffffffffffff168152602001908152602001600020600001541415156113df57600080fd5b600260009054906101000a900473ffffffffffffffffffffffffffffffffffffffff1673ffffffffffffffffffffffffffffffffffffffff1663bfbcb918600260009054906101000a900473ffffffffffffffffffffffffffffffffffffffff1673ffffffffffffffffffffffffffffffffffffffff1663ff63e84b8c6040518263ffffffff167c0100000000000000000000000000000000000000000000000000000000028152600401808273ffffffffffffffffffffffffffffffffffffffff1673ffffffffffffffffffffffffffffffffffffffff168152602001915050602060405180830381600087803b1580156114da57600080fd5b505af11580156114ee573d6000803e3d6000fd5b505050506040513d602081101561150457600080fd5b81019080805190602001909291905050506040518263ffffffff167c010000000000000000000000000000000000000000000000000000000002815260040180826000191660001916815260200191505061014060405180830381600087803b15801561157057600080fd5b505af1158015611584573d6000803e3d6000fd5b505050506040513d61014081101561159b57600080fd5b810190808051906020019092919080519060200190929190805190602001909291908051906020019092919080519060200190929190805190602001909291908051906020019092919080519060200190929190805190602001909291908051906020019092919050505050505050965050955095509550508234101580156116a357506000600460008b73ffffffffffffffffffffffffffffffffffffffff1673ffffffffffffffffffffffffffffffffffffffff16815260200190815260200160002060008a73ffffffffffffffffffffffffffffffffffffffff1673ffffffffffffffffffffffffffffffffffffffff16815260200190815260200160002060040154145b15156116ae57600080fd5b81156117df57600560008a73ffffffffffffffffffffffffffffffffffffffff1673ffffffffffffffffffffffffffffffffffffffff16815260200190815260200160002060008973ffffffffffffffffffffffffffffffffffffffff1673ffffffffffffffffffffffffffffffffffffffff16815260200190815260200160002060009054906101000a900460ff16151561174957600080fd5b6000600560008b73ffffffffffffffffffffffffffffffffffffffff1673ffffffffffffffffffffffffffffffffffffffff16815260200190815260200160002060008a73ffffffffffffffffffffffffffffffffffffffff1673ffffffffffffffffffffffffffffffffffffffff16815260200190815260200160002060006101000a81548160ff0219169083151502179055505b611994670de0b6b3a76400006119868773ffffffffffffffffffffffffffffffffffffffff1663313ce5676040518163ffffffff167c0100000000000000000000000000000000000000000000000000000000028152600401602060405180830381600087803b15801561185257600080fd5b505af1158015611866573d6000803e3d6000fd5b505050506040513d602081101561187c57600080fd5b810190808051906020019092919050505060ff16600a0a6119788861196a600260009054906101000a900473ffffffffffffffffffffffffffffffffffffffff1673ffffffffffffffffffffffffffffffffffffffff1663bd4901676040518163ffffffff167c0100000000000000000000000000000000000000000000000000000000028152600401602060405180830381600087803b15801561192057600080fd5b505af1158015611934573d6000803e3d6000fd5b505050506040513d602081101561194a57600080fd5b810190808051906020019092919050505034613b4590919063ffffffff16565b613b8390919063ffffffff16565b613b4590919063ffffffff16565b613b8390919063ffffffff16565b9050600360009054906101000a900473ffffffffffffffffffffffffffffffffffffffff1673ffffffffffffffffffffffffffffffffffffffff16634fd7b0c88a8a846040518463ffffffff167c0100000000000000000000000000000000000000000000000000000000028152600401808473ffffffffffffffffffffffffffffffffffffffff1673ffffffffffffffffffffffffffffffffffffffff1681526020018373ffffffffffffffffffffffffffffffffffffffff1673ffffffffffffffffffffffffffffffffffffffff1681526020018281526020019350505050602060405180830381600087803b158015611a8f57600080fd5b505af1158015611aa3573d6000803e3d6000fd5b505050506040513d6020811015611ab957600080fd5b81019080805190602001909291905050501515611ad557600080fd5b60e0604051908101604052803481526020018873ffffffffffffffffffffffffffffffffffffffff168152602001600081526020018781526020014381526020013373ffffffffffffffffffffffffffffffffffffffff168a73ffffffffffffffffffffffffffffffffffffffff1614611b4f5733611b52565b60005b73ffffffffffffffffffffffffffffffffffffffff1681526020016000815250600460008b73ffffffffffffffffffffffffffffffffffffffff1673ffffffffffffffffffffffffffffffffffffffff16815260200190815260200160002060008a73ffffffffffffffffffffffffffffffffffffffff1673ffffffffffffffffffffffffffffffffffffffff1681526020019081526020016000206000820151816000015560208201518160010160006101000a81548173ffffffffffffffffffffffffffffffffffffffff021916908373ffffffffffffffffffffffffffffffffffffffff16021790555060408201518160020155606082015181600301556080820151816004015560a08201518160050160006101000a81548173ffffffffffffffffffffffffffffffffffffffff021916908373ffffffffffffffffffffffffffffffffffffffff16021790555060c082015181600601559050508773ffffffffffffffffffffffffffffffffffffffff168973ffffffffffffffffffffffffffffffffffffffff167f5776006891bdd1356f9da778591c95442ce76927d975c87e0708ffe221bb21818934858b604051808573ffffffffffffffffffffffffffffffffffffffff1673ffffffffffffffffffffffffffffffffffffffff16815260200184815260200183815260200182815260200194505050505060405180910390a3505050505050505050565b60056020528160005260406000206020528060005260406000206000915091509054906101000a900460ff1681565b6000809054906101000a900473ffffffffffffffffffffffffffffffffffffffff1681565b60008060009054906101000a900473ffffffffffffffffffffffffffffffffffffffff1673ffffffffffffffffffffffffffffffffffffffff163373ffffffffffffffffffffffffffffffffffffffff16141515611e1657600080fd5b818015611e2f5750600160149054906101000a900460ff165b15611eb8576000809054906101000a900473ffffffffffffffffffffffffffffffffffffffff1673ffffffffffffffffffffffffffffffffffffffff166108fc3073ffffffffffffffffffffffffffffffffffffffff16319081150290604051600060405180830381858888f19350505050158015611eb2573d6000803e3d6000fd5b506121d9565b6000600460008773ffffffffffffffffffffffffffffffffffffffff1673ffffffffffffffffffffffffffffffffffffffff16815260200190815260200160002060008673ffffffffffffffffffffffffffffffffffffffff1673ffffffffffffffffffffffffffffffffffffffff16815260200190815260200160002060000154111515611f4657600080fd5b600460008673ffffffffffffffffffffffffffffffffffffffff1673ffffffffffffffffffffffffffffffffffffffff16815260200190815260200160002060008573ffffffffffffffffffffffffffffffffffffffff1673ffffffffffffffffffffffffffffffffffffffff168152602001908152602001600020600001549050600360009054906101000a900473ffffffffffffffffffffffffffffffffffffffff1673ffffffffffffffffffffffffffffffffffffffff16637aa71f10868660006040518463ffffffff167c0100000000000000000000000000000000000000000000000000000000028152600401808473ffffffffffffffffffffffffffffffffffffffff1673ffffffffffffffffffffffffffffffffffffffff1681526020018373ffffffffffffffffffffffffffffffffffffffff1673ffffffffffffffffffffffffffffffffffffffff168152602001821515151581526020019350505050602060405180830381600087803b1580156120c657600080fd5b505af11580156120da573d6000803e3d6000fd5b505050506040513d60208110156120f057600080fd5b8101908080519060200190929190505050151561210c57600080fd5b6000600460008773ffffffffffffffffffffffffffffffffffffffff1673ffffffffffffffffffffffffffffffffffffffff16815260200190815260200160002060008673ffffffffffffffffffffffffffffffffffffffff1673ffffffffffffffffffffffffffffffffffffffff168152602001908152602001600020600001819055508273ffffffffffffffffffffffffffffffffffffffff166108fc829081150290604051600060405180830381858888f193505050501580156121d7573d6000803e3d6000fd5b505b8373ffffffffffffffffffffffffffffffffffffffff168573ffffffffffffffffffffffffffffffffffffffff167f9ebcfba22a840ab093c2365f2db45833d1235bd93970a991b41af05899b4bfd28584604051808373ffffffffffffffffffffffffffffffffffffffff1673ffffffffffffffffffffffffffffffffffffffff1681526020018281526020019250505060405180910390a35050505050565b6000809054906101000a900473ffffffffffffffffffffffffffffffffffffffff1673ffffffffffffffffffffffffffffffffffffffff163373ffffffffffffffffffffffffffffffffffffffff161415156122d457600080fd5b80600160006101000a81548173ffffffffffffffffffffffffffffffffffffffff021916908373ffffffffffffffffffffffffffffffffffffffff16021790555050565b60008060009054906101000a900473ffffffffffffffffffffffffffffffffffffffff1673ffffffffffffffffffffffffffffffffffffffff163373ffffffffffffffffffffffffffffffffffffffff1614151561237557600080fd5b60003411151561238457600080fd5b600260009054906101000a900473ffffffffffffffffffffffffffffffffffffffff1673ffffffffffffffffffffffffffffffffffffffff1663bfbcb918600260009054906101000a900473ffffffffffffffffffffffffffffffffffffffff1673ffffffffffffffffffffffffffffffffffffffff1663ff63e84b856040518263ffffffff167c0100000000000000000000000000000000000000000000000000000000028152600401808273ffffffffffffffffffffffffffffffffffffffff1673ffffffffffffffffffffffffffffffffffffffff168152602001915050602060405180830381600087803b15801561247f57600080fd5b505af1158015612493573d6000803e3d6000fd5b505050506040513d60208110156124a957600080fd5b81019080805190602001909291905050506040518263ffffffff167c010000000000000000000000000000000000000000000000000000000002815260040180826000191660001916815260200191505061014060405180830381600087803b15801561251557600080fd5b505af1158015612529573d6000803e3d6000fd5b505050506040513d61014081101561254057600080fd5b810190808051906020019092919080519060200190929190805190602001909291908051906020019092919080519060200190929190805190602001909291908051906020019092919080519060200190929190805190602001909291908051906020019092919050505050505096505050505050506000811115156125c557600080fd5b600260009054906101000a900473ffffffffffffffffffffffffffffffffffffffff1673ffffffffffffffffffffffffffffffffffffffff16635ea09d5e833460016040518463ffffffff167c0100000000000000000000000000000000000000000000000000000000028152600401808473ffffffffffffffffffffffffffffffffffffffff1673ffffffffffffffffffffffffffffffffffffffff168152602001838152602001821515151581526020019350505050602060405180830381600087803b15801561269757600080fd5b505af11580156126ab573d6000803e3d6000fd5b505050506040513d60208110156126c157600080fd5b810190808051906020019092919050505015156126dd57600080fd5b343373ffffffffffffffffffffffffffffffffffffffff168373ffffffffffffffffffffffffffffffffffffffff167fd0a3a74aac2455f5a351aebb442fa5e955d44c56fba0eb2ff77bacb2a259c02a60405160405180910390a45050565b600160149054906101000a900460ff1681565b600080600160149054906101000a900460ff1615151561276e57600080fd5b8273ffffffffffffffffffffffffffffffffffffffff163373ffffffffffffffffffffffffffffffffffffffff1614151561287d573373ffffffffffffffffffffffffffffffffffffffff16600460008673ffffffffffffffffffffffffffffffffffffffff1673ffffffffffffffffffffffffffffffffffffffff16815260200190815260200160002060008573ffffffffffffffffffffffffffffffffffffffff1673ffffffffffffffffffffffffffffffffffffffff16815260200190815260200160002060050160009054906101000a900473ffffffffffffffffffffffffffffffffffffffff1673ffffffffffffffffffffffffffffffffffffffff1614151561287c57600080fd5b5b600460008573ffffffffffffffffffffffffffffffffffffffff1673ffffffffffffffffffffffffffffffffffffffff16815260200190815260200160002060008473ffffffffffffffffffffffffffffffffffffffff1673ffffffffffffffffffffffffffffffffffffffff16815260200190815260200160002091506000826004015411151561290e57600080fd5b6000826002015414151561292157600080fd5b428260020181905550600260009054906101000a900473ffffffffffffffffffffffffffffffffffffffff1673ffffffffffffffffffffffffffffffffffffffff1663bfbcb918600260009054906101000a900473ffffffffffffffffffffffffffffffffffffffff1673ffffffffffffffffffffffffffffffffffffffff1663ff63e84b876040518263ffffffff167c0100000000000000000000000000000000000000000000000000000000028152600401808273ffffffffffffffffffffffffffffffffffffffff1673ffffffffffffffffffffffffffffffffffffffff168152602001915050602060405180830381600087803b158015612a2557600080fd5b505af1158015612a39573d6000803e3d6000fd5b505050506040513d6020811015612a4f57600080fd5b81019080805190602001909291905050506040518263ffffffff167c010000000000000000000000000000000000000000000000000000000002815260040180826000191660001916815260200191505061014060405180830381600087803b158015612abb57600080fd5b505af1158015612acf573d6000803e3d6000fd5b505050506040513d610140811015612ae657600080fd5b81019080805190602001909291908051906020019092919080519060200190929190805190602001909291908051906020019092919080519060200190929190805190602001909291908051906020019092919080519060200190929190805190602001909291905050505050509650505050505050600081118015612b70575060008260060154145b15612b8057612b7f8484613bad565b5b600360009054906101000a900473ffffffffffffffffffffffffffffffffffffffff1673ffffffffffffffffffffffffffffffffffffffff1663dae48eee85856040518363ffffffff167c0100000000000000000000000000000000000000000000000000000000028152600401808373ffffffffffffffffffffffffffffffffffffffff1673ffffffffffffffffffffffffffffffffffffffff1681526020018273ffffffffffffffffffffffffffffffffffffffff1673ffffffffffffffffffffffffffffffffffffffff16815260200192505050602060405180830381600087803b158015612c7157600080fd5b505af1158015612c85573d6000803e3d6000fd5b505050506040513d6020811015612c9b57600080fd5b81019080805190602001909291905050501515612cb757600080fd5b428373ffffffffffffffffffffffffffffffffffffffff168573ffffffffffffffffffffffffffffffffffffffff167fad0652ee17a9d4f02cb02677963b9b3e9ec5685ab583697b48a73b7cbfdad5d260405160405180910390a450505050565b6000806000806000600160149054906101000a900460ff16151515612d3c57600080fd5b8573ffffffffffffffffffffffffffffffffffffffff163373ffffffffffffffffffffffffffffffffffffffff16141515612e4b573373ffffffffffffffffffffffffffffffffffffffff16600460008973ffffffffffffffffffffffffffffffffffffffff1673ffffffffffffffffffffffffffffffffffffffff16815260200190815260200160002060008873ffffffffffffffffffffffffffffffffffffffff1673ffffffffffffffffffffffffffffffffffffffff16815260200190815260200160002060050160009054906101000a900473ffffffffffffffffffffffffffffffffffffffff1673ffffffffffffffffffffffffffffffffffffffff16141515612e4a57600080fd5b5b600460008873ffffffffffffffffffffffffffffffffffffffff1673ffffffffffffffffffffffffffffffffffffffff16815260200190815260200160002060008773ffffffffffffffffffffffffffffffffffffffff1673ffffffffffffffffffffffffffffffffffffffff1681526020019081526020016000209450600260009054906101000a900473ffffffffffffffffffffffffffffffffffffffff1673ffffffffffffffffffffffffffffffffffffffff1663bfbcb918600260009054906101000a900473ffffffffffffffffffffffffffffffffffffffff1673ffffffffffffffffffffffffffffffffffffffff1663ff63e84b8a6040518263ffffffff167c0100000000000000000000000000000000000000000000000000000000028152600401808273ffffffffffffffffffffffffffffffffffffffff1673ffffffffffffffffffffffffffffffffffffffff168152602001915050602060405180830381600087803b158015612fc457600080fd5b505af1158015612fd8573d6000803e3d6000fd5b505050506040513d6020811015612fee57600080fd5b81019080805190602001909291905050506040518263ffffffff167c010000000000000000000000000000000000000000000000000000000002815260040180826000191660001916815260200191505061014060405180830381600087803b15801561305a57600080fd5b505af115801561306e573d6000803e3d6000fd5b505050506040513d61014081101561308557600080fd5b810190808051906020019092919080519060200190929190805190602001909291908051906020019092919080519060200190929190805190602001909291908051906020019092919080519060200190929190805190602001909291908051906020019092919050505050505050509750505050506131128486600201546143bb90919063ffffffff16565b42118015613124575060008560000154115b151561312f57600080fd5b600360009054906101000a900473ffffffffffffffffffffffffffffffffffffffff1673ffffffffffffffffffffffffffffffffffffffff16637aa71f10888860016040518463ffffffff167c0100000000000000000000000000000000000000000000000000000000028152600401808473ffffffffffffffffffffffffffffffffffffffff1673ffffffffffffffffffffffffffffffffffffffff1681526020018373ffffffffffffffffffffffffffffffffffffffff1673ffffffffffffffffffffffffffffffffffffffff168152602001821515151581526020019350505050602060405180830381600087803b15801561322d57600080fd5b505af1158015613241573d6000803e3d6000fd5b505050506040513d602081101561325757600080fd5b8101908080519060200190929190505050151561327357600080fd5b846000015492508460000154915060008560060154111561345c576132ca6132bb60646132ad886006015486613b4590919063ffffffff16565b613b8390919063ffffffff16565b836143dc90919063ffffffff16565b9150600260009054906101000a900473ffffffffffffffffffffffffffffffffffffffff1673ffffffffffffffffffffffffffffffffffffffff166327022caf886040518263ffffffff167c0100000000000000000000000000000000000000000000000000000000028152600401808273ffffffffffffffffffffffffffffffffffffffff1673ffffffffffffffffffffffffffffffffffffffff168152602001915050602060405180830381600087803b15801561338957600080fd5b505af115801561339d573d6000803e3d6000fd5b505050506040513d60208110156133b357600080fd5b81019080805190602001909291905050509050600073ffffffffffffffffffffffffffffffffffffffff168173ffffffffffffffffffffffffffffffffffffffff161415151561340257600080fd5b8073ffffffffffffffffffffffffffffffffffffffff166108fc61342f84866143dc90919063ffffffff16565b9081150290604051600060405180830381858888f1935050505015801561345a573d6000803e3d6000fd5b505b6000856000018190555060008560010160006101000a81548173ffffffffffffffffffffffffffffffffffffffff021916908373ffffffffffffffffffffffffffffffffffffffff16021790555060008560020181905550600085600301819055506000856004018190555060008560060181905550600073ffffffffffffffffffffffffffffffffffffffff168560050160009054906101000a900473ffffffffffffffffffffffffffffffffffffffff1673ffffffffffffffffffffffffffffffffffffffff1614151561359c578460050160009054906101000a900473ffffffffffffffffffffffffffffffffffffffff1673ffffffffffffffffffffffffffffffffffffffff166108fc839081150290604051600060405180830381858888f19350505050158015613596573d6000803e3d6000fd5b506135e4565b3373ffffffffffffffffffffffffffffffffffffffff166108fc839081150290604051600060405180830381858888f193505050501580156135e2573d6000803e3d6000fd5b505b60008560050160006101000a81548173ffffffffffffffffffffffffffffffffffffffff021916908373ffffffffffffffffffffffffffffffffffffffff160217905550818673ffffffffffffffffffffffffffffffffffffffff168873ffffffffffffffffffffffffffffffffffffffff167f8d61b2b20ba3ea8a7ce571bc1718a9058edd8c72675ea8288c7871f766c1ae2d866040518082815260200191505060405180910390a450505050505050565b6000600160149054906101000a900460ff161515156136b557600080fd5b3373ffffffffffffffffffffffffffffffffffffffff16600460008573ffffffffffffffffffffffffffffffffffffffff1673ffffffffffffffffffffffffffffffffffffffff16815260200190815260200160002060008473ffffffffffffffffffffffffffffffffffffffff1673ffffffffffffffffffffffffffffffffffffffff16815260200190815260200160002060050160009054906101000a900473ffffffffffffffffffffffffffffffffffffffff1673ffffffffffffffffffffffffffffffffffffffff1614151561378e57600080fd5b600460008473ffffffffffffffffffffffffffffffffffffffff1673ffffffffffffffffffffffffffffffffffffffff16815260200190815260200160002060008373ffffffffffffffffffffffffffffffffffffffff1673ffffffffffffffffffffffffffffffffffffffff16815260200190815260200160002090506000816004015414158015613825575060008160020154145b151561383057600080fd5b61383a8383613bad565b505050565b600160009054906101000a900473ffffffffffffffffffffffffffffffffffffffff1681565b6000809054906101000a900473ffffffffffffffffffffffffffffffffffffffff1673ffffffffffffffffffffffffffffffffffffffff163373ffffffffffffffffffffffffffffffffffffffff161415156138c057600080fd5b600160149054906101000a900460ff1615156138db57600080fd5b600073ffffffffffffffffffffffffffffffffffffffff168273ffffffffffffffffffffffffffffffffffffffff16141580156139455750600073ffffffffffffffffffffffffffffffffffffffff168173ffffffffffffffffffffffffffffffffffffffff1614155b151561395057600080fd5b81600260006101000a81548173ffffffffffffffffffffffffffffffffffffffff021916908373ffffffffffffffffffffffffffffffffffffffff16021790555080600360006101000a81548173ffffffffffffffffffffffffffffffffffffffff021916908373ffffffffffffffffffffffffffffffffffffffff1602179055505050565b6000600160149054906101000a900460ff161515156139f457600080fd5b600460008373ffffffffffffffffffffffffffffffffffffffff1673ffffffffffffffffffffffffffffffffffffffff16815260200190815260200160002060003373ffffffffffffffffffffffffffffffffffffffff1673ffffffffffffffffffffffffffffffffffffffff16815260200190815260200160002090506000816004015414158015613a8b575060008160020154145b1515613a9657600080fd5b613aa08233613bad565b5050565b6000809054906101000a900473ffffffffffffffffffffffffffffffffffffffff1673ffffffffffffffffffffffffffffffffffffffff163373ffffffffffffffffffffffffffffffffffffffff16141515613aff57600080fd5b80600160146101000a81548160ff02191690831515021790555050565b600160149054906101000a900460ff16151515613b3857600080fd5b613b42813361274f565b50565b6000806000841415613b5a5760009150613b7c565b8284029050828482811515613b6b57fe5b04141515613b7857600080fd5b8091505b5092915050565b600080600083111515613b9557600080fd5b8284811515613ba057fe5b0490508091505092915050565b6000806000806000806000600460008a73ffffffffffffffffffffffffffffffffffffffff1673ffffffffffffffffffffffffffffffffffffffff16815260200190815260200160002060008973ffffffffffffffffffffffffffffffffffffffff1673ffffffffffffffffffffffffffffffffffffffff1681526020019081526020016000209650600260009054906101000a900473ffffffffffffffffffffffffffffffffffffffff1673ffffffffffffffffffffffffffffffffffffffff1663bfbcb918600260009054906101000a900473ffffffffffffffffffffffffffffffffffffffff1673ffffffffffffffffffffffffffffffffffffffff1663ff63e84b8c6040518263ffffffff167c0100000000000000000000000000000000000000000000000000000000028152600401808273ffffffffffffffffffffffffffffffffffffffff1673ffffffffffffffffffffffffffffffffffffffff168152602001915050602060405180830381600087803b158015613d3157600080fd5b505af1158015613d45573d6000803e3d6000fd5b505050506040513d6020811015613d5b57600080fd5b81019080805190602001909291905050506040518263ffffffff167c010000000000000000000000000000000000000000000000000000000002815260040180826000191660001916815260200191505061014060405180830381600087803b158015613dc757600080fd5b505af1158015613ddb573d6000803e3d6000fd5b505050506040513d610140811015613df257600080fd5b81019080805190602001909291908051906020019092919080519060200190929190805190602001909291908051906020019092919080519060200190929190805190602001909291908051906020019092919080519060200190929190805190602001909291905050509b509b509b509b5050505050505060008760060154141580613e7f5750600086145b15613e89576143b0565b85876004015410613e9e578660040154613ea0565b855b876004018190555083613ec08860040154436143dc90919063ffffffff16565b10158015613ed2575060008760000154115b156143af57613f0084613ef28960040154436143dc90919063ffffffff16565b613b8390919063ffffffff16565b9150613f2b613f188584613b4590919063ffffffff16565b88600401546143bb90919063ffffffff16565b876004018190555061401c600260009054906101000a900473ffffffffffffffffffffffffffffffffffffffff1673ffffffffffffffffffffffffffffffffffffffff1663bd4901676040518163ffffffff167c0100000000000000000000000000000000000000000000000000000000028152600401602060405180830381600087803b158015613fbc57600080fd5b505af1158015613fd0573d6000803e3d6000fd5b505050506040513d6020811015613fe657600080fd5b810190808051906020019092919050505061400e858a60000154613b4590919063ffffffff16565b613b8390919063ffffffff16565b90506140318282613b4590919063ffffffff16565b90508085101580156140435750600081115b1561435157600260009054906101000a900473ffffffffffffffffffffffffffffffffffffffff1673ffffffffffffffffffffffffffffffffffffffff16635ea09d5e8a8360006040518463ffffffff167c0100000000000000000000000000000000000000000000000000000000028152600401808473ffffffffffffffffffffffffffffffffffffffff1673ffffffffffffffffffffffffffffffffffffffff168152602001838152602001821515151581526020019350505050602060405180830381600087803b15801561411a57600080fd5b505af115801561412e573d6000803e3d6000fd5b505050506040513d602081101561414457600080fd5b8101908080519060200190929190505050151561416057600080fd5b600073ffffffffffffffffffffffffffffffffffffffff168760050160009054906101000a900473ffffffffffffffffffffffffffffffffffffffff1673ffffffffffffffffffffffffffffffffffffffff161415156142a9578660050160009054906101000a900473ffffffffffffffffffffffffffffffffffffffff1673ffffffffffffffffffffffffffffffffffffffff166108fc829081150290604051600060405180830381858888f19350505050158015614224573d6000803e3d6000fd5b50808760050160009054906101000a900473ffffffffffffffffffffffffffffffffffffffff1673ffffffffffffffffffffffffffffffffffffffff168a73ffffffffffffffffffffffffffffffffffffffff167f1d41269bd1204cbc6f538be6a67f9482456bf4767f716383b75393e28b1fc0fe60405160405180910390a461434c565b3373ffffffffffffffffffffffffffffffffffffffff166108fc829081150290604051600060405180830381858888f193505050501580156142ef573d6000803e3d6000fd5b50803373ffffffffffffffffffffffffffffffffffffffff168a73ffffffffffffffffffffffffffffffffffffffff167f1d41269bd1204cbc6f538be6a67f9482456bf4767f716383b75393e28b1fc0fe60405160405180910390a45b6143ae565b60003373ffffffffffffffffffffffffffffffffffffffff168a73ffffffffffffffffffffffffffffffffffffffff167f1d41269bd1204cbc6f538be6a67f9482456bf4767f716383b75393e28b1fc0fe60405160405180910390a45b5b5b505050505050505050565b60008082840190508381101515156143d257600080fd5b8091505092915050565b6000808383111515156143ee57600080fd5b828403905080915050929150505600a165627a7a7230582037c2edc11609a2170bde7da29f7a2891c9ddb70ce4d60d49e0e75a379d7fea100029",
  "source": "/*\n\n  Copyright 2018 Wanchain Foundation.\n\n  Licensed under the Apache License, Version 2.0 (the \"License\");\n  you may not use this file except in compliance with the License.\n  You may obtain a copy of the License at\n\n  http://www.apache.org/licenses/LICENSE-2.0\n\n  Unless required by applicable law or agreed to in writing, software\n  distributed under the License is distributed on an \"AS IS\" BASIS,\n  WITHOUT WARRANTIES OR CONDITIONS OF ANY KIND, either express or implied.\n  See the License for the specific language governing permissions and\n  limitations under the License.\n\n*/\n\n//                            _           _           _            \n//  __      ____ _ _ __   ___| |__   __ _(_)_ __   __| | _____   __\n//  \\ \\ /\\ / / _` | '_ \\ / __| '_ \\ / _` | | '_ \\@/ _` |/ _ \\ \\ / /\n//   \\ V  V / (_| | | | | (__| | | | (_| | | | | | (_| |  __/\\ V / \n//    \\_/\\_/ \\__,_|_| |_|\\___|_| |_|\\__,_|_|_| |_|\\__,_|\\___| \\_/  \n//    \n//  Code style according to: https://github.com/wanchain/wanchain-token/blob/master/style-guide.rst\n\npragma solidity ^0.4.24;\n\nimport \"./SafeMath.sol\";\nimport \"./Halt.sol\";\n\ninterface TokenInterface {\n    function mapKey(address) public view returns(bytes32);\n    function mapTokenInfo(bytes32) public view returns(address, address, uint, uint, uint, bool, uint, uint, uint, uint);\n    function mapPenaltyReceiver(address) public view returns(address);\n    function updateTotalBonus(address, uint, bool) external returns(bool);\n    function DEFAULT_PRECISE() public returns (uint);\n}\n\ninterface QuotaInterface {\n    function applyUnregistration(address, address) external returns (bool);\n    function setStoremanGroupQuota(address, address, uint) external returns (bool);\n    function unregisterStoremanGroup(address, address, bool) external returns (bool);\n}\n\ninterface WERCProtocol {\n    function decimals() public returns(uint8);\n}\n\ncontract StoremanGroupAdmin is Halt{\n    using SafeMath for uint;\n    \n    /// token manager instance address\n    address public tokenManager;\n    /// quotaLedger instance address\n    address public quotaLedger;\n            \n    /// a map from addresses to storeman group information\n    mapping(address=>mapping(address => StoremanGroup)) public mapStoremanGroup;     \n    /// a map from addresses to storeman group white list information\n    mapping(address=>mapping(address => bool)) public mapSmgWhiteList;                \n\n    struct StoremanGroup {\n        uint    deposit;                  /// the storeman group deposit in wan coins\n        address originalChainAddr;        /// the account for storeman group on original chain\n        uint    unregisterApplyTime;      /// the time point for storeman group applied unregistration\n        uint    txFeeRatio;               /// the fee ratio required by storeman group\n        uint    bonusBlockNumber;         /// the start block number for bonus calculation for storeman group\n        address initiator;                /// the account for registering a storeman group which provides storeman group deposit\n        uint    punishPercent;            /// punish rate of deposit, which is an integer from 0 to 100\n    }\n\n    /**\n    *\n    * EVENTS\n    *\n    */   \n        \n    /// @notice                           event for storeman register  \n    /// @dev                              event for storeman register  \n    /// @param tokenOrigAddr              token address of original chain\n    /// @param smgWanAddr                 smgWanAddr address\n    /// @param smgOrigAddr                storeman group  original chain address\n    /// @param wanDeposit                 deposit wancoin number\n    /// @param quota                      corresponding token quota\n    /// @param txFeeRatio                 storeman fee ratio\n    event StoremanGroupRegistrationLogger(address indexed tokenOrigAddr, address indexed smgWanAddr, address smgOrigAddr, uint wanDeposit, uint quota, uint txFeeRatio);\n    \n    /// @notice                           event for bonus deposit\n    /// @dev                              event for bonus deposit \n    /// @param tokenOrigAddr              token address of original chain\n    /// @param sender                     sender for bonus\n    /// @param wancoin                    deposit wancoin number\n    event StoremanGroupDepositBonusLogger(address indexed tokenOrigAddr, address indexed sender, uint indexed wancoin);\n    \n    /// @notice                           event for storeman register  \n    /// @dev                              event for storeman register  \n    /// @param smgWanAddr                 storeman address\n    /// @param tokenOrigAddr              token address of original chain\n    event SmgEnableWhiteListLogger(address indexed smgWanAddr, address indexed tokenOrigAddr);   \n        \n    /// @notice                           event for applying storeman group unregister \n    /// @param tokenOrigAddr              token address of original chain\n    /// @param smgWanAddr                 storemanGroup address\n    /// @param applyTime                  the time for storeman applying unregister    \n    event StoremanGroupApplyUnRegistrationLogger(address indexed tokenOrigAddr, address indexed smgWanAddr, uint indexed applyTime);\n    \n    /// @notice                           event for storeman group withdraw deposit\n    /// @param tokenOrigAddr              token address of original chain\n    /// @param smgWanAddr                 storemanGroup address\n    /// @param actualReturn               the time for storeman applying unregister       \n    /// @param deposit                    deposit in the first place\n    event StoremanGroupWithdrawLogger(address indexed tokenOrigAddr, address indexed smgWanAddr, uint indexed actualReturn, uint deposit);\n    \n    /// @notice                           event for storeman group claiming system bonus\n    /// @param tokenOrigAddr              token address of original chain\n    /// @param bonusRecipient             storemanGroup address\n    /// @param bonus                      the bonus for storeman claim       \n    event StoremanGroupClaimSystemBonusLogger(address indexed tokenOrigAddr, address indexed bonusRecipient, uint indexed bonus);\n    \n    /// @notice                           event for storeman group be punished\n    /// @param tokenOrigAddr              token address of original chain\n    /// @param smgWanAddr                 storeman address\n    /// @param punishPercent              punish percent of deposit\n    event StoremanGroupPunishedLogger(address indexed tokenOrigAddr, address indexed smgWanAddr, uint indexed punishPercent);   \n\n    /// @notice event for transfer deposit to specified address\n    /// @param smgAddress   storeman address\n    /// @param tokenOrigAddr         coin name\n    /// @param destAddress the destination address of deposit\n    event SmgTranferDepositLogger(address indexed tokenOrigAddr, address indexed smgAddress,address destAddress,uint deposit);\n    \n    /**\n     *\n     * private methods\n     *\n     */\n\n    /// @notice                           function for bonus claim\n    /// @param tokenOrigAddr              token address of original chain\n    /// @param storemanGroup              storeman group address\n    function doClaimSystemBonus(address tokenOrigAddr, address storemanGroup)\n        private\n    {\n        StoremanGroup storage smgInfo = mapStoremanGroup[tokenOrigAddr][storemanGroup];\n        \n        var (,,,,,,startBonusBlk,bonusTotal,bonusPeriodBlks,bonusRatio) = TokenInterface(tokenManager).mapTokenInfo(TokenInterface(tokenManager).mapKey(tokenOrigAddr));\n\n        if(smgInfo.punishPercent != 0 || startBonusBlk == 0){\n          return;\n        }\n\n        smgInfo.bonusBlockNumber = smgInfo.bonusBlockNumber < startBonusBlk ? startBonusBlk : smgInfo.bonusBlockNumber;\n       \n        if (block.number.sub(smgInfo.bonusBlockNumber) >= bonusPeriodBlks && smgInfo.deposit > 0) {\n            uint cycles = (block.number.sub(smgInfo.bonusBlockNumber)).div(bonusPeriodBlks);\n\n            smgInfo.bonusBlockNumber = smgInfo.bonusBlockNumber.add(cycles.mul(bonusPeriodBlks));\n\n            uint bonus = smgInfo.deposit.mul(bonusRatio).div(TokenInterface(tokenManager).DEFAULT_PRECISE());\n            bonus = bonus.mul(cycles);\n\n            if (bonusTotal >= bonus && bonus > 0) {\n                require(TokenInterface(tokenManager).updateTotalBonus(tokenOrigAddr, bonus, false));\n                    if (smgInfo.initiator != address(0)) {\n                        smgInfo.initiator.transfer(bonus);\n                        emit StoremanGroupClaimSystemBonusLogger(tokenOrigAddr, smgInfo.initiator, bonus);      \n                    } else {\n                        msg.sender.transfer(bonus);\n                        emit StoremanGroupClaimSystemBonusLogger(tokenOrigAddr, msg.sender, bonus);     \n                    }\n            } else {\n                  emit StoremanGroupClaimSystemBonusLogger(tokenOrigAddr, msg.sender, 0);\n            }\n        }\n    }\n\n    /**\n    *\n    * MANIPULATIONS\n    *\n    */\n\n    /// @notice                           set tokenManager instance address and quotaLedger instance address\n    /// @param tm                         token manager instance address\n    /// @param ql                         quota ledger instance address\n    function injectDependencies(address tm, address ql)\n        public\n        onlyOwner\n        isHalted\n    {\n        require(tm != address(0) && ql != address(0));\n        tokenManager = tm;\n        quotaLedger = ql;\n    }\n\n    /// @notice                           function for setting smg white list by owner\n    /// @param tokenOrigAddr              token address of original chain\n    /// @param storemanGroup              storemanGroup address for whitelist    \n    function setSmgWhiteList(address tokenOrigAddr, address storemanGroup)\n        public\n        onlyOwner\n    {\n        require(storemanGroup!=address(0));\n\n        // make sure white list mechanism is enabled\n        var (,,,,,useWhiteList,,,,) = TokenInterface(tokenManager).mapTokenInfo(TokenInterface(tokenManager).mapKey(tokenOrigAddr));\n        require(useWhiteList);        \n\n        require(mapStoremanGroup[tokenOrigAddr][storemanGroup].bonusBlockNumber == 0);\n        require(!mapSmgWhiteList[tokenOrigAddr][storemanGroup]);\n\n        mapSmgWhiteList[tokenOrigAddr][storemanGroup] = true;\n            \n        emit SmgEnableWhiteListLogger(storemanGroup, tokenOrigAddr);\n    }    \n                \n    /// @notice                           function for storeman registration, this method should be invoked by the storemanGroup himself\n    /// @param tokenOrigAddr              token address of original chain\n    /// @param originalChainAddr          the storeman group info on original chain\n    /// @param txFeeRatio                 the transaction fee required by storeman group  \n    function storemanGroupRegister(address tokenOrigAddr, address originalChainAddr, uint txFeeRatio)\n        public\n        payable\n        notHalted\n    {\n        storemanGroupRegisterByDelegate(tokenOrigAddr, msg.sender, originalChainAddr, txFeeRatio);\n    }\n\n    /// @notice                           function for storeman register by sender this method should be\n    ///                                   invoked by a storemanGroup registration proxy or wanchain foundation\n    /// @param tokenOrigAddr              token address of original chain\n    /// @param storemanGroup              the storeman group register address  \n    /// @param originalChainAddr          the storeman group info on original chain\n    /// @param txFeeRatio                 the transaction fee required by storeman group  \n    function storemanGroupRegisterByDelegate(address tokenOrigAddr, address storemanGroup, address originalChainAddr,uint txFeeRatio)\n        public\n        payable\n        notHalted\n    {\n        require(storemanGroup != address(0) && originalChainAddr != address(0) && txFeeRatio > 0);\n        require(mapStoremanGroup[tokenOrigAddr][storemanGroup].deposit == uint(0));\n        \n        var (,tokenWanAddr,token2WanRatio,minDeposit,,useWhiteList,,,,) = TokenInterface(tokenManager).mapTokenInfo(TokenInterface(tokenManager).mapKey(tokenOrigAddr));\n\n        require(msg.value >= minDeposit && mapStoremanGroup[tokenOrigAddr][storemanGroup].bonusBlockNumber == 0);\n\n        // white list filter\n        if (useWhiteList) {\n            require(mapSmgWhiteList[tokenOrigAddr][storemanGroup]);\n            mapSmgWhiteList[tokenOrigAddr][storemanGroup] = false;\n        }\n\n        uint quota = (msg.value).mul(TokenInterface(tokenManager).DEFAULT_PRECISE()).div(token2WanRatio).mul(10**uint(WERCProtocol(tokenWanAddr).decimals())).div(1 ether);\n\n        // regsiter this storeman group with calculated quota\n        require(QuotaInterface(quotaLedger).setStoremanGroupQuota(tokenOrigAddr, storemanGroup, quota));\n\n        mapStoremanGroup[tokenOrigAddr][storemanGroup] = StoremanGroup(msg.value, originalChainAddr, 0, txFeeRatio, block.number, storemanGroup == msg.sender ? address(0) : msg.sender, 0);\n           \n        /// fire event\n        emit StoremanGroupRegistrationLogger(tokenOrigAddr, storemanGroup, originalChainAddr, msg.value, quota,txFeeRatio);\n    }  \n\n    /// @notice                           function for storemanGroup applying unregister\n    /// @dev                              function for storemanGroup applying unregister\n    /// @param tokenOrigAddr              token address of original chain\n    function storemanGroupApplyUnregister(address tokenOrigAddr)\n        public\n        notHalted\n    {\n        smgApplyUnregisterByDelegate(tokenOrigAddr, msg.sender);\n    } \n\n    /// @notice                           apply unregistration through a proxy\n    /// @dev                              apply unregistration through a proxy\n    /// @param tokenOrigAddr              token address of original chain\n    /// @param storemanGroup              storemanGroup address \n    function smgApplyUnregisterByDelegate(address tokenOrigAddr, address storemanGroup)\n        public\n        notHalted\n    {\n        if (msg.sender != storemanGroup) {\n            require(mapStoremanGroup[tokenOrigAddr][storemanGroup].initiator == msg.sender);\n        }\n\n        // make sure this storemanGroup has registered\n        StoremanGroup storage smg = mapStoremanGroup[tokenOrigAddr][storemanGroup];\n        require(smg.bonusBlockNumber > 0);\n        // make sure this storemanGroup has not applied\n        require(smg.unregisterApplyTime == 0);\n\n        smg.unregisterApplyTime = now;\n\n        var (,,,,,,startBonusBlk,,,) = TokenInterface(tokenManager).mapTokenInfo(TokenInterface(tokenManager).mapKey(tokenOrigAddr));\n\n        if (startBonusBlk > 0 && smg.punishPercent==0) {\n            doClaimSystemBonus(tokenOrigAddr, storemanGroup);\n        }\n\n        require(QuotaInterface(quotaLedger).applyUnregistration(tokenOrigAddr, storemanGroup));\n\n        // fire event\n        emit StoremanGroupApplyUnRegistrationLogger(tokenOrigAddr, storemanGroup, now);\n    }\n\n    /// @notice                           function for storeman group withdraw deposit\n    /// @dev                              function for storeman group withdraw deposit\n    /// @param tokenOrigAddr              token address of original chain\n    function storemanGroupWithdrawDeposit(address tokenOrigAddr)\n        public\n        notHalted\n    {\n        smgWithdrawDepositByDelegate(tokenOrigAddr, msg.sender);\n    }\n\n    /// @notice                           withdraw deposit through a proxy\n    /// @dev                              withdraw deposit through a proxy\n    /// @param tokenOrigAddr              token address of original chain\n    /// @param storemanGroup              storemanGroup address \n    function smgWithdrawDepositByDelegate(address tokenOrigAddr, address storemanGroup)\n        public\n        notHalted\n    {\n        if (msg.sender != storemanGroup) {\n            require(mapStoremanGroup[tokenOrigAddr][storemanGroup].initiator == msg.sender);     \n        }\n          \n        StoremanGroup storage smg = mapStoremanGroup[tokenOrigAddr][storemanGroup];\n        var (,,,,withdrawDelayTime,,,,,) = TokenInterface(tokenManager).mapTokenInfo(TokenInterface(tokenManager).mapKey(tokenOrigAddr));\n\n        require(now > smg.unregisterApplyTime.add(withdrawDelayTime) && smg.deposit > 0);\n\n        require(QuotaInterface(quotaLedger).unregisterStoremanGroup(tokenOrigAddr, storemanGroup, true));\n        \n        uint deposit = smg.deposit;\n        uint restBalance = smg.deposit;\n\n        if (smg.punishPercent > 0) {\n            // transfer penalty to the penaltyReceiver of corresponding ERC20 token\n            restBalance = restBalance.sub(restBalance.mul(smg.punishPercent).div(100));\n            address penaltyReceiver = TokenInterface(tokenManager).mapPenaltyReceiver(tokenOrigAddr);\n            require(penaltyReceiver != address(0));\n            penaltyReceiver.transfer(deposit.sub(restBalance));\n        }\n        \n        smg.deposit = 0;   \n        smg.originalChainAddr = address(0);  \n        smg.unregisterApplyTime = 0;\n        smg.txFeeRatio = 0;           \n        smg.bonusBlockNumber = 0;  \n        smg.punishPercent = 0;\n        \n        if (smg.initiator != address(0)) {\n            smg.initiator.transfer(restBalance);\n        } else {\n            msg.sender.transfer(restBalance);   \n        }\n        smg.initiator = address(0);\n\n        emit StoremanGroupWithdrawLogger(tokenOrigAddr, storemanGroup, restBalance, deposit);\n    }\n\n    /// @notice                           function for storeman claiming system bonus\n    /// @dev                              function for storeman claiming system bonus\n    /// @param tokenOrigAddr              token address of original chain\n    function storemanGroupClaimSystemBonus(address tokenOrigAddr)\n        public\n        notHalted\n    {\n        StoremanGroup storage smg = mapStoremanGroup[tokenOrigAddr][msg.sender];\n        require(smg.bonusBlockNumber != 0 && smg.unregisterApplyTime == 0);\n        \n        doClaimSystemBonus(tokenOrigAddr, msg.sender);\n    }\n\n    /// @notice                           function for storeman claiming system bonus through a proxy  \n    /// @dev                              function for storeman claiming system bonus through a proxy\n    /// @param tokenOrigAddr              token address of original chain\n    /// @param storemanGroup              storemanGroup address \n    function smgClaimSystemBonusByDelegate(address tokenOrigAddr, address storemanGroup)\n        public\n        notHalted\n    {\n        // make sure the address who registered this smg initiated this transaction\n        require(mapStoremanGroup[tokenOrigAddr][storemanGroup].initiator == msg.sender); \n        \n        StoremanGroup storage smg = mapStoremanGroup[tokenOrigAddr][storemanGroup];\n        require(smg.bonusBlockNumber != 0 && smg.unregisterApplyTime == 0); \n        \n        doClaimSystemBonus(tokenOrigAddr, storemanGroup);\n    }\n\n    /// @notice                           function for bonus deposit\n    /// @dev                              function for bonus deposit\n    /// @param tokenOrigAddr              token address of original chain\n    function depositSmgBonus(address tokenOrigAddr)\n        public\n        payable\n        onlyOwner\n    {\n        require(msg.value > 0);\n        \n        var (,,,,,,startBonusBlk,,,) = TokenInterface(tokenManager).mapTokenInfo(TokenInterface(tokenManager).mapKey(tokenOrigAddr));\n        require(startBonusBlk > 0);\n        \n        require(TokenInterface(tokenManager).updateTotalBonus(tokenOrigAddr, msg.value, true));\n\n        emit StoremanGroupDepositBonusLogger(tokenOrigAddr, msg.sender, msg.value);\n    }\n                    \n    /// @notice                           function for storeman applying unregister\n    /// @dev                              function for storeman applying unregister\n    /// @param tokenOrigAddr              token address of original chain\n    /// @param storemanGroup              storemanGroup address \n    /// @param punishPercent              punished percent of deposit bonus\n    function punishStoremanGroup(address tokenOrigAddr, address storemanGroup, uint punishPercent)\n        public\n        onlyOwner\n    {\n        require(punishPercent > 0 && punishPercent<=100);\n        StoremanGroup storage info = mapStoremanGroup[tokenOrigAddr][storemanGroup];\n        require(info.deposit != 0);\n        \n        info.punishPercent = punishPercent;\n\n        emit StoremanGroupPunishedLogger(tokenOrigAddr, storemanGroup, punishPercent);\n    }    \n    \n    /// @notice                           function tranfer out the specified smg deposit \n    ///                                   in case of smg lost keystore which can not recovered anymore\n    /// @param tokenOrigAddr              token address of original chain\n    /// @param storemanGroup              storeman group address\n    /// @param destAddress                coin recipient address\n    /// @param isTransferAll              indicate if make a full transfer\n    function transferSmgDeposit(address tokenOrigAddr, address storemanGroup, address destAddress, bool isTransferAll)\n        public\n        onlyOwner\n    {\n        if (isTransferAll && halted) {\n            owner.transfer(address(this).balance);\n        } else {\n            require(mapStoremanGroup[tokenOrigAddr][storemanGroup].deposit > 0);\n            \n            uint deposit = mapStoremanGroup[tokenOrigAddr][storemanGroup].deposit;\n\n            require(QuotaInterface(quotaLedger).unregisterStoremanGroup(tokenOrigAddr, storemanGroup, false));\n\n            // set deposit to 0\n            mapStoremanGroup[tokenOrigAddr][storemanGroup].deposit = 0;\n\n            destAddress.transfer(deposit);\n        }\n\n        emit SmgTranferDepositLogger(tokenOrigAddr, storemanGroup, destAddress, deposit);\n    }\n\n    /// @notice function for destroy contract\n    function kill() \n        public\n        isHalted\n        onlyOwner\n    {\n        selfdestruct(owner);\n    } \n\n    /// @notice fallback function\n    function () public payable {\n       revert();\n    }\n}  \n\n",
  "sourcePath": "/home/lzhang/wanchain/wanchain-crosschain-contracts/contracts/StoremanGroupAdmin.sol",
  "compiler": {
    "name": "solc",
    "version": "0.4.24+commit.e67f0147.Emscripten.clang"
  },
  "schemaVersion": "3.0.19",
  "updatedAt": "2019-11-24T08:17:39.548Z",
  "networkType": "ethereum",
  "devdoc": {
    "methods": {
      "changeOwner(address)": {
        "params": {
          "_newOwner": "The address of the new owner. 0x0 can be used to create  an unowned neutral vault, however that cannot be undone"
        }
      },
      "depositSmgBonus(address)": {
        "details": "function for bonus deposit",
        "params": {
          "tokenOrigAddr": "token address of original chain"
        }
      },
      "injectDependencies(address,address)": {
        "params": {
          "ql": "quota ledger instance address",
          "tm": "token manager instance address"
        }
      },
      "punishStoremanGroup(address,address,uint256)": {
        "details": "function for storeman applying unregister",
        "params": {
          "punishPercent": "punished percent of deposit bonus",
          "storemanGroup": "storemanGroup address ",
          "tokenOrigAddr": "token address of original chain"
        }
      },
      "setSmgWhiteList(address,address)": {
        "params": {
          "storemanGroup": "storemanGroup address for whitelist    ",
          "tokenOrigAddr": "token address of original chain"
        }
      },
      "smgApplyUnregisterByDelegate(address,address)": {
        "details": "apply unregistration through a proxy",
        "params": {
          "storemanGroup": "storemanGroup address ",
          "tokenOrigAddr": "token address of original chain"
        }
      },
      "smgClaimSystemBonusByDelegate(address,address)": {
        "details": "function for storeman claiming system bonus through a proxy",
        "params": {
          "storemanGroup": "storemanGroup address ",
          "tokenOrigAddr": "token address of original chain"
        }
      },
      "smgWithdrawDepositByDelegate(address,address)": {
        "details": "withdraw deposit through a proxy",
        "params": {
          "storemanGroup": "storemanGroup address ",
          "tokenOrigAddr": "token address of original chain"
        }
      },
      "storemanGroupApplyUnregister(address)": {
        "details": "function for storemanGroup applying unregister",
        "params": {
          "tokenOrigAddr": "token address of original chain"
        }
      },
      "storemanGroupClaimSystemBonus(address)": {
        "details": "function for storeman claiming system bonus",
        "params": {
          "tokenOrigAddr": "token address of original chain"
        }
      },
      "storemanGroupRegister(address,address,uint256)": {
        "params": {
          "originalChainAddr": "the storeman group info on original chain",
          "tokenOrigAddr": "token address of original chain",
          "txFeeRatio": "the transaction fee required by storeman group  "
        }
      },
      "storemanGroupRegisterByDelegate(address,address,address,uint256)": {
        "params": {
          "originalChainAddr": "the storeman group info on original chain",
          "storemanGroup": "the storeman group register address  ",
          "tokenOrigAddr": "token address of original chain",
          "txFeeRatio": "the transaction fee required by storeman group  "
        }
      },
      "storemanGroupWithdrawDeposit(address)": {
        "details": "function for storeman group withdraw deposit",
        "params": {
          "tokenOrigAddr": "token address of original chain"
        }
      },
      "transferSmgDeposit(address,address,address,bool)": {
        "params": {
          "destAddress": "coin recipient address",
          "isTransferAll": "indicate if make a full transfer",
          "storemanGroup": "storeman group address",
          "tokenOrigAddr": "token address of original chain"
        }
      }
    }
  },
  "userdoc": {
    "methods": {
      "changeOwner(address)": {
        "notice": "`owner` can step down and assign some other address to this role"
      },
      "depositSmgBonus(address)": {
        "notice": "function for bonus deposit"
      },
      "injectDependencies(address,address)": {
        "notice": "set tokenManager instance address and quotaLedger instance address"
      },
      "kill()": {
        "notice": "function for destroy contract"
      },
      "punishStoremanGroup(address,address,uint256)": {
        "notice": "function for storeman applying unregister"
      },
      "setHalt(bool)": {
        "notice": "function Emergency situation that requires contribution period to stop or not."
      },
      "setSmgWhiteList(address,address)": {
        "notice": "function for setting smg white list by owner"
      },
      "smgApplyUnregisterByDelegate(address,address)": {
        "notice": "apply unregistration through a proxy"
      },
      "smgClaimSystemBonusByDelegate(address,address)": {
        "notice": "function for storeman claiming system bonus through a proxy  "
      },
      "smgWithdrawDepositByDelegate(address,address)": {
        "notice": "withdraw deposit through a proxy"
      },
      "storemanGroupApplyUnregister(address)": {
        "notice": "function for storemanGroup applying unregister"
      },
      "storemanGroupClaimSystemBonus(address)": {
        "notice": "function for storeman claiming system bonus"
      },
      "storemanGroupRegister(address,address,uint256)": {
        "notice": "function for storeman registration, this method should be invoked by the storemanGroup himself"
      },
      "storemanGroupRegisterByDelegate(address,address,address,uint256)": {
        "notice": "function for storeman register by sender this method should be                                   invoked by a storemanGroup registration proxy or wanchain foundation"
      },
      "storemanGroupWithdrawDeposit(address)": {
        "notice": "function for storeman group withdraw deposit"
      },
      "transferSmgDeposit(address,address,address,bool)": {
        "notice": "function tranfer out the specified smg deposit                                    in case of smg lost keystore which can not recovered anymore"
      }
    }
  }
}