{
  "contractName": "StoremanLottery",
  "abi": [
    {
      "constant": true,
      "inputs": [
        {
          "name": "",
          "type": "uint256"
        }
      ],
      "name": "mapSmgLotteryBonus",
      "outputs": [
        {
          "name": "lotterBonus",
          "type": "uint256"
        },
        {
          "name": "lotterNum",
          "type": "uint256"
        }
      ],
      "payable": false,
      "stateMutability": "view",
      "type": "function"
    },
    {
      "constant": true,
      "inputs": [],
      "name": "recoredNum",
      "outputs": [
        {
          "name": "",
          "type": "uint256"
        }
      ],
      "payable": false,
      "stateMutability": "view",
      "type": "function"
    },
    {
      "constant": true,
      "inputs": [],
      "name": "totalLotteryBonus",
      "outputs": [
        {
          "name": "",
          "type": "uint256"
        }
      ],
      "payable": false,
      "stateMutability": "view",
      "type": "function"
    },
    {
      "constant": true,
      "inputs": [],
      "name": "totalLotterNum",
      "outputs": [
        {
          "name": "",
          "type": "uint256"
        }
      ],
      "payable": false,
      "stateMutability": "view",
      "type": "function"
    },
    {
      "constant": true,
      "inputs": [
        {
          "name": "",
          "type": "uint256"
        }
      ],
      "name": "seededRandomArray",
      "outputs": [
        {
          "name": "",
          "type": "uint256"
        }
      ],
      "payable": false,
      "stateMutability": "view",
      "type": "function"
    },
    {
      "constant": true,
      "inputs": [],
      "name": "storemanGroupAddr",
      "outputs": [
        {
          "name": "",
          "type": "address"
        }
      ],
      "payable": false,
      "stateMutability": "view",
      "type": "function"
    },
    {
      "constant": false,
      "inputs": [],
      "name": "acceptOwnership",
      "outputs": [],
      "payable": false,
      "stateMutability": "nonpayable",
      "type": "function"
    },
    {
      "constant": true,
      "inputs": [],
      "name": "owner",
      "outputs": [
        {
          "name": "",
          "type": "address"
        }
      ],
      "payable": false,
      "stateMutability": "view",
      "type": "function"
    },
    {
      "constant": true,
      "inputs": [],
      "name": "recoredBonus",
      "outputs": [
        {
          "name": "",
          "type": "uint256"
        }
      ],
      "payable": false,
      "stateMutability": "view",
      "type": "function"
    },
    {
      "constant": true,
      "inputs": [],
      "name": "stakingEndBlockhash",
      "outputs": [
        {
          "name": "",
          "type": "bytes32"
        }
      ],
      "payable": false,
      "stateMutability": "view",
      "type": "function"
    },
    {
      "constant": false,
      "inputs": [
        {
          "name": "_newOwner",
          "type": "address"
        }
      ],
      "name": "changeOwner",
      "outputs": [],
      "payable": false,
      "stateMutability": "nonpayable",
      "type": "function"
    },
    {
      "constant": true,
      "inputs": [],
      "name": "halted",
      "outputs": [
        {
          "name": "",
          "type": "bool"
        }
      ],
      "payable": false,
      "stateMutability": "view",
      "type": "function"
    },
    {
      "constant": true,
      "inputs": [],
      "name": "storemanRandomSeed",
      "outputs": [
        {
          "name": "",
          "type": "uint256"
        }
      ],
      "payable": false,
      "stateMutability": "view",
      "type": "function"
    },
    {
      "constant": true,
      "inputs": [],
      "name": "newOwner",
      "outputs": [
        {
          "name": "",
          "type": "address"
        }
      ],
      "payable": false,
      "stateMutability": "view",
      "type": "function"
    },
    {
      "constant": false,
      "inputs": [
        {
          "name": "halt",
          "type": "bool"
        }
      ],
      "name": "setHalt",
      "outputs": [],
      "payable": false,
      "stateMutability": "nonpayable",
      "type": "function"
    },
    {
      "payable": true,
      "stateMutability": "payable",
      "type": "fallback"
    },
    {
      "anonymous": false,
      "inputs": [
        {
          "indexed": true,
          "name": "_smgAddr",
          "type": "address"
        },
        {
          "indexed": false,
          "name": "_seed",
          "type": "uint256"
        }
      ],
      "name": "LotteryRandomSeedLogger",
      "type": "event"
    },
    {
      "anonymous": false,
      "inputs": [
        {
          "indexed": true,
          "name": "_smgAddr",
          "type": "address"
        },
        {
          "indexed": false,
          "name": "_rank",
          "type": "uint256"
        },
        {
          "indexed": false,
          "name": "_random",
          "type": "uint256"
        },
        {
          "indexed": false,
          "name": "_bonus",
          "type": "uint256"
        }
      ],
      "name": "LotterySeededRandomLogger",
      "type": "event"
    },
    {
      "constant": false,
      "inputs": [
        {
          "name": "_smgAddr",
          "type": "address"
        }
      ],
      "name": "setStoremanGroupAddr",
      "outputs": [],
      "payable": false,
      "stateMutability": "nonpayable",
      "type": "function"
    },
    {
      "constant": false,
      "inputs": [
        {
          "name": "_bonus",
          "type": "uint256"
        },
        {
          "name": "_num",
          "type": "uint256"
        }
      ],
      "name": "setSmgLotteryInfo",
      "outputs": [],
      "payable": false,
      "stateMutability": "nonpayable",
      "type": "function"
    },
    {
      "constant": false,
      "inputs": [
        {
          "name": "_blockHash",
          "type": "bytes32"
        }
      ],
      "name": "genLotteryRandomSeed",
      "outputs": [],
      "payable": false,
      "stateMutability": "nonpayable",
      "type": "function"
    },
    {
      "constant": false,
      "inputs": [
        {
          "name": "_rank",
          "type": "uint256"
        },
        {
          "name": "_num",
          "type": "uint256"
        },
        {
          "name": "_bonus",
          "type": "uint256"
        }
      ],
      "name": "genSeededRandom",
      "outputs": [],
      "payable": false,
      "stateMutability": "nonpayable",
      "type": "function"
    },
    {
      "constant": false,
      "inputs": [],
      "name": "kill",
      "outputs": [],
      "payable": false,
      "stateMutability": "nonpayable",
      "type": "function"
    }
  ],
  "bytecode": "0x608060405260018060146101000a81548160ff021916908315150217905550336000806101000a81548173ffffffffffffffffffffffffffffffffffffffff021916908373ffffffffffffffffffffffffffffffffffffffff1602179055506112d78061006d6000396000f300608060405260043610610112576000357c0100000000000000000000000000000000000000000000000000000000900463ffffffff168063183fa6d5146101175780632a1ed7de1461015f57806341c0e1b51461018a578063423fa0e1146101a1578063474a5ec1146101e2578063485e18c01461020d57806353cdd68a146102385780636654cb1a146102795780636791389f146102b05780636d4e63b71461030757806379ba50971461034a5780638d288ca4146103615780638da5cb5b1461039257806391315026146103e957806399e93c2114610414578063a6f9dae114610447578063b9b8af0b1461048a578063d2841a17146104b9578063d4ee1d90146104e4578063f49543871461053b575b600080fd5b34801561012357600080fd5b506101426004803603810190808035906020019092919050505061056a565b604051808381526020018281526020019250505060405180910390f35b34801561016b57600080fd5b5061017461058e565b6040518082815260200191505060405180910390f35b34801561019657600080fd5b5061019f610594565b005b3480156101ad57600080fd5b506101e0600480360381019080803590602001909291908035906020019092919080359060200190929190505050610644565b005b3480156101ee57600080fd5b506101f7610ae9565b6040518082815260200191505060405180910390f35b34801561021957600080fd5b50610222610aef565b6040518082815260200191505060405180910390f35b34801561024457600080fd5b5061026360048036038101908080359060200190929190505050610af5565b6040518082815260200191505060405180910390f35b34801561028557600080fd5b506102ae6004803603810190808035906020019092919080359060200190929190505050610b18565b005b3480156102bc57600080fd5b506102c5610c0c565b604051808273ffffffffffffffffffffffffffffffffffffffff1673ffffffffffffffffffffffffffffffffffffffff16815260200191505060405180910390f35b34801561031357600080fd5b50610348600480360381019080803573ffffffffffffffffffffffffffffffffffffffff169060200190929190505050610c32565b005b34801561035657600080fd5b5061035f610d76565b005b34801561036d57600080fd5b506103906004803603810190808035600019169060200190929190505050610e31565b005b34801561039e57600080fd5b506103a7611069565b604051808273ffffffffffffffffffffffffffffffffffffffff1673ffffffffffffffffffffffffffffffffffffffff16815260200191505060405180910390f35b3480156103f557600080fd5b506103fe61108e565b6040518082815260200191505060405180910390f35b34801561042057600080fd5b50610429611094565b60405180826000191660001916815260200191505060405180910390f35b34801561045357600080fd5b50610488600480360381019080803573ffffffffffffffffffffffffffffffffffffffff16906020019092919050505061109a565b005b34801561049657600080fd5b5061049f611139565b604051808215151515815260200191505060405180910390f35b3480156104c557600080fd5b506104ce61114c565b6040518082815260200191505060405180910390f35b3480156104f057600080fd5b506104f9611152565b604051808273ffffffffffffffffffffffffffffffffffffffff1673ffffffffffffffffffffffffffffffffffffffff16815260200191505060405180910390f35b34801561054757600080fd5b50610568600480360381019080803515159060200190929190505050611178565b005b600a6020528060005260406000206000915090508060000154908060010154905082565b60075481565b600160149054906101000a900460ff1615156105af57600080fd5b6000809054906101000a900473ffffffffffffffffffffffffffffffffffffffff1673ffffffffffffffffffffffffffffffffffffffff163373ffffffffffffffffffffffffffffffffffffffff1614151561060a57600080fd5b6000809054906101000a900473ffffffffffffffffffffffffffffffffffffffff1673ffffffffffffffffffffffffffffffffffffffff16ff5b60008060008060009054906101000a900473ffffffffffffffffffffffffffffffffffffffff1673ffffffffffffffffffffffffffffffffffffffff163373ffffffffffffffffffffffffffffffffffffffff161415156106a457600080fd5b600454600014151515610745576040517f08c379a00000000000000000000000000000000000000000000000000000000081526004018080602001828103825260238152602001807f73746f72656d616e52616e646f6d53656564206861736e27742067656e65726181526020017f746564000000000000000000000000000000000000000000000000000000000081525060400191505060405180910390fd5b600a60008781526020019081526020016000206001015460001415156107f9576040517f08c379a00000000000000000000000000000000000000000000000000000000081526004018080602001828103825260238152602001807f54686973206c6f747465722072616e6b20686173206265656e2067656e65726181526020017f746564000000000000000000000000000000000000000000000000000000000081525060400191505060405180910390fd5b61083461080f85876111f090919063ffffffff16565b61082660085460055461122e90919063ffffffff16565b61122e90919063ffffffff16565b9250600083101515156108af576040517f08c379a000000000000000000000000000000000000000000000000000000000815260040180806020018281038252601f8152602001807f546865206c6f747465727920626f6e7573206973206e6f7420656e6f7567680081525060200191505060405180910390fd5b6108c48560075461124f90919063ffffffff16565b6006541015151561093d576040517f08c379a000000000000000000000000000000000000000000000000000000000815260040180806020018281038252601d8152602001807f65786365656420746865206d6178206c6f7474657273206e756d62657200000081525060200191505060405180910390fd5b600091505b84821015610ad657610960600160075461124f90919063ffffffff16565b600781905550600454600754856040516020018084815260200183815260200182815260200193505050506040516020818303038152906040526040518082805190602001908083835b6020831015156109cf57805182526020820191506020810190506020830392506109aa565b6001836020036101000a0380198251168184511680821785525050505050509050019150506040518091039020600190049050600360009054906101000a900473ffffffffffffffffffffffffffffffffffffffff1673ffffffffffffffffffffffffffffffffffffffff167f107747ad319b19bade6146ada4b748e8ed1500e7e2bf83fd6a51853ff981c1f387838760405180848152602001838152602001828152602001935050505060405180910390a26009819080600181540180825580915050906001820390600052602060002001600090919290919091505550610ac38460085461124f90919063ffffffff16565b6008819055508180600101925050610942565b610ae1868587611270565b505050505050565b60055481565b60065481565b600981815481101515610b0457fe5b906000526020600020016000915090505481565b600360009054906101000a900473ffffffffffffffffffffffffffffffffffffffff1673ffffffffffffffffffffffffffffffffffffffff163373ffffffffffffffffffffffffffffffffffffffff16141515610b7457600080fd5b81600014158015610b86575080600014155b1515610bfa576040517f08c379a000000000000000000000000000000000000000000000000000000000815260040180806020018281038252600f8152602001807f496e76616c6964206c6f7474657279000000000000000000000000000000000081525060200191505060405180910390fd5b81600581905550806006819055505050565b600360009054906101000a900473ffffffffffffffffffffffffffffffffffffffff1681565b6000809054906101000a900473ffffffffffffffffffffffffffffffffffffffff1673ffffffffffffffffffffffffffffffffffffffff163373ffffffffffffffffffffffffffffffffffffffff16141515610c8d57600080fd5b8073ffffffffffffffffffffffffffffffffffffffff16600073ffffffffffffffffffffffffffffffffffffffff1614151515610d32576040517f08c379a000000000000000000000000000000000000000000000000000000000815260040180806020018281038252601d8152602001807f496e76616c69642073746f72656d616e2067726f7570206f626a65637400000081525060200191505060405180910390fd5b80600360006101000a81548173ffffffffffffffffffffffffffffffffffffffff021916908373ffffffffffffffffffffffffffffffffffffffff16021790555050565b600160009054906101000a900473ffffffffffffffffffffffffffffffffffffffff1673ffffffffffffffffffffffffffffffffffffffff163373ffffffffffffffffffffffffffffffffffffffff161415610e2f57600160009054906101000a900473ffffffffffffffffffffffffffffffffffffffff166000806101000a81548173ffffffffffffffffffffffffffffffffffffffff021916908373ffffffffffffffffffffffffffffffffffffffff1602179055505b565b6000809054906101000a900473ffffffffffffffffffffffffffffffffffffffff1673ffffffffffffffffffffffffffffffffffffffff163373ffffffffffffffffffffffffffffffffffffffff16141515610e8c57600080fd5b806000191660006001026000191614151515610f10576040517f08c379a000000000000000000000000000000000000000000000000000000000815260040180806020018281038252601c8152602001807f20496e76616c6964207374616b696e67456e64426c6f636b686173680000000081525060200191505060405180910390fd5b8060028160001916905550600254336040516020018083600019166000191681526020018273ffffffffffffffffffffffffffffffffffffffff1673ffffffffffffffffffffffffffffffffffffffff166c01000000000000000000000000028152601401925050506040516020818303038152906040526040518082805190602001908083835b602083101515610fbd5780518252602082019150602081019050602083039250610f98565b6001836020036101000a038019825116818451168082178552505050505050905001915050604051809103902060019004600481905550600360009054906101000a900473ffffffffffffffffffffffffffffffffffffffff1673ffffffffffffffffffffffffffffffffffffffff167fb7641798aecdbba9dad181ed2ae22b85ee47301036eab92b5fba2530b63cc1606004546040518082815260200191505060405180910390a250565b6000809054906101000a900473ffffffffffffffffffffffffffffffffffffffff1681565b60085481565b60025481565b6000809054906101000a900473ffffffffffffffffffffffffffffffffffffffff1673ffffffffffffffffffffffffffffffffffffffff163373ffffffffffffffffffffffffffffffffffffffff161415156110f557600080fd5b80600160006101000a81548173ffffffffffffffffffffffffffffffffffffffff021916908373ffffffffffffffffffffffffffffffffffffffff16021790555050565b600160149054906101000a900460ff1681565b60045481565b600160009054906101000a900473ffffffffffffffffffffffffffffffffffffffff1681565b6000809054906101000a900473ffffffffffffffffffffffffffffffffffffffff1673ffffffffffffffffffffffffffffffffffffffff163373ffffffffffffffffffffffffffffffffffffffff161415156111d357600080fd5b80600160146101000a81548160ff02191690831515021790555050565b60008060008414156112055760009150611227565b828402905082848281151561121657fe5b0414151561122357600080fd5b8091505b5092915050565b60008083831115151561124057600080fd5b82840390508091505092915050565b600080828401905083811015151561126657600080fd5b8091505092915050565b81600a60008581526020019081526020016000206000018190555080600a6000858152602001908152602001600020600101819055505050505600a165627a7a72305820339b09dedfc82046045063f5cfc837a72bda4b5f9ebd687453e4a2fbacfcd7b10029",
  "source": "/*\n\n  Copyright 2018 Wanchain Foundation.\n\n  Licensed under the Apache License, Version 2.0 (the \"License\");\n  you may not use this file except in compliance with the License.\n  You may obtain a copy of the License at\n\n  http://www.apache.org/licenses/LICENSE-2.0\n\n  Unless required by applicable law or agreed to in writing, software\n  distributed under the License is distributed on an \"AS IS\" BASIS,\n  WITHOUT WARRANTIES OR CONDITIONS OF ANY KIND, either express or implied.\n  See the License for the specific language governing permissions and\n  limitations under the License.\n*/\n\n//                            _           _           _\n//  __      ____ _ _ __   ___| |__   __ _(_)_ __   __| | _____   __\n//  \\ \\ /\\ / / _` | '_ \\ / __| '_ \\ / _` | | '_ \\@/ _` |/ _ \\ \\ / /\n//   \\ V  V / (_| | | | | (__| | | | (_| | | | | | (_| |  __/\\ V /\n//    \\_/\\_/ \\__,_|_| |_|\\___|_| |_|\\__,_|_|_| |_|\\__,_|\\___| \\_/\n//\n//  Code style according to: https://github.com/wanchain/wanchain-token/blob/master/style-guide.rst\n\npragma solidity ^0.4.24;\n\nimport \"./SafeMath.sol\";\nimport \"./Halt.sol\";\n\ncontract StoremanLottery is Halt{\n\n    using SafeMath for uint;\n\n    ///the hash of block that's created at stakingEndTime\n    bytes32 public stakingEndBlockhash;\n\n    ///the address of storeman group sc\n    address public storemanGroupAddr;\n    \n    ///the random seed generated based on stakingEndBlockhash and other info\n    uint256 public storemanRandomSeed;\n    \n    ///the total lottery bonus \n    uint public totalLotteryBonus;\n\n    ///the total lotter numbers\n    uint public totalLotterNum;\n\n    ///the sequence of lotter random that has been generated\n    uint public recoredNum;\n\n    ///the lottery bonus that has been distributed\n    uint public recoredBonus;\n\n    ///the array of random that has been generated\n    uint[] public seededRandomArray;\n\n    ///the struct to record lottery rank, just include bonus and number for this rank\n    struct LotterBonuInfo{\n        uint lotterBonus;\n        uint lotterNum;\n    }\n\n    ///the lotter info map: map(randomHash = > lotterBonusInfo)\n    mapping(uint => LotterBonuInfo) public    mapSmgLotteryBonus;\n\n    /// @notice                           event for smg to refeem total bonus from admin\n    /// @param _smgAddr                   the address of smg\n    /// @param _seed                      the seed for random \n    event LotteryRandomSeedLogger(address indexed _smgAddr, uint256 _seed);\n\n    /// @notice                           event for smg to refeem total bonus from admin\n    /// @param _smgAddr                   the address of smg\n    /// @param _rank                      the rank for lottery \n    /// @param _random                    the seeded random \n    /// @param _bonus                     the bonus for this lottery rank \n    event LotterySeededRandomLogger(address indexed _smgAddr, uint256 _rank, uint256 _random, uint256 _bonus);\n\n    /// @dev `owner` is the only address that can call a function with this\n    /// modifier\n    modifier onlyStoremanGroup() {\n        require(msg.sender == storemanGroupAddr);\n        _;\n    }\n  \n    /// @notice                         to set storemangroup address\n    /// @param _smgAddr                 the address of storeman group\n    function setStoremanGroupAddr(address _smgAddr)\n    public\n    onlyOwner    \n    {\n        require(address(0) != _smgAddr, \"Invalid storeman group object\");\n        storemanGroupAddr = _smgAddr;\n    }\n\n    /// @notice                         to set block hash when staking end time\n    /// @param _bonus                   the bonus value of this lotter rank \n    /// @param _num                     the lotter number of this lotter rank \n    function setSmgLotteryInfo(uint256 _bonus, uint256 _num)\n    external\n    onlyStoremanGroup\n    {\n        require((0 != _bonus) && (0 != _num), \"Invalid lottery\");\n        \n        totalLotteryBonus = _bonus;\n        totalLotterNum = _num; \n    }\n\n    /// @notice                         to get random seed for lottery\n    function genLotteryRandomSeed(bytes32 _blockHash)  \n    public\n    onlyOwner\n    {\n        require(bytes32(0) != _blockHash, \" Invalid stakingEndBlockhash\");\n\n        stakingEndBlockhash = _blockHash;\n        storemanRandomSeed = uint256(keccak256(abi.encodePacked(stakingEndBlockhash, msg.sender)));\n        emit LotteryRandomSeedLogger(storemanGroupAddr, storemanRandomSeed);\n    }\n\n    /// @notice                         to get random seed for lottery\n    /// @param _rank                    the rank of  lotter  \n    /// @param _num                     the number of this lotter rank \n    /// @param _bonus                   the bonus of this lotter rank \n    function genSeededRandom(uint256 _rank, uint256 _num, uint256 _bonus)\n    public\n    onlyOwner\n    {\n        require(uint256(0) != storemanRandomSeed, \"storemanRandomSeed hasn't generated\");\n        require(0 == mapSmgLotteryBonus[_rank].lotterNum, \"This lotter rank has been generated\");\n\n        uint restBonus;\n        restBonus = totalLotteryBonus.sub(recoredBonus).sub(_num.mul(_bonus));\n        require(restBonus >= 0, \"The lottery bonus is not enough\");\n        require(totalLotterNum >= recoredNum.add(_num), \"exceed the max lotters number\");\n\n        for(uint i = 0; i < _num; i++ ){\n            recoredNum = recoredNum.add(1);\n\n            uint random = uint(keccak256(abi.encodePacked(storemanRandomSeed, recoredNum, _bonus)));\n            emit LotterySeededRandomLogger(storemanGroupAddr, _rank, random, _bonus);\n\n            seededRandomArray.push(random);\n            recoredBonus = recoredBonus.add(_bonus);\n        }\n\n        setSmgLotterRule(_rank, _bonus, _num);\n    }\n\n    /// @notice                         to set block hash when staking end time \n    /// @param _rank                    lotter rank\n    /// @param _bonus                   the bonus value of this lotter rank \n    /// @param _num                     the lotter number of this lotter rank \n    function setSmgLotterRule(uint256 _rank, uint256 _bonus, uint256 _num)\n    private\n    {\n        mapSmgLotteryBonus[_rank].lotterBonus = _bonus;\n        mapSmgLotteryBonus[_rank].lotterNum = _num;        \n    }\n\n    function kill() \n    public\n    isHalted\n    onlyOwner\n    {\n        selfdestruct(owner);\n    } \n\n    /// @notice If token coin is sent to this address, send it back.\n    /// @dev If token coin is sent to this address, send it back.\n    function () \n    public\n    payable \n    {\n        revert();\n    } \n\n}\n\n",
  "sourcePath": "/home/lzhang/wanchain/wanchain-crosschain-contracts/contracts/StoremanLottery.sol",
  "compiler": {
    "name": "solc",
    "version": "0.4.24+commit.e67f0147.Emscripten.clang"
  },
  "schemaVersion": "3.0.19",
  "updatedAt": "2019-11-20T12:13:19.994Z",
  "devdoc": {
    "methods": {
      "changeOwner(address)": {
        "params": {
          "_newOwner": "The address of the new owner. 0x0 can be used to create  an unowned neutral vault, however that cannot be undone"
        }
      },
      "genSeededRandom(uint256,uint256,uint256)": {
        "params": {
          "_bonus": "the bonus of this lotter rank ",
          "_num": "the number of this lotter rank ",
          "_rank": "the rank of  lotter  "
        }
      },
      "setSmgLotteryInfo(uint256,uint256)": {
        "params": {
          "_bonus": "the bonus value of this lotter rank ",
          "_num": "the lotter number of this lotter rank "
        }
      },
      "setStoremanGroupAddr(address)": {
        "params": {
          "_smgAddr": "the address of storeman group"
        }
      }
    }
  },
  "userdoc": {
    "methods": {
      "changeOwner(address)": {
        "notice": "`owner` can step down and assign some other address to this role"
      },
      "genLotteryRandomSeed(bytes32)": {
        "notice": "to get random seed for lottery"
      },
      "genSeededRandom(uint256,uint256,uint256)": {
        "notice": "to get random seed for lottery"
      },
      "setHalt(bool)": {
        "notice": "function Emergency situation that requires contribution period to stop or not."
      },
      "setSmgLotteryInfo(uint256,uint256)": {
        "notice": "to set block hash when staking end time"
      },
      "setStoremanGroupAddr(address)": {
        "notice": "to set storemangroup address"
      }
    }
  }
}