{
  "contractName": "StoremanGroup",
  "abi": [
    {
      "constant": true,
      "inputs": [],
      "name": "totalStakerQuota",
      "outputs": [
        {
          "name": "",
          "type": "uint256"
        }
      ],
      "payable": false,
      "stateMutability": "view",
      "type": "function"
    },
    {
      "constant": true,
      "inputs": [],
      "name": "isReachedMaxDeposit",
      "outputs": [
        {
          "name": "",
          "type": "bool"
        }
      ],
      "payable": false,
      "stateMutability": "view",
      "type": "function"
    },
    {
      "constant": true,
      "inputs": [],
      "name": "scStatus",
      "outputs": [
        {
          "name": "",
          "type": "uint8"
        }
      ],
      "payable": false,
      "stateMutability": "view",
      "type": "function"
    },
    {
      "constant": true,
      "inputs": [],
      "name": "MAX_DEPOSIT_SUM",
      "outputs": [
        {
          "name": "",
          "type": "uint256"
        }
      ],
      "payable": false,
      "stateMutability": "view",
      "type": "function"
    },
    {
      "constant": true,
      "inputs": [],
      "name": "locatedMpcAddr",
      "outputs": [
        {
          "name": "",
          "type": "address"
        }
      ],
      "payable": false,
      "stateMutability": "view",
      "type": "function"
    },
    {
      "constant": true,
      "inputs": [
        {
          "name": "",
          "type": "address"
        }
      ],
      "name": "mapTokenSmgStatus",
      "outputs": [
        {
          "name": "deposit",
          "type": "uint256"
        },
        {
          "name": "statu",
          "type": "uint8"
        },
        {
          "name": "revokeQuota",
          "type": "uint256"
        }
      ],
      "payable": false,
      "stateMutability": "view",
      "type": "function"
    },
    {
      "constant": true,
      "inputs": [
        {
          "name": "",
          "type": "address"
        }
      ],
      "name": "mapDepositorInfo",
      "outputs": [
        {
          "name": "deposit",
          "type": "uint256"
        },
        {
          "name": "stakerRank",
          "type": "uint256"
        },
        {
          "name": "stakerQuota",
          "type": "uint256"
        },
        {
          "name": "stakerBonus",
          "type": "uint256"
        },
        {
          "name": "lotterRank",
          "type": "uint256"
        },
        {
          "name": "lotterBonus",
          "type": "uint256"
        },
        {
          "name": "hasRevoked",
          "type": "bool"
        },
        {
          "name": "bidTimeStamp",
          "type": "uint256"
        }
      ],
      "payable": false,
      "stateMutability": "view",
      "type": "function"
    },
    {
      "constant": true,
      "inputs": [],
      "name": "totalStakingDeposit",
      "outputs": [
        {
          "name": "",
          "type": "uint256"
        }
      ],
      "payable": false,
      "stateMutability": "view",
      "type": "function"
    },
    {
      "constant": true,
      "inputs": [],
      "name": "totalLotteryBonus",
      "outputs": [
        {
          "name": "",
          "type": "uint256"
        }
      ],
      "payable": false,
      "stateMutability": "view",
      "type": "function"
    },
    {
      "constant": true,
      "inputs": [],
      "name": "locatedLotteryAddr",
      "outputs": [
        {
          "name": "",
          "type": "address"
        }
      ],
      "payable": false,
      "stateMutability": "view",
      "type": "function"
    },
    {
      "constant": true,
      "inputs": [],
      "name": "stakerNum",
      "outputs": [
        {
          "name": "",
          "type": "uint256"
        }
      ],
      "payable": false,
      "stateMutability": "view",
      "type": "function"
    },
    {
      "constant": true,
      "inputs": [],
      "name": "distributedLotterBonus",
      "outputs": [
        {
          "name": "",
          "type": "uint256"
        }
      ],
      "payable": false,
      "stateMutability": "view",
      "type": "function"
    },
    {
      "constant": true,
      "inputs": [],
      "name": "stakingStartTime",
      "outputs": [
        {
          "name": "",
          "type": "uint256"
        }
      ],
      "payable": false,
      "stateMutability": "view",
      "type": "function"
    },
    {
      "constant": false,
      "inputs": [],
      "name": "acceptOwnership",
      "outputs": [],
      "payable": false,
      "stateMutability": "nonpayable",
      "type": "function"
    },
    {
      "constant": true,
      "inputs": [],
      "name": "storemanGroupAdmin",
      "outputs": [
        {
          "name": "",
          "type": "address"
        }
      ],
      "payable": false,
      "stateMutability": "view",
      "type": "function"
    },
    {
      "constant": true,
      "inputs": [],
      "name": "bonusPerUnit",
      "outputs": [
        {
          "name": "",
          "type": "uint256"
        }
      ],
      "payable": false,
      "stateMutability": "view",
      "type": "function"
    },
    {
      "constant": true,
      "inputs": [],
      "name": "stakingEndTime",
      "outputs": [
        {
          "name": "",
          "type": "uint256"
        }
      ],
      "payable": false,
      "stateMutability": "view",
      "type": "function"
    },
    {
      "constant": true,
      "inputs": [],
      "name": "owner",
      "outputs": [
        {
          "name": "",
          "type": "address"
        }
      ],
      "payable": false,
      "stateMutability": "view",
      "type": "function"
    },
    {
      "constant": true,
      "inputs": [],
      "name": "depositedQuota",
      "outputs": [
        {
          "name": "",
          "type": "uint256"
        }
      ],
      "payable": false,
      "stateMutability": "view",
      "type": "function"
    },
    {
      "constant": true,
      "inputs": [],
      "name": "totalSmgDeposit",
      "outputs": [
        {
          "name": "",
          "type": "uint256"
        }
      ],
      "payable": false,
      "stateMutability": "view",
      "type": "function"
    },
    {
      "constant": false,
      "inputs": [
        {
          "name": "_newOwner",
          "type": "address"
        }
      ],
      "name": "changeOwner",
      "outputs": [],
      "payable": false,
      "stateMutability": "nonpayable",
      "type": "function"
    },
    {
      "constant": true,
      "inputs": [],
      "name": "totalBonus",
      "outputs": [
        {
          "name": "",
          "type": "uint256"
        }
      ],
      "payable": false,
      "stateMutability": "view",
      "type": "function"
    },
    {
      "constant": true,
      "inputs": [],
      "name": "halted",
      "outputs": [
        {
          "name": "",
          "type": "bool"
        }
      ],
      "payable": false,
      "stateMutability": "view",
      "type": "function"
    },
    {
      "constant": true,
      "inputs": [],
      "name": "DEFAULT_PRECISE",
      "outputs": [
        {
          "name": "",
          "type": "uint256"
        }
      ],
      "payable": false,
      "stateMutability": "view",
      "type": "function"
    },
    {
      "constant": true,
      "inputs": [],
      "name": "runningEndTime",
      "outputs": [
        {
          "name": "",
          "type": "uint256"
        }
      ],
      "payable": false,
      "stateMutability": "view",
      "type": "function"
    },
    {
      "constant": true,
      "inputs": [],
      "name": "newOwner",
      "outputs": [
        {
          "name": "",
          "type": "address"
        }
      ],
      "payable": false,
      "stateMutability": "view",
      "type": "function"
    },
    {
      "constant": true,
      "inputs": [],
      "name": "MAX_COMMISION_BASE",
      "outputs": [
        {
          "name": "",
          "type": "uint256"
        }
      ],
      "payable": false,
      "stateMutability": "view",
      "type": "function"
    },
    {
      "constant": true,
      "inputs": [],
      "name": "totalTokenTypeNum",
      "outputs": [
        {
          "name": "",
          "type": "uint256"
        }
      ],
      "payable": false,
      "stateMutability": "view",
      "type": "function"
    },
    {
      "constant": true,
      "inputs": [],
      "name": "MIN_DEPOSIT",
      "outputs": [
        {
          "name": "",
          "type": "uint256"
        }
      ],
      "payable": false,
      "stateMutability": "view",
      "type": "function"
    },
    {
      "constant": true,
      "inputs": [],
      "name": "runningStartTime",
      "outputs": [
        {
          "name": "",
          "type": "uint256"
        }
      ],
      "payable": false,
      "stateMutability": "view",
      "type": "function"
    },
    {
      "constant": false,
      "inputs": [
        {
          "name": "halt",
          "type": "bool"
        }
      ],
      "name": "setHalt",
      "outputs": [],
      "payable": false,
      "stateMutability": "nonpayable",
      "type": "function"
    },
    {
      "payable": true,
      "stateMutability": "payable",
      "type": "fallback"
    },
    {
      "anonymous": false,
      "inputs": [
        {
          "indexed": true,
          "name": "_depositorAddr",
          "type": "address"
        },
        {
          "indexed": false,
          "name": "_depositValue",
          "type": "uint256"
        },
        {
          "indexed": false,
          "name": "_depositTimeStamp",
          "type": "uint256"
        },
        {
          "indexed": false,
          "name": "_stakerAccumDeposit",
          "type": "uint256"
        },
        {
          "indexed": false,
          "name": "_smgAccumDeposit",
          "type": "uint256"
        }
      ],
      "name": "StoremanGroupDepositLogger",
      "type": "event"
    },
    {
      "anonymous": false,
      "inputs": [
        {
          "indexed": true,
          "name": "_stakerAddr",
          "type": "address"
        },
        {
          "indexed": false,
          "name": "_depositValue",
          "type": "uint256"
        },
        {
          "indexed": false,
          "name": "_quota",
          "type": "uint256"
        },
        {
          "indexed": false,
          "name": "_rank",
          "type": "uint256"
        },
        {
          "indexed": false,
          "name": "_accumStakerDeposit",
          "type": "uint256"
        }
      ],
      "name": "StoremanGroupStakerLogger",
      "type": "event"
    },
    {
      "anonymous": false,
      "inputs": [
        {
          "indexed": true,
          "name": "_foundationAddr",
          "type": "address"
        },
        {
          "indexed": false,
          "name": "_bonus",
          "type": "uint256"
        },
        {
          "indexed": false,
          "name": "_totalLotterBonus",
          "type": "uint256"
        },
        {
          "indexed": false,
          "name": "_lotterNum",
          "type": "uint256"
        }
      ],
      "name": "StoremanGroupInjectLotteryBonusLogger",
      "type": "event"
    },
    {
      "anonymous": false,
      "inputs": [
        {
          "indexed": true,
          "name": "_foundationAddr",
          "type": "address"
        },
        {
          "indexed": false,
          "name": "_bonus",
          "type": "uint256"
        },
        {
          "indexed": false,
          "name": "_totalBonus",
          "type": "uint256"
        }
      ],
      "name": "StoremanGroupInjectSmgBonusLogger",
      "type": "event"
    },
    {
      "anonymous": false,
      "inputs": [
        {
          "indexed": true,
          "name": "_lotterAddr",
          "type": "address"
        },
        {
          "indexed": false,
          "name": "_lotterDeposit",
          "type": "uint256"
        },
        {
          "indexed": false,
          "name": "_lotterBonus",
          "type": "uint256"
        },
        {
          "indexed": false,
          "name": "_lotterRank",
          "type": "uint256"
        }
      ],
      "name": "StoremanGroupLotteryLogger",
      "type": "event"
    },
    {
      "anonymous": false,
      "inputs": [
        {
          "indexed": true,
          "name": "_depositorAddr",
          "type": "address"
        },
        {
          "indexed": false,
          "name": "_deposit",
          "type": "uint256"
        },
        {
          "indexed": false,
          "name": "_bonus",
          "type": "uint256"
        }
      ],
      "name": "DepositorRefeemAssertLogger",
      "type": "event"
    },
    {
      "anonymous": false,
      "inputs": [
        {
          "indexed": true,
          "name": "_smgAmin",
          "type": "address"
        },
        {
          "indexed": true,
          "name": "_tokenOrigAddr",
          "type": "address"
        },
        {
          "indexed": true,
          "name": "_smgRegAddr",
          "type": "address"
        },
        {
          "indexed": false,
          "name": "_originalChainAddr",
          "type": "address"
        },
        {
          "indexed": false,
          "name": "_deposit",
          "type": "uint256"
        },
        {
          "indexed": false,
          "name": "_txFeeRatio",
          "type": "uint256"
        }
      ],
      "name": "StoremanGroupApplyRegisterLogger",
      "type": "event"
    },
    {
      "anonymous": false,
      "inputs": [
        {
          "indexed": true,
          "name": "_smgAmin",
          "type": "address"
        },
        {
          "indexed": true,
          "name": "_tokenOrigAddr",
          "type": "address"
        },
        {
          "indexed": true,
          "name": "_smgRegAddr",
          "type": "address"
        }
      ],
      "name": "StoremanGroupApplyUnRegisterLogger",
      "type": "event"
    },
    {
      "anonymous": false,
      "inputs": [
        {
          "indexed": true,
          "name": "_smgAmin",
          "type": "address"
        },
        {
          "indexed": true,
          "name": "_tokenOrigAddr",
          "type": "address"
        },
        {
          "indexed": true,
          "name": "_smgRegAddr",
          "type": "address"
        },
        {
          "indexed": false,
          "name": "_depositRevoked",
          "type": "uint256"
        },
        {
          "indexed": false,
          "name": "_restDeposit",
          "type": "uint256"
        }
      ],
      "name": "StoremanGroupRefeemDepositLogger",
      "type": "event"
    },
    {
      "anonymous": false,
      "inputs": [
        {
          "indexed": true,
          "name": "_stakerAddr",
          "type": "address"
        },
        {
          "indexed": false,
          "name": "_deposit",
          "type": "uint256"
        },
        {
          "indexed": false,
          "name": "_bonus",
          "type": "uint256"
        }
      ],
      "name": "StakerRefeemAssetLogger",
      "type": "event"
    },
    {
      "anonymous": false,
      "inputs": [
        {
          "indexed": true,
          "name": "_objectSmgAddr",
          "type": "address"
        },
        {
          "indexed": true,
          "name": "_tokenOrigAddr",
          "type": "address"
        },
        {
          "indexed": true,
          "name": "_locatedMpcAddr",
          "type": "address"
        },
        {
          "indexed": false,
          "name": "xHash",
          "type": "bytes32"
        },
        {
          "indexed": false,
          "name": "_debtValue",
          "type": "uint256"
        }
      ],
      "name": "StoremanGroupDebtTransferLogger",
      "type": "event"
    },
    {
      "constant": false,
      "inputs": [
        {
          "name": "_smgAdmin",
          "type": "address"
        },
        {
          "name": "_smgLottery",
          "type": "address"
        },
        {
          "name": "_smgRegAddr",
          "type": "address"
        }
      ],
      "name": "InjectDependencies",
      "outputs": [],
      "payable": false,
      "stateMutability": "nonpayable",
      "type": "function"
    },
    {
      "constant": false,
      "inputs": [
        {
          "name": "_stakingStartTime",
          "type": "uint256"
        },
        {
          "name": "_stakingEndTime",
          "type": "uint256"
        }
      ],
      "name": "setSmgStakingTime",
      "outputs": [],
      "payable": false,
      "stateMutability": "nonpayable",
      "type": "function"
    },
    {
      "constant": false,
      "inputs": [
        {
          "name": "_runningStartTime",
          "type": "uint256"
        },
        {
          "name": "_runningEndTime",
          "type": "uint256"
        }
      ],
      "name": "setSmgRunningTime",
      "outputs": [],
      "payable": false,
      "stateMutability": "nonpayable",
      "type": "function"
    },
    {
      "constant": false,
      "inputs": [
        {
          "name": "_accountArray",
          "type": "address[]"
        }
      ],
      "name": "setSmgStakerInfo",
      "outputs": [],
      "payable": false,
      "stateMutability": "nonpayable",
      "type": "function"
    },
    {
      "constant": false,
      "inputs": [
        {
          "name": "_lotterNum",
          "type": "uint256"
        }
      ],
      "name": "injectLotteryBonus",
      "outputs": [],
      "payable": true,
      "stateMutability": "payable",
      "type": "function"
    },
    {
      "constant": false,
      "inputs": [],
      "name": "injectSmgBonus",
      "outputs": [],
      "payable": true,
      "stateMutability": "payable",
      "type": "function"
    },
    {
      "constant": false,
      "inputs": [
        {
          "name": "_accountArray",
          "type": "address[]"
        },
        {
          "name": "_bonus",
          "type": "uint256"
        },
        {
          "name": "_rank",
          "type": "uint256"
        }
      ],
      "name": "setSmgLotterInfo",
      "outputs": [],
      "payable": false,
      "stateMutability": "nonpayable",
      "type": "function"
    },
    {
      "constant": false,
      "inputs": [],
      "name": "finishLottery",
      "outputs": [],
      "payable": false,
      "stateMutability": "nonpayable",
      "type": "function"
    },
    {
      "constant": false,
      "inputs": [
        {
          "name": "_accountArray",
          "type": "address[]"
        }
      ],
      "name": "revokeDepositorsAsset",
      "outputs": [],
      "payable": false,
      "stateMutability": "nonpayable",
      "type": "function"
    },
    {
      "constant": false,
      "inputs": [],
      "name": "finishDepositorAssetRevoke",
      "outputs": [],
      "payable": false,
      "stateMutability": "nonpayable",
      "type": "function"
    },
    {
      "constant": false,
      "inputs": [
        {
          "name": "_stakerArray",
          "type": "address[]"
        }
      ],
      "name": "revokeStakersAsset",
      "outputs": [],
      "payable": false,
      "stateMutability": "nonpayable",
      "type": "function"
    },
    {
      "constant": false,
      "inputs": [],
      "name": "finishStakersAssetRevoke",
      "outputs": [],
      "payable": false,
      "stateMutability": "nonpayable",
      "type": "function"
    },
    {
      "constant": false,
      "inputs": [
        {
          "name": "_tokenOrigAddr",
          "type": "address"
        },
        {
          "name": "_originalChainAddr",
          "type": "address"
        },
        {
          "name": "_txFeeRatio",
          "type": "uint256"
        },
        {
          "name": "_deposit",
          "type": "uint256"
        }
      ],
      "name": "applyRegisterSmgToAdmin",
      "outputs": [],
      "payable": false,
      "stateMutability": "nonpayable",
      "type": "function"
    },
    {
      "constant": false,
      "inputs": [
        {
          "name": "_objectSmgAddr",
          "type": "address"
        },
        {
          "name": "_tokenOrigAddr",
          "type": "address"
        },
        {
          "name": "_locatedMpcEthAddr",
          "type": "address"
        },
        {
          "name": "_xHash",
          "type": "bytes32"
        },
        {
          "name": "_value",
          "type": "uint256"
        }
      ],
      "name": "applySmgDebtTransfer",
      "outputs": [],
      "payable": false,
      "stateMutability": "nonpayable",
      "type": "function"
    },
    {
      "constant": false,
      "inputs": [
        {
          "name": "_tokenOrigAddr",
          "type": "address"
        }
      ],
      "name": "applyUnregisterSmgFromAdmin",
      "outputs": [],
      "payable": false,
      "stateMutability": "nonpayable",
      "type": "function"
    },
    {
      "constant": false,
      "inputs": [
        {
          "name": "_tokenOrigAddr",
          "type": "address"
        }
      ],
      "name": "withDrawSmgFromAdmin",
      "outputs": [],
      "payable": false,
      "stateMutability": "nonpayable",
      "type": "function"
    },
    {
      "constant": false,
      "inputs": [],
      "name": "kill",
      "outputs": [],
      "payable": false,
      "stateMutability": "nonpayable",
      "type": "function"
    }
  ],
  "bytecode": "0x608060405260018060146101000a81548160ff0219169083151502179055506000600460146101000a81548160ff0219169083600781111561003d57fe5b02179055506000600f60006101000a81548160ff021916908315150217905550336000806101000a81548173ffffffffffffffffffffffffffffffffffffffff021916908373ffffffffffffffffffffffffffffffffffffffff160217905550615f9080620000ad6000396000f300608060405260043610610246576000357c0100000000000000000000000000000000000000000000000000000000900463ffffffff16806307db10d41461033a5780630a5e65e4146103655780630eb1abc01461039457806313e5c0a01461040e5780631425cecc146104745780631666e5d0146104ad57806318b0e0a0146104f05780631b0b4ca71461051b5780631c7749b3146105255780632c906ba21461057c5780633579b84a14610593578063366330ce146105f9578063380d89eb146106105780633949cc6e146106835780633c86d5b51461069a57806341c0e1b5146107265780634318aa9d1461073d578063474a5ec114610768578063513553c614610793578063584ae2a2146107d657806363c138b31461082d57806366b79692146108585780636abfd1831461088357806379ba5097146108ae578063820413f3146108c55780638274dcde1461091c5780638ac33487146109475780638da5cb5b146109725780638f15598f146109c95780639701a736146109f45780639b4da39714610a14578063a6f9dae114610a3f578063a8dd07dc14610a82578063abce873e14610aad578063b9b8af0b14610ae4578063bd49016714610b13578063c4c2d24214610b3e578063d0991a3514610bd9578063d1e2ef5f14610c04578063d4ee1d9014610c3b578063d82b5dca14610c92578063d83d1f0614610cbd578063d99788d914610ce8578063e1e158a514610d6b578063eb7231d714610d96578063f495438714610dc1578063f4e199e714610df0578063fb3c6cb714610e56575b601254421015801561025a57506013544211155b1561026e576102693334610ecd565b610338565b600260009054906101000a900473ffffffffffffffffffffffffffffffffffffffff1673ffffffffffffffffffffffffffffffffffffffff163373ffffffffffffffffffffffffffffffffffffffff1614156102c957610337565b6040517f08c379a00000000000000000000000000000000000000000000000000000000081526004018080602001828103825260168152602001807f696e76616c69642061737365747320696e6a656374210000000000000000000081525060200191505060405180910390fd5b5b005b34801561034657600080fd5b5061034f611331565b6040518082815260200191505060405180910390f35b34801561037157600080fd5b5061037a611337565b604051808215151515815260200191505060405180910390f35b3480156103a057600080fd5b5061040c60048036038101908080359060200190820180359060200190808060200260200160405190810160405280939291908181526020018383602002808284378201915050505050509192919290803590602001909291908035906020019092919050505061134a565b005b34801561041a57600080fd5b5061047260048036038101908080359060200190820180359060200190808060200260200160405190810160405280939291908181526020018383602002808284378201915050505050509192919290505050611b29565b005b34801561048057600080fd5b5061048961206b565b6040518082600781111561049957fe5b60ff16815260200191505060405180910390f35b3480156104b957600080fd5b506104ee600480360381019080803573ffffffffffffffffffffffffffffffffffffffff16906020019092919050505061207e565b005b3480156104fc57600080fd5b5061050561275c565b6040518082815260200191505060405180910390f35b61052361276b565b005b34801561053157600080fd5b5061053a612900565b604051808273ffffffffffffffffffffffffffffffffffffffff1673ffffffffffffffffffffffffffffffffffffffff16815260200191505060405180910390f35b34801561058857600080fd5b50610591612926565b005b34801561059f57600080fd5b506105f7600480360381019080803590602001908201803590602001908080602002602001604051908101604052809392919081815260200183836020028082843782019150505050505091929192905050506129c3565b005b34801561060557600080fd5b5061060e613316565b005b34801561061c57600080fd5b50610651600480360381019080803573ffffffffffffffffffffffffffffffffffffffff1690602001909291905050506133b3565b6040518084815260200183600781111561066757fe5b60ff168152602001828152602001935050505060405180910390f35b34801561068f57600080fd5b506106986133ea565b005b3480156106a657600080fd5b506106db600480360381019080803573ffffffffffffffffffffffffffffffffffffffff169060200190929190505050613487565b60405180898152602001888152602001878152602001868152602001858152602001848152602001831515151581526020018281526020019850505050505050505060405180910390f35b34801561073257600080fd5b5061073b6134dc565b005b34801561074957600080fd5b50610752613628565b6040518082815260200191505060405180910390f35b34801561077457600080fd5b5061077d61362e565b6040518082815260200191505060405180910390f35b34801561079f57600080fd5b506107d4600480360381019080803573ffffffffffffffffffffffffffffffffffffffff169060200190929190505050613634565b005b3480156107e257600080fd5b506107eb613bfe565b604051808273ffffffffffffffffffffffffffffffffffffffff1673ffffffffffffffffffffffffffffffffffffffff16815260200191505060405180910390f35b34801561083957600080fd5b50610842613c24565b6040518082815260200191505060405180910390f35b34801561086457600080fd5b5061086d613c2a565b6040518082815260200191505060405180910390f35b34801561088f57600080fd5b50610898613c30565b6040518082815260200191505060405180910390f35b3480156108ba57600080fd5b506108c3613c36565b005b3480156108d157600080fd5b506108da613cf1565b604051808273ffffffffffffffffffffffffffffffffffffffff1673ffffffffffffffffffffffffffffffffffffffff16815260200191505060405180910390f35b34801561092857600080fd5b50610931613d17565b6040518082815260200191505060405180910390f35b34801561095357600080fd5b5061095c613d1d565b6040518082815260200191505060405180910390f35b34801561097e57600080fd5b50610987613d23565b604051808273ffffffffffffffffffffffffffffffffffffffff1673ffffffffffffffffffffffffffffffffffffffff16815260200191505060405180910390f35b3480156109d557600080fd5b506109de613d48565b6040518082815260200191505060405180910390f35b610a1260048036038101908080359060200190929190505050613d4e565b005b348015610a2057600080fd5b50610a2961413d565b6040518082815260200191505060405180910390f35b348015610a4b57600080fd5b50610a80600480360381019080803573ffffffffffffffffffffffffffffffffffffffff169060200190929190505050614143565b005b348015610a8e57600080fd5b50610a976141e2565b6040518082815260200191505060405180910390f35b348015610ab957600080fd5b50610ae260048036038101908080359060200190929190803590602001909291905050506141e8565b005b348015610af057600080fd5b50610af9614431565b604051808215151515815260200191505060405180910390f35b348015610b1f57600080fd5b50610b28614444565b6040518082815260200191505060405180910390f35b348015610b4a57600080fd5b50610bd7600480360381019080803573ffffffffffffffffffffffffffffffffffffffff169060200190929190803573ffffffffffffffffffffffffffffffffffffffff169060200190929190803573ffffffffffffffffffffffffffffffffffffffff16906020019092919080356000191690602001909291908035906020019092919050505061444a565b005b348015610be557600080fd5b50610bee6147f1565b6040518082815260200191505060405180910390f35b348015610c1057600080fd5b50610c3960048036038101908080359060200190929190803590602001909291905050506147f7565b005b348015610c4757600080fd5b50610c506149ad565b604051808273ffffffffffffffffffffffffffffffffffffffff1673ffffffffffffffffffffffffffffffffffffffff16815260200191505060405180910390f35b348015610c9e57600080fd5b50610ca76149d3565b6040518082815260200191505060405180910390f35b348015610cc957600080fd5b50610cd26149e1565b6040518082815260200191505060405180910390f35b348015610cf457600080fd5b50610d69600480360381019080803573ffffffffffffffffffffffffffffffffffffffff169060200190929190803573ffffffffffffffffffffffffffffffffffffffff169060200190929190803573ffffffffffffffffffffffffffffffffffffffff1690602001909291905050506149e7565b005b348015610d7757600080fd5b50610d80614ce8565b6040518082815260200191505060405180910390f35b348015610da257600080fd5b50610dab614cf5565b6040518082815260200191505060405180910390f35b348015610dcd57600080fd5b50610dee600480360381019080803515159060200190929190505050614cfb565b005b348015610dfc57600080fd5b50610e5460048036038101908080359060200190820180359060200190808060200260200160405190810160405280939291908181526020018383602002808284378201915050505050509192919290505050614d73565b005b348015610e6257600080fd5b50610ecb600480360381019080803573ffffffffffffffffffffffffffffffffffffffff169060200190929190803573ffffffffffffffffffffffffffffffffffffffff169060200190929190803590602001909291908035906020019092919050505061531b565b005b600160149054906101000a900460ff16151515610ee957600080fd5b600073ffffffffffffffffffffffffffffffffffffffff168273ffffffffffffffffffffffffffffffffffffffff1614151515610f8e576040517f08c379a000000000000000000000000000000000000000000000000000000000815260040180806020018281038252600f8152602001807f496e76616c6964206163636f756e74000000000000000000000000000000000081525060200191505060405180910390fd5b6000601460008473ffffffffffffffffffffffffffffffffffffffff1673ffffffffffffffffffffffffffffffffffffffff1681526020019081526020016000206000015414151561113f5761102f81601460008573ffffffffffffffffffffffffffffffffffffffff1673ffffffffffffffffffffffffffffffffffffffff16815260200190815260200160002060000154615eba90919063ffffffff16565b601460008473ffffffffffffffffffffffffffffffffffffffff1673ffffffffffffffffffffffffffffffffffffffff1681526020019081526020016000206000018190555061108a81600754615eba90919063ffffffff16565b6007819055508173ffffffffffffffffffffffffffffffffffffffff167fc20f316b11dd795635146cfac675b697062e789e5c33b400f13a4a02db2c9ae48242601460008773ffffffffffffffffffffffffffffffffffffffff1673ffffffffffffffffffffffffffffffffffffffff168152602001908152602001600020600001546007546040518085815260200184815260200183815260200182815260200194505050505060405180910390a261132d565b683635c9adc5dea0000081101515156111c0576040517f08c379a000000000000000000000000000000000000000000000000000000000815260040180806020018281038252600f8152602001807f496e76616c6964206465706f736974000000000000000000000000000000000081525060200191505060405180910390fd5b80601460008473ffffffffffffffffffffffffffffffffffffffff1673ffffffffffffffffffffffffffffffffffffffff168152602001908152602001600020600001819055506000601460008473ffffffffffffffffffffffffffffffffffffffff1673ffffffffffffffffffffffffffffffffffffffff16815260200190815260200160002060060160006101000a81548160ff02191690831515021790555042601460008473ffffffffffffffffffffffffffffffffffffffff1673ffffffffffffffffffffffffffffffffffffffff168152602001908152602001600020600701819055506112be81600754615eba90919063ffffffff16565b6007819055508173ffffffffffffffffffffffffffffffffffffffff167fc20f316b11dd795635146cfac675b697062e789e5c33b400f13a4a02db2c9ae48242846007546040518085815260200184815260200183815260200182815260200194505050505060405180910390a25b5050565b60095481565b600f60009054906101000a900460ff1681565b60008060008060009054906101000a900473ffffffffffffffffffffffffffffffffffffffff1673ffffffffffffffffffffffffffffffffffffffff163373ffffffffffffffffffffffffffffffffffffffff161415156113aa57600080fd5b600160149054906101000a900460ff161515156113c657600080fd5b601354421180156113d957506000600554115b80156113f15750600f60009054906101000a900460ff165b1515611465576040517f08c379a000000000000000000000000000000000000000000000000000000000815260040180806020018281038252601e8152602001807f4e6f7420616c6c6f77656420746f206c6f74746572206a757374206e6f77000081525060200191505060405180910390fd5b611479865186615edb90919063ffffffff16565b611490600654600554615f1990919063ffffffff16565b1015151561152c576040517f08c379a00000000000000000000000000000000000000000000000000000000081526004018080602001828103825260248152602001807f5468657265206973206e6f20656e6f75676820626f6e757320666f72206c6f7481526020017f746572790000000000000000000000000000000000000000000000000000000081525060400191505060405180910390fd5b8360001415801561153e575084600014155b15156115b2576040517f08c379a00000000000000000000000000000000000000000000000000000000081526004018080602001828103825260148152602001807f496e76616c6964206c6f7474657220626f6e757300000000000000000000000081525060200191505060405180910390fd5b600092505b8551831015611b215785838151811015156115ce57fe5b9060200190602002015191508173ffffffffffffffffffffffffffffffffffffffff16600073ffffffffffffffffffffffffffffffffffffffff161415151561167f576040517f08c379a000000000000000000000000000000000000000000000000000000000815260040180806020018281038252600f8152602001807f496e76616c6964206163636f756e74000000000000000000000000000000000081525060200191505060405180910390fd5b601460008373ffffffffffffffffffffffffffffffffffffffff1673ffffffffffffffffffffffffffffffffffffffff168152602001908152602001600020600001546000141580156117145750601460008373ffffffffffffffffffffffffffffffffffffffff1673ffffffffffffffffffffffffffffffffffffffff168152602001908152602001600020600101546000145b1515611788576040517f08c379a00000000000000000000000000000000000000000000000000000000081526004018080602001828103825260138152602001807f496e76616c6964206c6f7474657220696e666f0000000000000000000000000081525060200191505060405180910390fd5b601460008373ffffffffffffffffffffffffffffffffffffffff1673ffffffffffffffffffffffffffffffffffffffff16815260200190815260200160002060050154600014801561181c5750601460008373ffffffffffffffffffffffffffffffffffffffff1673ffffffffffffffffffffffffffffffffffffffff168152602001908152602001600020600401546000145b1515611890576040517f08c379a00000000000000000000000000000000000000000000000000000000081526004018080602001828103825260138152602001807f496e76616c6964206c6f7474657220696e666f0000000000000000000000000081525060200191505060405180910390fd5b84601460008473ffffffffffffffffffffffffffffffffffffffff1673ffffffffffffffffffffffffffffffffffffffff1681526020019081526020016000206005018190555083601460008473ffffffffffffffffffffffffffffffffffffffff1673ffffffffffffffffffffffffffffffffffffffff168152602001908152602001600020600401819055506119b5601460008473ffffffffffffffffffffffffffffffffffffffff1673ffffffffffffffffffffffffffffffffffffffff16815260200190815260200160002060050154601460008573ffffffffffffffffffffffffffffffffffffffff1673ffffffffffffffffffffffffffffffffffffffff16815260200190815260200160002060000154615eba90919063ffffffff16565b90506001601460008473ffffffffffffffffffffffffffffffffffffffff1673ffffffffffffffffffffffffffffffffffffffff16815260200190815260200160002060060160006101000a81548160ff021916908315150217905550611a2785600654615eba90919063ffffffff16565b6006819055508173ffffffffffffffffffffffffffffffffffffffff166108fc829081150290604051600060405180830381858888f19350505050158015611a73573d6000803e3d6000fd5b508173ffffffffffffffffffffffffffffffffffffffff167f2137fd738154e3eb7e49be226ff95942cfd91a7f3c1ad128964386b83e015f59601460008573ffffffffffffffffffffffffffffffffffffffff1673ffffffffffffffffffffffffffffffffffffffff16815260200190815260200160002060000154878760405180848152602001838152602001828152602001935050505060405180910390a282806001019350506115b7565b505050505050565b600080600160149054906101000a900460ff16151515611b4857600080fd5b6000809054906101000a900473ffffffffffffffffffffffffffffffffffffffff1673ffffffffffffffffffffffffffffffffffffffff163373ffffffffffffffffffffffffffffffffffffffff16141515611ba357600080fd5b60026007811115611bb057fe5b600460149054906101000a900460ff166007811115611bcb57fe5b141515611c66576040517f08c379a00000000000000000000000000000000000000000000000000000000081526004018080602001828103825260248152602001807f43616e6e6f74207265766f6b65206e6f6e2d7374616b6572277320617373657481526020017f206e6f770000000000000000000000000000000000000000000000000000000081525060400191505060405180910390fd5b600091505b8251821015612066578282815181101515611c8257fe5b9060200190602002015190508073ffffffffffffffffffffffffffffffffffffffff16600073ffffffffffffffffffffffffffffffffffffffff1614158015611d0e5750601460008273ffffffffffffffffffffffffffffffffffffffff1673ffffffffffffffffffffffffffffffffffffffff16815260200190815260200160002060000154600014155b1515611d82576040517f08c379a00000000000000000000000000000000000000000000000000000000081526004018080602001828103825260168152602001807f496e76616c6964206465706f7369746f7220696e666f0000000000000000000081525060200191505060405180910390fd5b601460008273ffffffffffffffffffffffffffffffffffffffff1673ffffffffffffffffffffffffffffffffffffffff168152602001908152602001600020600101546000148015611e275750601460008273ffffffffffffffffffffffffffffffffffffffff1673ffffffffffffffffffffffffffffffffffffffff16815260200190815260200160002060060160009054906101000a900460ff16151560001515145b1515611e9b576040517f08c379a00000000000000000000000000000000000000000000000000000000081526004018080602001828103825260168152602001807f496e76616c6964206465706f7369746f7220696e666f0000000000000000000081525060200191505060405180910390fd5b6001601460008373ffffffffffffffffffffffffffffffffffffffff1673ffffffffffffffffffffffffffffffffffffffff16815260200190815260200160002060060160006101000a81548160ff0219169083151502179055508073ffffffffffffffffffffffffffffffffffffffff166108fc601460008473ffffffffffffffffffffffffffffffffffffffff1673ffffffffffffffffffffffffffffffffffffffff168152602001908152602001600020600001549081150290604051600060405180830381858888f19350505050158015611f7e573d6000803e3d6000fd5b508073ffffffffffffffffffffffffffffffffffffffff167f7ab50b9e39679271849e9516eb6b69c58116d7b96fe610207cfdf9f98dcf8825601460008473ffffffffffffffffffffffffffffffffffffffff1673ffffffffffffffffffffffffffffffffffffffff16815260200190815260200160002060000154601460008573ffffffffffffffffffffffffffffffffffffffff1673ffffffffffffffffffffffffffffffffffffffff16815260200190815260200160002060050154604051808381526020018281526020019250505060405180910390a28180600101925050611c6b565b505050565b600460149054906101000a900460ff1681565b6000806000806000600160149054906101000a900460ff161515156120a257600080fd5b6000809054906101000a900473ffffffffffffffffffffffffffffffffffffffff1673ffffffffffffffffffffffffffffffffffffffff163373ffffffffffffffffffffffffffffffffffffffff161415156120fd57600080fd5b600360009054906101000a900473ffffffffffffffffffffffffffffffffffffffff1673ffffffffffffffffffffffffffffffffffffffff16600073ffffffffffffffffffffffffffffffffffffffff161415801561218957508573ffffffffffffffffffffffffffffffffffffffff16600073ffffffffffffffffffffffffffffffffffffffff1614155b1515612223576040517f08c379a00000000000000000000000000000000000000000000000000000000081526004018080602001828103825260248152602001807f496e76616c696420746f6b656e206f726967696e616c20636861696e2061646481526020017f726573730000000000000000000000000000000000000000000000000000000081525060400191505060405180910390fd5b601154421180156122995750601560008773ffffffffffffffffffffffffffffffffffffffff1673ffffffffffffffffffffffffffffffffffffffff16815260200190815260200160002060010160009054906101000a900460ff16600781111561228a57fe5b6005600781111561229757fe5b145b151561230d576040517f08c379a00000000000000000000000000000000000000000000000000000000081526004018080602001828103825260178152602001807f63616e6e6f7420776974686472617720736d67206e6f7700000000000000000081525060200191505060405180910390fd5b3073ffffffffffffffffffffffffffffffffffffffff1631945060405180807f736d6757697468647261774465706f736974427944656c65676174652861646481526020017f726573732c616464726573732900000000000000000000000000000000000000815250602d01905060405180910390209350600260009054906101000a900473ffffffffffffffffffffffffffffffffffffffff1673ffffffffffffffffffffffffffffffffffffffff16847c0100000000000000000000000000000000000000000000000000000000900487600360009054906101000a900473ffffffffffffffffffffffffffffffffffffffff166040518363ffffffff167c0100000000000000000000000000000000000000000000000000000000028152600401808373ffffffffffffffffffffffffffffffffffffffff1673ffffffffffffffffffffffffffffffffffffffff1681526020018273ffffffffffffffffffffffffffffffffffffffff1673ffffffffffffffffffffffffffffffffffffffff168152602001925050506000604051808303816000875af1925050509250821515612549576040517f08c379a00000000000000000000000000000000000000000000000000000000081526004018080602001828103825260238152602001807f736d6757697468647261774465706f736974427944656c65676174652066616981526020017f6c6564000000000000000000000000000000000000000000000000000000000081525060400191505060405180910390fd5b3073ffffffffffffffffffffffffffffffffffffffff163191506125768583615f1990919063ffffffff16565b905061258d81600a54615f1990919063ffffffff16565b600a819055506125a96001600b54615f1990919063ffffffff16565b600b819055506006601560008873ffffffffffffffffffffffffffffffffffffffff1673ffffffffffffffffffffffffffffffffffffffff16815260200190815260200160002060010160006101000a81548160ff0219169083600781111561260e57fe5b021790555080601560008873ffffffffffffffffffffffffffffffffffffffff1673ffffffffffffffffffffffffffffffffffffffff16815260200190815260200160002060020181905550600b546000141561268a576006600460146101000a81548160ff0219169083600781111561268457fe5b02179055505b600360009054906101000a900473ffffffffffffffffffffffffffffffffffffffff1673ffffffffffffffffffffffffffffffffffffffff168673ffffffffffffffffffffffffffffffffffffffff16600260009054906101000a900473ffffffffffffffffffffffffffffffffffffffff1673ffffffffffffffffffffffffffffffffffffffff167fa2c9b0e3d56a679d15b7b655abc6e6e59ca4cbec73e4cafe461bd8080b8576db84600a54604051808381526020018281526020019250505060405180910390a4505050505050565b6a034f086f3b33b68400000081565b600160149054906101000a900460ff1615151561278757600080fd5b6000809054906101000a900473ffffffffffffffffffffffffffffffffffffffff1673ffffffffffffffffffffffffffffffffffffffff163373ffffffffffffffffffffffffffffffffffffffff161415156127e257600080fd5b60003411151561285a576040517f08c379a000000000000000000000000000000000000000000000000000000000815260040180806020018281038252600d8152602001807f496e76616c696420626f6e75730000000000000000000000000000000000000081525060200191505060405180910390fd5b61286f34600c54615eba90919063ffffffff16565b600c819055506128a0600954612892612710600c54615edb90919063ffffffff16565b615f3a90919063ffffffff16565b600d819055503373ffffffffffffffffffffffffffffffffffffffff167facf918fc4ac79816a66da606cf3c4a9be86923a149470bd6058b49eb99caeb5a34600c54604051808381526020018281526020019250505060405180910390a2565b600360009054906101000a900473ffffffffffffffffffffffffffffffffffffffff1681565b6000809054906101000a900473ffffffffffffffffffffffffffffffffffffffff1673ffffffffffffffffffffffffffffffffffffffff163373ffffffffffffffffffffffffffffffffffffffff1614151561298157600080fd5b600160149054906101000a900460ff1615151561299d57600080fd5b6002600460146101000a81548160ff021916908360078111156129bc57fe5b0217905550565b6000806000600160149054906101000a900460ff161515156129e457600080fd5b6000809054906101000a900473ffffffffffffffffffffffffffffffffffffffff1673ffffffffffffffffffffffffffffffffffffffff163373ffffffffffffffffffffffffffffffffffffffff16141515612a3f57600080fd5b6000600c54111515612adf576040517f08c379a00000000000000000000000000000000000000000000000000000000081526004018080602001828103825260238152602001807f54686520426f6e75732066726f6d2062756e64206861736e277420696e6a656381526020017f746564000000000000000000000000000000000000000000000000000000000081525060400191505060405180910390fd5b60115442118015612b15575060066007811115612af857fe5b600460149054906101000a900460ff166007811115612b1357fe5b145b1515612b89576040517f08c379a00000000000000000000000000000000000000000000000000000000081526004018080602001828103825260208152602001807f43616e6e6f74207265766f6b65207374616b65722773206173736574206e6f7781525060200191505060405180910390fd5b600092505b8351831015613310578383815181101515612ba557fe5b9060200190602002015191508173ffffffffffffffffffffffffffffffffffffffff16600073ffffffffffffffffffffffffffffffffffffffff1614158015612c315750601460008373ffffffffffffffffffffffffffffffffffffffff1673ffffffffffffffffffffffffffffffffffffffff16815260200190815260200160002060000154600014155b1515612ca5576040517f08c379a00000000000000000000000000000000000000000000000000000000081526004018080602001828103825260168152602001807f496e76616c69642061636f756e7420616464726573730000000000000000000081525060200191505060405180910390fd5b601460008373ffffffffffffffffffffffffffffffffffffffff1673ffffffffffffffffffffffffffffffffffffffff16815260200190815260200160002060010154600014158015612d4b5750601460008373ffffffffffffffffffffffffffffffffffffffff1673ffffffffffffffffffffffffffffffffffffffff16815260200190815260200160002060060160009054906101000a900460ff16151560001515145b1515612dbf576040517f08c379a00000000000000000000000000000000000000000000000000000000081526004018080602001828103825260138152602001807f496e76616c6964207374616b657220696e666f0000000000000000000000000081525060200191505060405180910390fd5b612e2a612710612e1c600d54601460008773ffffffffffffffffffffffffffffffffffffffff1673ffffffffffffffffffffffffffffffffffffffff16815260200190815260200160002060020154615edb90919063ffffffff16565b615f3a90919063ffffffff16565b601460008473ffffffffffffffffffffffffffffffffffffffff1673ffffffffffffffffffffffffffffffffffffffff16815260200190815260200160002060030181905550612f07601460008473ffffffffffffffffffffffffffffffffffffffff1673ffffffffffffffffffffffffffffffffffffffff16815260200190815260200160002060030154601460008573ffffffffffffffffffffffffffffffffffffffff1673ffffffffffffffffffffffffffffffffffffffff16815260200190815260200160002060000154615eba90919063ffffffff16565b90506001601460008473ffffffffffffffffffffffffffffffffffffffff1673ffffffffffffffffffffffffffffffffffffffff16815260200190815260200160002060060160006101000a81548160ff021916908315150217905550601460008373ffffffffffffffffffffffffffffffffffffffff1673ffffffffffffffffffffffffffffffffffffffff1681526020019081526020016000206000015460085410151515613046576040517f08c379a00000000000000000000000000000000000000000000000000000000081526004018080602001828103825260358152602001807f5468657265206973206e6f7420656e6f756768206465706f736974206c65667481526020017f20666f72206465706f736974207265766f6b696e67000000000000000000000081525060400191505060405180910390fd5b61309d601460008473ffffffffffffffffffffffffffffffffffffffff1673ffffffffffffffffffffffffffffffffffffffff16815260200190815260200160002060000154600854615f1990919063ffffffff16565b600881905550601460008373ffffffffffffffffffffffffffffffffffffffff1673ffffffffffffffffffffffffffffffffffffffff16815260200190815260200160002060030154600c5410151515613185576040517f08c379a00000000000000000000000000000000000000000000000000000000081526004018080602001828103825260318152602001807f5468657265206973206e6f7420656e6f75676820626f6e7573206c656674206681526020017f6f7220626f6e757320646973706174636800000000000000000000000000000081525060400191505060405180910390fd5b6131dc601460008473ffffffffffffffffffffffffffffffffffffffff1673ffffffffffffffffffffffffffffffffffffffff16815260200190815260200160002060030154600c54615f1990919063ffffffff16565b600c819055508173ffffffffffffffffffffffffffffffffffffffff166108fc829081150290604051600060405180830381858888f19350505050158015613228573d6000803e3d6000fd5b508173ffffffffffffffffffffffffffffffffffffffff167f89852a998103adb99e16781c01326ee0cd254a9381a5c87d7e8b56a1651554d6601460008573ffffffffffffffffffffffffffffffffffffffff1673ffffffffffffffffffffffffffffffffffffffff16815260200190815260200160002060000154601460008673ffffffffffffffffffffffffffffffffffffffff1673ffffffffffffffffffffffffffffffffffffffff16815260200190815260200160002060030154604051808381526020018281526020019250505060405180910390a28280600101935050612b8e565b50505050565b6000809054906101000a900473ffffffffffffffffffffffffffffffffffffffff1673ffffffffffffffffffffffffffffffffffffffff163373ffffffffffffffffffffffffffffffffffffffff1614151561337157600080fd5b600160149054906101000a900460ff1615151561338d57600080fd5b6003600460146101000a81548160ff021916908360078111156133ac57fe5b0217905550565b60156020528060005260406000206000915090508060000154908060010160009054906101000a900460ff16908060020154905083565b6000809054906101000a900473ffffffffffffffffffffffffffffffffffffffff1673ffffffffffffffffffffffffffffffffffffffff163373ffffffffffffffffffffffffffffffffffffffff1614151561344557600080fd5b600160149054906101000a900460ff1615151561346157600080fd5b6007600460146101000a81548160ff0219169083600781111561348057fe5b0217905550565b60146020528060005260406000206000915090508060000154908060010154908060020154908060030154908060040154908060050154908060060160009054906101000a900460ff16908060070154905088565b600160149054906101000a900460ff1615156134f757600080fd5b6000809054906101000a900473ffffffffffffffffffffffffffffffffffffffff1673ffffffffffffffffffffffffffffffffffffffff163373ffffffffffffffffffffffffffffffffffffffff1614151561355257600080fd5b60078081111561355e57fe5b600460149054906101000a900460ff16600781111561357957fe5b1415156135ee576040517f08c379a00000000000000000000000000000000000000000000000000000000081526004018080602001828103825260178152602001807f63616e6e6f7420646573747275637420736d67206e6f7700000000000000000081525060200191505060405180910390fd5b6000809054906101000a900473ffffffffffffffffffffffffffffffffffffffff1673ffffffffffffffffffffffffffffffffffffffff16ff5b60075481565b60055481565b600080600160149054906101000a900460ff1615151561365357600080fd5b6000809054906101000a900473ffffffffffffffffffffffffffffffffffffffff1673ffffffffffffffffffffffffffffffffffffffff163373ffffffffffffffffffffffffffffffffffffffff161415156136ae57600080fd5b600360009054906101000a900473ffffffffffffffffffffffffffffffffffffffff1673ffffffffffffffffffffffffffffffffffffffff16600073ffffffffffffffffffffffffffffffffffffffff161415801561373a57508273ffffffffffffffffffffffffffffffffffffffff16600073ffffffffffffffffffffffffffffffffffffffff1614155b15156137d4576040517f08c379a00000000000000000000000000000000000000000000000000000000081526004018080602001828103825260248152602001807f496e76616c696420746f6b656e206f726967696e616c20636861696e2061646481526020017f726573730000000000000000000000000000000000000000000000000000000081525060400191505060405180910390fd5b6011544211801561384a5750601560008473ffffffffffffffffffffffffffffffffffffffff1673ffffffffffffffffffffffffffffffffffffffff16815260200190815260200160002060010160009054906101000a900460ff16600781111561383b57fe5b6004600781111561384857fe5b145b15156138be576040517f08c379a00000000000000000000000000000000000000000000000000000000081526004018080602001828103825260198152602001807f63616e6e6f7420756e726567697374657220736d67206e6f770000000000000081525060200191505060405180910390fd5b60405180807f736d674170706c79556e7265676973746572427944656c65676174652861646481526020017f726573732c616464726573732900000000000000000000000000000000000000815250602d01905060405180910390209150600260009054906101000a900473ffffffffffffffffffffffffffffffffffffffff1673ffffffffffffffffffffffffffffffffffffffff16827c0100000000000000000000000000000000000000000000000000000000900484600360009054906101000a900473ffffffffffffffffffffffffffffffffffffffff166040518363ffffffff167c0100000000000000000000000000000000000000000000000000000000028152600401808373ffffffffffffffffffffffffffffffffffffffff1673ffffffffffffffffffffffffffffffffffffffff1681526020018273ffffffffffffffffffffffffffffffffffffffff1673ffffffffffffffffffffffffffffffffffffffff168152602001925050506000604051808303816000875af1925050509050801515613ae0576040517f08c379a00000000000000000000000000000000000000000000000000000000081526004018080602001828103825260238152602001807f736d674170706c79556e7265676973746572427944656c65676174652066616981526020017f6c6564000000000000000000000000000000000000000000000000000000000081525060400191505060405180910390fd5b6005601560008573ffffffffffffffffffffffffffffffffffffffff1673ffffffffffffffffffffffffffffffffffffffff16815260200190815260200160002060010160006101000a81548160ff02191690836007811115613b3f57fe5b0217905550600360009054906101000a900473ffffffffffffffffffffffffffffffffffffffff1673ffffffffffffffffffffffffffffffffffffffff168373ffffffffffffffffffffffffffffffffffffffff16600260009054906101000a900473ffffffffffffffffffffffffffffffffffffffff1673ffffffffffffffffffffffffffffffffffffffff167f3d6fcd8dfdf7685ab351f5ea9d5349ec72361cee570ac682ce4487eba464e23460405160405180910390a4505050565b600460009054906101000a900473ffffffffffffffffffffffffffffffffffffffff1681565b600e5481565b60065481565b60125481565b600160009054906101000a900473ffffffffffffffffffffffffffffffffffffffff1673ffffffffffffffffffffffffffffffffffffffff163373ffffffffffffffffffffffffffffffffffffffff161415613cef57600160009054906101000a900473ffffffffffffffffffffffffffffffffffffffff166000806101000a81548173ffffffffffffffffffffffffffffffffffffffff021916908373ffffffffffffffffffffffffffffffffffffffff1602179055505b565b600260009054906101000a900473ffffffffffffffffffffffffffffffffffffffff1681565b600d5481565b60135481565b6000809054906101000a900473ffffffffffffffffffffffffffffffffffffffff1681565b600a5481565b600080600160149054906101000a900460ff16151515613d6d57600080fd5b6000809054906101000a900473ffffffffffffffffffffffffffffffffffffffff1673ffffffffffffffffffffffffffffffffffffffff163373ffffffffffffffffffffffffffffffffffffffff16141515613dc857600080fd5b600034118015613dd85750600083115b1515613e72576040517f08c379a00000000000000000000000000000000000000000000000000000000081526004018080602001828103825260328152602001807f496e76616c6964206c6f747465727920696e666f2c20706c6561736520636f6e81526020017f6669726d206c6f747465727920626f6e7573000000000000000000000000000081525060400191505060405180910390fd5b600460009054906101000a900473ffffffffffffffffffffffffffffffffffffffff1673ffffffffffffffffffffffffffffffffffffffff16600073ffffffffffffffffffffffffffffffffffffffff1614151515613f39576040517f08c379a00000000000000000000000000000000000000000000000000000000081526004018080602001828103825260188152602001807f496e76616c6964206c6f747465727920696e7374616e6365000000000000000081525060200191505060405180910390fd5b613f4e34600554615eba90919063ffffffff16565b60058190555060405180807f736574536d674c6f7474657279496e666f2875696e743235362c75696e74323581526020017f3629000000000000000000000000000000000000000000000000000000000000815250602201905060405180910390209150600460009054906101000a900473ffffffffffffffffffffffffffffffffffffffff1673ffffffffffffffffffffffffffffffffffffffff16827c01000000000000000000000000000000000000000000000000000000009004600554856040518363ffffffff167c010000000000000000000000000000000000000000000000000000000002815260040180838152602001828152602001925050506000604051808303816000875af19250505090508015156140d8576040517f08c379a00000000000000000000000000000000000000000000000000000000081526004018080602001828103825260188152602001807f736574536d674c6f7474657279496e666f206661696c6564000000000000000081525060200191505060405180910390fd5b3373ffffffffffffffffffffffffffffffffffffffff167f38676a0d5f24a70ab4e5012049b70074d7bd6f6bc0613b571d582270cf99fb8d346005548660405180848152602001838152602001828152602001935050505060405180910390a2505050565b60085481565b6000809054906101000a900473ffffffffffffffffffffffffffffffffffffffff1673ffffffffffffffffffffffffffffffffffffffff163373ffffffffffffffffffffffffffffffffffffffff1614151561419e57600080fd5b80600160006101000a81548173ffffffffffffffffffffffffffffffffffffffff021916908373ffffffffffffffffffffffffffffffffffffffff16021790555050565b600c5481565b600160149054906101000a900460ff16151561420357600080fd5b6000809054906101000a900473ffffffffffffffffffffffffffffffffffffffff1673ffffffffffffffffffffffffffffffffffffffff163373ffffffffffffffffffffffffffffffffffffffff1614151561425e57600080fd5b60135460001415801561427f57506010546000148061427e575060105442105b5b1515614319576040517f08c379a00000000000000000000000000000000000000000000000000000000081526004018080602001828103825260238152602001807f43616e6e6f7420636f6e666967207374616b696e672074696d6520616e79206d81526020017f6f7265000000000000000000000000000000000000000000000000000000000081525060400191505060405180910390fd5b4282118015614329575060135482115b151561439d576040517f08c379a000000000000000000000000000000000000000000000000000000000815260040180806020018281038252601a8152602001807f496e76616c69642072756e6e696e672073746172742074696d6500000000000081525060200191505060405180910390fd5b42811180156143ab57508082105b151561441f576040517f08c379a00000000000000000000000000000000000000000000000000000000081526004018080602001828103825260188152602001807f496e76616c69642072756e6e696e6720656e642074696d65000000000000000081525060200191505060405180910390fd5b81601081905550806011819055505050565b600160149054906101000a900460ff1681565b61271081565b600160149054906101000a900460ff1615151561446657600080fd5b6000809054906101000a900473ffffffffffffffffffffffffffffffffffffffff1673ffffffffffffffffffffffffffffffffffffffff163373ffffffffffffffffffffffffffffffffffffffff161415156144c157600080fd5b8273ffffffffffffffffffffffffffffffffffffffff16600073ffffffffffffffffffffffffffffffffffffffff161415801561452b57508473ffffffffffffffffffffffffffffffffffffffff16600073ffffffffffffffffffffffffffffffffffffffff1614155b801561456457508373ffffffffffffffffffffffffffffffffffffffff16600073ffffffffffffffffffffffffffffffffffffffff1614155b15156145d8576040517f08c379a00000000000000000000000000000000000000000000000000000000081526004018080602001828103825260168152602001807f496e76616c696420616464726573732076616c7565210000000000000000000081525060200191505060405180910390fd5b6000811180156145f45750816000191660006001026000191614155b151561468e576040517f08c379a00000000000000000000000000000000000000000000000000000000081526004018080602001828103825260328152602001807f496e76616c69642068617368285829206f7220646562742076616c75652c207081526020017f6c6561736520636865636b20616761696e21000000000000000000000000000081525060400191505060405180910390fd5b601154421180156146c45750600460078111156146a757fe5b600460149054906101000a900460ff1660078111156146c257fe5b145b151561475e576040517f08c379a00000000000000000000000000000000000000000000000000000000081526004018080602001828103825260248152602001807f446f206e6f74207472616e7366657220736d672773206465627420726967687481526020017f206e6f770000000000000000000000000000000000000000000000000000000081525060400191505060405180910390fd5b8273ffffffffffffffffffffffffffffffffffffffff168473ffffffffffffffffffffffffffffffffffffffff168673ffffffffffffffffffffffffffffffffffffffff167f2890c2d4106c7415e96a95ede6776792275fbd5ae929c545429f80cf507119f485856040518083600019166000191681526020018281526020019250505060405180910390a45050505050565b60115481565b600160149054906101000a900460ff16151561481257600080fd5b6000809054906101000a900473ffffffffffffffffffffffffffffffffffffffff1673ffffffffffffffffffffffffffffffffffffffff163373ffffffffffffffffffffffffffffffffffffffff1614151561486d57600080fd5b6012546000148061487f575060125442105b1515614919576040517f08c379a00000000000000000000000000000000000000000000000000000000081526004018080602001828103825260238152602001807f43616e6e6f7420636f6e666967207374616b696e672074696d6520616e79206d81526020017f6f7265000000000000000000000000000000000000000000000000000000000081525060400191505060405180910390fd5b428211801561492757508082105b151561499b576040517f08c379a00000000000000000000000000000000000000000000000000000000081526004018080602001828103825260148152602001807f496e76616c6964207374616b696e672074696d6500000000000000000000000081525060200191505060405180910390fd5b81601281905550806013819055505050565b600160009054906101000a900473ffffffffffffffffffffffffffffffffffffffff1681565b69010f0cf064dd5920000081565b600b5481565b600160149054906101000a900460ff161515614a0257600080fd5b6000809054906101000a900473ffffffffffffffffffffffffffffffffffffffff1673ffffffffffffffffffffffffffffffffffffffff163373ffffffffffffffffffffffffffffffffffffffff16141515614a5d57600080fd5b600073ffffffffffffffffffffffffffffffffffffffff168373ffffffffffffffffffffffffffffffffffffffff1614158015614ac75750600073ffffffffffffffffffffffffffffffffffffffff168273ffffffffffffffffffffffffffffffffffffffff1614155b8015614b005750600073ffffffffffffffffffffffffffffffffffffffff168173ffffffffffffffffffffffffffffffffffffffff1614155b1515614b74576040517f08c379a000000000000000000000000000000000000000000000000000000000815260040180806020018281038252601b8152602001807f74686973206973206e6f742076616c696420736d672061646d696e000000000081525060200191505060405180910390fd5b601054421080614b8657506010546000145b1515614c20576040517f08c379a00000000000000000000000000000000000000000000000000000000081526004018080602001828103825260288152602001807f536d6741646472206d75737420626520736574206265666f72652072756e6e6981526020017f6e6720737461727400000000000000000000000000000000000000000000000081525060400191505060405180910390fd5b82600260006101000a81548173ffffffffffffffffffffffffffffffffffffffff021916908373ffffffffffffffffffffffffffffffffffffffff16021790555081600460006101000a81548173ffffffffffffffffffffffffffffffffffffffff021916908373ffffffffffffffffffffffffffffffffffffffff16021790555080600360006101000a81548173ffffffffffffffffffffffffffffffffffffffff021916908373ffffffffffffffffffffffffffffffffffffffff160217905550505050565b683635c9adc5dea0000081565b60105481565b6000809054906101000a900473ffffffffffffffffffffffffffffffffffffffff1673ffffffffffffffffffffffffffffffffffffffff163373ffffffffffffffffffffffffffffffffffffffff16141515614d5657600080fd5b80600160146101000a81548160ff02191690831515021790555050565b6000806000806000809054906101000a900473ffffffffffffffffffffffffffffffffffffffff1673ffffffffffffffffffffffffffffffffffffffff163373ffffffffffffffffffffffffffffffffffffffff16141515614dd457600080fd5b600160149054906101000a900460ff16151515614df057600080fd5b600f60009054906101000a900460ff16158015614e0e575060135442115b1515614e82576040517f08c379a00000000000000000000000000000000000000000000000000000000081526004018080602001828103825260208152602001807f496e76616c6964207374616b65722073657474696e67206f7065726174696f6e81525060200191505060405180910390fd5b600460149054906101000a900460ff166007811115614e9d57fe5b60016007811115614eaa57fe5b141515614ed6576001600460146101000a81548160ff02191690836007811115614ed057fe5b02179055505b600093505b845184101561531457600f60009054906101000a900460ff1615614efe57615314565b8484815181101515614f0c57fe5b9060200190602002015192508273ffffffffffffffffffffffffffffffffffffffff16600073ffffffffffffffffffffffffffffffffffffffff1614158015614fa05750601460008473ffffffffffffffffffffffffffffffffffffffff1673ffffffffffffffffffffffffffffffffffffffff16815260200190815260200160002060000154683635c9adc5dea0000011155b1515615014576040517f08c379a00000000000000000000000000000000000000000000000000000000081526004018080602001828103825260138152602001807f496e76616c6964207374616b657220696e666f0000000000000000000000000081525060200191505060405180910390fd5b601460008473ffffffffffffffffffffffffffffffffffffffff1673ffffffffffffffffffffffffffffffffffffffff1681526020019081526020016000206001015460001480156150a85750601460008473ffffffffffffffffffffffffffffffffffffffff1673ffffffffffffffffffffffffffffffffffffffff168152602001908152602001600020600201546000145b151561511c576040517f08c379a00000000000000000000000000000000000000000000000000000000081526004018080602001828103825260138152602001807f496e76616c6964207374616b657220696e666f0000000000000000000000000081525060200191505060405180910390fd5b601460008473ffffffffffffffffffffffffffffffffffffffff1673ffffffffffffffffffffffffffffffffffffffff16815260200190815260200160002060000154915069010f0cf064dd592000008211156151855769010f0cf064dd592000009050615189565b8190505b61519f6001600e54615eba90919063ffffffff16565b600e8190555080601460008573ffffffffffffffffffffffffffffffffffffffff1673ffffffffffffffffffffffffffffffffffffffff16815260200190815260200160002060020181905550600e54601460008573ffffffffffffffffffffffffffffffffffffffff1673ffffffffffffffffffffffffffffffffffffffff1681526020019081526020016000206001018190555061524a81600954615eba90919063ffffffff16565b60098190555061526582600854615eba90919063ffffffff16565b6008819055506a034f086f3b33b68400000060085410151561529d576001600f60006101000a81548160ff0219169083151502179055505b8273ffffffffffffffffffffffffffffffffffffffff167fb3b9850d6d15bf4c44ecfe90ed171bff40a038470b950e0ec62645f39de43f478383600e546008546040518085815260200184815260200183815260200182815260200194505050505060405180910390a28380600101945050614edb565b5050505050565b6000806000809054906101000a900473ffffffffffffffffffffffffffffffffffffffff1673ffffffffffffffffffffffffffffffffffffffff163373ffffffffffffffffffffffffffffffffffffffff1614151561537957600080fd5b600160149054906101000a900460ff1615151561539557600080fd5b600360009054906101000a900473ffffffffffffffffffffffffffffffffffffffff1673ffffffffffffffffffffffffffffffffffffffff16600073ffffffffffffffffffffffffffffffffffffffff16141580156154215750600073ffffffffffffffffffffffffffffffffffffffff168673ffffffffffffffffffffffffffffffffffffffff1614155b801561545a5750600073ffffffffffffffffffffffffffffffffffffffff168573ffffffffffffffffffffffffffffffffffffffff1614155b15156154ce576040517f08c379a00000000000000000000000000000000000000000000000000000000081526004018080602001828103825260158152602001807f496e76616c696420746f6b656e2061646472657373000000000000000000000081525060200191505060405180910390fd5b601354421180156154ed57506011544210806154ec57506011546000145b5b1515615561576040517f08c379a000000000000000000000000000000000000000000000000000000000815260040180806020018281038252601e8152602001807f63616e6e6f742072656769737420736d6720746f2061646d696e206e6f77000081525060200191505060405180910390fd5b600460149054906101000a900460ff16600781111561557c57fe5b6003600781111561558957fe5b14806155ba5750600460149054906101000a900460ff1660078111156155ab57fe5b600460078111156155b857fe5b145b1515615654576040517f08c379a00000000000000000000000000000000000000000000000000000000081526004018080602001828103825260278152602001807f74686520736d672073746174752063616e6e6f7420737570706f72742072656781526020017f697374206e6f770000000000000000000000000000000000000000000000000081525060400191505060405180910390fd5b823073ffffffffffffffffffffffffffffffffffffffff1631101515156156e3576040517f08c379a00000000000000000000000000000000000000000000000000000000081526004018080602001828103825260138152602001807f496e76616c696420736d672062616c616e63650000000000000000000000000081525060200191505060405180910390fd5b6156f883600a54615eba90919063ffffffff16565b60085410151515615797576040517f08c379a000000000000000000000000000000000000000000000000000000000815260040180806020018281038252602c8152602001807f6e6f7420656e6f756768206465706f69737420666f722072656769737465722081526020017f736d6720746f2061646d696e000000000000000000000000000000000000000081525060400191505060405180910390fd5b601560008773ffffffffffffffffffffffffffffffffffffffff1673ffffffffffffffffffffffffffffffffffffffff16815260200190815260200160002060010160009054906101000a900460ff1660078111156157f257fe5b600660078111156157ff57fe5b141561592b57601560008773ffffffffffffffffffffffffffffffffffffffff1673ffffffffffffffffffffffffffffffffffffffff16815260200190815260200160002060020154601560008873ffffffffffffffffffffffffffffffffffffffff1673ffffffffffffffffffffffffffffffffffffffff16815260200190815260200160002060000154141515615926576040517f08c379a00000000000000000000000000000000000000000000000000000000081526004018080602001828103825260398152602001807f7468697320746f6b656e206861732074616b656e20616e20696e61636375726181526020017f6379206465706f736974207265766f6b65206265666f7265200000000000000081525060400191505060405180910390fd5b615a2f565b601560008773ffffffffffffffffffffffffffffffffffffffff1673ffffffffffffffffffffffffffffffffffffffff16815260200190815260200160002060010160009054906101000a900460ff16600781111561598657fe5b6000600781111561599357fe5b141515615a2e576040517f08c379a000000000000000000000000000000000000000000000000000000000815260040180806020018281038252602b8152602001807f7468697320746f6b656e2074797065206973206c69737465642062792074686581526020017f20736d67206279206e6f7700000000000000000000000000000000000000000081525060400191505060405180910390fd5b5b60405180807f73746f72656d616e47726f75705265676973746572427944656c65676174652881526020017f616464726573732c616464726573732c616464726573732c75696e7432353629815250604001905060405180910390209150600260009054906101000a900473ffffffffffffffffffffffffffffffffffffffff1673ffffffffffffffffffffffffffffffffffffffff1683837c010000000000000000000000000000000000000000000000000000000090049088600360009054906101000a900473ffffffffffffffffffffffffffffffffffffffff1689896040518663ffffffff167c0100000000000000000000000000000000000000000000000000000000028152600401808573ffffffffffffffffffffffffffffffffffffffff1673ffffffffffffffffffffffffffffffffffffffff1681526020018473ffffffffffffffffffffffffffffffffffffffff1673ffffffffffffffffffffffffffffffffffffffff1681526020018373ffffffffffffffffffffffffffffffffffffffff1673ffffffffffffffffffffffffffffffffffffffff16815260200182815260200194505050505060006040518083038185885af193505050509050801515615c69576040517f08c379a000000000000000000000000000000000000000000000000000000000815260040180806020018281038252601c8152602001807f73746f72656d616e47726f75705265676973746572206661696c65640000000081525060200191505060405180910390fd5b615c7e83600a54615eba90919063ffffffff16565b600a81905550615c9a6001600b54615eba90919063ffffffff16565b600b8190555082601560008873ffffffffffffffffffffffffffffffffffffffff1673ffffffffffffffffffffffffffffffffffffffff168152602001908152602001600020600001819055506004601560008873ffffffffffffffffffffffffffffffffffffffff1673ffffffffffffffffffffffffffffffffffffffff16815260200190815260200160002060010160006101000a81548160ff02191690836007811115615d4657fe5b02179055506000601560008873ffffffffffffffffffffffffffffffffffffffff1673ffffffffffffffffffffffffffffffffffffffff1681526020019081526020016000206002018190555060048060146101000a81548160ff02191690836007811115615db157fe5b0217905550600360009054906101000a900473ffffffffffffffffffffffffffffffffffffffff1673ffffffffffffffffffffffffffffffffffffffff168673ffffffffffffffffffffffffffffffffffffffff16600260009054906101000a900473ffffffffffffffffffffffffffffffffffffffff1673ffffffffffffffffffffffffffffffffffffffff167f3dc5524f298f3cfd48391182c2cff9299008b86b60cbc5bfc3da4fa1082d2fdb888789604051808473ffffffffffffffffffffffffffffffffffffffff1673ffffffffffffffffffffffffffffffffffffffff168152602001838152602001828152602001935050505060405180910390a4505050505050565b6000808284019050838110151515615ed157600080fd5b8091505092915050565b6000806000841415615ef05760009150615f12565b8284029050828482811515615f0157fe5b04141515615f0e57600080fd5b8091505b5092915050565b600080838311151515615f2b57600080fd5b82840390508091505092915050565b600080600083111515615f4c57600080fd5b8284811515615f5757fe5b04905080915050929150505600a165627a7a723058207b85a09fa4e3db03aadf9a73ab50b2200385654b73e5cca2636845b7a8c9a4360029",
  "source": "/*\n\n  Copyright 2018 Wanchain Foundation.\n\n  Licensed under the Apache License, Version 2.0 (the \"License\");\n  you may not use this file except in compliance with the License.\n  You may obtain a copy of the License at\n\n  http://www.apache.org/licenses/LICENSE-2.0\n\n  Unless required by applicable law or agreed to in writing, software\n  distributed under the License is distributed on an \"AS IS\" BASIS,\n  WITHOUT WARRANTIES OR CONDITIONS OF ANY KIND, either express or implied.\n  See the License for the specific language governing permissions and\n  limitations under the License.\n*/\n\n//                            _           _           _\n//  __      ____ _ _ __   ___| |__   __ _(_)_ __   __| | _____   __\n//  \\ \\ /\\ / / _` | '_ \\ / __| '_ \\ / _` | | '_ \\@/ _` |/ _ \\ \\ / /\n//   \\ V  V / (_| | | | | (__| | | | (_| | | | | | (_| |  __/\\ V /\n//    \\_/\\_/ \\__,_|_| |_|\\___|_| |_|\\__,_|_|_| |_|\\__,_|\\___| \\_/\n//\n//  Code style according to: https://github.com/wanchain/wanchain-token/blob/master/style-guide.rst\n\npragma solidity ^0.4.24;\n\nimport \"./SafeMath.sol\";\nimport \"./Halt.sol\";\n\ncontract StoremanGroup is Halt {\n\n    using SafeMath for uint;\n    enum SCStatus {Invalid,StakerElection,Lottery,Initial,Registered,Unregistered,Withdrawed,WorkDone}\n\n    ///the minumum deposit for each depositor which is reuqired by storeman group\n    uint public constant    DEFAULT_PRECISE     = 10000;\n    uint public constant    MIN_DEPOSIT         =    1000000000000000000000;\n    uint public constant    MAX_COMMISION_BASE  =    5000000000000000000000;\n    uint public constant    MAX_DEPOSIT_SUM     = 4000000000000000000000000; \n\n    ///the storeman group administration contract address\n    address public      storemanGroupAdmin;\n    address public      locatedMpcAddr;\n    address public      locatedLotteryAddr;\n\n    SCStatus public     scStatus = SCStatus.Invalid;\n\n    ///the total lottery bonus\n    uint public         totalLotteryBonus;\n\n    ///the distributed lottery bonus\n    uint public         distributedLotterBonus;\n\n    ///the total total deposit of smg during staking phase\n    uint public         totalStakingDeposit;\n\n    ///the final deposit of all stakers of smg\n    uint public         totalSmgDeposit;\n\n    ///the total amount of the effective deposit that's used to divide bonus\n    uint public         totalStakerQuota;\n\n    ///the deposited quota recorded\n    uint public         depositedQuota; \n\n    ///the number of supported token type \n    uint public         totalTokenTypeNum; \n\n    ///total bonus of smg from admin\n    uint public         totalBonus;\n\n    /// bonus commision per unit\n    uint public         bonusPerUnit;\n\n    ///total number of stakers\n    uint public         stakerNum;\n    \n    ///the flag which show whether the total deposit of smg stakers reach MAX_DEPOSIT_SUM\n    bool public         isReachedMaxDeposit = false;\n\n    ///storemanGroup running time\n    uint public         runningStartTime;\n    uint public         runningEndTime;\n\n    ///staking  time\n    uint public         stakingStartTime;\n    uint public         stakingEndTime;\n\n    struct BidderInfo{\n        uint    deposit;         //1 the deposit of this depositor          \n        uint    stakerRank;      //2 the rank of staker sequence       \n        uint    stakerQuota;     //3 the effective quota of deposit \n        uint    stakerBonus;     //4 the bonus for staker                    \n        uint    lotterRank;      //5 lotter rank     \n        uint    lotterBonus;     //6 lotter bonus            \n        bool    hasRevoked;      //7 if depositor has been revoked            \n        uint    bidTimeStamp;    //8 timestamp of the bidder's first deposit \n    }\n\n    struct tokenDeposit{\n        uint        deposit;      //1 the deposit of this depositor \n        SCStatus    statu;        //2 the statu of tokenDeposit      \n        uint        revokeQuota;  //3 the quota revoked from token  \n    }\n\n    ///the depositor info\n    mapping(address => BidderInfo) public   mapDepositorInfo;\n\n    ///the token supported (mapping: tokenOrigAddr -> tokenDeposit) \n    mapping(address => tokenDeposit) public mapTokenSmgStatus;\n\n    /**\n    *\n    * EVENTS\n    *\n    */\n    /// @notice                           event for staking record\n    /// @param _depositorAddr             depositor's address\n    /// @param _depositValue              deposit \n    /// @param _stakerAccumDeposit        accumulative deposit of depositor by now\n    /// @param _smgAccumDeposit           accumulative deposit of smg by now\n    /// @param _depositTimeStamp          accumulative deposit of smg by now\n    event StoremanGroupDepositLogger(address indexed _depositorAddr, uint256 _depositValue, uint256 _depositTimeStamp, uint256 _stakerAccumDeposit, uint256 _smgAccumDeposit);  \n    \n    /// @notice                           event for staker info\n    /// @param _stakerAddr                the address of staker\n    /// @param _depositValue              the deposit of staker\n    /// @param _quota                     the effective quota of staker, must more than 1000 and no more than 5000\n    /// @param _rank                      the rank of staker\n    /// @param _accumStakerDeposit        the accumulative deposit of staker that has confirmed by now  \n    event StoremanGroupStakerLogger(address indexed _stakerAddr, uint256 _depositValue, uint256 _quota, uint256 _rank, uint256 _accumStakerDeposit);  \n\n    /// @notice                           event for foundation to inject lottery bonus\n    /// @param _foundationAddr            the address of foundation\n    /// @param _bonus                     the bonus value injected for lottery\n    /// @param _totalLotterBonus          total bonus for lottery\n    /// @param _lotterNum                 total number of lottery\n    event StoremanGroupInjectLotteryBonusLogger(address indexed _foundationAddr, uint256 _bonus, uint256 _totalLotterBonus, uint256 _lotterNum); \n\n    /// @notice                           event for foundation to inject lottery bonus\n    /// @param _foundationAddr            the address of foundation\n    /// @param _bonus                     the bonus value injected for smg\n    /// @param _totalBonus                total bonus for smg by now\n    event StoremanGroupInjectSmgBonusLogger(address indexed _foundationAddr, uint256 _bonus, uint256 _totalBonus); \n\n    /// @notice                           event for lotter info\n    /// @param _lotterAddr                the address of lotter\n    /// @param _lotterDeposit             the deposit of lotter\n    /// @param _lotterBonus               the bonus of lotter\n    /// @param _lotterRank                lottery rank\n    event StoremanGroupLotteryLogger(address indexed _lotterAddr, uint256 _lotterDeposit, uint256 _lotterBonus, uint256 _lotterRank);\n\n    /// @notice                           event for smg to refeem  deposit from admin \n    /// @param _depositorAddr             the address of depositor \n    /// @param _deposit                   the deposit of depositor\n    /// @param _bonus                     the lotter bonus of depsoit \n    event DepositorRefeemAssertLogger(address indexed _depositorAddr, uint256 _deposit, uint256 _bonus);\n\n    /// @notice                           event for smg to refeem total bonus from admin\n    /// @param _smgAmin                   the address of smg admin\n    /// @param _tokenOrigAddr             token origin \n    /// @param _smgRegAddr                the storeman group register address  \n    /// @param _originalChainAddr         the storeman group info on original chain\n    /// @param _deposit                   total deposit that smg refeem from admin \n    event StoremanGroupApplyRegisterLogger(address indexed _smgAmin, address indexed _tokenOrigAddr, address indexed _smgRegAddr, address _originalChainAddr, uint256 _deposit, uint256 _txFeeRatio);\n\n    /// @notice                           event for smg to refeem total bonus from admin\n    /// @param _smgAmin                   the address of smg\n    /// @param _tokenOrigAddr             token origin address\n    /// @param _smgRegAddr                storemanGroup registed address \n    event StoremanGroupApplyUnRegisterLogger(address indexed _smgAmin, address indexed _tokenOrigAddr, address indexed _smgRegAddr);\n\n    /// @notice                           event for smg to refeem  deposit from admin \n    /// @param _smgAmin                   smg address\n    /// @param _tokenOrigAddr             token origin address\n    /// @param _smgRegAddr                the storeman group register address  \n    /// @param _depositRevoked            deposit that smg refeem from admin by one token type\n    /// @param _restDeposit               total rest deposit that still deposited in admin \n    event StoremanGroupRefeemDepositLogger(address indexed _smgAmin, address indexed _tokenOrigAddr, address indexed _smgRegAddr, uint256 _depositRevoked, uint256 _restDeposit);\n\n    /// @notice                           event for staker to refeem  assert from smg \n    /// @param _stakerAddr                the address of staker\n    /// @param _deposit                   the deposit of staker\n    /// @param _bonus                     staker's bonus deserved from smg  \n    event StakerRefeemAssetLogger(address indexed _stakerAddr, uint256 _deposit, uint256 _bonus);    \n    \n    /// @notice                           event of exchange WERC20 token with ERC20 token request\n    /// @param _objectSmgAddr             address of storemanGroup where debt will be transfered\n    /// @param _tokenOrigAddr             address of ERC20 token\n    /// @param _locatedMpcAddr            address of current smg locked Mpc eth address\n    /// @param xHash                     hash of random number x\n    /// @param _debtValue                 debt value of which needed to transfer to _objectSmgAddr\n    event StoremanGroupDebtTransferLogger(address indexed _objectSmgAddr, address indexed _tokenOrigAddr, address indexed _locatedMpcAddr, bytes32 xHash, uint256 _debtValue);\n    \n\n    /**\n     * MANIPULATIONS\n     */\n    /// @notice default transfer to contract\n    function () public payable {\n\n        if((now >= stakingStartTime) &&(now <= stakingEndTime)){\n            handleSmgStaking(msg.sender, msg.value);\n        }else if(msg.sender == storemanGroupAdmin){\n            \n        }else{\n            revert(\"invalid assets inject!\");\n        }\n    }\n\n    /// @notice                         for setting smg admin\n    /// @param _smgAdmin                smg admin address\n    /// @param _smgLottery              smg lottery sc address\n    /// @param _smgRegAddr              the storeman group register address\n    function InjectDependencies(address _smgAdmin,address _smgLottery,address _smgRegAddr)\n    public\n    isHalted\n    onlyOwner\n    {\n        require((_smgAdmin != address(0)) && (_smgLottery != address(0)) && (_smgRegAddr != address(0)), \"this is not valid smg admin\");\n        require((now < runningStartTime) || (0 == runningStartTime), \"SmgAddr must be set before running start\");\n\n        storemanGroupAdmin = _smgAdmin;\n        locatedLotteryAddr = _smgLottery;\n        locatedMpcAddr = _smgRegAddr;\n    }  \n  \n    /// @notice                         for setting start and stop time for staking phase\n    /// @param _stakingStartTime        staking start time\n    /// @param _stakingEndTime          staking end time \n    function setSmgStakingTime(uint256 _stakingStartTime, uint256 _stakingEndTime) \n    public \n    isHalted\n    onlyOwner\n    {\n        require((0 == stakingStartTime) || (now < stakingStartTime), \"Cannot config staking time any more\");\n        require((_stakingStartTime > now) && (_stakingStartTime < _stakingEndTime), \"Invalid staking time\");\n\n        stakingStartTime = _stakingStartTime;\n        stakingEndTime = _stakingEndTime;\n    }\n \n    /// @notice                         for setting start and stop time for running phase\n    /// @param _runningStartTime        smg running start time\n    function setSmgRunningTime(uint256 _runningStartTime, uint256 _runningEndTime) \n    public\n    isHalted      \n    onlyOwner\n    {\n        require((0 != stakingEndTime) && ((0 == runningStartTime) || (now < runningStartTime)), \"Cannot config staking time any more\");\n        require((_runningStartTime > now) && (_runningStartTime > stakingEndTime), \"Invalid running start time\");\n        require((_runningEndTime > now) && (_runningStartTime < _runningEndTime), \"Invalid running end time\");\n\n        runningStartTime = _runningStartTime;\n        runningEndTime = _runningEndTime;\n    }\n\n    /// @notice                         to record smg depositor info\n    /// @param _account                 the depositor address\n    /// @param _deposit                 the deposit value \n    function handleSmgStaking(address _account, uint256 _deposit)\n    private\n    notHalted\n    {\n        require(_account != address(0), \"Invalid account\");\n\n        if(mapDepositorInfo[_account].deposit != 0){\n            mapDepositorInfo[_account].deposit = mapDepositorInfo[_account].deposit.add(_deposit); \n\n            totalStakingDeposit = totalStakingDeposit.add(_deposit);\n            // emit depositor info \n            emit StoremanGroupDepositLogger(_account, _deposit, now, mapDepositorInfo[_account].deposit, totalStakingDeposit); \n        }else{\n            //construct mapDepositorInfo\n            require(_deposit >= MIN_DEPOSIT, \"Invalid deposit\");\n\n            mapDepositorInfo[_account].deposit = _deposit;\n            // mapDepositorInfo[_account].stakerQuota = 0;\n            // mapDepositorInfo[_account].stakerBonus = 0;\n            // mapDepositorInfo[_account].stakerRank = 0;\n            // mapDepositorInfo[_account].lotterRank = 0;\n            // mapDepositorInfo[_account].lotterBonus = 0;\n            mapDepositorInfo[_account].hasRevoked = false;\n            mapDepositorInfo[_account].bidTimeStamp = now;\n\n            totalStakingDeposit = totalStakingDeposit.add(_deposit);\n            // emit depositor info \n            emit StoremanGroupDepositLogger(_account, _deposit, now, _deposit, totalStakingDeposit); \n        }       \n    }\n\n    /// @notice                         to confirm final valid staker\n    /// @param _accountArray            the address array of staker\n    function setSmgStakerInfo(address[] memory _accountArray) \n    public\n    onlyOwner\n    notHalted\n    {\n        require((!isReachedMaxDeposit) && (now > stakingEndTime), \"Invalid staker setting operation\");\n\n        if(SCStatus.StakerElection != scStatus){\n            scStatus = SCStatus.StakerElection;\n        }\n\n        for(uint i = 0; i < _accountArray.length; i++){\n            if(isReachedMaxDeposit){\n                break;\n            }\n\n            address account = _accountArray[i];\n            require((address(0) != account) && (MIN_DEPOSIT <= mapDepositorInfo[account].deposit), \"Invalid staker info\");  \n            require((0 == mapDepositorInfo[account].stakerRank) && (0 == mapDepositorInfo[account].stakerQuota), \"Invalid staker info\"); \n\n            uint finalDeposit = mapDepositorInfo[account].deposit;\n\n            uint valideQuota;\n            if(finalDeposit > MAX_COMMISION_BASE){\n                valideQuota = MAX_COMMISION_BASE;\n            }else{\n                valideQuota = finalDeposit;\n            }\n\n            stakerNum = stakerNum.add(1);\n            mapDepositorInfo[account].stakerQuota = valideQuota;  \n            mapDepositorInfo[account].stakerRank = stakerNum;\n\n            totalStakerQuota = totalStakerQuota.add(valideQuota);\n            totalSmgDeposit = totalSmgDeposit.add(finalDeposit);\n\n            if(totalSmgDeposit >= MAX_DEPOSIT_SUM){\n                isReachedMaxDeposit = true;\n            }\n\n            //emit final staker info\n            emit StoremanGroupStakerLogger(account, finalDeposit, valideQuota, stakerNum, totalSmgDeposit);\n        }\n    }\n\n    /// @notice                         to inject lottery bonus \n    /// @param _lotterNum               the numbler of total lotter\n    function injectLotteryBonus(uint256 _lotterNum)\n    public\n    payable\n    notHalted\n    onlyOwner\n    {\n        require((msg.value > 0) && (_lotterNum > 0), \"Invalid lottery info, please confirm lottery bonus\");  \n        require(address(0) != locatedLotteryAddr, \"Invalid lottery instance\");\n\n        totalLotteryBonus = totalLotteryBonus.add(msg.value);\n\n        bytes4 methodId = bytes4(keccak256(\"setSmgLotteryInfo(uint256,uint256)\"));\n        bool res = locatedLotteryAddr.call(methodId, totalLotteryBonus, _lotterNum);\n        require(res, \"setSmgLotteryInfo failed\");\n\n        emit StoremanGroupInjectLotteryBonusLogger(msg.sender, msg.value, totalLotteryBonus, _lotterNum);\n    }\n\n    /// @notice                         to inject smg bonus \n    function injectSmgBonus()\n    public\n    payable\n    notHalted\n    onlyOwner\n    {\n        require(msg.value > 0, \"Invalid bonus\");\n        totalBonus = totalBonus.add(msg.value);\n        bonusPerUnit = totalBonus.mul(DEFAULT_PRECISE).div(totalStakerQuota);\n\n        emit StoremanGroupInjectSmgBonusLogger(msg.sender, msg.value, totalBonus);\n    }\n\n    /// @notice                         to set lotter bonus for depositor\n    /// @param _accountArray            the array of lotter address\n    /// @param _bonus                   the bonus from lottery \n    /// @param _rank                    the rank of bonus  \n    function setSmgLotterInfo(address[] memory _accountArray, uint256 _bonus, uint256 _rank) \n    public\n    onlyOwner\n    notHalted\n    {\n        require((now > stakingEndTime) && (totalLotteryBonus > 0) && isReachedMaxDeposit, \"Not allowed to lotter just now\");\n        require((totalLotteryBonus.sub(distributedLotterBonus)) >= (_bonus.mul(_accountArray.length)), \"There is no enough bonus for lottery\");\n        require((0 != _rank) && (0 != _bonus), \"Invalid lotter bonus\");\n\n        for(uint i = 0; i < _accountArray.length; i++){\n            address account = _accountArray[i];\n\n            require(address(0) != account, \"Invalid account\");\n            require((0 != mapDepositorInfo[account].deposit) && (0 == mapDepositorInfo[account].stakerRank), \"Invalid lotter info\");\n            require((0 == mapDepositorInfo[account].lotterBonus) && (0 == mapDepositorInfo[account].lotterRank), \"Invalid lotter info\");\n\n            mapDepositorInfo[account].lotterBonus = _bonus;\n            mapDepositorInfo[account].lotterRank = _rank;\n\n            uint lotterAsset = mapDepositorInfo[account].deposit.add(mapDepositorInfo[account].lotterBonus);\n\n            mapDepositorInfo[account].hasRevoked = true; \n            distributedLotterBonus = distributedLotterBonus.add(_bonus);\n\n            //emit lottery info\n            account.transfer(lotterAsset);\n            emit StoremanGroupLotteryLogger(account, mapDepositorInfo[account].deposit, _bonus, _rank);\n        }     \n\n    }\n\n    /// @notice                         to inject lottery bonus \n    function finishLottery()\n    public\n    onlyOwner\n    notHalted\n    {\n        scStatus = SCStatus.Lottery;\n    }\n\n    /// @notice                         to withdraw depositor's assert that deposit and bonus\n    /// @param _accountArray            the array of depositors address \n    function revokeDepositorsAsset(address[] memory _accountArray)\n    public\n    notHalted\n    onlyOwner\n    {\n        require(scStatus == SCStatus.Lottery, \"Cannot revoke non-staker's asset now\");\n\n        for(uint i = 0; i < _accountArray.length; i++){\n            address account = _accountArray[i];\n\n            require((address(0) != account) && (0 != mapDepositorInfo[account].deposit), \"Invalid depositor info\");        \n            require((0 == mapDepositorInfo[account].stakerRank) && (false == mapDepositorInfo[account].hasRevoked), \"Invalid depositor info\");\n\n            mapDepositorInfo[account].hasRevoked = true;\n\n            account.transfer(mapDepositorInfo[account].deposit); \n            emit DepositorRefeemAssertLogger(account, mapDepositorInfo[account].deposit, mapDepositorInfo[account].lotterBonus);\n        }\n\n    }\n\n    /// @notice                         to inject lottery bonus \n    function finishDepositorAssetRevoke()\n    public\n    onlyOwner\n    notHalted\n    {\n        scStatus = SCStatus.Initial;\n    }\n\n    /// @notice                         to withdraw depositor's assert that deposit and bonus\n    /// @param _stakerArray             the array of staker address\n    function revokeStakersAsset(address[] memory _stakerArray)\n    public\n    notHalted\n    onlyOwner\n    {\n        require(totalBonus > 0, \"The Bonus from bund hasn't injected\");\n        require((now > runningEndTime) && (scStatus == SCStatus.Withdrawed), \"Cannot revoke staker's asset now\");\n\n        for(uint i = 0; i < _stakerArray.length; i++){\n            address account = _stakerArray[i];\n            \n            require((address(0) != account) && (0 != mapDepositorInfo[account].deposit), \"Invalid acount address\");        \n            require((0 != mapDepositorInfo[account].stakerRank) && (false == mapDepositorInfo[account].hasRevoked), \"Invalid staker info\"); \n\n            // to count the commision of this staker\n            mapDepositorInfo[account].stakerBonus = (mapDepositorInfo[account].stakerQuota).mul(bonusPerUnit).div(DEFAULT_PRECISE);        \n\n            uint stakerAsset = mapDepositorInfo[account].deposit.add(mapDepositorInfo[account].stakerBonus);\n            mapDepositorInfo[account].hasRevoked = true; \n\n            // to update the record of totalSmgDeposit, totalBonus \n            require(totalSmgDeposit >= (mapDepositorInfo[account].deposit), \"There is not enough deposit left for deposit revoking\");\n            totalSmgDeposit = totalSmgDeposit.sub(mapDepositorInfo[account].deposit);\n\n            require(totalBonus >= (mapDepositorInfo[account].stakerBonus), \"There is not enough bonus left for bonus dispatch\");\n            totalBonus = totalBonus.sub(mapDepositorInfo[account].stakerBonus);\n         \n            account.transfer(stakerAsset); \n            emit StakerRefeemAssetLogger(account, mapDepositorInfo[account].deposit, mapDepositorInfo[account].stakerBonus);\n        }\n    }\n\n    /// @notice                         to withdraw depositor's assert that deposit and bonus\n    function finishStakersAssetRevoke()\n    public\n    onlyOwner\n    notHalted\n    {\n        scStatus = SCStatus.WorkDone;\n    }\n\n    /// @notice                            function for storeman registration, this method should be invoked by the storemanGroup himself\n    /// @param _tokenOrigAddr              token address of original chain\n    /// @param _originalChainAddr          the storeman group info on original chain\n    /// @param _txFeeRatio                 the transaction fee required by storeman group  \n    function applyRegisterSmgToAdmin(address _tokenOrigAddr, address _originalChainAddr, uint256 _txFeeRatio, uint256 _deposit)\n    public\n    onlyOwner\n    notHalted\n    {\n        require((address(0) != locatedMpcAddr) && (_tokenOrigAddr != address(0)) && (_originalChainAddr != address(0)), \"Invalid token address\");\n        require((now > stakingEndTime) && ((now < runningEndTime) || (0 == runningEndTime)), \"cannot regist smg to admin now\");\n        require((SCStatus.Initial == scStatus) || (SCStatus.Registered == scStatus), \"the smg statu cannot support regist now\");\n        require(this.balance >= _deposit, \"Invalid smg balance\");\n        require(totalSmgDeposit >= depositedQuota.add(_deposit), \"not enough depoist for register smg to admin\");\n\n        if(SCStatus.Withdrawed == mapTokenSmgStatus[_tokenOrigAddr].statu){\n            require(mapTokenSmgStatus[_tokenOrigAddr].deposit == mapTokenSmgStatus[_tokenOrigAddr].revokeQuota, \"this token has taken an inaccuracy deposit revoke before \");\n        }else{\n            require(SCStatus.Invalid == mapTokenSmgStatus[_tokenOrigAddr].statu, \"this token type is listed by the smg by now\");\n        }\n\n        bytes4 methodId = bytes4(keccak256(\"storemanGroupRegisterByDelegate(address,address,address,uint256)\"));\n        bool res = storemanGroupAdmin.call.value(_deposit)(methodId, _tokenOrigAddr,locatedMpcAddr,_originalChainAddr,_txFeeRatio);\n        require(res, \"storemanGroupRegister failed\");\n\n        depositedQuota = depositedQuota.add(_deposit);\n        totalTokenTypeNum = totalTokenTypeNum.add(1);\n\n        mapTokenSmgStatus[_tokenOrigAddr].deposit = _deposit;\n        mapTokenSmgStatus[_tokenOrigAddr].statu = SCStatus.Registered;\n        mapTokenSmgStatus[_tokenOrigAddr].revokeQuota = 0;\n\n        scStatus = SCStatus.Registered;\n\n        emit StoremanGroupApplyRegisterLogger(storemanGroupAdmin, _tokenOrigAddr, locatedMpcAddr, _originalChainAddr, _deposit, _txFeeRatio);        \n    }\n \n    /// @notice                            function for storemanGroup applying unregister (needed to confirm further)\n    /// @param _objectSmgAddr              address of smg which used to accept debt\n    /// @param _tokenOrigAddr              address of token on original chain \n    /// @param _locatedMpcEthAddr          address of MPC eth address \n    /// @param _xHash                      hash of random number x\n    /// @param _value                      debt value that needed to transfer  \n    function applySmgDebtTransfer(address _objectSmgAddr, address _tokenOrigAddr, address _locatedMpcEthAddr, bytes32 _xHash, uint256 _value)\n    public\n    notHalted\n    onlyOwner\n    {\n        require((address(0) != _locatedMpcEthAddr) && (address(0) != _objectSmgAddr) && (address(0) != _tokenOrigAddr), \"Invalid address value!\");\n        require((_value > 0) && (bytes32(0) != _xHash), \"Invalid hash(X) or debt value, please check again!\");\n        require((now > runningEndTime) && (scStatus == SCStatus.Registered), \"Do not transfer smg's debt right now\");\n\n        emit StoremanGroupDebtTransferLogger(_objectSmgAddr, _tokenOrigAddr, _locatedMpcEthAddr, _xHash, _value);     \n    }\n\n    /// @notice                            function for storemanGroup applying unregister\n    /// @param _tokenOrigAddr              token address of original chain \n    function applyUnregisterSmgFromAdmin(address _tokenOrigAddr)\n    public\n    notHalted\n    onlyOwner\n    {\n        require((address(0) != locatedMpcAddr) && (address(0) != _tokenOrigAddr), \"Invalid token original chain address\");\n        require((now > runningEndTime) && (SCStatus.Registered == mapTokenSmgStatus[_tokenOrigAddr].statu), \"cannot unregister smg now\");\n\n        bytes4 methodId = bytes4(keccak256(\"smgApplyUnregisterByDelegate(address,address)\"));\n        bool res = storemanGroupAdmin.call(methodId, _tokenOrigAddr, locatedMpcAddr);\n        require(res, \"smgApplyUnregisterByDelegate failed\");\n\n        mapTokenSmgStatus[_tokenOrigAddr].statu = SCStatus.Unregistered;\n\n        emit StoremanGroupApplyUnRegisterLogger(storemanGroupAdmin, _tokenOrigAddr, locatedMpcAddr);     \n    }\n\n\n    /// @notice                           to withdraw storeman group's deposit\n    /// @param _tokenOrigAddr             token address of original chain\n    function withDrawSmgFromAdmin(address _tokenOrigAddr)\n    public\n    notHalted\n    onlyOwner\n    {\n        require((address(0) != locatedMpcAddr) && (address(0) != _tokenOrigAddr), \"Invalid token original chain address\");\n        require((now > runningEndTime) && (SCStatus.Unregistered == mapTokenSmgStatus[_tokenOrigAddr].statu), \"cannot withdraw smg now\");\n        uint preBalance = this.balance;\n\n        bytes4 methodId = bytes4(keccak256(\"smgWithdrawDepositByDelegate(address,address)\"));\n        bool res = storemanGroupAdmin.call(methodId, _tokenOrigAddr, locatedMpcAddr);\n        require(res, \"smgWithdrawDepositByDelegate failed\");  \n\n        uint aftBalance = this.balance;\n        uint revokedDeposit = aftBalance.sub(preBalance);\n\n        depositedQuota = depositedQuota.sub(revokedDeposit);\n        totalTokenTypeNum = totalTokenTypeNum.sub(1);\n\n        mapTokenSmgStatus[_tokenOrigAddr].statu = SCStatus.Withdrawed;\n        mapTokenSmgStatus[_tokenOrigAddr].revokeQuota = revokedDeposit;\n\n        if(0 == totalTokenTypeNum){ \n            scStatus = SCStatus.Withdrawed;\n        }\n\n        emit StoremanGroupRefeemDepositLogger(storemanGroupAdmin, _tokenOrigAddr, locatedMpcAddr, revokedDeposit, depositedQuota);\n    }\n\n    /// @notice function for destroy contract\n    function kill() \n    public\n    isHalted\n    onlyOwner\n    {   \n        require(scStatus == SCStatus.WorkDone, \"cannot destruct smg now\");\n        selfdestruct(owner);\n    } \n\n}\n\n",
  "sourcePath": "/home/lzhang/wanchain/wanchain-crosschain-contracts/contracts/StoremanGroup.sol",
  "compiler": {
    "name": "solc",
    "version": "0.4.24+commit.e67f0147.Emscripten.clang"
  },
  "schemaVersion": "3.0.19",
  "updatedAt": "2019-11-20T12:13:19.953Z",
  "devdoc": {
    "methods": {
      "InjectDependencies(address,address,address)": {
        "params": {
          "_smgAdmin": "smg admin address",
          "_smgLottery": "smg lottery sc address",
          "_smgRegAddr": "the storeman group register address"
        }
      },
      "applyRegisterSmgToAdmin(address,address,uint256,uint256)": {
        "params": {
          "_originalChainAddr": "the storeman group info on original chain",
          "_tokenOrigAddr": "token address of original chain",
          "_txFeeRatio": "the transaction fee required by storeman group  "
        }
      },
      "applySmgDebtTransfer(address,address,address,bytes32,uint256)": {
        "params": {
          "_locatedMpcEthAddr": "address of MPC eth address ",
          "_objectSmgAddr": "address of smg which used to accept debt",
          "_tokenOrigAddr": "address of token on original chain ",
          "_value": "debt value that needed to transfer  ",
          "_xHash": "hash of random number x"
        }
      },
      "applyUnregisterSmgFromAdmin(address)": {
        "params": {
          "_tokenOrigAddr": "token address of original chain "
        }
      },
      "changeOwner(address)": {
        "params": {
          "_newOwner": "The address of the new owner. 0x0 can be used to create  an unowned neutral vault, however that cannot be undone"
        }
      },
      "injectLotteryBonus(uint256)": {
        "params": {
          "_lotterNum": "the numbler of total lotter"
        }
      },
      "revokeDepositorsAsset(address[])": {
        "params": {
          "_accountArray": "the array of depositors address "
        }
      },
      "revokeStakersAsset(address[])": {
        "params": {
          "_stakerArray": "the array of staker address"
        }
      },
      "setSmgLotterInfo(address[],uint256,uint256)": {
        "params": {
          "_accountArray": "the array of lotter address",
          "_bonus": "the bonus from lottery ",
          "_rank": "the rank of bonus  "
        }
      },
      "setSmgRunningTime(uint256,uint256)": {
        "params": {
          "_runningStartTime": "smg running start time"
        }
      },
      "setSmgStakerInfo(address[])": {
        "params": {
          "_accountArray": "the address array of staker"
        }
      },
      "setSmgStakingTime(uint256,uint256)": {
        "params": {
          "_stakingEndTime": "staking end time ",
          "_stakingStartTime": "staking start time"
        }
      },
      "withDrawSmgFromAdmin(address)": {
        "params": {
          "_tokenOrigAddr": "token address of original chain"
        }
      }
    }
  },
  "userdoc": {
    "methods": {
      "InjectDependencies(address,address,address)": {
        "notice": "for setting smg admin"
      },
      "applyRegisterSmgToAdmin(address,address,uint256,uint256)": {
        "notice": "function for storeman registration, this method should be invoked by the storemanGroup himself"
      },
      "applySmgDebtTransfer(address,address,address,bytes32,uint256)": {
        "notice": "function for storemanGroup applying unregister (needed to confirm further)"
      },
      "applyUnregisterSmgFromAdmin(address)": {
        "notice": "function for storemanGroup applying unregister"
      },
      "changeOwner(address)": {
        "notice": "`owner` can step down and assign some other address to this role"
      },
      "finishDepositorAssetRevoke()": {
        "notice": "to inject lottery bonus "
      },
      "finishLottery()": {
        "notice": "to inject lottery bonus "
      },
      "finishStakersAssetRevoke()": {
        "notice": "to withdraw depositor's assert that deposit and bonus"
      },
      "injectLotteryBonus(uint256)": {
        "notice": "to inject lottery bonus "
      },
      "injectSmgBonus()": {
        "notice": "to inject smg bonus "
      },
      "kill()": {
        "notice": "function for destroy contract"
      },
      "revokeDepositorsAsset(address[])": {
        "notice": "to withdraw depositor's assert that deposit and bonus"
      },
      "revokeStakersAsset(address[])": {
        "notice": "to withdraw depositor's assert that deposit and bonus"
      },
      "setHalt(bool)": {
        "notice": "function Emergency situation that requires contribution period to stop or not."
      },
      "setSmgLotterInfo(address[],uint256,uint256)": {
        "notice": "to set lotter bonus for depositor"
      },
      "setSmgRunningTime(uint256,uint256)": {
        "notice": "for setting start and stop time for running phase"
      },
      "setSmgStakerInfo(address[])": {
        "notice": "to confirm final valid staker"
      },
      "setSmgStakingTime(uint256,uint256)": {
        "notice": "for setting start and stop time for staking phase"
      },
      "withDrawSmgFromAdmin(address)": {
        "notice": "to withdraw storeman group's deposit"
      }
    }
  }
}