{
  "contractName": "TokenManager",
  "abi": [
    {
      "constant": true,
      "inputs": [
        {
          "name": "",
          "type": "address"
        }
      ],
      "name": "mapCandidateInfo",
      "outputs": [
        {
          "name": "isApproved",
          "type": "bool"
        },
        {
          "name": "name",
          "type": "bytes"
        },
        {
          "name": "symbol",
          "type": "bytes"
        },
        {
          "name": "decimals",
          "type": "uint8"
        },
        {
          "name": "token2WanRatio",
          "type": "uint256"
        },
        {
          "name": "minDeposit",
          "type": "uint256"
        },
        {
          "name": "withdrawDelayTime",
          "type": "uint256"
        }
      ],
      "payable": false,
      "stateMutability": "view",
      "type": "function"
    },
    {
      "constant": true,
      "inputs": [
        {
          "name": "",
          "type": "address"
        }
      ],
      "name": "mapPenaltyReceiver",
      "outputs": [
        {
          "name": "",
          "type": "address"
        }
      ],
      "payable": false,
      "stateMutability": "view",
      "type": "function"
    },
    {
      "constant": true,
      "inputs": [],
      "name": "MIN_WITHDRAW_WINDOW",
      "outputs": [
        {
          "name": "",
          "type": "uint256"
        }
      ],
      "payable": false,
      "stateMutability": "view",
      "type": "function"
    },
    {
      "constant": true,
      "inputs": [],
      "name": "DEFAULT_BONUS_PERIOD_BLOCKS",
      "outputs": [
        {
          "name": "",
          "type": "uint256"
        }
      ],
      "payable": false,
      "stateMutability": "view",
      "type": "function"
    },
    {
      "constant": true,
      "inputs": [],
      "name": "quotaLedger",
      "outputs": [
        {
          "name": "",
          "type": "address"
        }
      ],
      "payable": false,
      "stateMutability": "view",
      "type": "function"
    },
    {
      "constant": false,
      "inputs": [],
      "name": "acceptOwnership",
      "outputs": [],
      "payable": false,
      "stateMutability": "nonpayable",
      "type": "function"
    },
    {
      "constant": true,
      "inputs": [],
      "name": "storemanGroupAdmin",
      "outputs": [
        {
          "name": "",
          "type": "address"
        }
      ],
      "payable": false,
      "stateMutability": "view",
      "type": "function"
    },
    {
      "constant": true,
      "inputs": [],
      "name": "owner",
      "outputs": [
        {
          "name": "",
          "type": "address"
        }
      ],
      "payable": false,
      "stateMutability": "view",
      "type": "function"
    },
    {
      "constant": true,
      "inputs": [],
      "name": "DEFAULT_BONUS_RATIO_FOR_DEPOSIT",
      "outputs": [
        {
          "name": "",
          "type": "uint256"
        }
      ],
      "payable": false,
      "stateMutability": "view",
      "type": "function"
    },
    {
      "constant": false,
      "inputs": [
        {
          "name": "_newOwner",
          "type": "address"
        }
      ],
      "name": "changeOwner",
      "outputs": [],
      "payable": false,
      "stateMutability": "nonpayable",
      "type": "function"
    },
    {
      "constant": true,
      "inputs": [],
      "name": "halted",
      "outputs": [
        {
          "name": "",
          "type": "bool"
        }
      ],
      "payable": false,
      "stateMutability": "view",
      "type": "function"
    },
    {
      "constant": true,
      "inputs": [],
      "name": "DEFAULT_PRECISE",
      "outputs": [
        {
          "name": "",
          "type": "uint256"
        }
      ],
      "payable": false,
      "stateMutability": "view",
      "type": "function"
    },
    {
      "constant": true,
      "inputs": [
        {
          "name": "",
          "type": "bytes32"
        }
      ],
      "name": "mapTokenInfo",
      "outputs": [
        {
          "name": "tokenOrigAddr",
          "type": "address"
        },
        {
          "name": "tokenWanAddr",
          "type": "address"
        },
        {
          "name": "token2WanRatio",
          "type": "uint256"
        },
        {
          "name": "minDeposit",
          "type": "uint256"
        },
        {
          "name": "withdrawDelayTime",
          "type": "uint256"
        },
        {
          "name": "useWhiteList",
          "type": "bool"
        },
        {
          "name": "startBonusBlk",
          "type": "uint256"
        },
        {
          "name": "bonusTotal",
          "type": "uint256"
        },
        {
          "name": "bonusPeriodBlks",
          "type": "uint256"
        },
        {
          "name": "bonusRatio",
          "type": "uint256"
        }
      ],
      "payable": false,
      "stateMutability": "view",
      "type": "function"
    },
    {
      "constant": true,
      "inputs": [],
      "name": "newOwner",
      "outputs": [
        {
          "name": "",
          "type": "address"
        }
      ],
      "payable": false,
      "stateMutability": "view",
      "type": "function"
    },
    {
      "constant": true,
      "inputs": [],
      "name": "wanHtlc",
      "outputs": [
        {
          "name": "",
          "type": "address"
        }
      ],
      "payable": false,
      "stateMutability": "view",
      "type": "function"
    },
    {
      "constant": true,
      "inputs": [],
      "name": "MIN_DEPOSIT",
      "outputs": [
        {
          "name": "",
          "type": "uint256"
        }
      ],
      "payable": false,
      "stateMutability": "view",
      "type": "function"
    },
    {
      "constant": false,
      "inputs": [
        {
          "name": "halt",
          "type": "bool"
        }
      ],
      "name": "setHalt",
      "outputs": [],
      "payable": false,
      "stateMutability": "nonpayable",
      "type": "function"
    },
    {
      "constant": true,
      "inputs": [],
      "name": "origHtlc",
      "outputs": [
        {
          "name": "",
          "type": "address"
        }
      ],
      "payable": false,
      "stateMutability": "view",
      "type": "function"
    },
    {
      "constant": true,
      "inputs": [
        {
          "name": "",
          "type": "address"
        }
      ],
      "name": "mapKey",
      "outputs": [
        {
          "name": "",
          "type": "bytes32"
        }
      ],
      "payable": false,
      "stateMutability": "view",
      "type": "function"
    },
    {
      "payable": true,
      "stateMutability": "payable",
      "type": "fallback"
    },
    {
      "anonymous": false,
      "inputs": [
        {
          "indexed": true,
          "name": "tokenOrigAddr",
          "type": "address"
        },
        {
          "indexed": true,
          "name": "tokenWanAddr",
          "type": "address"
        },
        {
          "indexed": true,
          "name": "ratio",
          "type": "uint256"
        },
        {
          "indexed": false,
          "name": "minDeposit",
          "type": "uint256"
        },
        {
          "indexed": false,
          "name": "origHtlc",
          "type": "address"
        },
        {
          "indexed": false,
          "name": "wanHtlc",
          "type": "address"
        },
        {
          "indexed": false,
          "name": "withdrawDelayTime",
          "type": "uint256"
        },
        {
          "indexed": false,
          "name": "tokenHash",
          "type": "bytes32"
        }
      ],
      "name": "TokenAddedLogger",
      "type": "event"
    },
    {
      "anonymous": false,
      "inputs": [
        {
          "indexed": true,
          "name": "tokenOrigAddr",
          "type": "address"
        },
        {
          "indexed": true,
          "name": "ratio",
          "type": "uint256"
        },
        {
          "indexed": true,
          "name": "minDeposit",
          "type": "uint256"
        },
        {
          "indexed": false,
          "name": "withdrawDelayTime",
          "type": "uint256"
        },
        {
          "indexed": false,
          "name": "name",
          "type": "bytes"
        },
        {
          "indexed": false,
          "name": "symbol",
          "type": "bytes"
        },
        {
          "indexed": false,
          "name": "decimals",
          "type": "uint8"
        }
      ],
      "name": "CandidateAddedLogger",
      "type": "event"
    },
    {
      "constant": true,
      "inputs": [
        {
          "name": "tokenOrigAddr",
          "type": "address"
        }
      ],
      "name": "isTokenRegistered",
      "outputs": [
        {
          "name": "",
          "type": "bool"
        }
      ],
      "payable": false,
      "stateMutability": "view",
      "type": "function"
    },
    {
      "constant": false,
      "inputs": [
        {
          "name": "storemanGroupAdminAddr",
          "type": "address"
        },
        {
          "name": "quotaLedgerAddr",
          "type": "address"
        },
        {
          "name": "origHtlcAddr",
          "type": "address"
        },
        {
          "name": "wanHtlcAddr",
          "type": "address"
        }
      ],
      "name": "injectDependencies",
      "outputs": [],
      "payable": false,
      "stateMutability": "nonpayable",
      "type": "function"
    },
    {
      "constant": false,
      "inputs": [
        {
          "name": "tokenOrigAddr",
          "type": "address"
        },
        {
          "name": "ratio",
          "type": "uint256"
        },
        {
          "name": "minDeposit",
          "type": "uint256"
        },
        {
          "name": "withdrawDelayTime",
          "type": "uint256"
        },
        {
          "name": "name",
          "type": "bytes"
        },
        {
          "name": "symbol",
          "type": "bytes"
        },
        {
          "name": "decimals",
          "type": "uint8"
        }
      ],
      "name": "addCandidate",
      "outputs": [],
      "payable": false,
      "stateMutability": "nonpayable",
      "type": "function"
    },
    {
      "constant": false,
      "inputs": [
        {
          "name": "tokenOrigAddr",
          "type": "address"
        }
      ],
      "name": "removeCandidate",
      "outputs": [],
      "payable": false,
      "stateMutability": "nonpayable",
      "type": "function"
    },
    {
      "constant": false,
      "inputs": [
        {
          "name": "tokenOrigAddr",
          "type": "address"
        }
      ],
      "name": "addToken",
      "outputs": [],
      "payable": false,
      "stateMutability": "nonpayable",
      "type": "function"
    },
    {
      "constant": false,
      "inputs": [
        {
          "name": "tokenOrigAddr",
          "type": "address"
        },
        {
          "name": "ratio",
          "type": "uint256"
        },
        {
          "name": "delayTime",
          "type": "uint256"
        },
        {
          "name": "bonusRatio",
          "type": "uint256"
        },
        {
          "name": "penaltyReceiver",
          "type": "address"
        }
      ],
      "name": "setTokenEconomics",
      "outputs": [],
      "payable": false,
      "stateMutability": "nonpayable",
      "type": "function"
    },
    {
      "constant": false,
      "inputs": [
        {
          "name": "tokenOrigAddr",
          "type": "address"
        },
        {
          "name": "enableUserWhiteList",
          "type": "bool"
        }
      ],
      "name": "setSmgEnableUserWhiteList",
      "outputs": [],
      "payable": false,
      "stateMutability": "nonpayable",
      "type": "function"
    },
    {
      "constant": false,
      "inputs": [
        {
          "name": "tokenOrigAddr",
          "type": "address"
        },
        {
          "name": "isSystemBonusPeriod",
          "type": "bool"
        },
        {
          "name": "systemBonusPeriod",
          "type": "uint256"
        }
      ],
      "name": "setSystemEnableBonus",
      "outputs": [],
      "payable": false,
      "stateMutability": "nonpayable",
      "type": "function"
    },
    {
      "constant": false,
      "inputs": [
        {
          "name": "tokenOrigAddr",
          "type": "address"
        },
        {
          "name": "bonus",
          "type": "uint256"
        },
        {
          "name": "isAdded",
          "type": "bool"
        }
      ],
      "name": "updateTotalBonus",
      "outputs": [
        {
          "name": "",
          "type": "bool"
        }
      ],
      "payable": false,
      "stateMutability": "nonpayable",
      "type": "function"
    },
    {
      "constant": false,
      "inputs": [],
      "name": "kill",
      "outputs": [],
      "payable": false,
      "stateMutability": "nonpayable",
      "type": "function"
    }
  ],
  "bytecode": "0x608060405260018060146101000a81548160ff021916908315150217905550336000806101000a81548173ffffffffffffffffffffffffffffffffffffffff021916908373ffffffffffffffffffffffffffffffffffffffff16021790555061401d8061006d6000396000f30060806040526004361062000193576000357c0100000000000000000000000000000000000000000000000000000000900463ffffffff16806303ab256b146200019857806304169f36146200021c578063216c4f18146200037a57806326aa101f146200047757806327022caf14620004d557806336936380146200055b5780633e363fc514620005895780634025416514620005b757806341c0e1b514620006115780635a95d084146200062b5780635ea09d5e146200067d5780636dd091f914620006f157806379ba50971462000737578063820413f314620007515780638da5cb5b14620007ab5780639d3a77fa1462000805578063a6f9dae11462000833578063ab63acd71462000879578063b9b8af0b146200091f578063bd4901671462000951578063bfbcb918146200097f578063d48bfca71462000a62578063d4ee1d901462000aa8578063dee8287e1462000b02578063e166d5ff1462000b5c578063e1e158a51462000bb8578063f49543871462000be6578063fa9e34801462000c18578063ff63e84b1462000c72575b600080fd5b348015620001a557600080fd5b506200021a600480360381019080803573ffffffffffffffffffffffffffffffffffffffff169060200190929190803590602001909291908035906020019092919080359060200190929190803573ffffffffffffffffffffffffffffffffffffffff16906020019092919050505062000cd4565b005b3480156200022957600080fd5b5062000260600480360381019080803573ffffffffffffffffffffffffffffffffffffffff16906020019092919050505062000ec2565b604051808815151515815260200180602001806020018760ff1660ff168152602001868152602001858152602001848152602001838103835289818151815260200191508051906020019080838360005b83811015620002ce578082015181840152602081019050620002b1565b50505050905090810190601f168015620002fc5780820380516001836020036101000a031916815260200191505b50838103825288818151815260200191508051906020019080838360005b83811015620003375780820151818401526020810190506200031a565b50505050905090810190601f168015620003655780820380516001836020036101000a031916815260200191505b50995050505050505050505060405180910390f35b3480156200038757600080fd5b5062000475600480360381019080803573ffffffffffffffffffffffffffffffffffffffff169060200190929190803590602001909291908035906020019092919080359060200190929190803590602001908201803590602001908080601f0160208091040260200160405190810160405280939291908181526020018383808284378201915050505050509192919290803590602001908201803590602001908080601f0160208091040260200160405190810160405280939291908181526020018383808284378201915050505050509192919290803560ff16906020019092919050505062001056565b005b3480156200048457600080fd5b50620004bb600480360381019080803573ffffffffffffffffffffffffffffffffffffffff169060200190929190505050620013e2565b604051808215151515815260200191505060405180910390f35b348015620004e257600080fd5b5062000519600480360381019080803573ffffffffffffffffffffffffffffffffffffffff169060200190929190505050620014b0565b604051808273ffffffffffffffffffffffffffffffffffffffff1673ffffffffffffffffffffffffffffffffffffffff16815260200191505060405180910390f35b3480156200056857600080fd5b5062000573620014e3565b6040518082815260200191505060405180910390f35b3480156200059657600080fd5b50620005a1620014ea565b6040518082815260200191505060405180910390f35b348015620005c457600080fd5b50620005cf620014f0565b604051808273ffffffffffffffffffffffffffffffffffffffff1673ffffffffffffffffffffffffffffffffffffffff16815260200191505060405180910390f35b3480156200061e57600080fd5b506200062962001516565b005b3480156200063857600080fd5b506200067b600480360381019080803573ffffffffffffffffffffffffffffffffffffffff169060200190929190803515159060200190929190505050620015c8565b005b3480156200068a57600080fd5b50620006d7600480360381019080803573ffffffffffffffffffffffffffffffffffffffff16906020019092919080359060200190929190803515159060200190929190505050620016b4565b604051808215151515815260200191505060405180910390f35b348015620006fe57600080fd5b5062000735600480360381019080803573ffffffffffffffffffffffffffffffffffffffff169060200190929190505050620017da565b005b3480156200074457600080fd5b506200074f6200191c565b005b3480156200075e57600080fd5b5062000769620019d8565b604051808273ffffffffffffffffffffffffffffffffffffffff1673ffffffffffffffffffffffffffffffffffffffff16815260200191505060405180910390f35b348015620007b857600080fd5b50620007c3620019fe565b604051808273ffffffffffffffffffffffffffffffffffffffff1673ffffffffffffffffffffffffffffffffffffffff16815260200191505060405180910390f35b3480156200081257600080fd5b506200081d62001a23565b6040518082815260200191505060405180910390f35b3480156200084057600080fd5b5062000877600480360381019080803573ffffffffffffffffffffffffffffffffffffffff16906020019092919050505062001a28565b005b3480156200088657600080fd5b506200091d600480360381019080803573ffffffffffffffffffffffffffffffffffffffff169060200190929190803573ffffffffffffffffffffffffffffffffffffffff169060200190929190803573ffffffffffffffffffffffffffffffffffffffff169060200190929190803573ffffffffffffffffffffffffffffffffffffffff16906020019092919050505062001ac8565b005b3480156200092c57600080fd5b506200093762001d35565b604051808215151515815260200191505060405180910390f35b3480156200095e57600080fd5b506200096962001d48565b6040518082815260200191505060405180910390f35b3480156200098c57600080fd5b50620009b1600480360381019080803560001916906020019092919050505062001d4e565b604051808b73ffffffffffffffffffffffffffffffffffffffff1673ffffffffffffffffffffffffffffffffffffffff1681526020018a73ffffffffffffffffffffffffffffffffffffffff1673ffffffffffffffffffffffffffffffffffffffff168152602001898152602001888152602001878152602001861515151581526020018581526020018481526020018381526020018281526020019a505050505050505050505060405180910390f35b34801562000a6f57600080fd5b5062000aa6600480360381019080803573ffffffffffffffffffffffffffffffffffffffff16906020019092919050505062001def565b005b34801562000ab557600080fd5b5062000ac062002639565b604051808273ffffffffffffffffffffffffffffffffffffffff1673ffffffffffffffffffffffffffffffffffffffff16815260200191505060405180910390f35b34801562000b0f57600080fd5b5062000b1a6200265f565b604051808273ffffffffffffffffffffffffffffffffffffffff1673ffffffffffffffffffffffffffffffffffffffff16815260200191505060405180910390f35b34801562000b6957600080fd5b5062000bb6600480360381019080803573ffffffffffffffffffffffffffffffffffffffff1690602001909291908035151590602001909291908035906020019092919050505062002685565b005b34801562000bc557600080fd5b5062000bd0620027a0565b6040518082815260200191505060405180910390f35b34801562000bf357600080fd5b5062000c16600480360381019080803515159060200190929190505050620027ac565b005b34801562000c2557600080fd5b5062000c3062002825565b604051808273ffffffffffffffffffffffffffffffffffffffff1673ffffffffffffffffffffffffffffffffffffffff16815260200191505060405180910390f35b34801562000c7f57600080fd5b5062000cb6600480360381019080803573ffffffffffffffffffffffffffffffffffffffff1690602001909291905050506200284b565b60405180826000191660001916815260200191505060405180910390f35b60008060009054906101000a900473ffffffffffffffffffffffffffffffffffffffff1673ffffffffffffffffffffffffffffffffffffffff163373ffffffffffffffffffffffffffffffffffffffff1614151562000d3257600080fd5b62000d3d86620013e2565b151562000d4957600080fd5b60008511151562000d5957600080fd5b60008411151562000d6957600080fd5b60008311801562000d7c57506127108311155b151562000d8857600080fd5b600073ffffffffffffffffffffffffffffffffffffffff168273ffffffffffffffffffffffffffffffffffffffff161415151562000dc557600080fd5b60076000600660008973ffffffffffffffffffffffffffffffffffffffff1673ffffffffffffffffffffffffffffffffffffffff1681526020019081526020016000205460001916600019168152602001908152602001600020905084816002018190555083816004018190555082816009018190555081600960008873ffffffffffffffffffffffffffffffffffffffff1673ffffffffffffffffffffffffffffffffffffffff16815260200190815260200160002060006101000a81548173ffffffffffffffffffffffffffffffffffffffff021916908373ffffffffffffffffffffffffffffffffffffffff160217905550505050505050565b60086020528060005260406000206000915090508060000160009054906101000a900460ff1690806001018054600181600116156101000203166002900480601f01602080910402602001604051908101604052809291908181526020018280546001816001161561010002031660029004801562000f855780601f1062000f595761010080835404028352916020019162000f85565b820191906000526020600020905b81548152906001019060200180831162000f6757829003601f168201915b505050505090806002018054600181600116156101000203166002900480601f016020809104026020016040519081016040528092919081815260200182805460018160011615610100020316600290048015620010275780601f1062000ffb5761010080835404028352916020019162001027565b820191906000526020600020905b8154815290600101906020018083116200100957829003601f168201915b5050505050908060030160009054906101000a900460ff16908060040154908060050154908060060154905087565b6000809054906101000a900473ffffffffffffffffffffffffffffffffffffffff1673ffffffffffffffffffffffffffffffffffffffff163373ffffffffffffffffffffffffffffffffffffffff16141515620010b257600080fd5b600860008873ffffffffffffffffffffffffffffffffffffffff1673ffffffffffffffffffffffffffffffffffffffff16815260200190815260200160002060000160009054906101000a900460ff161515156200110f57600080fd5b6000861115156200111f57600080fd5b678ac7230489e8000085101515156200113757600080fd5b6203f48084101515156200114a57600080fd5b60008351141515156200115c57600080fd5b60008251141515156200116e57600080fd5b60008160ff16141515156200118257600080fd5b60e0604051908101604052806001151581526020018481526020018381526020018260ff16815260200187815260200186815260200185815250600860008973ffffffffffffffffffffffffffffffffffffffff1673ffffffffffffffffffffffffffffffffffffffff16815260200190815260200160002060008201518160000160006101000a81548160ff021916908315150217905550602082015181600101908051906020019062001239929190620028a7565b50604082015181600201908051906020019062001258929190620028a7565b5060608201518160030160006101000a81548160ff021916908360ff1602179055506080820151816004015560a0820151816005015560c0820151816006015590505084868873ffffffffffffffffffffffffffffffffffffffff167f4588b7bb13bad7af5920ca4a6c972e36ceaa37638df67a1a4452c3c750f7f9c8878787876040518085815260200180602001806020018460ff1660ff168152602001838103835286818151815260200191508051906020019080838360005b838110156200133157808201518184015260208101905062001314565b50505050905090810190601f1680156200135f5780820380516001836020036101000a031916815260200191505b50838103825285818151815260200191508051906020019080838360005b838110156200139a5780820151818401526020810190506200137d565b50505050905090810190601f168015620013c85780820380516001836020036101000a031916815260200191505b50965050505050505060405180910390a450505050505050565b60008060076000600660008673ffffffffffffffffffffffffffffffffffffffff1673ffffffffffffffffffffffffffffffffffffffff16815260200190815260200160002054600019166000191681526020019081526020016000209050600073ffffffffffffffffffffffffffffffffffffffff168160010160009054906101000a900473ffffffffffffffffffffffffffffffffffffffff1673ffffffffffffffffffffffffffffffffffffffff1614158015620014a857506000816002015414155b915050919050565b60096020528060005260406000206000915054906101000a900473ffffffffffffffffffffffffffffffffffffffff1681565b6203f48081565b6121c081565b600360009054906101000a900473ffffffffffffffffffffffffffffffffffffffff1681565b6000809054906101000a900473ffffffffffffffffffffffffffffffffffffffff1673ffffffffffffffffffffffffffffffffffffffff163373ffffffffffffffffffffffffffffffffffffffff161415156200157257600080fd5b600160149054906101000a900460ff1615156200158e57600080fd5b6000809054906101000a900473ffffffffffffffffffffffffffffffffffffffff1673ffffffffffffffffffffffffffffffffffffffff16ff5b6000809054906101000a900473ffffffffffffffffffffffffffffffffffffffff1673ffffffffffffffffffffffffffffffffffffffff163373ffffffffffffffffffffffffffffffffffffffff161415156200162457600080fd5b6200162f82620013e2565b15156200163b57600080fd5b8060076000600660008673ffffffffffffffffffffffffffffffffffffffff1673ffffffffffffffffffffffffffffffffffffffff168152602001908152602001600020546000191660001916815260200190815260200160002060050160006101000a81548160ff0219169083151502179055505050565b600080600260009054906101000a900473ffffffffffffffffffffffffffffffffffffffff1673ffffffffffffffffffffffffffffffffffffffff163373ffffffffffffffffffffffffffffffffffffffff161415156200171457600080fd5b6200171f85620013e2565b15156200172b57600080fd5b60076000600660008873ffffffffffffffffffffffffffffffffffffffff1673ffffffffffffffffffffffffffffffffffffffff1681526020019081526020016000205460001916600019168152602001908152602001600020905082620017ac57620017a68482600701546200286390919063ffffffff16565b620017c6565b620017c58482600701546200288590919063ffffffff16565b5b816007018190555060019150509392505050565b60008060009054906101000a900473ffffffffffffffffffffffffffffffffffffffff1673ffffffffffffffffffffffffffffffffffffffff163373ffffffffffffffffffffffffffffffffffffffff161415156200183857600080fd5b600860008373ffffffffffffffffffffffffffffffffffffffff1673ffffffffffffffffffffffffffffffffffffffff16815260200190815260200160002090508060000160009054906101000a900460ff1615156200189757600080fd5b60008160000160006101000a81548160ff02191690831515021790555060008160010181620018c791906200292e565b5060008160020181620018db91906200292e565b5060008160030160006101000a81548160ff021916908360ff1602179055506000816004018190555060008160050181905550600081600601819055505050565b600160009054906101000a900473ffffffffffffffffffffffffffffffffffffffff1673ffffffffffffffffffffffffffffffffffffffff163373ffffffffffffffffffffffffffffffffffffffff161415620019d657600160009054906101000a900473ffffffffffffffffffffffffffffffffffffffff166000806101000a81548173ffffffffffffffffffffffffffffffffffffffff021916908373ffffffffffffffffffffffffffffffffffffffff1602179055505b565b600260009054906101000a900473ffffffffffffffffffffffffffffffffffffffff1681565b6000809054906101000a900473ffffffffffffffffffffffffffffffffffffffff1681565b601481565b6000809054906101000a900473ffffffffffffffffffffffffffffffffffffffff1673ffffffffffffffffffffffffffffffffffffffff163373ffffffffffffffffffffffffffffffffffffffff1614151562001a8457600080fd5b80600160006101000a81548173ffffffffffffffffffffffffffffffffffffffff021916908373ffffffffffffffffffffffffffffffffffffffff16021790555050565b6000809054906101000a900473ffffffffffffffffffffffffffffffffffffffff1673ffffffffffffffffffffffffffffffffffffffff163373ffffffffffffffffffffffffffffffffffffffff1614151562001b2457600080fd5b600160149054906101000a900460ff16151562001b4057600080fd5b600073ffffffffffffffffffffffffffffffffffffffff168473ffffffffffffffffffffffffffffffffffffffff161415801562001bab5750600073ffffffffffffffffffffffffffffffffffffffff168373ffffffffffffffffffffffffffffffffffffffff1614155b801562001be55750600073ffffffffffffffffffffffffffffffffffffffff168273ffffffffffffffffffffffffffffffffffffffff1614155b801562001c1f5750600073ffffffffffffffffffffffffffffffffffffffff168173ffffffffffffffffffffffffffffffffffffffff1614155b151562001c2b57600080fd5b83600260006101000a81548173ffffffffffffffffffffffffffffffffffffffff021916908373ffffffffffffffffffffffffffffffffffffffff16021790555082600360006101000a81548173ffffffffffffffffffffffffffffffffffffffff021916908373ffffffffffffffffffffffffffffffffffffffff16021790555081600460006101000a81548173ffffffffffffffffffffffffffffffffffffffff021916908373ffffffffffffffffffffffffffffffffffffffff16021790555080600560006101000a81548173ffffffffffffffffffffffffffffffffffffffff021916908373ffffffffffffffffffffffffffffffffffffffff16021790555050505050565b600160149054906101000a900460ff1681565b61271081565b60076020528060005260406000206000915090508060000160009054906101000a900473ffffffffffffffffffffffffffffffffffffffff16908060010160009054906101000a900473ffffffffffffffffffffffffffffffffffffffff16908060020154908060030154908060040154908060050160009054906101000a900460ff1690806006015490806007015490806008015490806009015490508a565b60008060008073ffffffffffffffffffffffffffffffffffffffff16600460009054906101000a900473ffffffffffffffffffffffffffffffffffffffff1673ffffffffffffffffffffffffffffffffffffffff161415801562001ea25750600073ffffffffffffffffffffffffffffffffffffffff16600560009054906101000a900473ffffffffffffffffffffffffffffffffffffffff1673ffffffffffffffffffffffffffffffffffffffff1614155b151562001eae57600080fd5b600860008573ffffffffffffffffffffffffffffffffffffffff1673ffffffffffffffffffffffffffffffffffffffff16815260200190815260200160002092508260000160009054906101000a900460ff16151562001f0d57600080fd5b8383600101846002018560030160009054906101000a900460ff16604051808573ffffffffffffffffffffffffffffffffffffffff1673ffffffffffffffffffffffffffffffffffffffff166c010000000000000000000000000281526014018480546001816001161561010002031660029004801562001fc85780601f1062001fa557610100808354040283529182019162001fc8565b820191906000526020600020905b81548152906001019060200180831162001fb3575b505083805460018160011615610100020316600290048015620020255780601f106200200257610100808354040283529182019162002025565b820191906000526020600020905b81548152906001019060200180831162002010575b50508260ff1660ff167f010000000000000000000000000000000000000000000000000000000000000002815260010194505050505060405180910390209150600073ffffffffffffffffffffffffffffffffffffffff1660076000846000191660001916815260200190815260200160002060000160009054906101000a900473ffffffffffffffffffffffffffffffffffffffff1673ffffffffffffffffffffffffffffffffffffffff161480156200214a5750600073ffffffffffffffffffffffffffffffffffffffff1660076000846000191660001916815260200190815260200160002060010160009054906101000a900473ffffffffffffffffffffffffffffffffffffffff1673ffffffffffffffffffffffffffffffffffffffff16145b15156200215657600080fd5b600360009054906101000a900473ffffffffffffffffffffffffffffffffffffffff1683600101846002018560030160009054906101000a900460ff166200219d62002a02565b808573ffffffffffffffffffffffffffffffffffffffff1673ffffffffffffffffffffffffffffffffffffffff16815260200180602001806020018460ff1660ff168152602001838103835286818154600181600116156101000203166002900481526020019150805460018160011615610100020316600290048015620022695780601f106200223d5761010080835404028352916020019162002269565b820191906000526020600020905b8154815290600101906020018083116200224b57829003601f168201915b5050838103825285818154600181600116156101000203166002900481526020019150805460018160011615610100020316600290048015620022f05780601f10620022c457610100808354040283529160200191620022f0565b820191906000526020600020905b815481529060010190602001808311620022d257829003601f168201915b50509650505050505050604051809103906000f08015801562002317573d6000803e3d6000fd5b509050610140604051908101604052808573ffffffffffffffffffffffffffffffffffffffff1681526020018273ffffffffffffffffffffffffffffffffffffffff16815260200184600401548152602001846005015481526020018460060154815260200160011515815260200160008152602001600081526020016121c08152602001601481525060076000846000191660001916815260200190815260200160002060008201518160000160006101000a81548173ffffffffffffffffffffffffffffffffffffffff021916908373ffffffffffffffffffffffffffffffffffffffff16021790555060208201518160010160006101000a81548173ffffffffffffffffffffffffffffffffffffffff021916908373ffffffffffffffffffffffffffffffffffffffff16021790555060408201518160020155606082015181600301556080820151816004015560a08201518160050160006101000a81548160ff02191690831515021790555060c0820151816006015560e082015181600701556101008201518160080155610120820151816009015590505081600660008673ffffffffffffffffffffffffffffffffffffffff1673ffffffffffffffffffffffffffffffffffffffff168152602001908152602001600020816000191690555082600401548173ffffffffffffffffffffffffffffffffffffffff168573ffffffffffffffffffffffffffffffffffffffff167f3662e9e3dcd91ede39c017a90af1706bd2fb405f52ced022ef94ba448cc5ff9b8660050154600460009054906101000a900473ffffffffffffffffffffffffffffffffffffffff16600560009054906101000a900473ffffffffffffffffffffffffffffffffffffffff16896006015489604051808681526020018573ffffffffffffffffffffffffffffffffffffffff1673ffffffffffffffffffffffffffffffffffffffff1681526020018473ffffffffffffffffffffffffffffffffffffffff1673ffffffffffffffffffffffffffffffffffffffff16815260200183815260200182600019166000191681526020019550505050505060405180910390a450505050565b600160009054906101000a900473ffffffffffffffffffffffffffffffffffffffff1681565b600560009054906101000a900473ffffffffffffffffffffffffffffffffffffffff1681565b60008060009054906101000a900473ffffffffffffffffffffffffffffffffffffffff1673ffffffffffffffffffffffffffffffffffffffff163373ffffffffffffffffffffffffffffffffffffffff16141515620026e357600080fd5b620026ee84620013e2565b1515620026fa57600080fd5b60076000600660008773ffffffffffffffffffffffffffffffffffffffff1673ffffffffffffffffffffffffffffffffffffffff16815260200190815260200160002054600019166000191681526020019081526020016000209050826200276457600062002766565b435b8160060181905550826200277d576121c062002792565b600082116200278f576121c062002791565b815b5b816008018190555050505050565b678ac7230489e8000081565b6000809054906101000a900473ffffffffffffffffffffffffffffffffffffffff1673ffffffffffffffffffffffffffffffffffffffff163373ffffffffffffffffffffffffffffffffffffffff161415156200280857600080fd5b80600160146101000a81548160ff02191690831515021790555050565b600460009054906101000a900473ffffffffffffffffffffffffffffffffffffffff1681565b60066020528060005260406000206000915090505481565b6000808383111515156200287657600080fd5b82840390508091505092915050565b60008082840190508381101515156200289d57600080fd5b8091505092915050565b828054600181600116156101000203166002900490600052602060002090601f016020900481019282601f10620028ea57805160ff19168380011785556200291b565b828001600101855582156200291b579182015b828111156200291a578251825591602001919060010190620028fd565b5b5090506200292a919062002a13565b5090565b81546001816001161561010002031660029004825481601f106200298d5782601f1062002971575b826008026101000360020a80910402828001178355620029fd565b60ff1916836000526020600020558180016001018355620029fd565b82601f10620029c1575082600052602060002080549082601f0160209004810190620029ba919062002a13565b5062002956565b50818001600101835581811115620029fd57601f016020900481601f01602090048360005260206000209182019101620029fc919062002a13565b5b505050565b6040516115b68062002a3c83390190565b62002a3891905b8082111562002a3457600081600090555060010162002a1a565b5090565b90560060806040523480156200001157600080fd5b50604051620015b6380380620015b68339810180604052810190808051906020019092919080518201929190602001805182019291906020018051906020019092919050505033600360006101000a81548173ffffffffffffffffffffffffffffffffffffffff021916908373ffffffffffffffffffffffffffffffffffffffff1602179055508260059080519060200190620000b092919062000130565b508160069080519060200190620000c992919062000130565b5080600760006101000a81548160ff021916908360ff16021790555083600760016101000a81548173ffffffffffffffffffffffffffffffffffffffff021916908373ffffffffffffffffffffffffffffffffffffffff16021790555050505050620001df565b828054600181600116156101000203166002900490600052602060002090601f016020900481019282601f106200017357805160ff1916838001178555620001a4565b82800160010185558215620001a4579182015b82811115620001a357825182559160200191906001019062000186565b5b509050620001b39190620001b7565b5090565b620001dc91905b80821115620001d8576000816000905550600101620001be565b5090565b90565b6113c780620001ef6000396000f3006080604052600436106100e6576000357c0100000000000000000000000000000000000000000000000000000000900463ffffffff16806306fdde03146100eb578063095ea7b31461017b57806318160ddd146101e057806323b872dd1461020b578063313ce5671461029057806340254165146102c157806340c10f191461031857806370a082311461037d57806379ba5097146103d45780638da5cb5b146103eb57806395d89b41146104425780639dc29fac146104d2578063a6f9dae114610537578063a9059cbb1461057a578063d4ee1d90146105df578063dd62ed3e14610636575b600080fd5b3480156100f757600080fd5b506101006106ad565b6040518080602001828103825283818151815260200191508051906020019080838360005b83811015610140578082015181840152602081019050610125565b50505050905090810190601f16801561016d5780820380516001836020036101000a031916815260200191505b509250505060405180910390f35b34801561018757600080fd5b506101c6600480360381019080803573ffffffffffffffffffffffffffffffffffffffff1690602001909291908035906020019092919050505061074b565b604051808215151515815260200191505060405180910390f35b3480156101ec57600080fd5b506101f56108e9565b6040518082815260200191505060405180910390f35b34801561021757600080fd5b50610276600480360381019080803573ffffffffffffffffffffffffffffffffffffffff169060200190929190803573ffffffffffffffffffffffffffffffffffffffff169060200190929190803590602001909291905050506108ef565b604051808215151515815260200191505060405180910390f35b34801561029c57600080fd5b506102a5610b78565b604051808260ff1660ff16815260200191505060405180910390f35b3480156102cd57600080fd5b506102d6610b8b565b604051808273ffffffffffffffffffffffffffffffffffffffff1673ffffffffffffffffffffffffffffffffffffffff16815260200191505060405180910390f35b34801561032457600080fd5b50610363600480360381019080803573ffffffffffffffffffffffffffffffffffffffff16906020019092919080359060200190929190505050610bb1565b604051808215151515815260200191505060405180910390f35b34801561038957600080fd5b506103be600480360381019080803573ffffffffffffffffffffffffffffffffffffffff169060200190929190505050610d5d565b6040518082815260200191505060405180910390f35b3480156103e057600080fd5b506103e9610da6565b005b3480156103f757600080fd5b50610400610e62565b604051808273ffffffffffffffffffffffffffffffffffffffff1673ffffffffffffffffffffffffffffffffffffffff16815260200191505060405180910390f35b34801561044e57600080fd5b50610457610e88565b6040518080602001828103825283818151815260200191508051906020019080838360005b8381101561049757808201518184015260208101905061047c565b50505050905090810190601f1680156104c45780820380516001836020036101000a031916815260200191505b509250505060405180910390f35b3480156104de57600080fd5b5061051d600480360381019080803573ffffffffffffffffffffffffffffffffffffffff16906020019092919080359060200190929190505050610f26565b604051808215151515815260200191505060405180910390f35b34801561054357600080fd5b50610578600480360381019080803573ffffffffffffffffffffffffffffffffffffffff169060200190929190505050611096565b005b34801561058657600080fd5b506105c5600480360381019080803573ffffffffffffffffffffffffffffffffffffffff16906020019092919080359060200190929190505050611136565b604051808215151515815260200191505060405180910390f35b3480156105eb57600080fd5b506105f46112ac565b604051808273ffffffffffffffffffffffffffffffffffffffff1673ffffffffffffffffffffffffffffffffffffffff16815260200191505060405180910390f35b34801561064257600080fd5b50610697600480360381019080803573ffffffffffffffffffffffffffffffffffffffff169060200190929190803573ffffffffffffffffffffffffffffffffffffffff1690602001909291905050506112d2565b6040518082815260200191505060405180910390f35b60058054600181600116156101000203166002900480601f0160208091040260200160405190810160405280929190818152602001828054600181600116156101000203166002900480156107435780601f1061071857610100808354040283529160200191610743565b820191906000526020600020905b81548152906001019060200180831161072657829003601f168201915b505050505081565b600060406004810160003690501015151561076557600080fd5b60008314806107f057506000600260003373ffffffffffffffffffffffffffffffffffffffff1673ffffffffffffffffffffffffffffffffffffffff16815260200190815260200160002060008673ffffffffffffffffffffffffffffffffffffffff1673ffffffffffffffffffffffffffffffffffffffff16815260200190815260200160002054145b15156107f857fe5b82600260003373ffffffffffffffffffffffffffffffffffffffff1673ffffffffffffffffffffffffffffffffffffffff16815260200190815260200160002060008673ffffffffffffffffffffffffffffffffffffffff1673ffffffffffffffffffffffffffffffffffffffff168152602001908152602001600020819055508373ffffffffffffffffffffffffffffffffffffffff163373ffffffffffffffffffffffffffffffffffffffff167f8c5be1e5ebec7d5bd14f71427d1e84f3dd0314c0f7b2291e5b200ac8c7c3b925856040518082815260200191505060405180910390a3600191505092915050565b60005481565b600060606004810160003690501015151561090957600080fd5b82600160008773ffffffffffffffffffffffffffffffffffffffff1673ffffffffffffffffffffffffffffffffffffffff16815260200190815260200160002054101580156109d4575082600260008773ffffffffffffffffffffffffffffffffffffffff1673ffffffffffffffffffffffffffffffffffffffff16815260200190815260200160002060003373ffffffffffffffffffffffffffffffffffffffff1673ffffffffffffffffffffffffffffffffffffffff1681526020019081526020016000205410155b15610b6b5782600160008673ffffffffffffffffffffffffffffffffffffffff1673ffffffffffffffffffffffffffffffffffffffff1681526020019081526020016000206000828254019250508190555082600160008773ffffffffffffffffffffffffffffffffffffffff1673ffffffffffffffffffffffffffffffffffffffff1681526020019081526020016000206000828254039250508190555082600260008773ffffffffffffffffffffffffffffffffffffffff1673ffffffffffffffffffffffffffffffffffffffff16815260200190815260200160002060003373ffffffffffffffffffffffffffffffffffffffff1673ffffffffffffffffffffffffffffffffffffffff168152602001908152602001600020600082825403925050819055508373ffffffffffffffffffffffffffffffffffffffff168573ffffffffffffffffffffffffffffffffffffffff167fddf252ad1be2c89b69c2b068fc378daa952ba7f163c4a11628f55a4df523b3ef856040518082815260200191505060405180910390a360019150610b70565b600091505b509392505050565b600760009054906101000a900460ff1681565b600760019054906101000a900473ffffffffffffffffffffffffffffffffffffffff1681565b60003373ffffffffffffffffffffffffffffffffffffffff16600760019054906101000a900473ffffffffffffffffffffffffffffffffffffffff1673ffffffffffffffffffffffffffffffffffffffff16141515610c0f57600080fd5b81600081111515610c1f57600080fd5b600073ffffffffffffffffffffffffffffffffffffffff168473ffffffffffffffffffffffffffffffffffffffff1614151515610c5b57600080fd5b610cad83600160008773ffffffffffffffffffffffffffffffffffffffff1673ffffffffffffffffffffffffffffffffffffffff1681526020019081526020016000205461135990919063ffffffff16565b600160008673ffffffffffffffffffffffffffffffffffffffff1673ffffffffffffffffffffffffffffffffffffffff16815260200190815260200160002081905550610d058360005461135990919063ffffffff16565b600081905550600054838573ffffffffffffffffffffffffffffffffffffffff167f7893e7349ff8aa213bd66ac2d4c9ef7963470812c4e3b68bf3b8b5462e9a1cc560405160405180910390a4600191505092915050565b6000600160008373ffffffffffffffffffffffffffffffffffffffff1673ffffffffffffffffffffffffffffffffffffffff168152602001908152602001600020549050919050565b600460009054906101000a900473ffffffffffffffffffffffffffffffffffffffff1673ffffffffffffffffffffffffffffffffffffffff163373ffffffffffffffffffffffffffffffffffffffff161415610e6057600460009054906101000a900473ffffffffffffffffffffffffffffffffffffffff16600360006101000a81548173ffffffffffffffffffffffffffffffffffffffff021916908373ffffffffffffffffffffffffffffffffffffffff1602179055505b565b600360009054906101000a900473ffffffffffffffffffffffffffffffffffffffff1681565b60068054600181600116156101000203166002900480601f016020809104026020016040519081016040528092919081815260200182805460018160011615610100020316600290048015610f1e5780601f10610ef357610100808354040283529160200191610f1e565b820191906000526020600020905b815481529060010190602001808311610f0157829003601f168201915b505050505081565b60003373ffffffffffffffffffffffffffffffffffffffff16600760019054906101000a900473ffffffffffffffffffffffffffffffffffffffff1673ffffffffffffffffffffffffffffffffffffffff16141515610f8457600080fd5b81600081111515610f9457600080fd5b610fe683600160008773ffffffffffffffffffffffffffffffffffffffff1673ffffffffffffffffffffffffffffffffffffffff1681526020019081526020016000205461137a90919063ffffffff16565b600160008673ffffffffffffffffffffffffffffffffffffffff1673ffffffffffffffffffffffffffffffffffffffff1681526020019081526020016000208190555061103e8360005461137a90919063ffffffff16565b600081905550600054838573ffffffffffffffffffffffffffffffffffffffff167f56fc86ee777405ddec3a5dda6bf4e515c8d93bc8f71fea38174019f505d9168860405160405180910390a4600191505092915050565b600360009054906101000a900473ffffffffffffffffffffffffffffffffffffffff1673ffffffffffffffffffffffffffffffffffffffff163373ffffffffffffffffffffffffffffffffffffffff161415156110f257600080fd5b80600460006101000a81548173ffffffffffffffffffffffffffffffffffffffff021916908373ffffffffffffffffffffffffffffffffffffffff16021790555050565b600060406004810160003690501015151561115057600080fd5b82600160003373ffffffffffffffffffffffffffffffffffffffff1673ffffffffffffffffffffffffffffffffffffffff168152602001908152602001600020541015156112a05782600160003373ffffffffffffffffffffffffffffffffffffffff1673ffffffffffffffffffffffffffffffffffffffff1681526020019081526020016000206000828254039250508190555082600160008673ffffffffffffffffffffffffffffffffffffffff1673ffffffffffffffffffffffffffffffffffffffff168152602001908152602001600020600082825401925050819055508373ffffffffffffffffffffffffffffffffffffffff163373ffffffffffffffffffffffffffffffffffffffff167fddf252ad1be2c89b69c2b068fc378daa952ba7f163c4a11628f55a4df523b3ef856040518082815260200191505060405180910390a3600191506112a5565b600091505b5092915050565b600460009054906101000a900473ffffffffffffffffffffffffffffffffffffffff1681565b6000600260008473ffffffffffffffffffffffffffffffffffffffff1673ffffffffffffffffffffffffffffffffffffffff16815260200190815260200160002060008373ffffffffffffffffffffffffffffffffffffffff1673ffffffffffffffffffffffffffffffffffffffff16815260200190815260200160002054905092915050565b600080828401905083811015151561137057600080fd5b8091505092915050565b60008083831115151561138c57600080fd5b828403905080915050929150505600a165627a7a72305820f1a9ba109027d4ff2190d57e826d0a7737bec76c42703e9d9e45145c993fb3c20029a165627a7a723058205992f7b9b2440e17691a6bdbdd2901ac530b28cab4e4f4ee47c906ae554b7f7e0029",
  "source": "/*\n\n  Copyright 2018 Wanchain Foundation.\n\n  Licensed under the Apache License, Version 2.0 (the \"License\");\n  you may not use this file except in compliance with the License.\n  You may obtain a copy of the License at\n\n  http://www.apache.org/licenses/LICENSE-2.0\n\n  Unless required by applicable law or agreed to in writing, software\n  distributed under the License is distributed on an \"AS IS\" BASIS,\n  WITHOUT WARRANTIES OR CONDITIONS OF ANY KIND, either express or implied.\n  See the License for the specific language governing permissions and\n  limitations under the License.\n\n*/\n\n//                            _           _           _            \n//  __      ____ _ _ __   ___| |__   __ _(_)_ __   __| | _____   __\n//  \\ \\ /\\ / / _` | '_ \\ / __| '_ \\ / _` | | '_ \\@/ _` |/ _ \\ \\ / /\n//   \\ V  V / (_| | | | | (__| | | | (_| | | | | | (_| |  __/\\ V / \n//    \\_/\\_/ \\__,_|_| |_|\\___|_| |_|\\__,_|_|_| |_|\\__,_|\\___| \\_/  \n//    \n//  Code style according to: https://github.com/wanchain/wanchain-token/blob/master/style-guide.rst\n\npragma solidity ^0.4.24;\n\n/**\n * Math operations with safety checks\n */\n\nimport \"./Halt.sol\";\nimport \"./WanToken.sol\";\nimport \"./SafeMath.sol\";\n\ncontract TokenManager is Halt {\n    using SafeMath for uint;\n\n    /************************************************************\n     **\n     ** VARIABLES\n     **\n     ************************************************************/\n\n    /// a period of block numbers in which bonus is calculated and rewarded to storeman groups\n    uint public constant DEFAULT_BONUS_PERIOD_BLOCKS = 6 * 60 * 24;\n    /// default bonus ratio, in percentage of deposit\n    uint public constant DEFAULT_BONUS_RATIO_FOR_DEPOSIT = 20;\n    /// default precision\n    uint public constant DEFAULT_PRECISE = 10000;\n    /// a time period after which a storeman group could confirm unregistration\n    uint public constant MIN_WITHDRAW_WINDOW = 60 * 60 * 72;\n    /// default minimum deposit to register a storeman group\n    uint public constant MIN_DEPOSIT = 10 ether;\n\n    /// storemanGroupAdmin instance address\n    address public storemanGroupAdmin;\n    /// quotaLedger instance address\n    address public quotaLedger;   \n    /// htlc contract instance address of orginal blockchain chain\n    address public origHtlc;\n    /// htlc contract instance address of wanchain\n    address public wanHtlc;\n\n    /// a map from ERC20 token addresses to keccak256 hash key\n    mapping(address => bytes32) public mapKey; \n    /// a map from ERC20 token addresses to registered-token information \n    mapping(bytes32 => TokenInfo) public mapTokenInfo; \n    /// a map from ERC20 token addresses to candidate token information\n    mapping(address => CandidateInfo) public mapCandidateInfo;\n    /// a map from ERC20 token addresses to corresponding penalty receiver addresses \n    mapping(address => address) public mapPenaltyReceiver;\n\n    struct TokenInfo {\n        address            tokenOrigAddr;       /// ERC20 token address on Ethereum mainnet\n        address            tokenWanAddr;        /// a wanchain address of supported ERC20 token\n        uint               token2WanRatio;      /// 1 ERC20 token valuated in wan coins\n        uint               minDeposit;          /// the minimum deposit for a valid storeman group\n        uint               withdrawDelayTime;   /// the delay time for withdrawing deposit after storeman group applied unregistration\n        bool               useWhiteList;        /// if the storeman group address is in white list if the storeman register is controlled\n        uint               startBonusBlk;       /// the beginning blk number for system bonus\n        uint               bonusTotal;          /// the total bonus provided from issuer\n        uint               bonusPeriodBlks;     /// the bonus period in block numbers\n        uint               bonusRatio;          /// the bonus ratio deposit*ratio/precise\n    }\n\n    struct CandidateInfo {\n        bool               isApproved;          /// indicate whether this ERC20 token been approved\n        bytes              name;                /// WERC20 token name on wanchain mainnet\n        bytes              symbol;              /// WERC20 token symbol on wanchain mainnet\n        uint8              decimals;            /// WERC20 token decimals on wanchain mainnet\n        uint               token2WanRatio;      /// 1 ERC20 token valuated in wan coins\n        uint               minDeposit;          /// the minimum deposit for a valid storeman group\n        uint               withdrawDelayTime;   /// the delay time for withdrawing deposit after storeman group applied unregistration\n    }\n\n    /************************************************************\n     **\n     ** EVENTS\n     **\n     ************************************************************/\n\n    /// @notice                      event for token registration\n    /// @dev                         event for token registration\n    /// @param tokenOrigAddr         token address of original chain\n    /// @param tokenWanAddr          a wanchain address of supported ERC20 token\n    /// @param ratio                 coin Exchange ratio,such as ethereum 1 eth:880 WANs,the precision is 10000,the ratio is 880,0000\n    /// @param minDeposit            the default min deposit\n    /// @param origHtlc              htlc contract instance address of orginal blockchain chain\n    /// @param wanHtlc               htlc contract instance address of wanchain  \n    /// @param withdrawDelayTime     storeman unregister delay time\n    /// @param tokenHash             keccak256 hash of token's name, symbol and decimals\n    event TokenAddedLogger(address indexed tokenOrigAddr, address indexed tokenWanAddr, uint indexed ratio, uint minDeposit, address origHtlc, address wanHtlc, uint withdrawDelayTime, bytes32 tokenHash);\n\n\n    /// @notice                      event for update a specific token's status in tokenRegWhiteList\n    /// @dev                         event for update a specific token's status in tokenRegWhiteList\n    /// @param tokenOrigAddr         token address of original chain\n    /// @param ratio                 coin Exchange ratio,such as ethereum 1 eth:880 WANs,the precision is 10000,the ratio is 880,0000\n    /// @param minDeposit            the default minimum deposit\n    /// @param name                  tokenOrigAddr name to be used in wanchain\n    /// @param symbol                tokenOrigAddr symbol to beused in wanchain\n    /// @param decimals              tokenOrigAddr decimals\n    event CandidateAddedLogger(address indexed tokenOrigAddr, uint indexed ratio, uint indexed minDeposit, uint withdrawDelayTime, bytes name, bytes symbol, uint8 decimals);\n  \n    /****************************************************************************\n     **\n     ** MANIPULATIONS\n     **\n     ****************************************************************************/\n\n    /// @notice                      check if a tokenOrigAddr has been supported\n    /// @dev                         check if a tokenOrigAddr has been supported\n    /// @param tokenOrigAddr         address of tokenOrigAddr to be added\n    function isTokenRegistered(address tokenOrigAddr)\n        public\n        view\n        returns (bool)\n    {\n        TokenInfo storage tokenInfo = mapTokenInfo[mapKey[tokenOrigAddr]];\n        \n        return tokenInfo.tokenWanAddr != address(0) && tokenInfo.token2WanRatio != 0;\n    }\n\n    /// @notice                      set interdependent contracts\n    /// @dev                         set interdependent contracts\n    /// @param quotaLedgerAddr       quotaLedger contract instance address\n    /// @param origHtlcAddr          htlc address of original blockchain\n    /// @param wanHtlcAddr           htlc address of wanchain\n    function injectDependencies(address storemanGroupAdminAddr, address quotaLedgerAddr, address origHtlcAddr, address wanHtlcAddr)\n        public\n        onlyOwner\n        isHalted\n    {\n        require(storemanGroupAdminAddr != address(0) && quotaLedgerAddr != address(0) && origHtlcAddr != address(0) && wanHtlcAddr != address(0));\n\n        storemanGroupAdmin = storemanGroupAdminAddr;\n        quotaLedger = quotaLedgerAddr;\n        origHtlc = origHtlcAddr;\n        wanHtlc = wanHtlcAddr;\n    }\n\n    /// @notice                      post an ERC20 token as a candidate for normal support \n    /// @dev                         post an ERC20 token as a candidate for normal support \n    /// @param tokenOrigAddr         token address of original chain\n    /// @param ratio                 trading ratio to wan coins\n    /// @param minDeposit            the default minimum deposit\n    /// @param withdrawDelayTime     storeman unregister delay time\n    /// @param name                  tokenOrigAddr name to be used in WanChain\n    /// @param symbol                tokenOrigAddr symbol to beused in WanChain\n    /// @param decimals              tokenOrigAddr decimals\n    function addCandidate(address tokenOrigAddr, uint ratio, uint minDeposit, uint withdrawDelayTime, bytes name, bytes symbol, uint8 decimals)\n        public\n        onlyOwner\n    {\n        require(!mapCandidateInfo[tokenOrigAddr].isApproved);\n        require(ratio > 0);\n        require(minDeposit >= MIN_DEPOSIT);\n        require(withdrawDelayTime >= MIN_WITHDRAW_WINDOW);\n        require(name.length != 0);\n        require(symbol.length != 0);\n        require(decimals != uint(0));\n\n        mapCandidateInfo[tokenOrigAddr] = CandidateInfo(true, name, symbol, decimals, ratio, minDeposit, withdrawDelayTime);     \n            \n        emit CandidateAddedLogger(tokenOrigAddr, ratio, minDeposit, withdrawDelayTime, name, symbol, decimals);\n    }\n\n    /// @notice                      remove an ERC20 token candidate\n    /// @dev                         remove an ERC20 token candidate\n    /// @param tokenOrigAddr         token address of original chain\n    function removeCandidate(address tokenOrigAddr)\n        public\n        onlyOwner\n    {\n        CandidateInfo storage candidateInfo = mapCandidateInfo[tokenOrigAddr];\n\n        require(candidateInfo.isApproved);\n\n        candidateInfo.isApproved = false;\n        candidateInfo.name.length = 0;\n        candidateInfo.symbol.length = 0;\n        candidateInfo.decimals = 0;\n        candidateInfo.token2WanRatio = 0;\n        candidateInfo.minDeposit = 0;\n        candidateInfo.withdrawDelayTime = 0;\n    }\n\n    /// @notice                      add a supported token\n    /// @dev                         add a supported token\n    /// @param tokenOrigAddr         token address of original chain\n    function addToken(address tokenOrigAddr)\n        public\n    {\n        // make sure initialization done\n        require(origHtlc != address(0) && wanHtlc != address(0));\n\n        // first round validation\n        CandidateInfo storage candidateInfo = mapCandidateInfo[tokenOrigAddr];\n        require(candidateInfo.isApproved);\n        \n        // second round validation\n        bytes32 key = keccak256(tokenOrigAddr, candidateInfo.name, candidateInfo.symbol, candidateInfo.decimals);\n        require(mapTokenInfo[key].tokenOrigAddr == address(0) && mapTokenInfo[key].tokenWanAddr == address(0)); \n\n        // generate an ERC20 token mirror instance\n        address tokenInst = new WanToken(quotaLedger, string(candidateInfo.name), string(candidateInfo.symbol), candidateInfo.decimals);\n\n        // create a new record\n        mapTokenInfo[key] = TokenInfo(tokenOrigAddr, tokenInst, candidateInfo.token2WanRatio, candidateInfo.minDeposit, candidateInfo.withdrawDelayTime, true, 0, 0, DEFAULT_BONUS_PERIOD_BLOCKS, DEFAULT_BONUS_RATIO_FOR_DEPOSIT);\n        // update token hash key\n        mapKey[tokenOrigAddr] = key;\n        \n        // fire event\n        emit TokenAddedLogger(tokenOrigAddr, tokenInst, candidateInfo.token2WanRatio, candidateInfo.minDeposit, origHtlc, wanHtlc, candidateInfo.withdrawDelayTime, key);\n    }\n\n    /// @notice                      set prams for a supported ERC20 token\n    /// @dev                         set prams for a supported ERC20 token\n    /// @param tokenOrigAddr         token address of original chain\n    /// @param ratio                 coin Exchange ratio,such as ethereum 1 eth:880 WANs,the precision is 10000,the ratio is 880,0000\n    /// @param delayTime             storeman unregister delay time\n    /// @param bonusRatio            the bonus ratio deposit*ratio/precise\n    /// @param penaltyReceiver       an address who will receive penalty\n    function setTokenEconomics(address tokenOrigAddr, uint ratio, uint delayTime, uint bonusRatio, address penaltyReceiver)    \n        public\n        onlyOwner\n    {\n        require(isTokenRegistered(tokenOrigAddr));\n        require(ratio > 0);\n        require(delayTime > 0);\n        require(bonusRatio > 0 && bonusRatio <= DEFAULT_PRECISE);\n        require(penaltyReceiver != address(0));\n\n        TokenInfo storage tokenInfo = mapTokenInfo[mapKey[tokenOrigAddr]];\n        tokenInfo.token2WanRatio = ratio;\n        tokenInfo.withdrawDelayTime = delayTime;\n        tokenInfo.bonusRatio = bonusRatio;\n        mapPenaltyReceiver[tokenOrigAddr] = penaltyReceiver;\n    }\n\n    /// @notice                      function for setting smg registering mode,control by foundation or registering freely\n    /// @dev                         function for setting smg registering mode,control by foundation or registering freely\n    /// @param tokenOrigAddr         token address of original chain\n    /// @param enableUserWhiteList   smg register mode,true controlled by foundation with white list,false register freely\n    function setSmgEnableUserWhiteList(address tokenOrigAddr, bool enableUserWhiteList)\n        public\n        onlyOwner\n    {\n        require(isTokenRegistered(tokenOrigAddr));\n        mapTokenInfo[mapKey[tokenOrigAddr]].useWhiteList = enableUserWhiteList;\n    }\n\n    /// @notice                      function for setting current system BonusPeriod\n    /// @dev                         function for setting current system BonusPeriod\n    /// @param tokenOrigAddr         token address of original chain\n    /// @param isSystemBonusPeriod   smg isSystemBonusPeriod, true controlled by foundation, false register freely\n    /// @param systemBonusPeriod     bonus Period in blocks\n    function setSystemEnableBonus(address tokenOrigAddr, bool isSystemBonusPeriod, uint systemBonusPeriod)\n        public\n        onlyOwner\n    {\n        require(isTokenRegistered(tokenOrigAddr));\n        TokenInfo storage tokenInfo = mapTokenInfo[mapKey[tokenOrigAddr]];\n        tokenInfo.startBonusBlk = isSystemBonusPeriod ? block.number : 0;\n        tokenInfo.bonusPeriodBlks = isSystemBonusPeriod ? (systemBonusPeriod > 0 ? systemBonusPeriod : DEFAULT_BONUS_PERIOD_BLOCKS) : DEFAULT_BONUS_PERIOD_BLOCKS;\n    }\n    \n    /// @notice                      function updating total bonus of a specific ERC20 token     \n    /// @dev                         function updating total bonus of a specific ERC20 token     \n    /// @param tokenOrigAddr         token address of original chain \n    /// @param bonus                 token address of original chain \n    /// @param isAdded               plus if true, else do a minus operation\n    function updateTotalBonus(address tokenOrigAddr, uint bonus, bool isAdded)\n        external\n        returns (bool)\n    {\n        require(msg.sender == storemanGroupAdmin);\n        require(isTokenRegistered(tokenOrigAddr));\n\n        TokenInfo storage tokenInfo = mapTokenInfo[mapKey[tokenOrigAddr]];\n        tokenInfo.bonusTotal = isAdded ? tokenInfo.bonusTotal.add(bonus) : tokenInfo.bonusTotal.sub(bonus);\n\n        return true;\n    }\n         \n    /// @notice                      destruct SC and transfer balance to owner\n    /// @dev                         destruct SC and transfer balance to owner\n    function kill()\n        public\n        onlyOwner\n        isHalted\n    {\n        selfdestruct(owner);\n    }\n\n    /// Fallback\n\n    /// @notice                      if WAN coin is sent to this address, send it back.\n    /// @dev                         if WAN coin is sent to this address, send it back.\n    function () \n        public\n        payable \n    {\n        revert();\n    }\n}",
  "sourcePath": "/home/lzhang/wanchain/wanchain-crosschain-contracts/contracts/TokenManager.sol",
  "compiler": {
    "name": "solc",
    "version": "0.4.24+commit.e67f0147.Emscripten.clang"
  },
  "schemaVersion": "3.0.19",
  "updatedAt": "2019-11-24T08:18:02.945Z",
  "networkType": "ethereum",
  "devdoc": {
    "methods": {
      "addCandidate(address,uint256,uint256,uint256,bytes,bytes,uint8)": {
        "details": "post an ERC20 token as a candidate for normal support ",
        "params": {
          "decimals": "tokenOrigAddr decimals",
          "minDeposit": "the default minimum deposit",
          "name": "tokenOrigAddr name to be used in WanChain",
          "ratio": "trading ratio to wan coins",
          "symbol": "tokenOrigAddr symbol to beused in WanChain",
          "tokenOrigAddr": "token address of original chain",
          "withdrawDelayTime": "storeman unregister delay time"
        }
      },
      "addToken(address)": {
        "details": "add a supported token",
        "params": {
          "tokenOrigAddr": "token address of original chain"
        }
      },
      "changeOwner(address)": {
        "params": {
          "_newOwner": "The address of the new owner. 0x0 can be used to create  an unowned neutral vault, however that cannot be undone"
        }
      },
      "injectDependencies(address,address,address,address)": {
        "details": "set interdependent contracts",
        "params": {
          "origHtlcAddr": "htlc address of original blockchain",
          "quotaLedgerAddr": "quotaLedger contract instance address",
          "wanHtlcAddr": "htlc address of wanchain"
        }
      },
      "isTokenRegistered(address)": {
        "details": "check if a tokenOrigAddr has been supported",
        "params": {
          "tokenOrigAddr": "address of tokenOrigAddr to be added"
        }
      },
      "kill()": {
        "details": "destruct SC and transfer balance to owner"
      },
      "removeCandidate(address)": {
        "details": "remove an ERC20 token candidate",
        "params": {
          "tokenOrigAddr": "token address of original chain"
        }
      },
      "setSmgEnableUserWhiteList(address,bool)": {
        "details": "function for setting smg registering mode,control by foundation or registering freely",
        "params": {
          "enableUserWhiteList": "smg register mode,true controlled by foundation with white list,false register freely",
          "tokenOrigAddr": "token address of original chain"
        }
      },
      "setSystemEnableBonus(address,bool,uint256)": {
        "details": "function for setting current system BonusPeriod",
        "params": {
          "isSystemBonusPeriod": "smg isSystemBonusPeriod, true controlled by foundation, false register freely",
          "systemBonusPeriod": "bonus Period in blocks",
          "tokenOrigAddr": "token address of original chain"
        }
      },
      "setTokenEconomics(address,uint256,uint256,uint256,address)": {
        "details": "set prams for a supported ERC20 token",
        "params": {
          "bonusRatio": "the bonus ratio deposit*ratio/precise",
          "delayTime": "storeman unregister delay time",
          "penaltyReceiver": "an address who will receive penalty",
          "ratio": "coin Exchange ratio,such as ethereum 1 eth:880 WANs,the precision is 10000,the ratio is 880,0000",
          "tokenOrigAddr": "token address of original chain"
        }
      },
      "updateTotalBonus(address,uint256,bool)": {
        "details": "function updating total bonus of a specific ERC20 token     ",
        "params": {
          "bonus": "token address of original chain ",
          "isAdded": "plus if true, else do a minus operation",
          "tokenOrigAddr": "token address of original chain "
        }
      }
    }
  },
  "userdoc": {
    "methods": {
      "addCandidate(address,uint256,uint256,uint256,bytes,bytes,uint8)": {
        "notice": "post an ERC20 token as a candidate for normal support "
      },
      "addToken(address)": {
        "notice": "add a supported token"
      },
      "changeOwner(address)": {
        "notice": "`owner` can step down and assign some other address to this role"
      },
      "injectDependencies(address,address,address,address)": {
        "notice": "set interdependent contracts"
      },
      "isTokenRegistered(address)": {
        "notice": "check if a tokenOrigAddr has been supported"
      },
      "kill()": {
        "notice": "destruct SC and transfer balance to owner"
      },
      "removeCandidate(address)": {
        "notice": "remove an ERC20 token candidate"
      },
      "setHalt(bool)": {
        "notice": "function Emergency situation that requires contribution period to stop or not."
      },
      "setSmgEnableUserWhiteList(address,bool)": {
        "notice": "function for setting smg registering mode,control by foundation or registering freely"
      },
      "setSystemEnableBonus(address,bool,uint256)": {
        "notice": "function for setting current system BonusPeriod"
      },
      "setTokenEconomics(address,uint256,uint256,uint256,address)": {
        "notice": "set prams for a supported ERC20 token"
      },
      "updateTotalBonus(address,uint256,bool)": {
        "notice": "function updating total bonus of a specific ERC20 token     "
      }
    }
  }
}